ARM GAS  C:\Users\claw541\AppData\Local\Temp\cc6dHeZM.s 			page 1


   1              		.syntax unified
   2              		.cpu cortex-m3
   3              		.fpu softvfp
   4              		.eabi_attribute 20, 1
   5              		.eabi_attribute 21, 1
   6              		.eabi_attribute 23, 3
   7              		.eabi_attribute 24, 1
   8              		.eabi_attribute 25, 1
   9              		.eabi_attribute 26, 1
  10              		.eabi_attribute 30, 6
  11              		.eabi_attribute 34, 1
  12              		.eabi_attribute 18, 4
  13              		.thumb
  14              		.file	"ADC_TempBuf_dma.c"
  15              		.text
  16              	.Ltext0:
  17              		.cfi_sections	.debug_frame
  18              		.global	ADC_TempBuf_DmaHandle
  19              		.data
  20              		.type	ADC_TempBuf_DmaHandle, %object
  21              		.size	ADC_TempBuf_DmaHandle, 1
  22              	ADC_TempBuf_DmaHandle:
  23 0000 FF       		.byte	-1
  24              		.section	.text.ADC_TempBuf_DmaInitialize,"ax",%progbits
  25              		.align	2
  26              		.global	ADC_TempBuf_DmaInitialize
  27              		.thumb
  28              		.thumb_func
  29              		.type	ADC_TempBuf_DmaInitialize, %function
  30              	ADC_TempBuf_DmaInitialize:
  31              	.LFB0:
  32              		.file 1 ".\\Generated_Source\\PSoC5\\ADC_TempBuf_dma.c"
   1:.\Generated_Source\PSoC5/ADC_TempBuf_dma.c **** /***************************************************************************
   2:.\Generated_Source\PSoC5/ADC_TempBuf_dma.c **** * File Name: ADC_TempBuf_dma.c  
   3:.\Generated_Source\PSoC5/ADC_TempBuf_dma.c **** * Version 1.70
   4:.\Generated_Source\PSoC5/ADC_TempBuf_dma.c **** *
   5:.\Generated_Source\PSoC5/ADC_TempBuf_dma.c **** *  Description:
   6:.\Generated_Source\PSoC5/ADC_TempBuf_dma.c **** *   Provides an API for the DMAC component. The API includes functions
   7:.\Generated_Source\PSoC5/ADC_TempBuf_dma.c **** *   for the DMA controller, DMA channels and Transfer Descriptors.
   8:.\Generated_Source\PSoC5/ADC_TempBuf_dma.c **** *
   9:.\Generated_Source\PSoC5/ADC_TempBuf_dma.c **** *
  10:.\Generated_Source\PSoC5/ADC_TempBuf_dma.c **** *   Note:
  11:.\Generated_Source\PSoC5/ADC_TempBuf_dma.c **** *     This module requires the developer to finish or fill in the auto
  12:.\Generated_Source\PSoC5/ADC_TempBuf_dma.c **** *     generated funcions and setup the dma channel and TD's.
  13:.\Generated_Source\PSoC5/ADC_TempBuf_dma.c **** *
  14:.\Generated_Source\PSoC5/ADC_TempBuf_dma.c **** ********************************************************************************
  15:.\Generated_Source\PSoC5/ADC_TempBuf_dma.c **** * Copyright 2008-2010, Cypress Semiconductor Corporation.  All rights reserved.
  16:.\Generated_Source\PSoC5/ADC_TempBuf_dma.c **** * You may use this file only in accordance with the license, terms, conditions, 
  17:.\Generated_Source\PSoC5/ADC_TempBuf_dma.c **** * disclaimers, and limitations in the end user license agreement accompanying 
  18:.\Generated_Source\PSoC5/ADC_TempBuf_dma.c **** * the software package with which this file was provided.
  19:.\Generated_Source\PSoC5/ADC_TempBuf_dma.c **** ********************************************************************************/
  20:.\Generated_Source\PSoC5/ADC_TempBuf_dma.c **** #include <CYLIB.H>
  21:.\Generated_Source\PSoC5/ADC_TempBuf_dma.c **** #include <CYDMAC.H>
  22:.\Generated_Source\PSoC5/ADC_TempBuf_dma.c **** #include <ADC_TempBuf_dma.H>
  23:.\Generated_Source\PSoC5/ADC_TempBuf_dma.c **** 
  24:.\Generated_Source\PSoC5/ADC_TempBuf_dma.c **** 
  25:.\Generated_Source\PSoC5/ADC_TempBuf_dma.c **** 
ARM GAS  C:\Users\claw541\AppData\Local\Temp\cc6dHeZM.s 			page 2


  26:.\Generated_Source\PSoC5/ADC_TempBuf_dma.c **** /****************************************************************************
  27:.\Generated_Source\PSoC5/ADC_TempBuf_dma.c **** * 
  28:.\Generated_Source\PSoC5/ADC_TempBuf_dma.c **** * The following defines are available in Cyfitter.h
  29:.\Generated_Source\PSoC5/ADC_TempBuf_dma.c **** * 
  30:.\Generated_Source\PSoC5/ADC_TempBuf_dma.c **** * 
  31:.\Generated_Source\PSoC5/ADC_TempBuf_dma.c **** * 
  32:.\Generated_Source\PSoC5/ADC_TempBuf_dma.c **** * ADC_TempBuf__DRQ_CTL_REG
  33:.\Generated_Source\PSoC5/ADC_TempBuf_dma.c **** * 
  34:.\Generated_Source\PSoC5/ADC_TempBuf_dma.c **** * 
  35:.\Generated_Source\PSoC5/ADC_TempBuf_dma.c **** * ADC_TempBuf__DRQ_NUMBER
  36:.\Generated_Source\PSoC5/ADC_TempBuf_dma.c **** * 
  37:.\Generated_Source\PSoC5/ADC_TempBuf_dma.c **** * Number of TD's used by this channel.
  38:.\Generated_Source\PSoC5/ADC_TempBuf_dma.c **** * ADC_TempBuf__NUMBEROF_TDS
  39:.\Generated_Source\PSoC5/ADC_TempBuf_dma.c **** * 
  40:.\Generated_Source\PSoC5/ADC_TempBuf_dma.c **** * Priority of this channel.
  41:.\Generated_Source\PSoC5/ADC_TempBuf_dma.c **** * ADC_TempBuf__PRIORITY
  42:.\Generated_Source\PSoC5/ADC_TempBuf_dma.c **** * 
  43:.\Generated_Source\PSoC5/ADC_TempBuf_dma.c **** * True if ADC_TempBuf_TERMIN_SEL is used.
  44:.\Generated_Source\PSoC5/ADC_TempBuf_dma.c **** * ADC_TempBuf__TERMIN_EN
  45:.\Generated_Source\PSoC5/ADC_TempBuf_dma.c **** * 
  46:.\Generated_Source\PSoC5/ADC_TempBuf_dma.c **** * TERMIN interrupt line to signal terminate.
  47:.\Generated_Source\PSoC5/ADC_TempBuf_dma.c **** * ADC_TempBuf__TERMIN_SEL
  48:.\Generated_Source\PSoC5/ADC_TempBuf_dma.c **** * 
  49:.\Generated_Source\PSoC5/ADC_TempBuf_dma.c **** * 
  50:.\Generated_Source\PSoC5/ADC_TempBuf_dma.c **** * True if ADC_TempBuf_TERMOUT0_SEL is used.
  51:.\Generated_Source\PSoC5/ADC_TempBuf_dma.c **** * ADC_TempBuf__TERMOUT0_EN
  52:.\Generated_Source\PSoC5/ADC_TempBuf_dma.c **** * 
  53:.\Generated_Source\PSoC5/ADC_TempBuf_dma.c **** * 
  54:.\Generated_Source\PSoC5/ADC_TempBuf_dma.c **** * TERMOUT0 interrupt line to signal completion.
  55:.\Generated_Source\PSoC5/ADC_TempBuf_dma.c **** * ADC_TempBuf__TERMOUT0_SEL
  56:.\Generated_Source\PSoC5/ADC_TempBuf_dma.c **** * 
  57:.\Generated_Source\PSoC5/ADC_TempBuf_dma.c **** * 
  58:.\Generated_Source\PSoC5/ADC_TempBuf_dma.c **** * True if ADC_TempBuf_TERMOUT1_SEL is used.
  59:.\Generated_Source\PSoC5/ADC_TempBuf_dma.c **** * ADC_TempBuf__TERMOUT1_EN
  60:.\Generated_Source\PSoC5/ADC_TempBuf_dma.c **** * 
  61:.\Generated_Source\PSoC5/ADC_TempBuf_dma.c **** * 
  62:.\Generated_Source\PSoC5/ADC_TempBuf_dma.c **** * TERMOUT1 interrupt line to signal completion.
  63:.\Generated_Source\PSoC5/ADC_TempBuf_dma.c **** * ADC_TempBuf__TERMOUT1_SEL
  64:.\Generated_Source\PSoC5/ADC_TempBuf_dma.c **** * 
  65:.\Generated_Source\PSoC5/ADC_TempBuf_dma.c **** ****************************************************************************/
  66:.\Generated_Source\PSoC5/ADC_TempBuf_dma.c **** 
  67:.\Generated_Source\PSoC5/ADC_TempBuf_dma.c **** 
  68:.\Generated_Source\PSoC5/ADC_TempBuf_dma.c **** /* Zero based index of ADC_TempBuf dma channel */
  69:.\Generated_Source\PSoC5/ADC_TempBuf_dma.c **** uint8 ADC_TempBuf_DmaHandle = DMA_INVALID_CHANNEL;
  70:.\Generated_Source\PSoC5/ADC_TempBuf_dma.c **** 
  71:.\Generated_Source\PSoC5/ADC_TempBuf_dma.c **** /*********************************************************************
  72:.\Generated_Source\PSoC5/ADC_TempBuf_dma.c **** * Function Name: uint8 ADC_TempBuf_DmaInitalize
  73:.\Generated_Source\PSoC5/ADC_TempBuf_dma.c **** **********************************************************************
  74:.\Generated_Source\PSoC5/ADC_TempBuf_dma.c **** * Summary:
  75:.\Generated_Source\PSoC5/ADC_TempBuf_dma.c **** *   Allocates and initialises a channel of the DMAC to be used by the
  76:.\Generated_Source\PSoC5/ADC_TempBuf_dma.c **** *   caller.
  77:.\Generated_Source\PSoC5/ADC_TempBuf_dma.c **** *
  78:.\Generated_Source\PSoC5/ADC_TempBuf_dma.c **** * Parameters:
  79:.\Generated_Source\PSoC5/ADC_TempBuf_dma.c **** *   BurstCount.
  80:.\Generated_Source\PSoC5/ADC_TempBuf_dma.c **** *       
  81:.\Generated_Source\PSoC5/ADC_TempBuf_dma.c **** *       
  82:.\Generated_Source\PSoC5/ADC_TempBuf_dma.c **** *   ReqestPerBurst.
ARM GAS  C:\Users\claw541\AppData\Local\Temp\cc6dHeZM.s 			page 3


  83:.\Generated_Source\PSoC5/ADC_TempBuf_dma.c **** *       
  84:.\Generated_Source\PSoC5/ADC_TempBuf_dma.c **** *       
  85:.\Generated_Source\PSoC5/ADC_TempBuf_dma.c **** *   UpperSrcAddress.
  86:.\Generated_Source\PSoC5/ADC_TempBuf_dma.c **** *       
  87:.\Generated_Source\PSoC5/ADC_TempBuf_dma.c **** *       
  88:.\Generated_Source\PSoC5/ADC_TempBuf_dma.c **** *   UpperDestAddress.
  89:.\Generated_Source\PSoC5/ADC_TempBuf_dma.c **** *       
  90:.\Generated_Source\PSoC5/ADC_TempBuf_dma.c **** *
  91:.\Generated_Source\PSoC5/ADC_TempBuf_dma.c **** * Return:
  92:.\Generated_Source\PSoC5/ADC_TempBuf_dma.c **** *   The channel that can be used by the caller for DMA activity.
  93:.\Generated_Source\PSoC5/ADC_TempBuf_dma.c **** *   DMA_INVALID_CHANNEL (0xFF) if there are no channels left. 
  94:.\Generated_Source\PSoC5/ADC_TempBuf_dma.c **** *
  95:.\Generated_Source\PSoC5/ADC_TempBuf_dma.c **** *
  96:.\Generated_Source\PSoC5/ADC_TempBuf_dma.c **** *******************************************************************/
  97:.\Generated_Source\PSoC5/ADC_TempBuf_dma.c **** uint8 ADC_TempBuf_DmaInitialize(uint8 BurstCount, uint8 ReqestPerBurst, uint16 UpperSrcAddress, uin
  98:.\Generated_Source\PSoC5/ADC_TempBuf_dma.c **** {
  33              		.loc 1 98 0
  34              		.cfi_startproc
  35              		@ args = 0, pretend = 0, frame = 8
  36              		@ frame_needed = 1, uses_anonymous_args = 0
  37 0000 90B5     		push	{r4, r7, lr}
  38              		.cfi_def_cfa_offset 12
  39              		.cfi_offset 4, -12
  40              		.cfi_offset 7, -8
  41              		.cfi_offset 14, -4
  42 0002 85B0     		sub	sp, sp, #20
  43              		.cfi_def_cfa_offset 32
  44 0004 02AF     		add	r7, sp, #8
  45              		.cfi_def_cfa 7, 24
  46 0006 0446     		mov	r4, r0
  47 0008 0846     		mov	r0, r1
  48 000a 1146     		mov	r1, r2
  49 000c 1A46     		mov	r2, r3
  50 000e 2346     		mov	r3, r4
  51 0010 FB71     		strb	r3, [r7, #7]
  52 0012 0346     		mov	r3, r0
  53 0014 BB71     		strb	r3, [r7, #6]
  54 0016 0B46     		mov	r3, r1	@ movhi
  55 0018 BB80     		strh	r3, [r7, #4]	@ movhi
  56 001a 1346     		mov	r3, r2	@ movhi
  57 001c 7B80     		strh	r3, [r7, #2]	@ movhi
  99:.\Generated_Source\PSoC5/ADC_TempBuf_dma.c **** 
 100:.\Generated_Source\PSoC5/ADC_TempBuf_dma.c ****     /* Allocate a DMA channel. */
 101:.\Generated_Source\PSoC5/ADC_TempBuf_dma.c ****     ADC_TempBuf_DmaHandle = (uint8)ADC_TempBuf__DRQ_NUMBER;
  58              		.loc 1 101 0
  59 001e 114B     		ldr	r3, .L3
  60 0020 0122     		movs	r2, #1
  61 0022 1A70     		strb	r2, [r3]
 102:.\Generated_Source\PSoC5/ADC_TempBuf_dma.c **** 
 103:.\Generated_Source\PSoC5/ADC_TempBuf_dma.c ****     /* Configure the channel. */
 104:.\Generated_Source\PSoC5/ADC_TempBuf_dma.c ****     (void)CyDmaChSetConfiguration(ADC_TempBuf_DmaHandle,
  62              		.loc 1 104 0
  63 0024 0F4B     		ldr	r3, .L3
  64 0026 1878     		ldrb	r0, [r3]	@ zero_extendqisi2
  65 0028 F979     		ldrb	r1, [r7, #7]	@ zero_extendqisi2
  66 002a BA79     		ldrb	r2, [r7, #6]	@ zero_extendqisi2
  67 002c 0023     		movs	r3, #0
ARM GAS  C:\Users\claw541\AppData\Local\Temp\cc6dHeZM.s 			page 4


  68 002e 0093     		str	r3, [sp]
  69 0030 0023     		movs	r3, #0
  70 0032 0193     		str	r3, [sp, #4]
  71 0034 0123     		movs	r3, #1
  72 0036 FFF7FEFF 		bl	CyDmaChSetConfiguration
 105:.\Generated_Source\PSoC5/ADC_TempBuf_dma.c ****                                   BurstCount,
 106:.\Generated_Source\PSoC5/ADC_TempBuf_dma.c ****                                   ReqestPerBurst,
 107:.\Generated_Source\PSoC5/ADC_TempBuf_dma.c ****                                   (uint8)ADC_TempBuf__TERMOUT0_SEL,
 108:.\Generated_Source\PSoC5/ADC_TempBuf_dma.c ****                                   (uint8)ADC_TempBuf__TERMOUT1_SEL,
 109:.\Generated_Source\PSoC5/ADC_TempBuf_dma.c ****                                   (uint8)ADC_TempBuf__TERMIN_SEL);
 110:.\Generated_Source\PSoC5/ADC_TempBuf_dma.c **** 
 111:.\Generated_Source\PSoC5/ADC_TempBuf_dma.c ****     /* Set the extended address for the transfers */
 112:.\Generated_Source\PSoC5/ADC_TempBuf_dma.c ****     (void)CyDmaChSetExtendedAddress(ADC_TempBuf_DmaHandle, UpperSrcAddress, UpperDestAddress);
  73              		.loc 1 112 0
  74 003a 0A4B     		ldr	r3, .L3
  75 003c 1978     		ldrb	r1, [r3]	@ zero_extendqisi2
  76 003e BA88     		ldrh	r2, [r7, #4]
  77 0040 7B88     		ldrh	r3, [r7, #2]
  78 0042 0846     		mov	r0, r1
  79 0044 1146     		mov	r1, r2
  80 0046 1A46     		mov	r2, r3
  81 0048 FFF7FEFF 		bl	CyDmaChSetExtendedAddress
 113:.\Generated_Source\PSoC5/ADC_TempBuf_dma.c **** 
 114:.\Generated_Source\PSoC5/ADC_TempBuf_dma.c ****     /* Set the priority for this channel */
 115:.\Generated_Source\PSoC5/ADC_TempBuf_dma.c ****     (void)CyDmaChPriority(ADC_TempBuf_DmaHandle, (uint8)ADC_TempBuf__PRIORITY);
  82              		.loc 1 115 0
  83 004c 054B     		ldr	r3, .L3
  84 004e 1B78     		ldrb	r3, [r3]	@ zero_extendqisi2
  85 0050 1846     		mov	r0, r3
  86 0052 0221     		movs	r1, #2
  87 0054 FFF7FEFF 		bl	CyDmaChPriority
 116:.\Generated_Source\PSoC5/ADC_TempBuf_dma.c ****     
 117:.\Generated_Source\PSoC5/ADC_TempBuf_dma.c ****     return ADC_TempBuf_DmaHandle;
  88              		.loc 1 117 0
  89 0058 024B     		ldr	r3, .L3
  90 005a 1B78     		ldrb	r3, [r3]	@ zero_extendqisi2
 118:.\Generated_Source\PSoC5/ADC_TempBuf_dma.c **** }
  91              		.loc 1 118 0
  92 005c 1846     		mov	r0, r3
  93 005e 0C37     		adds	r7, r7, #12
  94              		.cfi_def_cfa_offset 12
  95 0060 BD46     		mov	sp, r7
  96              		.cfi_def_cfa_register 13
  97              		@ sp needed
  98 0062 90BD     		pop	{r4, r7, pc}
  99              	.L4:
 100              		.align	2
 101              	.L3:
 102 0064 00000000 		.word	ADC_TempBuf_DmaHandle
 103              		.cfi_endproc
 104              	.LFE0:
 105              		.size	ADC_TempBuf_DmaInitialize, .-ADC_TempBuf_DmaInitialize
 106              		.section	.text.ADC_TempBuf_DmaRelease,"ax",%progbits
 107              		.align	2
 108              		.global	ADC_TempBuf_DmaRelease
 109              		.thumb
 110              		.thumb_func
ARM GAS  C:\Users\claw541\AppData\Local\Temp\cc6dHeZM.s 			page 5


 111              		.type	ADC_TempBuf_DmaRelease, %function
 112              	ADC_TempBuf_DmaRelease:
 113              	.LFB1:
 119:.\Generated_Source\PSoC5/ADC_TempBuf_dma.c **** 
 120:.\Generated_Source\PSoC5/ADC_TempBuf_dma.c **** /*********************************************************************
 121:.\Generated_Source\PSoC5/ADC_TempBuf_dma.c **** * Function Name: void ADC_TempBuf_DmaRelease
 122:.\Generated_Source\PSoC5/ADC_TempBuf_dma.c **** **********************************************************************
 123:.\Generated_Source\PSoC5/ADC_TempBuf_dma.c **** * Summary:
 124:.\Generated_Source\PSoC5/ADC_TempBuf_dma.c **** *   Frees the channel associated with ADC_TempBuf.
 125:.\Generated_Source\PSoC5/ADC_TempBuf_dma.c **** *
 126:.\Generated_Source\PSoC5/ADC_TempBuf_dma.c **** *
 127:.\Generated_Source\PSoC5/ADC_TempBuf_dma.c **** * Parameters:
 128:.\Generated_Source\PSoC5/ADC_TempBuf_dma.c **** *   void.
 129:.\Generated_Source\PSoC5/ADC_TempBuf_dma.c **** *
 130:.\Generated_Source\PSoC5/ADC_TempBuf_dma.c **** *
 131:.\Generated_Source\PSoC5/ADC_TempBuf_dma.c **** *
 132:.\Generated_Source\PSoC5/ADC_TempBuf_dma.c **** * Return:
 133:.\Generated_Source\PSoC5/ADC_TempBuf_dma.c **** *   void.
 134:.\Generated_Source\PSoC5/ADC_TempBuf_dma.c **** *
 135:.\Generated_Source\PSoC5/ADC_TempBuf_dma.c **** *******************************************************************/
 136:.\Generated_Source\PSoC5/ADC_TempBuf_dma.c **** void ADC_TempBuf_DmaRelease(void) 
 137:.\Generated_Source\PSoC5/ADC_TempBuf_dma.c **** {
 114              		.loc 1 137 0
 115              		.cfi_startproc
 116              		@ args = 0, pretend = 0, frame = 0
 117              		@ frame_needed = 1, uses_anonymous_args = 0
 118 0000 80B5     		push	{r7, lr}
 119              		.cfi_def_cfa_offset 8
 120              		.cfi_offset 7, -8
 121              		.cfi_offset 14, -4
 122 0002 00AF     		add	r7, sp, #0
 123              		.cfi_def_cfa_register 7
 138:.\Generated_Source\PSoC5/ADC_TempBuf_dma.c ****     /* Disable the channel */
 139:.\Generated_Source\PSoC5/ADC_TempBuf_dma.c ****     (void)CyDmaChDisable(ADC_TempBuf_DmaHandle);
 124              		.loc 1 139 0
 125 0004 024B     		ldr	r3, .L6
 126 0006 1B78     		ldrb	r3, [r3]	@ zero_extendqisi2
 127 0008 1846     		mov	r0, r3
 128 000a FFF7FEFF 		bl	CyDmaChDisable
 140:.\Generated_Source\PSoC5/ADC_TempBuf_dma.c **** }
 129              		.loc 1 140 0
 130 000e 80BD     		pop	{r7, pc}
 131              	.L7:
 132              		.align	2
 133              	.L6:
 134 0010 00000000 		.word	ADC_TempBuf_DmaHandle
 135              		.cfi_endproc
 136              	.LFE1:
 137              		.size	ADC_TempBuf_DmaRelease, .-ADC_TempBuf_DmaRelease
 138              		.text
 139              	.Letext0:
 140              		.file 2 "Generated_Source\\PSoC5/cytypes.h"
