ARM GAS  C:\Users\claw541\AppData\Local\Temp\cckXKCDw.s 			page 1


   1              		.syntax unified
   2              		.cpu cortex-m3
   3              		.fpu softvfp
   4              		.eabi_attribute 20, 1
   5              		.eabi_attribute 21, 1
   6              		.eabi_attribute 23, 3
   7              		.eabi_attribute 24, 1
   8              		.eabi_attribute 25, 1
   9              		.eabi_attribute 26, 1
  10              		.eabi_attribute 30, 6
  11              		.eabi_attribute 34, 1
  12              		.eabi_attribute 18, 4
  13              		.thumb
  14              		.file	"cyfitter_cfg.c"
  15              		.text
  16              	.Ltext0:
  17              		.cfi_sections	.debug_frame
  18              		.section	.text.CYMEMZERO,"ax",%progbits
  19              		.align	2
  20              		.thumb
  21              		.thumb_func
  22              		.type	CYMEMZERO, %function
  23              	CYMEMZERO:
  24              	.LFB0:
  25              		.file 1 ".\\Generated_Source\\PSoC5\\cyfitter_cfg.c"
   1:.\Generated_Source\PSoC5/cyfitter_cfg.c **** /*******************************************************************************
   2:.\Generated_Source\PSoC5/cyfitter_cfg.c **** * File Name: cyfitter_cfg.c
   3:.\Generated_Source\PSoC5/cyfitter_cfg.c **** * 
   4:.\Generated_Source\PSoC5/cyfitter_cfg.c **** * PSoC Creator  3.3 CP3
   5:.\Generated_Source\PSoC5/cyfitter_cfg.c **** *
   6:.\Generated_Source\PSoC5/cyfitter_cfg.c **** * Description:
   7:.\Generated_Source\PSoC5/cyfitter_cfg.c **** * This file contains device initialization code.
   8:.\Generated_Source\PSoC5/cyfitter_cfg.c **** * Except for the user defined sections in CyClockStartupError(), this file should not be modified.
   9:.\Generated_Source\PSoC5/cyfitter_cfg.c **** * This file is automatically generated by PSoC Creator.
  10:.\Generated_Source\PSoC5/cyfitter_cfg.c **** *
  11:.\Generated_Source\PSoC5/cyfitter_cfg.c **** ********************************************************************************
  12:.\Generated_Source\PSoC5/cyfitter_cfg.c **** * Copyright (c) 2007-2016 Cypress Semiconductor.  All rights reserved.
  13:.\Generated_Source\PSoC5/cyfitter_cfg.c **** * You may use this file only in accordance with the license, terms, conditions, 
  14:.\Generated_Source\PSoC5/cyfitter_cfg.c **** * disclaimers, and limitations in the end user license agreement accompanying 
  15:.\Generated_Source\PSoC5/cyfitter_cfg.c **** * the software package with which this file was provided.
  16:.\Generated_Source\PSoC5/cyfitter_cfg.c **** ********************************************************************************/
  17:.\Generated_Source\PSoC5/cyfitter_cfg.c **** 
  18:.\Generated_Source\PSoC5/cyfitter_cfg.c **** #include <string.h>
  19:.\Generated_Source\PSoC5/cyfitter_cfg.c **** #include "cytypes.h"
  20:.\Generated_Source\PSoC5/cyfitter_cfg.c **** #include "cydevice_trm.h"
  21:.\Generated_Source\PSoC5/cyfitter_cfg.c **** #include "cyfitter.h"
  22:.\Generated_Source\PSoC5/cyfitter_cfg.c **** #include "CyLib.h"
  23:.\Generated_Source\PSoC5/cyfitter_cfg.c **** #include "cyfitter_cfg.h"
  24:.\Generated_Source\PSoC5/cyfitter_cfg.c **** 
  25:.\Generated_Source\PSoC5/cyfitter_cfg.c **** #define CY_NEED_CYCLOCKSTARTUPERROR 1
  26:.\Generated_Source\PSoC5/cyfitter_cfg.c **** 
  27:.\Generated_Source\PSoC5/cyfitter_cfg.c **** 
  28:.\Generated_Source\PSoC5/cyfitter_cfg.c **** #if defined(__GNUC__) || defined(__ARMCC_VERSION)
  29:.\Generated_Source\PSoC5/cyfitter_cfg.c ****     #define CYPACKED 
  30:.\Generated_Source\PSoC5/cyfitter_cfg.c ****     #define CYPACKED_ATTR __attribute__ ((packed))
  31:.\Generated_Source\PSoC5/cyfitter_cfg.c ****     #define CYALIGNED __attribute__ ((aligned))
  32:.\Generated_Source\PSoC5/cyfitter_cfg.c ****     #define CY_CFG_UNUSED __attribute__ ((unused))
ARM GAS  C:\Users\claw541\AppData\Local\Temp\cckXKCDw.s 			page 2


  33:.\Generated_Source\PSoC5/cyfitter_cfg.c ****     #ifndef CY_CFG_SECTION
  34:.\Generated_Source\PSoC5/cyfitter_cfg.c ****         #define CY_CFG_SECTION __attribute__ ((section(".psocinit")))
  35:.\Generated_Source\PSoC5/cyfitter_cfg.c ****     #endif
  36:.\Generated_Source\PSoC5/cyfitter_cfg.c ****     
  37:.\Generated_Source\PSoC5/cyfitter_cfg.c ****     #if defined(__ARMCC_VERSION)
  38:.\Generated_Source\PSoC5/cyfitter_cfg.c ****         #define CY_CFG_MEMORY_BARRIER() __memory_changed()
  39:.\Generated_Source\PSoC5/cyfitter_cfg.c ****     #else
  40:.\Generated_Source\PSoC5/cyfitter_cfg.c ****         #define CY_CFG_MEMORY_BARRIER() __sync_synchronize()
  41:.\Generated_Source\PSoC5/cyfitter_cfg.c ****     #endif
  42:.\Generated_Source\PSoC5/cyfitter_cfg.c ****     
  43:.\Generated_Source\PSoC5/cyfitter_cfg.c **** #elif defined(__ICCARM__)
  44:.\Generated_Source\PSoC5/cyfitter_cfg.c ****     #include <intrinsics.h>
  45:.\Generated_Source\PSoC5/cyfitter_cfg.c **** 
  46:.\Generated_Source\PSoC5/cyfitter_cfg.c ****     #define CYPACKED __packed
  47:.\Generated_Source\PSoC5/cyfitter_cfg.c ****     #define CYPACKED_ATTR 
  48:.\Generated_Source\PSoC5/cyfitter_cfg.c ****     #define CYALIGNED _Pragma("data_alignment=4")
  49:.\Generated_Source\PSoC5/cyfitter_cfg.c ****     #define CY_CFG_UNUSED _Pragma("diag_suppress=Pe177")
  50:.\Generated_Source\PSoC5/cyfitter_cfg.c ****     #define CY_CFG_SECTION _Pragma("location=\".psocinit\"")
  51:.\Generated_Source\PSoC5/cyfitter_cfg.c ****     
  52:.\Generated_Source\PSoC5/cyfitter_cfg.c ****     #define CY_CFG_MEMORY_BARRIER() __DMB()
  53:.\Generated_Source\PSoC5/cyfitter_cfg.c ****     
  54:.\Generated_Source\PSoC5/cyfitter_cfg.c **** #else
  55:.\Generated_Source\PSoC5/cyfitter_cfg.c ****     #error Unsupported toolchain
  56:.\Generated_Source\PSoC5/cyfitter_cfg.c **** #endif
  57:.\Generated_Source\PSoC5/cyfitter_cfg.c **** 
  58:.\Generated_Source\PSoC5/cyfitter_cfg.c **** 
  59:.\Generated_Source\PSoC5/cyfitter_cfg.c **** CY_CFG_UNUSED
  60:.\Generated_Source\PSoC5/cyfitter_cfg.c **** static void CYMEMZERO(void *s, size_t n);
  61:.\Generated_Source\PSoC5/cyfitter_cfg.c **** CY_CFG_UNUSED
  62:.\Generated_Source\PSoC5/cyfitter_cfg.c **** static void CYMEMZERO(void *s, size_t n)
  63:.\Generated_Source\PSoC5/cyfitter_cfg.c **** {
  26              		.loc 1 63 0
  27              		.cfi_startproc
  28              		@ args = 0, pretend = 0, frame = 8
  29              		@ frame_needed = 1, uses_anonymous_args = 0
  30 0000 80B5     		push	{r7, lr}
  31              		.cfi_def_cfa_offset 8
  32              		.cfi_offset 7, -8
  33              		.cfi_offset 14, -4
  34 0002 82B0     		sub	sp, sp, #8
  35              		.cfi_def_cfa_offset 16
  36 0004 00AF     		add	r7, sp, #0
  37              		.cfi_def_cfa_register 7
  38 0006 7860     		str	r0, [r7, #4]
  39 0008 3960     		str	r1, [r7]
  64:.\Generated_Source\PSoC5/cyfitter_cfg.c **** 	(void)memset(s, 0, n);
  40              		.loc 1 64 0
  41 000a 7868     		ldr	r0, [r7, #4]
  42 000c 0021     		movs	r1, #0
  43 000e 3A68     		ldr	r2, [r7]
  44 0010 FFF7FEFF 		bl	memset
  65:.\Generated_Source\PSoC5/cyfitter_cfg.c **** }
  45              		.loc 1 65 0
  46 0014 0837     		adds	r7, r7, #8
  47              		.cfi_def_cfa_offset 8
  48 0016 BD46     		mov	sp, r7
  49              		.cfi_def_cfa_register 13
ARM GAS  C:\Users\claw541\AppData\Local\Temp\cckXKCDw.s 			page 3


  50              		@ sp needed
  51 0018 80BD     		pop	{r7, pc}
  52              		.cfi_endproc
  53              	.LFE0:
  54              		.size	CYMEMZERO, .-CYMEMZERO
  55 001a 00BF     		.section	.text.CYCONFIGCPY,"ax",%progbits
  56              		.align	2
  57              		.thumb
  58              		.thumb_func
  59              		.type	CYCONFIGCPY, %function
  60              	CYCONFIGCPY:
  61              	.LFB1:
  66:.\Generated_Source\PSoC5/cyfitter_cfg.c **** CY_CFG_UNUSED
  67:.\Generated_Source\PSoC5/cyfitter_cfg.c **** static void CYCONFIGCPY(void *dest, const void *src, size_t n);
  68:.\Generated_Source\PSoC5/cyfitter_cfg.c **** CY_CFG_UNUSED
  69:.\Generated_Source\PSoC5/cyfitter_cfg.c **** static void CYCONFIGCPY(void *dest, const void *src, size_t n)
  70:.\Generated_Source\PSoC5/cyfitter_cfg.c **** {
  62              		.loc 1 70 0
  63              		.cfi_startproc
  64              		@ args = 0, pretend = 0, frame = 16
  65              		@ frame_needed = 1, uses_anonymous_args = 0
  66 0000 80B5     		push	{r7, lr}
  67              		.cfi_def_cfa_offset 8
  68              		.cfi_offset 7, -8
  69              		.cfi_offset 14, -4
  70 0002 84B0     		sub	sp, sp, #16
  71              		.cfi_def_cfa_offset 24
  72 0004 00AF     		add	r7, sp, #0
  73              		.cfi_def_cfa_register 7
  74 0006 F860     		str	r0, [r7, #12]
  75 0008 B960     		str	r1, [r7, #8]
  76 000a 7A60     		str	r2, [r7, #4]
  71:.\Generated_Source\PSoC5/cyfitter_cfg.c **** 	(void)memcpy(dest, src, n);
  77              		.loc 1 71 0
  78 000c F868     		ldr	r0, [r7, #12]
  79 000e B968     		ldr	r1, [r7, #8]
  80 0010 7A68     		ldr	r2, [r7, #4]
  81 0012 FFF7FEFF 		bl	memcpy
  72:.\Generated_Source\PSoC5/cyfitter_cfg.c **** }
  82              		.loc 1 72 0
  83 0016 1037     		adds	r7, r7, #16
  84              		.cfi_def_cfa_offset 8
  85 0018 BD46     		mov	sp, r7
  86              		.cfi_def_cfa_register 13
  87              		@ sp needed
  88 001a 80BD     		pop	{r7, pc}
  89              		.cfi_endproc
  90              	.LFE1:
  91              		.size	CYCONFIGCPY, .-CYCONFIGCPY
  92              		.section	.text.CYCONFIGCPYCODE,"ax",%progbits
  93              		.align	2
  94              		.thumb
  95              		.thumb_func
  96              		.type	CYCONFIGCPYCODE, %function
  97              	CYCONFIGCPYCODE:
  98              	.LFB2:
  73:.\Generated_Source\PSoC5/cyfitter_cfg.c **** CY_CFG_UNUSED
ARM GAS  C:\Users\claw541\AppData\Local\Temp\cckXKCDw.s 			page 4


  74:.\Generated_Source\PSoC5/cyfitter_cfg.c **** static void CYCONFIGCPYCODE(void *dest, const void *src, size_t n);
  75:.\Generated_Source\PSoC5/cyfitter_cfg.c **** CY_CFG_UNUSED
  76:.\Generated_Source\PSoC5/cyfitter_cfg.c **** static void CYCONFIGCPYCODE(void *dest, const void *src, size_t n)
  77:.\Generated_Source\PSoC5/cyfitter_cfg.c **** {
  99              		.loc 1 77 0
 100              		.cfi_startproc
 101              		@ args = 0, pretend = 0, frame = 16
 102              		@ frame_needed = 1, uses_anonymous_args = 0
 103 0000 80B5     		push	{r7, lr}
 104              		.cfi_def_cfa_offset 8
 105              		.cfi_offset 7, -8
 106              		.cfi_offset 14, -4
 107 0002 84B0     		sub	sp, sp, #16
 108              		.cfi_def_cfa_offset 24
 109 0004 00AF     		add	r7, sp, #0
 110              		.cfi_def_cfa_register 7
 111 0006 F860     		str	r0, [r7, #12]
 112 0008 B960     		str	r1, [r7, #8]
 113 000a 7A60     		str	r2, [r7, #4]
  78:.\Generated_Source\PSoC5/cyfitter_cfg.c **** 	(void)memcpy(dest, src, n);
 114              		.loc 1 78 0
 115 000c F868     		ldr	r0, [r7, #12]
 116 000e B968     		ldr	r1, [r7, #8]
 117 0010 7A68     		ldr	r2, [r7, #4]
 118 0012 FFF7FEFF 		bl	memcpy
  79:.\Generated_Source\PSoC5/cyfitter_cfg.c **** }
 119              		.loc 1 79 0
 120 0016 1037     		adds	r7, r7, #16
 121              		.cfi_def_cfa_offset 8
 122 0018 BD46     		mov	sp, r7
 123              		.cfi_def_cfa_register 13
 124              		@ sp needed
 125 001a 80BD     		pop	{r7, pc}
 126              		.cfi_endproc
 127              	.LFE2:
 128              		.size	CYCONFIGCPYCODE, .-CYCONFIGCPYCODE
 129              		.section	.text.CyClockStartupError,"ax",%progbits
 130              		.align	2
 131              		.thumb
 132              		.thumb_func
 133              		.type	CyClockStartupError, %function
 134              	CyClockStartupError:
 135              	.LFB3:
  80:.\Generated_Source\PSoC5/cyfitter_cfg.c **** 
  81:.\Generated_Source\PSoC5/cyfitter_cfg.c **** 
  82:.\Generated_Source\PSoC5/cyfitter_cfg.c **** 
  83:.\Generated_Source\PSoC5/cyfitter_cfg.c **** /* Clock startup error codes                                                   */
  84:.\Generated_Source\PSoC5/cyfitter_cfg.c **** #define CYCLOCKSTART_NO_ERROR    0u
  85:.\Generated_Source\PSoC5/cyfitter_cfg.c **** #define CYCLOCKSTART_XTAL_ERROR  1u
  86:.\Generated_Source\PSoC5/cyfitter_cfg.c **** #define CYCLOCKSTART_32KHZ_ERROR 2u
  87:.\Generated_Source\PSoC5/cyfitter_cfg.c **** #define CYCLOCKSTART_PLL_ERROR   3u
  88:.\Generated_Source\PSoC5/cyfitter_cfg.c **** 
  89:.\Generated_Source\PSoC5/cyfitter_cfg.c **** #ifdef CY_NEED_CYCLOCKSTARTUPERROR
  90:.\Generated_Source\PSoC5/cyfitter_cfg.c **** /*******************************************************************************
  91:.\Generated_Source\PSoC5/cyfitter_cfg.c **** * Function Name: CyClockStartupError
  92:.\Generated_Source\PSoC5/cyfitter_cfg.c **** ********************************************************************************
  93:.\Generated_Source\PSoC5/cyfitter_cfg.c **** * Summary:
ARM GAS  C:\Users\claw541\AppData\Local\Temp\cckXKCDw.s 			page 5


  94:.\Generated_Source\PSoC5/cyfitter_cfg.c **** *  If an error is encountered during clock configuration (crystal startup error,
  95:.\Generated_Source\PSoC5/cyfitter_cfg.c **** *  PLL lock error, etc.), the system will end up here.  Unless reimplemented by
  96:.\Generated_Source\PSoC5/cyfitter_cfg.c **** *  the customer, this function will stop in an infinite loop.
  97:.\Generated_Source\PSoC5/cyfitter_cfg.c **** *
  98:.\Generated_Source\PSoC5/cyfitter_cfg.c **** * Parameters:
  99:.\Generated_Source\PSoC5/cyfitter_cfg.c **** *   void
 100:.\Generated_Source\PSoC5/cyfitter_cfg.c **** *
 101:.\Generated_Source\PSoC5/cyfitter_cfg.c **** * Return:
 102:.\Generated_Source\PSoC5/cyfitter_cfg.c **** *   void
 103:.\Generated_Source\PSoC5/cyfitter_cfg.c **** *
 104:.\Generated_Source\PSoC5/cyfitter_cfg.c **** *******************************************************************************/
 105:.\Generated_Source\PSoC5/cyfitter_cfg.c **** CY_CFG_UNUSED
 106:.\Generated_Source\PSoC5/cyfitter_cfg.c **** static void CyClockStartupError(uint8 errorCode);
 107:.\Generated_Source\PSoC5/cyfitter_cfg.c **** CY_CFG_UNUSED
 108:.\Generated_Source\PSoC5/cyfitter_cfg.c **** static void CyClockStartupError(uint8 errorCode)
 109:.\Generated_Source\PSoC5/cyfitter_cfg.c **** {
 136              		.loc 1 109 0
 137              		.cfi_startproc
 138              		@ args = 0, pretend = 0, frame = 8
 139              		@ frame_needed = 1, uses_anonymous_args = 0
 140              		@ link register save eliminated.
 141 0000 80B4     		push	{r7}
 142              		.cfi_def_cfa_offset 4
 143              		.cfi_offset 7, -4
 144 0002 83B0     		sub	sp, sp, #12
 145              		.cfi_def_cfa_offset 16
 146 0004 00AF     		add	r7, sp, #0
 147              		.cfi_def_cfa_register 7
 148 0006 0346     		mov	r3, r0
 149 0008 FB71     		strb	r3, [r7, #7]
 150              	.L5:
 110:.\Generated_Source\PSoC5/cyfitter_cfg.c ****     /* To remove the compiler warning if errorCode not used.                */
 111:.\Generated_Source\PSoC5/cyfitter_cfg.c ****     errorCode = errorCode;
 112:.\Generated_Source\PSoC5/cyfitter_cfg.c **** 
 113:.\Generated_Source\PSoC5/cyfitter_cfg.c ****     /* `#START CyClockStartupError` */
 114:.\Generated_Source\PSoC5/cyfitter_cfg.c **** 
 115:.\Generated_Source\PSoC5/cyfitter_cfg.c ****     /* If we have a clock startup error (bad MHz crystal, PLL lock, etc.),  */
 116:.\Generated_Source\PSoC5/cyfitter_cfg.c ****     /* we will end up here to allow the customer to implement something to  */
 117:.\Generated_Source\PSoC5/cyfitter_cfg.c ****     /* deal with the clock condition.                                       */
 118:.\Generated_Source\PSoC5/cyfitter_cfg.c **** 
 119:.\Generated_Source\PSoC5/cyfitter_cfg.c ****     /* `#END` */
 120:.\Generated_Source\PSoC5/cyfitter_cfg.c **** 
 121:.\Generated_Source\PSoC5/cyfitter_cfg.c ****     /* If nothing else, stop here since the clocks have not started         */
 122:.\Generated_Source\PSoC5/cyfitter_cfg.c ****     /* correctly.                                                           */
 123:.\Generated_Source\PSoC5/cyfitter_cfg.c ****     while(1) {}
 151              		.loc 1 123 0 discriminator 1
 152 000a FEE7     		b	.L5
 153              		.cfi_endproc
 154              	.LFE3:
 155              		.size	CyClockStartupError, .-CyClockStartupError
 156              		.section	.text.cfg_write_bytes32,"ax",%progbits
 157              		.align	2
 158              		.thumb
 159              		.thumb_func
 160              		.type	cfg_write_bytes32, %function
 161              	cfg_write_bytes32:
 162              	.LFB4:
ARM GAS  C:\Users\claw541\AppData\Local\Temp\cckXKCDw.s 			page 6


 124:.\Generated_Source\PSoC5/cyfitter_cfg.c **** }
 125:.\Generated_Source\PSoC5/cyfitter_cfg.c **** #endif
 126:.\Generated_Source\PSoC5/cyfitter_cfg.c **** 
 127:.\Generated_Source\PSoC5/cyfitter_cfg.c **** #define CY_CFG_BASE_ADDR_COUNT 44u
 128:.\Generated_Source\PSoC5/cyfitter_cfg.c **** CYPACKED typedef struct
 129:.\Generated_Source\PSoC5/cyfitter_cfg.c **** {
 130:.\Generated_Source\PSoC5/cyfitter_cfg.c **** 	uint8 offset;
 131:.\Generated_Source\PSoC5/cyfitter_cfg.c **** 	uint8 value;
 132:.\Generated_Source\PSoC5/cyfitter_cfg.c **** } CYPACKED_ATTR cy_cfg_addrvalue_t;
 133:.\Generated_Source\PSoC5/cyfitter_cfg.c **** 
 134:.\Generated_Source\PSoC5/cyfitter_cfg.c **** #define cy_cfg_addr_table ((const uint32 CYFAR *)0x48000000u)
 135:.\Generated_Source\PSoC5/cyfitter_cfg.c **** #define cy_cfg_data_table ((const cy_cfg_addrvalue_t CYFAR *)0x480000B0u)
 136:.\Generated_Source\PSoC5/cyfitter_cfg.c **** 
 137:.\Generated_Source\PSoC5/cyfitter_cfg.c **** /* UDB_0_4_1_CONFIG Address: CYDEV_UCFG_B0_P6_U0_BASE Size (bytes): 128 */
 138:.\Generated_Source\PSoC5/cyfitter_cfg.c **** #define BS_UDB_0_4_1_CONFIG_VAL ((const uint8 CYFAR *)0x48000ED0u)
 139:.\Generated_Source\PSoC5/cyfitter_cfg.c **** 
 140:.\Generated_Source\PSoC5/cyfitter_cfg.c **** /* UCFG_BCTL0 Address: CYREG_BCTL0_MDCLK_EN Size (bytes): 16 */
 141:.\Generated_Source\PSoC5/cyfitter_cfg.c **** #define BS_UCFG_BCTL0_VAL ((const uint8 CYFAR *)0x48000F50u)
 142:.\Generated_Source\PSoC5/cyfitter_cfg.c **** 
 143:.\Generated_Source\PSoC5/cyfitter_cfg.c **** /* IOPINS0_0 Address: CYREG_PRT0_DM0 Size (bytes): 8 */
 144:.\Generated_Source\PSoC5/cyfitter_cfg.c **** #define BS_IOPINS0_0_VAL ((const uint8 CYFAR *)0x48000F60u)
 145:.\Generated_Source\PSoC5/cyfitter_cfg.c **** 
 146:.\Generated_Source\PSoC5/cyfitter_cfg.c **** /* IOPINS0_7 Address: CYREG_PRT12_DM0 Size (bytes): 8 */
 147:.\Generated_Source\PSoC5/cyfitter_cfg.c **** #define BS_IOPINS0_7_VAL ((const uint8 CYFAR *)0x48000F68u)
 148:.\Generated_Source\PSoC5/cyfitter_cfg.c **** 
 149:.\Generated_Source\PSoC5/cyfitter_cfg.c **** /* IOPINS0_8 Address: CYREG_PRT15_DR Size (bytes): 10 */
 150:.\Generated_Source\PSoC5/cyfitter_cfg.c **** #define BS_IOPINS0_8_VAL ((const uint8 CYFAR *)0x48000F70u)
 151:.\Generated_Source\PSoC5/cyfitter_cfg.c **** 
 152:.\Generated_Source\PSoC5/cyfitter_cfg.c **** /* IOPINS0_1 Address: CYREG_PRT1_DM0 Size (bytes): 8 */
 153:.\Generated_Source\PSoC5/cyfitter_cfg.c **** #define BS_IOPINS0_1_VAL ((const uint8 CYFAR *)0x48000F7Cu)
 154:.\Generated_Source\PSoC5/cyfitter_cfg.c **** 
 155:.\Generated_Source\PSoC5/cyfitter_cfg.c **** /* IOPINS0_2 Address: CYREG_PRT2_DR Size (bytes): 10 */
 156:.\Generated_Source\PSoC5/cyfitter_cfg.c **** #define BS_IOPINS0_2_VAL ((const uint8 CYFAR *)0x48000F84u)
 157:.\Generated_Source\PSoC5/cyfitter_cfg.c **** 
 158:.\Generated_Source\PSoC5/cyfitter_cfg.c **** /* IOPINS0_3 Address: CYREG_PRT3_DM0 Size (bytes): 8 */
 159:.\Generated_Source\PSoC5/cyfitter_cfg.c **** #define BS_IOPINS0_3_VAL ((const uint8 CYFAR *)0x48000F90u)
 160:.\Generated_Source\PSoC5/cyfitter_cfg.c **** 
 161:.\Generated_Source\PSoC5/cyfitter_cfg.c **** /* PHUB_CFGMEM1 Address: CYREG_PHUB_CFGMEM1_CFG0 Size (bytes): 4 */
 162:.\Generated_Source\PSoC5/cyfitter_cfg.c **** #define BS_PHUB_CFGMEM1_VAL ((const uint8 CYFAR *)0x48000F98u)
 163:.\Generated_Source\PSoC5/cyfitter_cfg.c **** 
 164:.\Generated_Source\PSoC5/cyfitter_cfg.c **** 
 165:.\Generated_Source\PSoC5/cyfitter_cfg.c **** /*******************************************************************************
 166:.\Generated_Source\PSoC5/cyfitter_cfg.c **** * Function Name: cfg_write_bytes32
 167:.\Generated_Source\PSoC5/cyfitter_cfg.c **** ********************************************************************************
 168:.\Generated_Source\PSoC5/cyfitter_cfg.c **** * Summary:
 169:.\Generated_Source\PSoC5/cyfitter_cfg.c **** *  This function is used for setting up the chip configuration areas that
 170:.\Generated_Source\PSoC5/cyfitter_cfg.c **** *  contain relatively sparse data.
 171:.\Generated_Source\PSoC5/cyfitter_cfg.c **** *
 172:.\Generated_Source\PSoC5/cyfitter_cfg.c **** * Parameters:
 173:.\Generated_Source\PSoC5/cyfitter_cfg.c **** *   void
 174:.\Generated_Source\PSoC5/cyfitter_cfg.c **** *
 175:.\Generated_Source\PSoC5/cyfitter_cfg.c **** * Return:
 176:.\Generated_Source\PSoC5/cyfitter_cfg.c **** *   void
 177:.\Generated_Source\PSoC5/cyfitter_cfg.c **** *
 178:.\Generated_Source\PSoC5/cyfitter_cfg.c **** *******************************************************************************/
 179:.\Generated_Source\PSoC5/cyfitter_cfg.c **** static void cfg_write_bytes32(const uint32 addr_table[], const cy_cfg_addrvalue_t data_table[]);
 180:.\Generated_Source\PSoC5/cyfitter_cfg.c **** static void cfg_write_bytes32(const uint32 addr_table[], const cy_cfg_addrvalue_t data_table[])
ARM GAS  C:\Users\claw541\AppData\Local\Temp\cckXKCDw.s 			page 7


 181:.\Generated_Source\PSoC5/cyfitter_cfg.c **** {
 163              		.loc 1 181 0
 164              		.cfi_startproc
 165              		@ args = 0, pretend = 0, frame = 24
 166              		@ frame_needed = 1, uses_anonymous_args = 0
 167              		@ link register save eliminated.
 168 0000 80B4     		push	{r7}
 169              		.cfi_def_cfa_offset 4
 170              		.cfi_offset 7, -4
 171 0002 87B0     		sub	sp, sp, #28
 172              		.cfi_def_cfa_offset 32
 173 0004 00AF     		add	r7, sp, #0
 174              		.cfi_def_cfa_register 7
 175 0006 7860     		str	r0, [r7, #4]
 176 0008 3960     		str	r1, [r7]
 182:.\Generated_Source\PSoC5/cyfitter_cfg.c **** 	/* For 32-bit little-endian architectures */
 183:.\Generated_Source\PSoC5/cyfitter_cfg.c **** 	uint32 i, j = 0u;
 177              		.loc 1 183 0
 178 000a 0023     		movs	r3, #0
 179 000c 3B61     		str	r3, [r7, #16]
 184:.\Generated_Source\PSoC5/cyfitter_cfg.c **** 	for (i = 0u; i < CY_CFG_BASE_ADDR_COUNT; i++)
 180              		.loc 1 184 0
 181 000e 0023     		movs	r3, #0
 182 0010 7B61     		str	r3, [r7, #20]
 183 0012 27E0     		b	.L7
 184              	.L10:
 185              	.LBB2:
 185:.\Generated_Source\PSoC5/cyfitter_cfg.c **** 	{
 186:.\Generated_Source\PSoC5/cyfitter_cfg.c **** 		uint32 baseAddr = addr_table[i];
 186              		.loc 1 186 0
 187 0014 7B69     		ldr	r3, [r7, #20]
 188 0016 9B00     		lsls	r3, r3, #2
 189 0018 7A68     		ldr	r2, [r7, #4]
 190 001a 1344     		add	r3, r3, r2
 191 001c 1B68     		ldr	r3, [r3]
 192 001e BB60     		str	r3, [r7, #8]
 187:.\Generated_Source\PSoC5/cyfitter_cfg.c **** 		uint8 count = (uint8)baseAddr;
 193              		.loc 1 187 0
 194 0020 BB68     		ldr	r3, [r7, #8]
 195 0022 FB73     		strb	r3, [r7, #15]
 188:.\Generated_Source\PSoC5/cyfitter_cfg.c **** 		baseAddr &= 0xFFFFFF00u;
 196              		.loc 1 188 0
 197 0024 BB68     		ldr	r3, [r7, #8]
 198 0026 23F0FF03 		bic	r3, r3, #255
 199 002a BB60     		str	r3, [r7, #8]
 189:.\Generated_Source\PSoC5/cyfitter_cfg.c **** 		while (count != 0u)
 200              		.loc 1 189 0
 201 002c 14E0     		b	.L8
 202              	.L9:
 190:.\Generated_Source\PSoC5/cyfitter_cfg.c **** 		{
 191:.\Generated_Source\PSoC5/cyfitter_cfg.c **** 			CY_SET_XTND_REG8((void CYFAR *)(baseAddr + data_table[j].offset), data_table[j].value);
 203              		.loc 1 191 0
 204 002e 3B69     		ldr	r3, [r7, #16]
 205 0030 5B00     		lsls	r3, r3, #1
 206 0032 3A68     		ldr	r2, [r7]
 207 0034 1344     		add	r3, r3, r2
 208 0036 1B78     		ldrb	r3, [r3]	@ zero_extendqisi2
ARM GAS  C:\Users\claw541\AppData\Local\Temp\cckXKCDw.s 			page 8


 209 0038 1A46     		mov	r2, r3
 210 003a BB68     		ldr	r3, [r7, #8]
 211 003c 1344     		add	r3, r3, r2
 212 003e 1946     		mov	r1, r3
 213 0040 3B69     		ldr	r3, [r7, #16]
 214 0042 5B00     		lsls	r3, r3, #1
 215 0044 3A68     		ldr	r2, [r7]
 216 0046 1344     		add	r3, r3, r2
 217 0048 5B78     		ldrb	r3, [r3, #1]	@ zero_extendqisi2
 218 004a 0B70     		strb	r3, [r1]
 192:.\Generated_Source\PSoC5/cyfitter_cfg.c **** 			j++;
 219              		.loc 1 192 0
 220 004c 3B69     		ldr	r3, [r7, #16]
 221 004e 0133     		adds	r3, r3, #1
 222 0050 3B61     		str	r3, [r7, #16]
 193:.\Generated_Source\PSoC5/cyfitter_cfg.c **** 			count--;
 223              		.loc 1 193 0
 224 0052 FB7B     		ldrb	r3, [r7, #15]	@ zero_extendqisi2
 225 0054 013B     		subs	r3, r3, #1
 226 0056 FB73     		strb	r3, [r7, #15]
 227              	.L8:
 189:.\Generated_Source\PSoC5/cyfitter_cfg.c **** 		{
 228              		.loc 1 189 0
 229 0058 FB7B     		ldrb	r3, [r7, #15]	@ zero_extendqisi2
 230 005a 002B     		cmp	r3, #0
 231 005c E7D1     		bne	.L9
 232              	.LBE2:
 184:.\Generated_Source\PSoC5/cyfitter_cfg.c **** 	{
 233              		.loc 1 184 0 discriminator 2
 234 005e 7B69     		ldr	r3, [r7, #20]
 235 0060 0133     		adds	r3, r3, #1
 236 0062 7B61     		str	r3, [r7, #20]
 237              	.L7:
 184:.\Generated_Source\PSoC5/cyfitter_cfg.c **** 	{
 238              		.loc 1 184 0 is_stmt 0 discriminator 1
 239 0064 7B69     		ldr	r3, [r7, #20]
 240 0066 2B2B     		cmp	r3, #43
 241 0068 D4D9     		bls	.L10
 194:.\Generated_Source\PSoC5/cyfitter_cfg.c **** 		}
 195:.\Generated_Source\PSoC5/cyfitter_cfg.c **** 	}
 196:.\Generated_Source\PSoC5/cyfitter_cfg.c **** }
 242              		.loc 1 196 0 is_stmt 1
 243 006a 1C37     		adds	r7, r7, #28
 244              		.cfi_def_cfa_offset 4
 245 006c BD46     		mov	sp, r7
 246              		.cfi_def_cfa_register 13
 247              		@ sp needed
 248 006e 5DF8047B 		ldr	r7, [sp], #4
 249              		.cfi_restore 7
 250              		.cfi_def_cfa_offset 0
 251 0072 7047     		bx	lr
 252              		.cfi_endproc
 253              	.LFE4:
 254              		.size	cfg_write_bytes32, .-cfg_write_bytes32
 255              		.section	.text.ClockSetup,"ax",%progbits
 256              		.align	2
 257              		.thumb
ARM GAS  C:\Users\claw541\AppData\Local\Temp\cckXKCDw.s 			page 9


 258              		.thumb_func
 259              		.type	ClockSetup, %function
 260              	ClockSetup:
 261              	.LFB5:
 197:.\Generated_Source\PSoC5/cyfitter_cfg.c **** 
 198:.\Generated_Source\PSoC5/cyfitter_cfg.c **** /*******************************************************************************
 199:.\Generated_Source\PSoC5/cyfitter_cfg.c **** * Function Name: ClockSetup
 200:.\Generated_Source\PSoC5/cyfitter_cfg.c **** ********************************************************************************
 201:.\Generated_Source\PSoC5/cyfitter_cfg.c **** *
 202:.\Generated_Source\PSoC5/cyfitter_cfg.c **** * Summary:
 203:.\Generated_Source\PSoC5/cyfitter_cfg.c **** *  Performs the initialization of all of the clocks in the device based on the
 204:.\Generated_Source\PSoC5/cyfitter_cfg.c **** *  settings in the Clock tab of the DWR.  This includes enabling the requested
 205:.\Generated_Source\PSoC5/cyfitter_cfg.c **** *  clocks and setting the necessary dividers to produce the desired frequency. 
 206:.\Generated_Source\PSoC5/cyfitter_cfg.c **** *
 207:.\Generated_Source\PSoC5/cyfitter_cfg.c **** * Parameters:
 208:.\Generated_Source\PSoC5/cyfitter_cfg.c **** *  void
 209:.\Generated_Source\PSoC5/cyfitter_cfg.c **** *
 210:.\Generated_Source\PSoC5/cyfitter_cfg.c **** * Return:
 211:.\Generated_Source\PSoC5/cyfitter_cfg.c **** *  void
 212:.\Generated_Source\PSoC5/cyfitter_cfg.c **** *
 213:.\Generated_Source\PSoC5/cyfitter_cfg.c **** *******************************************************************************/
 214:.\Generated_Source\PSoC5/cyfitter_cfg.c **** static void ClockSetup(void);
 215:.\Generated_Source\PSoC5/cyfitter_cfg.c **** static void ClockSetup(void)
 216:.\Generated_Source\PSoC5/cyfitter_cfg.c **** {
 262              		.loc 1 216 0
 263              		.cfi_startproc
 264              		@ args = 0, pretend = 0, frame = 8
 265              		@ frame_needed = 1, uses_anonymous_args = 0
 266 0000 80B5     		push	{r7, lr}
 267              		.cfi_def_cfa_offset 8
 268              		.cfi_offset 7, -8
 269              		.cfi_offset 14, -4
 270 0002 82B0     		sub	sp, sp, #8
 271              		.cfi_def_cfa_offset 16
 272 0004 00AF     		add	r7, sp, #0
 273              		.cfi_def_cfa_register 7
 217:.\Generated_Source\PSoC5/cyfitter_cfg.c **** 	uint32 timeout;
 218:.\Generated_Source\PSoC5/cyfitter_cfg.c **** 	uint8 pllLock;
 219:.\Generated_Source\PSoC5/cyfitter_cfg.c **** 
 220:.\Generated_Source\PSoC5/cyfitter_cfg.c **** 
 221:.\Generated_Source\PSoC5/cyfitter_cfg.c **** 	/* Configure Digital Clocks based on settings from Clock DWR */
 222:.\Generated_Source\PSoC5/cyfitter_cfg.c **** 	CY_SET_XTND_REG16((void CYFAR *)(CYREG_CLKDIST_DCFG0_CFG0), 0x0004u);
 274              		.loc 1 222 0
 275 0006 3C4B     		ldr	r3, .L16
 276 0008 0422     		movs	r2, #4
 277 000a 1A80     		strh	r2, [r3]	@ movhi
 223:.\Generated_Source\PSoC5/cyfitter_cfg.c **** 	CY_SET_XTND_REG8((void CYFAR *)(CYREG_CLKDIST_DCFG0_CFG0 + 0x2u), 0x18u);
 278              		.loc 1 223 0
 279 000c 3B4B     		ldr	r3, .L16+4
 280 000e 1822     		movs	r2, #24
 281 0010 1A70     		strb	r2, [r3]
 224:.\Generated_Source\PSoC5/cyfitter_cfg.c **** 	CY_SET_XTND_REG16((void CYFAR *)(CYREG_CLKDIST_DCFG1_CFG0), 0x0033u);
 282              		.loc 1 224 0
 283 0012 3B4B     		ldr	r3, .L16+8
 284 0014 3322     		movs	r2, #51
 285 0016 1A80     		strh	r2, [r3]	@ movhi
 225:.\Generated_Source\PSoC5/cyfitter_cfg.c **** 	CY_SET_XTND_REG8((void CYFAR *)(CYREG_CLKDIST_DCFG1_CFG0 + 0x2u), 0x18u);
ARM GAS  C:\Users\claw541\AppData\Local\Temp\cckXKCDw.s 			page 10


 286              		.loc 1 225 0
 287 0018 3A4B     		ldr	r3, .L16+12
 288 001a 1822     		movs	r2, #24
 289 001c 1A70     		strb	r2, [r3]
 226:.\Generated_Source\PSoC5/cyfitter_cfg.c **** 	CY_SET_XTND_REG16((void CYFAR *)(CYREG_CLKDIST_DCFG2_CFG0), 0x003Bu);
 290              		.loc 1 226 0
 291 001e 3A4B     		ldr	r3, .L16+16
 292 0020 3B22     		movs	r2, #59
 293 0022 1A80     		strh	r2, [r3]	@ movhi
 227:.\Generated_Source\PSoC5/cyfitter_cfg.c **** 	CY_SET_XTND_REG8((void CYFAR *)(CYREG_CLKDIST_DCFG2_CFG0 + 0x2u), 0x18u);
 294              		.loc 1 227 0
 295 0024 394B     		ldr	r3, .L16+20
 296 0026 1822     		movs	r2, #24
 297 0028 1A70     		strb	r2, [r3]
 228:.\Generated_Source\PSoC5/cyfitter_cfg.c **** 	CY_SET_XTND_REG16((void CYFAR *)(CYREG_CLKDIST_DCFG3_CFG0), 0x0081u);
 298              		.loc 1 228 0
 299 002a 394B     		ldr	r3, .L16+24
 300 002c 8122     		movs	r2, #129
 301 002e 1A80     		strh	r2, [r3]	@ movhi
 229:.\Generated_Source\PSoC5/cyfitter_cfg.c **** 	CY_SET_XTND_REG8((void CYFAR *)(CYREG_CLKDIST_DCFG3_CFG0 + 0x2u), 0x18u);
 302              		.loc 1 229 0
 303 0030 384B     		ldr	r3, .L16+28
 304 0032 1822     		movs	r2, #24
 305 0034 1A70     		strb	r2, [r3]
 230:.\Generated_Source\PSoC5/cyfitter_cfg.c **** 	CY_SET_XTND_REG16((void CYFAR *)(CYREG_CLKDIST_DCFG4_CFG0), 0x0000u);
 306              		.loc 1 230 0
 307 0036 384B     		ldr	r3, .L16+32
 308 0038 0022     		movs	r2, #0
 309 003a 1A80     		strh	r2, [r3]	@ movhi
 231:.\Generated_Source\PSoC5/cyfitter_cfg.c **** 	CY_SET_XTND_REG8((void CYFAR *)(CYREG_CLKDIST_DCFG4_CFG0 + 0x2u), 0x1Bu);
 310              		.loc 1 231 0
 311 003c 374B     		ldr	r3, .L16+36
 312 003e 1B22     		movs	r2, #27
 313 0040 1A70     		strb	r2, [r3]
 232:.\Generated_Source\PSoC5/cyfitter_cfg.c **** 
 233:.\Generated_Source\PSoC5/cyfitter_cfg.c **** 	/* Configure ILO based on settings from Clock DWR */
 234:.\Generated_Source\PSoC5/cyfitter_cfg.c **** 	CY_SET_XTND_REG8((void CYFAR *)(CYREG_SLOWCLK_ILO_CR0), 0x06u);
 314              		.loc 1 234 0
 315 0042 374B     		ldr	r3, .L16+40
 316 0044 0622     		movs	r2, #6
 317 0046 1A70     		strb	r2, [r3]
 235:.\Generated_Source\PSoC5/cyfitter_cfg.c **** 
 236:.\Generated_Source\PSoC5/cyfitter_cfg.c **** 	/* Configure IMO based on settings from Clock DWR */
 237:.\Generated_Source\PSoC5/cyfitter_cfg.c **** 	CY_SET_XTND_REG8((void CYFAR *)(CYREG_FASTCLK_IMO_CR), 0x52u);
 318              		.loc 1 237 0
 319 0048 364B     		ldr	r3, .L16+44
 320 004a 5222     		movs	r2, #82
 321 004c 1A70     		strb	r2, [r3]
 238:.\Generated_Source\PSoC5/cyfitter_cfg.c **** 	CY_SET_XTND_REG8((void CYFAR *)(CYREG_IMO_TR1), (CY_GET_XTND_REG8((void CYFAR *)CYREG_FLSHID_CUST_
 322              		.loc 1 238 0
 323 004e 364B     		ldr	r3, .L16+48
 324 0050 364A     		ldr	r2, .L16+52
 325 0052 1278     		ldrb	r2, [r2]
 326 0054 D2B2     		uxtb	r2, r2
 327 0056 1A70     		strb	r2, [r3]
 239:.\Generated_Source\PSoC5/cyfitter_cfg.c **** 
 240:.\Generated_Source\PSoC5/cyfitter_cfg.c **** 	/* Configure PLL based on settings from Clock DWR */
ARM GAS  C:\Users\claw541\AppData\Local\Temp\cckXKCDw.s 			page 11


 241:.\Generated_Source\PSoC5/cyfitter_cfg.c **** 	CY_SET_XTND_REG16((void CYFAR *)(CYREG_FASTCLK_PLL_P), 0x0919u);
 328              		.loc 1 241 0
 329 0058 354B     		ldr	r3, .L16+56
 330 005a 40F61912 		movw	r2, #2329
 331 005e 1A80     		strh	r2, [r3]	@ movhi
 242:.\Generated_Source\PSoC5/cyfitter_cfg.c **** 	CY_SET_XTND_REG16((void CYFAR *)(CYREG_FASTCLK_PLL_CFG0), 0x1251u);
 332              		.loc 1 242 0
 333 0060 344B     		ldr	r3, .L16+60
 334 0062 41F25122 		movw	r2, #4689
 335 0066 1A80     		strh	r2, [r3]	@ movhi
 243:.\Generated_Source\PSoC5/cyfitter_cfg.c **** 	/* Wait up to 250us for the PLL to lock */
 244:.\Generated_Source\PSoC5/cyfitter_cfg.c **** 	pllLock = 0u;
 336              		.loc 1 244 0
 337 0068 0023     		movs	r3, #0
 338 006a FB70     		strb	r3, [r7, #3]
 245:.\Generated_Source\PSoC5/cyfitter_cfg.c **** 	for (timeout = 250u / 10u; (timeout > 0u) && (pllLock != 0x03u); timeout--)
 339              		.loc 1 245 0
 340 006c 1923     		movs	r3, #25
 341 006e 7B60     		str	r3, [r7, #4]
 342 0070 14E0     		b	.L12
 343              	.L14:
 246:.\Generated_Source\PSoC5/cyfitter_cfg.c **** 	{ 
 247:.\Generated_Source\PSoC5/cyfitter_cfg.c **** 		pllLock = 0x03u & ((uint8)((uint8)pllLock << 1) | ((CY_GET_XTND_REG8((void CYFAR *)CYREG_FASTCLK_
 344              		.loc 1 247 0 discriminator 4
 345 0072 FB78     		ldrb	r3, [r7, #3]
 346 0074 5B00     		lsls	r3, r3, #1
 347 0076 DAB2     		uxtb	r2, r3
 348 0078 2F4B     		ldr	r3, .L16+64
 349 007a 1B78     		ldrb	r3, [r3]
 350 007c DBB2     		uxtb	r3, r3
 351 007e 03F00103 		and	r3, r3, #1
 352 0082 DBB2     		uxtb	r3, r3
 353 0084 1343     		orrs	r3, r3, r2
 354 0086 DBB2     		uxtb	r3, r3
 355 0088 03F00303 		and	r3, r3, #3
 356 008c FB70     		strb	r3, [r7, #3]
 248:.\Generated_Source\PSoC5/cyfitter_cfg.c **** 		CyDelayCycles(10u * 48u); /* Delay 10us based on 48MHz clock */
 357              		.loc 1 248 0 discriminator 4
 358 008e 4FF4F070 		mov	r0, #480
 359 0092 FFF7FEFF 		bl	CyDelayCycles
 245:.\Generated_Source\PSoC5/cyfitter_cfg.c **** 	for (timeout = 250u / 10u; (timeout > 0u) && (pllLock != 0x03u); timeout--)
 360              		.loc 1 245 0 discriminator 4
 361 0096 7B68     		ldr	r3, [r7, #4]
 362 0098 013B     		subs	r3, r3, #1
 363 009a 7B60     		str	r3, [r7, #4]
 364              	.L12:
 245:.\Generated_Source\PSoC5/cyfitter_cfg.c **** 	for (timeout = 250u / 10u; (timeout > 0u) && (pllLock != 0x03u); timeout--)
 365              		.loc 1 245 0 is_stmt 0 discriminator 1
 366 009c 7B68     		ldr	r3, [r7, #4]
 367 009e 002B     		cmp	r3, #0
 368 00a0 02D0     		beq	.L13
 245:.\Generated_Source\PSoC5/cyfitter_cfg.c **** 	for (timeout = 250u / 10u; (timeout > 0u) && (pllLock != 0x03u); timeout--)
 369              		.loc 1 245 0 discriminator 3
 370 00a2 FB78     		ldrb	r3, [r7, #3]	@ zero_extendqisi2
 371 00a4 032B     		cmp	r3, #3
 372 00a6 E4D1     		bne	.L14
 373              	.L13:
ARM GAS  C:\Users\claw541\AppData\Local\Temp\cckXKCDw.s 			page 12


 249:.\Generated_Source\PSoC5/cyfitter_cfg.c **** 	}
 250:.\Generated_Source\PSoC5/cyfitter_cfg.c **** 	/* If we ran out of time the PLL didn't lock so go to the error function */
 251:.\Generated_Source\PSoC5/cyfitter_cfg.c **** 	if (timeout == 0u)
 374              		.loc 1 251 0 is_stmt 1
 375 00a8 7B68     		ldr	r3, [r7, #4]
 376 00aa 002B     		cmp	r3, #0
 377 00ac 02D1     		bne	.L15
 252:.\Generated_Source\PSoC5/cyfitter_cfg.c **** 	{
 253:.\Generated_Source\PSoC5/cyfitter_cfg.c **** 		CyClockStartupError(CYCLOCKSTART_PLL_ERROR);
 378              		.loc 1 253 0
 379 00ae 0320     		movs	r0, #3
 380 00b0 FFF7FEFF 		bl	CyClockStartupError
 381              	.L15:
 254:.\Generated_Source\PSoC5/cyfitter_cfg.c **** 	}
 255:.\Generated_Source\PSoC5/cyfitter_cfg.c **** 
 256:.\Generated_Source\PSoC5/cyfitter_cfg.c **** 	/* Configure Bus/Master Clock based on settings from Clock DWR */
 257:.\Generated_Source\PSoC5/cyfitter_cfg.c **** 	CY_SET_XTND_REG16((void CYFAR *)(CYREG_CLKDIST_MSTR0), 0x0100u);
 382              		.loc 1 257 0
 383 00b4 214B     		ldr	r3, .L16+68
 384 00b6 4FF48072 		mov	r2, #256
 385 00ba 1A80     		strh	r2, [r3]	@ movhi
 258:.\Generated_Source\PSoC5/cyfitter_cfg.c **** 	CY_SET_XTND_REG8((void CYFAR *)(CYREG_CLKDIST_MSTR0), 0x07u);
 386              		.loc 1 258 0
 387 00bc 1F4B     		ldr	r3, .L16+68
 388 00be 0722     		movs	r2, #7
 389 00c0 1A70     		strb	r2, [r3]
 259:.\Generated_Source\PSoC5/cyfitter_cfg.c **** 	CY_SET_XTND_REG8((void CYFAR *)(CYREG_CLKDIST_BCFG0), 0x00u);
 390              		.loc 1 259 0
 391 00c2 1F4B     		ldr	r3, .L16+72
 392 00c4 0022     		movs	r2, #0
 393 00c6 1A70     		strb	r2, [r3]
 260:.\Generated_Source\PSoC5/cyfitter_cfg.c **** 	CY_SET_XTND_REG8((void CYFAR *)(CYREG_CLKDIST_BCFG2), 0x48u);
 394              		.loc 1 260 0
 395 00c8 1E4B     		ldr	r3, .L16+76
 396 00ca 4822     		movs	r2, #72
 397 00cc 1A70     		strb	r2, [r3]
 261:.\Generated_Source\PSoC5/cyfitter_cfg.c **** 	CY_SET_XTND_REG8((void CYFAR *)(CYREG_CLKDIST_MSTR0), 0x00u);
 398              		.loc 1 261 0
 399 00ce 1B4B     		ldr	r3, .L16+68
 400 00d0 0022     		movs	r2, #0
 401 00d2 1A70     		strb	r2, [r3]
 262:.\Generated_Source\PSoC5/cyfitter_cfg.c **** 
 263:.\Generated_Source\PSoC5/cyfitter_cfg.c **** 	/* Configure USB Clock based on settings from Clock DWR */
 264:.\Generated_Source\PSoC5/cyfitter_cfg.c **** 	CY_SET_XTND_REG8((void CYFAR *)(CYREG_CLKDIST_UCFG), 0x00u);
 402              		.loc 1 264 0
 403 00d4 1C4B     		ldr	r3, .L16+80
 404 00d6 0022     		movs	r2, #0
 405 00d8 1A70     		strb	r2, [r3]
 265:.\Generated_Source\PSoC5/cyfitter_cfg.c **** 	CY_SET_XTND_REG8((void CYFAR *)(CYREG_CLKDIST_LD), 0x02u);
 406              		.loc 1 265 0
 407 00da 1C4B     		ldr	r3, .L16+84
 408 00dc 0222     		movs	r2, #2
 409 00de 1A70     		strb	r2, [r3]
 266:.\Generated_Source\PSoC5/cyfitter_cfg.c **** 
 267:.\Generated_Source\PSoC5/cyfitter_cfg.c **** 	CY_SET_XTND_REG8((void CYFAR *)(CYREG_PM_ACT_CFG2), ((CY_GET_XTND_REG8((void CYFAR *)CYREG_PM_ACT_
 410              		.loc 1 267 0
 411 00e0 1B4A     		ldr	r2, .L16+88
ARM GAS  C:\Users\claw541\AppData\Local\Temp\cckXKCDw.s 			page 13


 412 00e2 1B4B     		ldr	r3, .L16+88
 413 00e4 1B78     		ldrb	r3, [r3]
 414 00e6 DBB2     		uxtb	r3, r3
 415 00e8 43F01F03 		orr	r3, r3, #31
 416 00ec DBB2     		uxtb	r3, r3
 417 00ee 1370     		strb	r3, [r2]
 268:.\Generated_Source\PSoC5/cyfitter_cfg.c **** }
 418              		.loc 1 268 0
 419 00f0 0837     		adds	r7, r7, #8
 420              		.cfi_def_cfa_offset 8
 421 00f2 BD46     		mov	sp, r7
 422              		.cfi_def_cfa_register 13
 423              		@ sp needed
 424 00f4 80BD     		pop	{r7, pc}
 425              	.L17:
 426 00f6 00BF     		.align	2
 427              	.L16:
 428 00f8 80400040 		.word	1073758336
 429 00fc 82400040 		.word	1073758338
 430 0100 84400040 		.word	1073758340
 431 0104 86400040 		.word	1073758342
 432 0108 88400040 		.word	1073758344
 433 010c 8A400040 		.word	1073758346
 434 0110 8C400040 		.word	1073758348
 435 0114 8E400040 		.word	1073758350
 436 0118 90400040 		.word	1073758352
 437 011c 92400040 		.word	1073758354
 438 0120 00430040 		.word	1073758976
 439 0124 00420040 		.word	1073758720
 440 0128 A1460040 		.word	1073759905
 441 012c 0F010049 		.word	1224737039
 442 0130 22420040 		.word	1073758754
 443 0134 20420040 		.word	1073758752
 444 0138 25420040 		.word	1073758757
 445 013c 04400040 		.word	1073758212
 446 0140 06400040 		.word	1073758214
 447 0144 08400040 		.word	1073758216
 448 0148 09400040 		.word	1073758217
 449 014c 01400040 		.word	1073758209
 450 0150 A2430040 		.word	1073759138
 451              		.cfi_endproc
 452              	.LFE5:
 453              		.size	ClockSetup, .-ClockSetup
 454              		.section	.text.AnalogSetDefault,"ax",%progbits
 455              		.align	2
 456              		.thumb
 457              		.thumb_func
 458              		.type	AnalogSetDefault, %function
 459              	AnalogSetDefault:
 460              	.LFB6:
 269:.\Generated_Source\PSoC5/cyfitter_cfg.c **** 
 270:.\Generated_Source\PSoC5/cyfitter_cfg.c **** 
 271:.\Generated_Source\PSoC5/cyfitter_cfg.c **** /* Analog API Functions */
 272:.\Generated_Source\PSoC5/cyfitter_cfg.c **** 
 273:.\Generated_Source\PSoC5/cyfitter_cfg.c **** 
 274:.\Generated_Source\PSoC5/cyfitter_cfg.c **** /*******************************************************************************
 275:.\Generated_Source\PSoC5/cyfitter_cfg.c **** * Function Name: AnalogSetDefault
ARM GAS  C:\Users\claw541\AppData\Local\Temp\cckXKCDw.s 			page 14


 276:.\Generated_Source\PSoC5/cyfitter_cfg.c **** ********************************************************************************
 277:.\Generated_Source\PSoC5/cyfitter_cfg.c **** *
 278:.\Generated_Source\PSoC5/cyfitter_cfg.c **** * Summary:
 279:.\Generated_Source\PSoC5/cyfitter_cfg.c **** *  Sets up the analog portions of the chip to default values based on chip
 280:.\Generated_Source\PSoC5/cyfitter_cfg.c **** *  configuration options from the project.
 281:.\Generated_Source\PSoC5/cyfitter_cfg.c **** *
 282:.\Generated_Source\PSoC5/cyfitter_cfg.c **** * Parameters:
 283:.\Generated_Source\PSoC5/cyfitter_cfg.c **** *  void
 284:.\Generated_Source\PSoC5/cyfitter_cfg.c **** *
 285:.\Generated_Source\PSoC5/cyfitter_cfg.c **** * Return:
 286:.\Generated_Source\PSoC5/cyfitter_cfg.c **** *  void
 287:.\Generated_Source\PSoC5/cyfitter_cfg.c **** *
 288:.\Generated_Source\PSoC5/cyfitter_cfg.c **** *******************************************************************************/
 289:.\Generated_Source\PSoC5/cyfitter_cfg.c **** static void AnalogSetDefault(void);
 290:.\Generated_Source\PSoC5/cyfitter_cfg.c **** static void AnalogSetDefault(void)
 291:.\Generated_Source\PSoC5/cyfitter_cfg.c **** {
 461              		.loc 1 291 0
 462              		.cfi_startproc
 463              		@ args = 0, pretend = 0, frame = 8
 464              		@ frame_needed = 1, uses_anonymous_args = 0
 465              		@ link register save eliminated.
 466 0000 80B4     		push	{r7}
 467              		.cfi_def_cfa_offset 4
 468              		.cfi_offset 7, -4
 469 0002 83B0     		sub	sp, sp, #12
 470              		.cfi_def_cfa_offset 16
 471 0004 00AF     		add	r7, sp, #0
 472              		.cfi_def_cfa_register 7
 292:.\Generated_Source\PSoC5/cyfitter_cfg.c **** 	uint8 bg_xover_inl_trim = CY_GET_XTND_REG8((void CYFAR *)(CYREG_FLSHID_MFG_CFG_BG_XOVER_INL_TRIM +
 473              		.loc 1 292 0
 474 0006 144B     		ldr	r3, .L19
 475 0008 1B78     		ldrb	r3, [r3]
 476 000a FB71     		strb	r3, [r7, #7]
 293:.\Generated_Source\PSoC5/cyfitter_cfg.c **** 	CY_SET_XTND_REG8((void CYFAR *)(CYREG_BG_DFT0), (bg_xover_inl_trim & 0x07u));
 477              		.loc 1 293 0
 478 000c 134A     		ldr	r2, .L19+4
 479 000e FB79     		ldrb	r3, [r7, #7]
 480 0010 03F00703 		and	r3, r3, #7
 481 0014 DBB2     		uxtb	r3, r3
 482 0016 1370     		strb	r3, [r2]
 294:.\Generated_Source\PSoC5/cyfitter_cfg.c **** 	CY_SET_XTND_REG8((void CYFAR *)(CYREG_BG_DFT1), ((bg_xover_inl_trim >> 4) & 0x0Fu));
 483              		.loc 1 294 0
 484 0018 114A     		ldr	r2, .L19+8
 485 001a FB79     		ldrb	r3, [r7, #7]	@ zero_extendqisi2
 486 001c 1B09     		lsrs	r3, r3, #4
 487 001e DBB2     		uxtb	r3, r3
 488 0020 1370     		strb	r3, [r2]
 295:.\Generated_Source\PSoC5/cyfitter_cfg.c **** 	CY_SET_XTND_REG8((void CYFAR *)CYREG_PRT0_AG, 0xE0u);
 489              		.loc 1 295 0
 490 0022 104B     		ldr	r3, .L19+12
 491 0024 E022     		movs	r2, #224
 492 0026 1A70     		strb	r2, [r3]
 296:.\Generated_Source\PSoC5/cyfitter_cfg.c **** 	CY_SET_XTND_REG8((void CYFAR *)CYREG_PRT1_AG, 0xF4u);
 493              		.loc 1 296 0
 494 0028 0F4B     		ldr	r3, .L19+16
 495 002a F422     		movs	r2, #244
 496 002c 1A70     		strb	r2, [r3]
ARM GAS  C:\Users\claw541\AppData\Local\Temp\cckXKCDw.s 			page 15


 297:.\Generated_Source\PSoC5/cyfitter_cfg.c **** 	CY_SET_XTND_REG8((void CYFAR *)CYREG_DSM0_SW0, 0xE0u);
 497              		.loc 1 297 0
 498 002e 0F4B     		ldr	r3, .L19+20
 499 0030 E022     		movs	r2, #224
 500 0032 1A70     		strb	r2, [r3]
 298:.\Generated_Source\PSoC5/cyfitter_cfg.c **** 	CY_SET_XTND_REG8((void CYFAR *)CYREG_SAR1_SW0, 0x4Fu);
 501              		.loc 1 298 0
 502 0034 0E4B     		ldr	r3, .L19+24
 503 0036 4F22     		movs	r2, #79
 504 0038 1A70     		strb	r2, [r3]
 299:.\Generated_Source\PSoC5/cyfitter_cfg.c **** 	CY_SET_XTND_REG8((void CYFAR *)CYREG_SAR1_SW3, 0x20u);
 505              		.loc 1 299 0
 506 003a 0E4B     		ldr	r3, .L19+28
 507 003c 2022     		movs	r2, #32
 508 003e 1A70     		strb	r2, [r3]
 300:.\Generated_Source\PSoC5/cyfitter_cfg.c **** 	CY_SET_XTND_REG8((void CYFAR *)CYREG_BUS_SW0, 0x40u);
 509              		.loc 1 300 0
 510 0040 0D4B     		ldr	r3, .L19+32
 511 0042 4022     		movs	r2, #64
 512 0044 1A70     		strb	r2, [r3]
 301:.\Generated_Source\PSoC5/cyfitter_cfg.c **** 	CY_SET_XTND_REG8((void CYFAR *)CYREG_PUMP_CR0, 0x44u);
 513              		.loc 1 301 0
 514 0046 0D4B     		ldr	r3, .L19+36
 515 0048 4422     		movs	r2, #68
 516 004a 1A70     		strb	r2, [r3]
 302:.\Generated_Source\PSoC5/cyfitter_cfg.c **** }
 517              		.loc 1 302 0
 518 004c 0C37     		adds	r7, r7, #12
 519              		.cfi_def_cfa_offset 4
 520 004e BD46     		mov	sp, r7
 521              		.cfi_def_cfa_register 13
 522              		@ sp needed
 523 0050 5DF8047B 		ldr	r7, [sp], #4
 524              		.cfi_restore 7
 525              		.cfi_def_cfa_offset 0
 526 0054 7047     		bx	lr
 527              	.L20:
 528 0056 00BF     		.align	2
 529              	.L19:
 530 0058 CF010049 		.word	1224737231
 531 005c 6E580040 		.word	1073764462
 532 0060 6F580040 		.word	1073764463
 533 0064 0D510040 		.word	1073762573
 534 0068 1D510040 		.word	1073762589
 535 006c 005B0040 		.word	1073765120
 536 0070 285B0040 		.word	1073765160
 537 0074 2B5B0040 		.word	1073765163
 538 0078 585B0040 		.word	1073765208
 539 007c 76580040 		.word	1073764470
 540              		.cfi_endproc
 541              	.LFE6:
 542              		.size	AnalogSetDefault, .-AnalogSetDefault
 543              		.section	.text.SetAnalogRoutingPumps,"ax",%progbits
 544              		.align	2
 545              		.global	SetAnalogRoutingPumps
 546              		.thumb
 547              		.thumb_func
ARM GAS  C:\Users\claw541\AppData\Local\Temp\cckXKCDw.s 			page 16


 548              		.type	SetAnalogRoutingPumps, %function
 549              	SetAnalogRoutingPumps:
 550              	.LFB7:
 303:.\Generated_Source\PSoC5/cyfitter_cfg.c **** 
 304:.\Generated_Source\PSoC5/cyfitter_cfg.c **** 
 305:.\Generated_Source\PSoC5/cyfitter_cfg.c **** /*******************************************************************************
 306:.\Generated_Source\PSoC5/cyfitter_cfg.c **** * Function Name: SetAnalogRoutingPumps
 307:.\Generated_Source\PSoC5/cyfitter_cfg.c **** ********************************************************************************
 308:.\Generated_Source\PSoC5/cyfitter_cfg.c **** *
 309:.\Generated_Source\PSoC5/cyfitter_cfg.c **** * Summary:
 310:.\Generated_Source\PSoC5/cyfitter_cfg.c **** * Enables or disables the analog pumps feeding analog routing switches.
 311:.\Generated_Source\PSoC5/cyfitter_cfg.c **** * Intended to be called at startup, based on the Vdda system configuration;
 312:.\Generated_Source\PSoC5/cyfitter_cfg.c **** * may be called during operation when the user informs us that the Vdda voltage
 313:.\Generated_Source\PSoC5/cyfitter_cfg.c **** * crossed the pump threshold.
 314:.\Generated_Source\PSoC5/cyfitter_cfg.c **** *
 315:.\Generated_Source\PSoC5/cyfitter_cfg.c **** * Parameters:
 316:.\Generated_Source\PSoC5/cyfitter_cfg.c **** *  enabled - 1 to enable the pumps, 0 to disable the pumps
 317:.\Generated_Source\PSoC5/cyfitter_cfg.c **** *
 318:.\Generated_Source\PSoC5/cyfitter_cfg.c **** * Return:
 319:.\Generated_Source\PSoC5/cyfitter_cfg.c **** *  void
 320:.\Generated_Source\PSoC5/cyfitter_cfg.c **** *
 321:.\Generated_Source\PSoC5/cyfitter_cfg.c **** *******************************************************************************/
 322:.\Generated_Source\PSoC5/cyfitter_cfg.c **** void SetAnalogRoutingPumps(uint8 enabled)
 323:.\Generated_Source\PSoC5/cyfitter_cfg.c **** {
 551              		.loc 1 323 0
 552              		.cfi_startproc
 553              		@ args = 0, pretend = 0, frame = 16
 554              		@ frame_needed = 1, uses_anonymous_args = 0
 555              		@ link register save eliminated.
 556 0000 80B4     		push	{r7}
 557              		.cfi_def_cfa_offset 4
 558              		.cfi_offset 7, -4
 559 0002 85B0     		sub	sp, sp, #20
 560              		.cfi_def_cfa_offset 24
 561 0004 00AF     		add	r7, sp, #0
 562              		.cfi_def_cfa_register 7
 563 0006 0346     		mov	r3, r0
 564 0008 FB71     		strb	r3, [r7, #7]
 324:.\Generated_Source\PSoC5/cyfitter_cfg.c **** 	uint8 regValue = CY_GET_XTND_REG8((void CYFAR *)CYREG_PUMP_CR0);
 565              		.loc 1 324 0
 566 000a 0B4B     		ldr	r3, .L24
 567 000c 1B78     		ldrb	r3, [r3]
 568 000e FB73     		strb	r3, [r7, #15]
 325:.\Generated_Source\PSoC5/cyfitter_cfg.c **** 	if (enabled != 0u)
 569              		.loc 1 325 0
 570 0010 FB79     		ldrb	r3, [r7, #7]	@ zero_extendqisi2
 571 0012 002B     		cmp	r3, #0
 572 0014 04D0     		beq	.L22
 326:.\Generated_Source\PSoC5/cyfitter_cfg.c **** 	{
 327:.\Generated_Source\PSoC5/cyfitter_cfg.c **** 		regValue |= 0x22u;
 573              		.loc 1 327 0
 574 0016 FB7B     		ldrb	r3, [r7, #15]
 575 0018 43F02203 		orr	r3, r3, #34
 576 001c FB73     		strb	r3, [r7, #15]
 577 001e 03E0     		b	.L23
 578              	.L22:
 328:.\Generated_Source\PSoC5/cyfitter_cfg.c **** 	}
ARM GAS  C:\Users\claw541\AppData\Local\Temp\cckXKCDw.s 			page 17


 329:.\Generated_Source\PSoC5/cyfitter_cfg.c **** 	else
 330:.\Generated_Source\PSoC5/cyfitter_cfg.c **** 	{
 331:.\Generated_Source\PSoC5/cyfitter_cfg.c **** 		regValue &= (uint8)~0x22u;
 579              		.loc 1 331 0
 580 0020 FB7B     		ldrb	r3, [r7, #15]
 581 0022 23F02203 		bic	r3, r3, #34
 582 0026 FB73     		strb	r3, [r7, #15]
 583              	.L23:
 332:.\Generated_Source\PSoC5/cyfitter_cfg.c **** 	}
 333:.\Generated_Source\PSoC5/cyfitter_cfg.c **** 	CY_SET_XTND_REG8((void CYFAR *)CYREG_PUMP_CR0, regValue);
 584              		.loc 1 333 0
 585 0028 034A     		ldr	r2, .L24
 586 002a FB7B     		ldrb	r3, [r7, #15]
 587 002c 1370     		strb	r3, [r2]
 334:.\Generated_Source\PSoC5/cyfitter_cfg.c **** }
 588              		.loc 1 334 0
 589 002e 1437     		adds	r7, r7, #20
 590              		.cfi_def_cfa_offset 4
 591 0030 BD46     		mov	sp, r7
 592              		.cfi_def_cfa_register 13
 593              		@ sp needed
 594 0032 5DF8047B 		ldr	r7, [sp], #4
 595              		.cfi_restore 7
 596              		.cfi_def_cfa_offset 0
 597 0036 7047     		bx	lr
 598              	.L25:
 599              		.align	2
 600              	.L24:
 601 0038 76580040 		.word	1073764470
 602              		.cfi_endproc
 603              	.LFE7:
 604              		.size	SetAnalogRoutingPumps, .-SetAnalogRoutingPumps
 605              		.section	.text.cyfitter_cfg,"ax",%progbits
 606              		.align	2
 607              		.global	cyfitter_cfg
 608              		.thumb
 609              		.thumb_func
 610              		.type	cyfitter_cfg, %function
 611              	cyfitter_cfg:
 612              	.LFB8:
 335:.\Generated_Source\PSoC5/cyfitter_cfg.c **** 
 336:.\Generated_Source\PSoC5/cyfitter_cfg.c **** #define CY_AMUX_UNUSED CYREG_BOOST_SR
 337:.\Generated_Source\PSoC5/cyfitter_cfg.c **** 
 338:.\Generated_Source\PSoC5/cyfitter_cfg.c **** 
 339:.\Generated_Source\PSoC5/cyfitter_cfg.c **** /*******************************************************************************
 340:.\Generated_Source\PSoC5/cyfitter_cfg.c **** * Function Name: cyfitter_cfg
 341:.\Generated_Source\PSoC5/cyfitter_cfg.c **** ********************************************************************************
 342:.\Generated_Source\PSoC5/cyfitter_cfg.c **** * Summary:
 343:.\Generated_Source\PSoC5/cyfitter_cfg.c **** *  This function is called by the start-up code for the selected device. It
 344:.\Generated_Source\PSoC5/cyfitter_cfg.c **** *  performs all of the necessary device configuration based on the design
 345:.\Generated_Source\PSoC5/cyfitter_cfg.c **** *  settings.  This includes settings from the Design Wide Resources (DWR) such
 346:.\Generated_Source\PSoC5/cyfitter_cfg.c **** *  as Clocks and Pins as well as any component configuration that is necessary.
 347:.\Generated_Source\PSoC5/cyfitter_cfg.c **** *
 348:.\Generated_Source\PSoC5/cyfitter_cfg.c **** * Parameters:  
 349:.\Generated_Source\PSoC5/cyfitter_cfg.c **** *   void
 350:.\Generated_Source\PSoC5/cyfitter_cfg.c **** *
 351:.\Generated_Source\PSoC5/cyfitter_cfg.c **** * Return:
ARM GAS  C:\Users\claw541\AppData\Local\Temp\cckXKCDw.s 			page 18


 352:.\Generated_Source\PSoC5/cyfitter_cfg.c **** *   void
 353:.\Generated_Source\PSoC5/cyfitter_cfg.c **** *
 354:.\Generated_Source\PSoC5/cyfitter_cfg.c **** *******************************************************************************/
 355:.\Generated_Source\PSoC5/cyfitter_cfg.c **** 
 356:.\Generated_Source\PSoC5/cyfitter_cfg.c **** void cyfitter_cfg(void)
 357:.\Generated_Source\PSoC5/cyfitter_cfg.c **** {
 613              		.loc 1 357 0
 614              		.cfi_startproc
 615              		@ args = 0, pretend = 0, frame = 24
 616              		@ frame_needed = 1, uses_anonymous_args = 0
 617 0000 80B5     		push	{r7, lr}
 618              		.cfi_def_cfa_offset 8
 619              		.cfi_offset 7, -8
 620              		.cfi_offset 14, -4
 621 0002 86B0     		sub	sp, sp, #24
 622              		.cfi_def_cfa_offset 32
 623 0004 00AF     		add	r7, sp, #0
 624              		.cfi_def_cfa_register 7
 358:.\Generated_Source\PSoC5/cyfitter_cfg.c **** #ifdef CYGlobalIntDisable
 359:.\Generated_Source\PSoC5/cyfitter_cfg.c **** 	/* Disable interrupts by default. Let user enable if/when they want. */
 360:.\Generated_Source\PSoC5/cyfitter_cfg.c **** 	CYGlobalIntDisable
 625              		.loc 1 360 0
 626              	@ 360 ".\Generated_Source\PSoC5\cyfitter_cfg.c" 1
 627 0006 72B6     		CPSID   i
 628              	@ 0 "" 2
 361:.\Generated_Source\PSoC5/cyfitter_cfg.c **** #endif
 362:.\Generated_Source\PSoC5/cyfitter_cfg.c **** 
 363:.\Generated_Source\PSoC5/cyfitter_cfg.c **** 
 364:.\Generated_Source\PSoC5/cyfitter_cfg.c **** 	/* Set Flash Cycles based on max possible frequency in case a glitch occurs during ClockSetup(). *
 365:.\Generated_Source\PSoC5/cyfitter_cfg.c **** 	CY_SET_XTND_REG8((void CYFAR *)(CYREG_CACHE_CC_CTL), (((CYDEV_INSTRUCT_CACHE_ENABLED) != 0) ? 0x61
 629              		.loc 1 365 0
 630              		.thumb
 631 0008 584B     		ldr	r3, .L31
 632 000a 6122     		movs	r2, #97
 633 000c 1A70     		strb	r2, [r3]
 366:.\Generated_Source\PSoC5/cyfitter_cfg.c **** 	/* Setup clocks based on selections from Clock DWR */
 367:.\Generated_Source\PSoC5/cyfitter_cfg.c **** 	ClockSetup();
 634              		.loc 1 367 0
 635 000e FFF7FEFF 		bl	ClockSetup
 368:.\Generated_Source\PSoC5/cyfitter_cfg.c **** 	/* Set Flash Cycles based on newly configured 60.00MHz Bus Clock. */
 369:.\Generated_Source\PSoC5/cyfitter_cfg.c **** 	CY_SET_XTND_REG8((void CYFAR *)(CYREG_CACHE_CC_CTL), (((CYDEV_INSTRUCT_CACHE_ENABLED) != 0) ? 0x01
 636              		.loc 1 369 0
 637 0012 564B     		ldr	r3, .L31
 638 0014 0122     		movs	r2, #1
 639 0016 1A70     		strb	r2, [r3]
 370:.\Generated_Source\PSoC5/cyfitter_cfg.c **** 	/* Enable/Disable Debug functionality based on settings from System DWR */
 371:.\Generated_Source\PSoC5/cyfitter_cfg.c **** 	CY_SET_XTND_REG8((void CYFAR *)CYREG_MLOGIC_DEBUG, (CY_GET_XTND_REG8((void CYFAR *)CYREG_MLOGIC_DE
 640              		.loc 1 371 0
 641 0018 554A     		ldr	r2, .L31+4
 642 001a 554B     		ldr	r3, .L31+4
 643 001c 1B78     		ldrb	r3, [r3]
 644 001e DBB2     		uxtb	r3, r3
 645 0020 43F00403 		orr	r3, r3, #4
 646 0024 DBB2     		uxtb	r3, r3
 647 0026 1370     		strb	r3, [r2]
 648              	.LBB3:
 372:.\Generated_Source\PSoC5/cyfitter_cfg.c **** 
ARM GAS  C:\Users\claw541\AppData\Local\Temp\cckXKCDw.s 			page 19


 373:.\Generated_Source\PSoC5/cyfitter_cfg.c **** 	{
 374:.\Generated_Source\PSoC5/cyfitter_cfg.c **** 
 375:.\Generated_Source\PSoC5/cyfitter_cfg.c **** 		CYPACKED typedef struct {
 376:.\Generated_Source\PSoC5/cyfitter_cfg.c **** 			void CYFAR *address;
 377:.\Generated_Source\PSoC5/cyfitter_cfg.c **** 			uint16 size;
 378:.\Generated_Source\PSoC5/cyfitter_cfg.c **** 		} CYPACKED_ATTR cfg_memset_t;
 379:.\Generated_Source\PSoC5/cyfitter_cfg.c **** 
 380:.\Generated_Source\PSoC5/cyfitter_cfg.c **** 
 381:.\Generated_Source\PSoC5/cyfitter_cfg.c **** 		CYPACKED typedef struct {
 382:.\Generated_Source\PSoC5/cyfitter_cfg.c **** 			void CYFAR *dest;
 383:.\Generated_Source\PSoC5/cyfitter_cfg.c **** 			const void CYFAR *src;
 384:.\Generated_Source\PSoC5/cyfitter_cfg.c **** 			uint16 size;
 385:.\Generated_Source\PSoC5/cyfitter_cfg.c **** 		} CYPACKED_ATTR cfg_memcpy_t;
 386:.\Generated_Source\PSoC5/cyfitter_cfg.c **** 
 387:.\Generated_Source\PSoC5/cyfitter_cfg.c **** 		static const cfg_memset_t CYCODE cfg_memset_list [] = {
 388:.\Generated_Source\PSoC5/cyfitter_cfg.c **** 			/* address, size */
 389:.\Generated_Source\PSoC5/cyfitter_cfg.c **** 			{(void CYFAR *)(CYREG_TMR0_CFG0), 36u},
 390:.\Generated_Source\PSoC5/cyfitter_cfg.c **** 			{(void CYFAR *)(CYREG_PRT4_DR), 48u},
 391:.\Generated_Source\PSoC5/cyfitter_cfg.c **** 			{(void CYFAR *)(CYDEV_UCFG_B0_P0_U0_BASE), 3072u},
 392:.\Generated_Source\PSoC5/cyfitter_cfg.c **** 			{(void CYFAR *)(CYDEV_UCFG_B0_P6_U1_BASE), 896u},
 393:.\Generated_Source\PSoC5/cyfitter_cfg.c **** 			{(void CYFAR *)(CYDEV_UCFG_B1_P2_U0_BASE), 2048u},
 394:.\Generated_Source\PSoC5/cyfitter_cfg.c **** 			{(void CYFAR *)(CYDEV_UCFG_DSI0_BASE), 2560u},
 395:.\Generated_Source\PSoC5/cyfitter_cfg.c **** 			{(void CYFAR *)(CYDEV_UCFG_DSI12_BASE), 512u},
 396:.\Generated_Source\PSoC5/cyfitter_cfg.c **** 			{(void CYFAR *)(CYREG_BCTL1_MDCLK_EN), 16u},
 397:.\Generated_Source\PSoC5/cyfitter_cfg.c **** 		};
 398:.\Generated_Source\PSoC5/cyfitter_cfg.c **** 
 399:.\Generated_Source\PSoC5/cyfitter_cfg.c **** 		static const cfg_memcpy_t CYCODE cfg_memcpy_list [] = {
 400:.\Generated_Source\PSoC5/cyfitter_cfg.c **** 			/* dest, src, size */
 401:.\Generated_Source\PSoC5/cyfitter_cfg.c **** 			{(void CYFAR *)(CYDEV_UCFG_B0_P6_U0_BASE), BS_UDB_0_4_1_CONFIG_VAL, 128u},
 402:.\Generated_Source\PSoC5/cyfitter_cfg.c **** 			{(void CYFAR *)(CYREG_BCTL0_MDCLK_EN), BS_UCFG_BCTL0_VAL, 16u},
 403:.\Generated_Source\PSoC5/cyfitter_cfg.c **** 		};
 404:.\Generated_Source\PSoC5/cyfitter_cfg.c **** 
 405:.\Generated_Source\PSoC5/cyfitter_cfg.c **** 		uint8 CYDATA i;
 406:.\Generated_Source\PSoC5/cyfitter_cfg.c **** 
 407:.\Generated_Source\PSoC5/cyfitter_cfg.c **** 		/* Zero out critical memory blocks before beginning configuration */
 408:.\Generated_Source\PSoC5/cyfitter_cfg.c **** 		for (i = 0u; i < (sizeof(cfg_memset_list)/sizeof(cfg_memset_list[0])); i++)
 649              		.loc 1 408 0
 650 0028 0023     		movs	r3, #0
 651 002a FB75     		strb	r3, [r7, #23]
 652 002c 13E0     		b	.L27
 653              	.L28:
 654              	.LBB4:
 409:.\Generated_Source\PSoC5/cyfitter_cfg.c **** 		{
 410:.\Generated_Source\PSoC5/cyfitter_cfg.c **** 			const cfg_memset_t CYCODE * CYDATA ms = &cfg_memset_list[i];
 655              		.loc 1 410 0 discriminator 3
 656 002e FA7D     		ldrb	r2, [r7, #23]	@ zero_extendqisi2
 657 0030 1346     		mov	r3, r2
 658 0032 5B00     		lsls	r3, r3, #1
 659 0034 1344     		add	r3, r3, r2
 660 0036 5B00     		lsls	r3, r3, #1
 661 0038 4E4A     		ldr	r2, .L31+8
 662 003a 1344     		add	r3, r3, r2
 663 003c 3B61     		str	r3, [r7, #16]
 411:.\Generated_Source\PSoC5/cyfitter_cfg.c **** 			CYMEMZERO(ms->address, (size_t)(uint32)(ms->size));
 664              		.loc 1 411 0 discriminator 3
 665 003e 3B69     		ldr	r3, [r7, #16]
 666 0040 1A68     		ldr	r2, [r3]	@ unaligned
ARM GAS  C:\Users\claw541\AppData\Local\Temp\cckXKCDw.s 			page 20


 667 0042 3B69     		ldr	r3, [r7, #16]
 668 0044 9B88     		ldrh	r3, [r3, #4]	@ unaligned
 669 0046 9BB2     		uxth	r3, r3
 670 0048 1046     		mov	r0, r2
 671 004a 1946     		mov	r1, r3
 672 004c FFF7FEFF 		bl	CYMEMZERO
 673              	.LBE4:
 408:.\Generated_Source\PSoC5/cyfitter_cfg.c **** 		{
 674              		.loc 1 408 0 discriminator 3
 675 0050 FB7D     		ldrb	r3, [r7, #23]	@ zero_extendqisi2
 676 0052 0133     		adds	r3, r3, #1
 677 0054 FB75     		strb	r3, [r7, #23]
 678              	.L27:
 408:.\Generated_Source\PSoC5/cyfitter_cfg.c **** 		{
 679              		.loc 1 408 0 is_stmt 0 discriminator 1
 680 0056 FB7D     		ldrb	r3, [r7, #23]	@ zero_extendqisi2
 681 0058 072B     		cmp	r3, #7
 682 005a E8D9     		bls	.L28
 412:.\Generated_Source\PSoC5/cyfitter_cfg.c **** 		}
 413:.\Generated_Source\PSoC5/cyfitter_cfg.c **** 
 414:.\Generated_Source\PSoC5/cyfitter_cfg.c **** 		/* Copy device configuration data into registers */
 415:.\Generated_Source\PSoC5/cyfitter_cfg.c **** 		for (i = 0u; i < (sizeof(cfg_memcpy_list)/sizeof(cfg_memcpy_list[0])); i++)
 683              		.loc 1 415 0 is_stmt 1
 684 005c 0023     		movs	r3, #0
 685 005e FB75     		strb	r3, [r7, #23]
 686 0060 1CE0     		b	.L29
 687              	.L30:
 688              	.LBB5:
 416:.\Generated_Source\PSoC5/cyfitter_cfg.c **** 		{
 417:.\Generated_Source\PSoC5/cyfitter_cfg.c **** 			const cfg_memcpy_t CYCODE * CYDATA mc = &cfg_memcpy_list[i];
 689              		.loc 1 417 0 discriminator 3
 690 0062 FA7D     		ldrb	r2, [r7, #23]	@ zero_extendqisi2
 691 0064 1346     		mov	r3, r2
 692 0066 9B00     		lsls	r3, r3, #2
 693 0068 1344     		add	r3, r3, r2
 694 006a 5B00     		lsls	r3, r3, #1
 695 006c 424A     		ldr	r2, .L31+12
 696 006e 1344     		add	r3, r3, r2
 697 0070 FB60     		str	r3, [r7, #12]
 418:.\Generated_Source\PSoC5/cyfitter_cfg.c **** 			void * CYDATA destPtr = mc->dest;
 698              		.loc 1 418 0 discriminator 3
 699 0072 FB68     		ldr	r3, [r7, #12]
 700 0074 1B68     		ldr	r3, [r3]	@ unaligned
 701 0076 BB60     		str	r3, [r7, #8]
 419:.\Generated_Source\PSoC5/cyfitter_cfg.c **** 			const void * CYDATA srcPtr = mc->src;
 702              		.loc 1 419 0 discriminator 3
 703 0078 FB68     		ldr	r3, [r7, #12]
 704 007a 5B68     		ldr	r3, [r3, #4]	@ unaligned
 705 007c 7B60     		str	r3, [r7, #4]
 420:.\Generated_Source\PSoC5/cyfitter_cfg.c **** 			uint16 CYDATA numBytes = mc->size;
 706              		.loc 1 420 0 discriminator 3
 707 007e FB68     		ldr	r3, [r7, #12]
 708 0080 1A7A     		ldrb	r2, [r3, #8]	@ zero_extendqisi2
 709 0082 5B7A     		ldrb	r3, [r3, #9]	@ zero_extendqisi2
 710 0084 1B02     		lsls	r3, r3, #8
 711 0086 1343     		orrs	r3, r3, r2
 712 0088 7B80     		strh	r3, [r7, #2]	@ movhi
ARM GAS  C:\Users\claw541\AppData\Local\Temp\cckXKCDw.s 			page 21


 421:.\Generated_Source\PSoC5/cyfitter_cfg.c **** 			CYCONFIGCPY(destPtr, srcPtr, numBytes);
 713              		.loc 1 421 0 discriminator 3
 714 008a 7B88     		ldrh	r3, [r7, #2]
 715 008c B868     		ldr	r0, [r7, #8]
 716 008e 7968     		ldr	r1, [r7, #4]
 717 0090 1A46     		mov	r2, r3
 718 0092 FFF7FEFF 		bl	CYCONFIGCPY
 719              	.LBE5:
 415:.\Generated_Source\PSoC5/cyfitter_cfg.c **** 		{
 720              		.loc 1 415 0 discriminator 3
 721 0096 FB7D     		ldrb	r3, [r7, #23]	@ zero_extendqisi2
 722 0098 0133     		adds	r3, r3, #1
 723 009a FB75     		strb	r3, [r7, #23]
 724              	.L29:
 415:.\Generated_Source\PSoC5/cyfitter_cfg.c **** 		{
 725              		.loc 1 415 0 is_stmt 0 discriminator 1
 726 009c FB7D     		ldrb	r3, [r7, #23]	@ zero_extendqisi2
 727 009e 012B     		cmp	r3, #1
 728 00a0 DFD9     		bls	.L30
 422:.\Generated_Source\PSoC5/cyfitter_cfg.c **** 		}
 423:.\Generated_Source\PSoC5/cyfitter_cfg.c **** 
 424:.\Generated_Source\PSoC5/cyfitter_cfg.c **** 		cfg_write_bytes32(cy_cfg_addr_table, cy_cfg_data_table);
 729              		.loc 1 424 0 is_stmt 1
 730 00a2 4FF09040 		mov	r0, #1207959552
 731 00a6 3549     		ldr	r1, .L31+16
 732 00a8 FFF7FEFF 		bl	cfg_write_bytes32
 425:.\Generated_Source\PSoC5/cyfitter_cfg.c **** 
 426:.\Generated_Source\PSoC5/cyfitter_cfg.c **** 		/* Perform normal device configuration. Order is not critical for these items. */
 427:.\Generated_Source\PSoC5/cyfitter_cfg.c **** 		CYMEMZERO((void CYFAR *)(CYREG_PHUB_CFGMEM0_CFG0), 4u);
 733              		.loc 1 427 0
 734 00ac 3448     		ldr	r0, .L31+20
 735 00ae 0421     		movs	r1, #4
 736 00b0 FFF7FEFF 		bl	CYMEMZERO
 428:.\Generated_Source\PSoC5/cyfitter_cfg.c **** 		CYCONFIGCPY((void CYFAR *)(CYREG_PHUB_CFGMEM1_CFG0), (const void CYFAR *)(BS_PHUB_CFGMEM1_VAL), 4
 737              		.loc 1 428 0
 738 00b4 3348     		ldr	r0, .L31+24
 739 00b6 3449     		ldr	r1, .L31+28
 740 00b8 0422     		movs	r2, #4
 741 00ba FFF7FEFF 		bl	CYCONFIGCPY
 429:.\Generated_Source\PSoC5/cyfitter_cfg.c **** 
 430:.\Generated_Source\PSoC5/cyfitter_cfg.c **** 		/* Enable digital routing */
 431:.\Generated_Source\PSoC5/cyfitter_cfg.c **** 		CY_SET_XTND_REG8((void CYFAR *)CYREG_BCTL0_BANK_CTL, CY_GET_XTND_REG8((void CYFAR *)CYREG_BCTL0_B
 742              		.loc 1 431 0
 743 00be 334A     		ldr	r2, .L31+32
 744 00c0 324B     		ldr	r3, .L31+32
 745 00c2 1B78     		ldrb	r3, [r3]
 746 00c4 DBB2     		uxtb	r3, r3
 747 00c6 43F00203 		orr	r3, r3, #2
 748 00ca DBB2     		uxtb	r3, r3
 749 00cc 1370     		strb	r3, [r2]
 432:.\Generated_Source\PSoC5/cyfitter_cfg.c **** 		CY_SET_XTND_REG8((void CYFAR *)CYREG_BCTL1_BANK_CTL, CY_GET_XTND_REG8((void CYFAR *)CYREG_BCTL1_B
 750              		.loc 1 432 0
 751 00ce 304A     		ldr	r2, .L31+36
 752 00d0 2F4B     		ldr	r3, .L31+36
 753 00d2 1B78     		ldrb	r3, [r3]
 754 00d4 DBB2     		uxtb	r3, r3
 755 00d6 43F00203 		orr	r3, r3, #2
ARM GAS  C:\Users\claw541\AppData\Local\Temp\cckXKCDw.s 			page 22


 756 00da DBB2     		uxtb	r3, r3
 757 00dc 1370     		strb	r3, [r2]
 433:.\Generated_Source\PSoC5/cyfitter_cfg.c **** 
 434:.\Generated_Source\PSoC5/cyfitter_cfg.c **** 		/* Enable UDB array */
 435:.\Generated_Source\PSoC5/cyfitter_cfg.c **** 		CY_SET_XTND_REG8((void CYFAR *)CYREG_PM_ACT_CFG0, CY_GET_XTND_REG8((void CYFAR *)CYREG_PM_ACT_CFG
 758              		.loc 1 435 0
 759 00de 2D4A     		ldr	r2, .L31+40
 760 00e0 2C4B     		ldr	r3, .L31+40
 761 00e2 1B78     		ldrb	r3, [r3]
 762 00e4 DBB2     		uxtb	r3, r3
 763 00e6 43F04003 		orr	r3, r3, #64
 764 00ea DBB2     		uxtb	r3, r3
 765 00ec 1370     		strb	r3, [r2]
 436:.\Generated_Source\PSoC5/cyfitter_cfg.c **** 		CY_SET_XTND_REG8((void CYFAR *)CYREG_PM_AVAIL_CR2, CY_GET_XTND_REG8((void CYFAR *)CYREG_PM_AVAIL_
 766              		.loc 1 436 0
 767 00ee 2A4A     		ldr	r2, .L31+44
 768 00f0 294B     		ldr	r3, .L31+44
 769 00f2 1B78     		ldrb	r3, [r3]
 770 00f4 DBB2     		uxtb	r3, r3
 771 00f6 43F01003 		orr	r3, r3, #16
 772 00fa DBB2     		uxtb	r3, r3
 773 00fc 1370     		strb	r3, [r2]
 774              	.LBE3:
 437:.\Generated_Source\PSoC5/cyfitter_cfg.c **** 	}
 438:.\Generated_Source\PSoC5/cyfitter_cfg.c **** 
 439:.\Generated_Source\PSoC5/cyfitter_cfg.c **** 
 440:.\Generated_Source\PSoC5/cyfitter_cfg.c **** 	/* Perform second pass device configuration. These items must be configured in specific order afte
 441:.\Generated_Source\PSoC5/cyfitter_cfg.c **** 	CYCONFIGCPY((void CYFAR *)(CYREG_PRT0_DM0), (const void CYFAR *)(BS_IOPINS0_0_VAL), 8u);
 775              		.loc 1 441 0
 776 00fe 2748     		ldr	r0, .L31+48
 777 0100 2749     		ldr	r1, .L31+52
 778 0102 0822     		movs	r2, #8
 779 0104 FFF7FEFF 		bl	CYCONFIGCPY
 442:.\Generated_Source\PSoC5/cyfitter_cfg.c **** 	CYCONFIGCPY((void CYFAR *)(CYREG_PRT12_DM0), (const void CYFAR *)(BS_IOPINS0_7_VAL), 8u);
 780              		.loc 1 442 0
 781 0108 2648     		ldr	r0, .L31+56
 782 010a 2749     		ldr	r1, .L31+60
 783 010c 0822     		movs	r2, #8
 784 010e FFF7FEFF 		bl	CYCONFIGCPY
 443:.\Generated_Source\PSoC5/cyfitter_cfg.c **** 	CYCONFIGCPY((void CYFAR *)(CYREG_PRT15_DR), (const void CYFAR *)(BS_IOPINS0_8_VAL), 10u);
 785              		.loc 1 443 0
 786 0112 2648     		ldr	r0, .L31+64
 787 0114 2649     		ldr	r1, .L31+68
 788 0116 0A22     		movs	r2, #10
 789 0118 FFF7FEFF 		bl	CYCONFIGCPY
 444:.\Generated_Source\PSoC5/cyfitter_cfg.c **** 	CYCONFIGCPY((void CYFAR *)(CYREG_PRT1_DM0), (const void CYFAR *)(BS_IOPINS0_1_VAL), 8u);
 790              		.loc 1 444 0
 791 011c 2548     		ldr	r0, .L31+72
 792 011e 2649     		ldr	r1, .L31+76
 793 0120 0822     		movs	r2, #8
 794 0122 FFF7FEFF 		bl	CYCONFIGCPY
 445:.\Generated_Source\PSoC5/cyfitter_cfg.c **** 	CYCONFIGCPY((void CYFAR *)(CYREG_PRT2_DR), (const void CYFAR *)(BS_IOPINS0_2_VAL), 10u);
 795              		.loc 1 445 0
 796 0126 2548     		ldr	r0, .L31+80
 797 0128 2549     		ldr	r1, .L31+84
 798 012a 0A22     		movs	r2, #10
 799 012c FFF7FEFF 		bl	CYCONFIGCPY
ARM GAS  C:\Users\claw541\AppData\Local\Temp\cckXKCDw.s 			page 23


 446:.\Generated_Source\PSoC5/cyfitter_cfg.c **** 	CYCONFIGCPY((void CYFAR *)(CYREG_PRT3_DM0), (const void CYFAR *)(BS_IOPINS0_3_VAL), 8u);
 800              		.loc 1 446 0
 801 0130 2448     		ldr	r0, .L31+88
 802 0132 2549     		ldr	r1, .L31+92
 803 0134 0822     		movs	r2, #8
 804 0136 FFF7FEFF 		bl	CYCONFIGCPY
 447:.\Generated_Source\PSoC5/cyfitter_cfg.c **** 	CY_SET_XTND_REG8((void CYFAR *)(CYREG_B0_P2_U0_CFG27), 0x84u);
 805              		.loc 1 447 0
 806 013a 244B     		ldr	r3, .L31+96
 807 013c 8422     		movs	r2, #132
 808 013e 1A70     		strb	r2, [r3]
 448:.\Generated_Source\PSoC5/cyfitter_cfg.c **** 	CY_SET_XTND_REG8((void CYFAR *)(CYREG_B1_P2_U1_CFG27), 0xC4u);
 809              		.loc 1 448 0
 810 0140 234B     		ldr	r3, .L31+100
 811 0142 C422     		movs	r2, #196
 812 0144 1A70     		strb	r2, [r3]
 449:.\Generated_Source\PSoC5/cyfitter_cfg.c **** 	/* Switch Boost to the precision bandgap reference from its internal reference */
 450:.\Generated_Source\PSoC5/cyfitter_cfg.c **** 	CY_SET_REG8((void CYXDATA *)CYREG_BOOST_CR2, (CY_GET_REG8((void CYXDATA *)CYREG_BOOST_CR2) | 0x08u
 813              		.loc 1 450 0
 814 0146 234A     		ldr	r2, .L31+104
 815 0148 224B     		ldr	r3, .L31+104
 816 014a 1B78     		ldrb	r3, [r3]
 817 014c DBB2     		uxtb	r3, r3
 818 014e 43F00803 		orr	r3, r3, #8
 819 0152 DBB2     		uxtb	r3, r3
 820 0154 1370     		strb	r3, [r2]
 451:.\Generated_Source\PSoC5/cyfitter_cfg.c **** 
 452:.\Generated_Source\PSoC5/cyfitter_cfg.c **** 	/* Perform basic analog initialization to defaults */
 453:.\Generated_Source\PSoC5/cyfitter_cfg.c **** 	AnalogSetDefault();
 821              		.loc 1 453 0
 822 0156 FFF7FEFF 		bl	AnalogSetDefault
 454:.\Generated_Source\PSoC5/cyfitter_cfg.c **** 
 455:.\Generated_Source\PSoC5/cyfitter_cfg.c **** 	/* Configure alternate active mode */
 456:.\Generated_Source\PSoC5/cyfitter_cfg.c **** 	CYCONFIGCPY((void CYFAR *)CYDEV_PM_STBY_BASE, (const void CYFAR *)CYDEV_PM_ACT_BASE, 14u);
 823              		.loc 1 456 0
 824 015a 1F48     		ldr	r0, .L31+108
 825 015c 0D49     		ldr	r1, .L31+40
 826 015e 0E22     		movs	r2, #14
 827 0160 FFF7FEFF 		bl	CYCONFIGCPY
 457:.\Generated_Source\PSoC5/cyfitter_cfg.c **** }
 828              		.loc 1 457 0
 829 0164 1837     		adds	r7, r7, #24
 830              		.cfi_def_cfa_offset 8
 831 0166 BD46     		mov	sp, r7
 832              		.cfi_def_cfa_register 13
 833              		@ sp needed
 834 0168 80BD     		pop	{r7, pc}
 835              	.L32:
 836 016a 00BF     		.align	2
 837              	.L31:
 838 016c 00480040 		.word	1073760256
 839 0170 E8460040 		.word	1073759976
 840 0174 00000000 		.word	cfg_memset_list.4885
 841 0178 30000000 		.word	cfg_memcpy_list.4886
 842 017c B0000048 		.word	1207959728
 843 0180 00760040 		.word	1073772032
 844 0184 08760040 		.word	1073772040
ARM GAS  C:\Users\claw541\AppData\Local\Temp\cckXKCDw.s 			page 24


 845 0188 980F0048 		.word	1207963544
 846 018c 03500140 		.word	1073827843
 847 0190 13500140 		.word	1073827859
 848 0194 A0430040 		.word	1073759136
 849 0198 C2430040 		.word	1073759170
 850 019c 02510040 		.word	1073762562
 851 01a0 600F0048 		.word	1207963488
 852 01a4 C2510040 		.word	1073762754
 853 01a8 680F0048 		.word	1207963496
 854 01ac F0510040 		.word	1073762800
 855 01b0 700F0048 		.word	1207963504
 856 01b4 12510040 		.word	1073762578
 857 01b8 7C0F0048 		.word	1207963516
 858 01bc 20510040 		.word	1073762592
 859 01c0 840F0048 		.word	1207963524
 860 01c4 32510040 		.word	1073762610
 861 01c8 900F0048 		.word	1207963536
 862 01cc 5B040140 		.word	1073808475
 863 01d0 DB140140 		.word	1073812699
 864 01d4 22430040 		.word	1073759010
 865 01d8 B0430040 		.word	1073759152
 866              		.cfi_endproc
 867              	.LFE8:
 868              		.size	cyfitter_cfg, .-cyfitter_cfg
 869              		.section	.rodata
 870              		.align	2
 871              		.type	cfg_memset_list.4885, %object
 872              		.size	cfg_memset_list.4885, 48
 873              	cfg_memset_list.4885:
 874 0000 004F0040 		.word	1073762048
 875 0004 2400     		.short	36
 876 0006 40510040 		.4byte	1073762624
 877 000a 3000     		.short	48
 878 000c 00000140 		.word	1073807360
 879 0010 000C     		.short	3072
 880 0012 800C0140 		.4byte	1073810560
 881 0016 8003     		.short	896
 882 0018 00140140 		.word	1073812480
 883 001c 0008     		.short	2048
 884 001e 00400140 		.4byte	1073823744
 885 0022 000A     		.short	2560
 886 0024 004C0140 		.word	1073826816
 887 0028 0002     		.short	512
 888 002a 10500140 		.4byte	1073827856
 889 002e 1000     		.short	16
 890              		.align	2
 891              		.type	cfg_memcpy_list.4886, %object
 892              		.size	cfg_memcpy_list.4886, 20
 893              	cfg_memcpy_list.4886:
 894 0030 000C0140 		.word	1073810432
 895 0034 D00E0048 		.word	1207963344
 896 0038 8000     		.short	128
 897 003a 00500140 		.4byte	1073827840
 898 003e 500F0048 		.4byte	1207963472
 899 0042 1000     		.short	16
 900              		.text
 901              	.Letext0:
ARM GAS  C:\Users\claw541\AppData\Local\Temp\cckXKCDw.s 			page 25


 902              		.file 2 "c:\\program files (x86)\\cypress\\psoc creator\\3.3\\psoc creator\\import\\gnu\\arm\\4.9.
 903              		.file 3 ".\\Generated_Source\\PSoC5\\cytypes.h"
