ARM GAS  C:\Users\claw541\AppData\Local\Temp\ccVaYI9o.s 			page 1


   1              		.syntax unified
   2              		.cpu cortex-m3
   3              		.fpu softvfp
   4              		.eabi_attribute 20, 1
   5              		.eabi_attribute 21, 1
   6              		.eabi_attribute 23, 3
   7              		.eabi_attribute 24, 1
   8              		.eabi_attribute 25, 1
   9              		.eabi_attribute 26, 1
  10              		.eabi_attribute 30, 6
  11              		.eabi_attribute 34, 1
  12              		.eabi_attribute 18, 4
  13              		.thumb
  14              		.file	"M1_IN2.c"
  15              		.text
  16              	.Ltext0:
  17              		.cfi_sections	.debug_frame
  18              		.section	.text.M1_IN2_Write,"ax",%progbits
  19              		.align	2
  20              		.global	M1_IN2_Write
  21              		.thumb
  22              		.thumb_func
  23              		.type	M1_IN2_Write, %function
  24              	M1_IN2_Write:
  25              	.LFB0:
  26              		.file 1 ".\\Generated_Source\\PSoC5\\M1_IN2.c"
   1:.\Generated_Source\PSoC5/M1_IN2.c **** /*******************************************************************************
   2:.\Generated_Source\PSoC5/M1_IN2.c **** * File Name: M1_IN2.c  
   3:.\Generated_Source\PSoC5/M1_IN2.c **** * Version 2.20
   4:.\Generated_Source\PSoC5/M1_IN2.c **** *
   5:.\Generated_Source\PSoC5/M1_IN2.c **** * Description:
   6:.\Generated_Source\PSoC5/M1_IN2.c **** *  This file contains API to enable firmware control of a Pins component.
   7:.\Generated_Source\PSoC5/M1_IN2.c **** *
   8:.\Generated_Source\PSoC5/M1_IN2.c **** * Note:
   9:.\Generated_Source\PSoC5/M1_IN2.c **** *
  10:.\Generated_Source\PSoC5/M1_IN2.c **** ********************************************************************************
  11:.\Generated_Source\PSoC5/M1_IN2.c **** * Copyright 2008-2015, Cypress Semiconductor Corporation.  All rights reserved.
  12:.\Generated_Source\PSoC5/M1_IN2.c **** * You may use this file only in accordance with the license, terms, conditions, 
  13:.\Generated_Source\PSoC5/M1_IN2.c **** * disclaimers, and limitations in the end user license agreement accompanying 
  14:.\Generated_Source\PSoC5/M1_IN2.c **** * the software package with which this file was provided.
  15:.\Generated_Source\PSoC5/M1_IN2.c **** *******************************************************************************/
  16:.\Generated_Source\PSoC5/M1_IN2.c **** 
  17:.\Generated_Source\PSoC5/M1_IN2.c **** #include "cytypes.h"
  18:.\Generated_Source\PSoC5/M1_IN2.c **** #include "M1_IN2.h"
  19:.\Generated_Source\PSoC5/M1_IN2.c **** 
  20:.\Generated_Source\PSoC5/M1_IN2.c **** /* APIs are not generated for P15[7:6] on PSoC 5 */
  21:.\Generated_Source\PSoC5/M1_IN2.c **** #if !(CY_PSOC5A &&\
  22:.\Generated_Source\PSoC5/M1_IN2.c **** 	 M1_IN2__PORT == 15 && ((M1_IN2__MASK & 0xC0) != 0))
  23:.\Generated_Source\PSoC5/M1_IN2.c **** 
  24:.\Generated_Source\PSoC5/M1_IN2.c **** 
  25:.\Generated_Source\PSoC5/M1_IN2.c **** /*******************************************************************************
  26:.\Generated_Source\PSoC5/M1_IN2.c **** * Function Name: M1_IN2_Write
  27:.\Generated_Source\PSoC5/M1_IN2.c **** ****************************************************************************//**
  28:.\Generated_Source\PSoC5/M1_IN2.c **** *
  29:.\Generated_Source\PSoC5/M1_IN2.c **** * \brief Writes the value to the physical port (data output register), masking
  30:.\Generated_Source\PSoC5/M1_IN2.c **** *  and shifting the bits appropriately. 
  31:.\Generated_Source\PSoC5/M1_IN2.c **** *
ARM GAS  C:\Users\claw541\AppData\Local\Temp\ccVaYI9o.s 			page 2


  32:.\Generated_Source\PSoC5/M1_IN2.c **** * The data output register controls the signal applied to the physical pin in 
  33:.\Generated_Source\PSoC5/M1_IN2.c **** * conjunction with the drive mode parameter. This function avoids changing 
  34:.\Generated_Source\PSoC5/M1_IN2.c **** * other bits in the port by using the appropriate method (read-modify-write or
  35:.\Generated_Source\PSoC5/M1_IN2.c **** * bit banding).
  36:.\Generated_Source\PSoC5/M1_IN2.c **** *
  37:.\Generated_Source\PSoC5/M1_IN2.c **** * <b>Note</b> This function should not be used on a hardware digital output pin 
  38:.\Generated_Source\PSoC5/M1_IN2.c **** * as it is driven by the hardware signal attached to it.
  39:.\Generated_Source\PSoC5/M1_IN2.c **** *
  40:.\Generated_Source\PSoC5/M1_IN2.c **** * \param value
  41:.\Generated_Source\PSoC5/M1_IN2.c **** *  Value to write to the component instance.
  42:.\Generated_Source\PSoC5/M1_IN2.c **** *
  43:.\Generated_Source\PSoC5/M1_IN2.c **** * \return 
  44:.\Generated_Source\PSoC5/M1_IN2.c **** *  None 
  45:.\Generated_Source\PSoC5/M1_IN2.c **** *
  46:.\Generated_Source\PSoC5/M1_IN2.c **** * \sideeffect
  47:.\Generated_Source\PSoC5/M1_IN2.c **** *  If you use read-modify-write operations that are not atomic; the Interrupt 
  48:.\Generated_Source\PSoC5/M1_IN2.c **** *  Service Routines (ISR) can cause corruption of this function. An ISR that 
  49:.\Generated_Source\PSoC5/M1_IN2.c **** *  interrupts this function and performs writes to the Pins component data 
  50:.\Generated_Source\PSoC5/M1_IN2.c **** *  register can cause corrupted port data. To avoid this issue, you should 
  51:.\Generated_Source\PSoC5/M1_IN2.c **** *  either use the Per-Pin APIs (primary method) or disable interrupts around 
  52:.\Generated_Source\PSoC5/M1_IN2.c **** *  this function.
  53:.\Generated_Source\PSoC5/M1_IN2.c **** *
  54:.\Generated_Source\PSoC5/M1_IN2.c **** * \funcusage
  55:.\Generated_Source\PSoC5/M1_IN2.c **** *  \snippet M1_IN2_SUT.c usage_M1_IN2_Write
  56:.\Generated_Source\PSoC5/M1_IN2.c **** *******************************************************************************/
  57:.\Generated_Source\PSoC5/M1_IN2.c **** void M1_IN2_Write(uint8 value)
  58:.\Generated_Source\PSoC5/M1_IN2.c **** {
  27              		.loc 1 58 0
  28              		.cfi_startproc
  29              		@ args = 0, pretend = 0, frame = 16
  30              		@ frame_needed = 1, uses_anonymous_args = 0
  31              		@ link register save eliminated.
  32 0000 80B4     		push	{r7}
  33              		.cfi_def_cfa_offset 4
  34              		.cfi_offset 7, -4
  35 0002 85B0     		sub	sp, sp, #20
  36              		.cfi_def_cfa_offset 24
  37 0004 00AF     		add	r7, sp, #0
  38              		.cfi_def_cfa_register 7
  39 0006 0346     		mov	r3, r0
  40 0008 FB71     		strb	r3, [r7, #7]
  59:.\Generated_Source\PSoC5/M1_IN2.c ****     uint8 staticBits = (M1_IN2_DR & (uint8)(~M1_IN2_MASK));
  41              		.loc 1 59 0
  42 000a 0B4B     		ldr	r3, .L2
  43 000c 1B78     		ldrb	r3, [r3]
  44 000e DBB2     		uxtb	r3, r3
  45 0010 23F01003 		bic	r3, r3, #16
  46 0014 FB73     		strb	r3, [r7, #15]
  60:.\Generated_Source\PSoC5/M1_IN2.c ****     M1_IN2_DR = staticBits | ((uint8)(value << M1_IN2_SHIFT) & M1_IN2_MASK);
  47              		.loc 1 60 0
  48 0016 0849     		ldr	r1, .L2
  49 0018 FB79     		ldrb	r3, [r7, #7]
  50 001a 1B01     		lsls	r3, r3, #4
  51 001c DBB2     		uxtb	r3, r3
  52 001e 03F01003 		and	r3, r3, #16
  53 0022 DAB2     		uxtb	r2, r3
  54 0024 FB7B     		ldrb	r3, [r7, #15]
ARM GAS  C:\Users\claw541\AppData\Local\Temp\ccVaYI9o.s 			page 3


  55 0026 1343     		orrs	r3, r3, r2
  56 0028 DBB2     		uxtb	r3, r3
  57 002a 0B70     		strb	r3, [r1]
  61:.\Generated_Source\PSoC5/M1_IN2.c **** }
  58              		.loc 1 61 0
  59 002c 1437     		adds	r7, r7, #20
  60              		.cfi_def_cfa_offset 4
  61 002e BD46     		mov	sp, r7
  62              		.cfi_def_cfa_register 13
  63              		@ sp needed
  64 0030 5DF8047B 		ldr	r7, [sp], #4
  65              		.cfi_restore 7
  66              		.cfi_def_cfa_offset 0
  67 0034 7047     		bx	lr
  68              	.L3:
  69 0036 00BF     		.align	2
  70              	.L2:
  71 0038 30510040 		.word	1073762608
  72              		.cfi_endproc
  73              	.LFE0:
  74              		.size	M1_IN2_Write, .-M1_IN2_Write
  75              		.section	.text.M1_IN2_SetDriveMode,"ax",%progbits
  76              		.align	2
  77              		.global	M1_IN2_SetDriveMode
  78              		.thumb
  79              		.thumb_func
  80              		.type	M1_IN2_SetDriveMode, %function
  81              	M1_IN2_SetDriveMode:
  82              	.LFB1:
  62:.\Generated_Source\PSoC5/M1_IN2.c **** 
  63:.\Generated_Source\PSoC5/M1_IN2.c **** 
  64:.\Generated_Source\PSoC5/M1_IN2.c **** /*******************************************************************************
  65:.\Generated_Source\PSoC5/M1_IN2.c **** * Function Name: M1_IN2_SetDriveMode
  66:.\Generated_Source\PSoC5/M1_IN2.c **** ****************************************************************************//**
  67:.\Generated_Source\PSoC5/M1_IN2.c **** *
  68:.\Generated_Source\PSoC5/M1_IN2.c **** * \brief Sets the drive mode for each of the Pins component's pins.
  69:.\Generated_Source\PSoC5/M1_IN2.c **** * 
  70:.\Generated_Source\PSoC5/M1_IN2.c **** * <b>Note</b> This affects all pins in the Pins component instance. Use the
  71:.\Generated_Source\PSoC5/M1_IN2.c **** * Per-Pin APIs if you wish to control individual pin's drive modes.
  72:.\Generated_Source\PSoC5/M1_IN2.c **** *
  73:.\Generated_Source\PSoC5/M1_IN2.c **** * \param mode
  74:.\Generated_Source\PSoC5/M1_IN2.c **** *  Mode for the selected signals. Valid options are documented in 
  75:.\Generated_Source\PSoC5/M1_IN2.c **** *  \ref driveMode.
  76:.\Generated_Source\PSoC5/M1_IN2.c **** *
  77:.\Generated_Source\PSoC5/M1_IN2.c **** * \return
  78:.\Generated_Source\PSoC5/M1_IN2.c **** *  None
  79:.\Generated_Source\PSoC5/M1_IN2.c **** *
  80:.\Generated_Source\PSoC5/M1_IN2.c **** * \sideeffect
  81:.\Generated_Source\PSoC5/M1_IN2.c **** *  If you use read-modify-write operations that are not atomic, the ISR can
  82:.\Generated_Source\PSoC5/M1_IN2.c **** *  cause corruption of this function. An ISR that interrupts this function 
  83:.\Generated_Source\PSoC5/M1_IN2.c **** *  and performs writes to the Pins component Drive Mode registers can cause 
  84:.\Generated_Source\PSoC5/M1_IN2.c **** *  corrupted port data. To avoid this issue, you should either use the Per-Pin
  85:.\Generated_Source\PSoC5/M1_IN2.c **** *  APIs (primary method) or disable interrupts around this function.
  86:.\Generated_Source\PSoC5/M1_IN2.c **** *
  87:.\Generated_Source\PSoC5/M1_IN2.c **** * \funcusage
  88:.\Generated_Source\PSoC5/M1_IN2.c **** *  \snippet M1_IN2_SUT.c usage_M1_IN2_SetDriveMode
  89:.\Generated_Source\PSoC5/M1_IN2.c **** *******************************************************************************/
ARM GAS  C:\Users\claw541\AppData\Local\Temp\ccVaYI9o.s 			page 4


  90:.\Generated_Source\PSoC5/M1_IN2.c **** void M1_IN2_SetDriveMode(uint8 mode)
  91:.\Generated_Source\PSoC5/M1_IN2.c **** {
  83              		.loc 1 91 0
  84              		.cfi_startproc
  85              		@ args = 0, pretend = 0, frame = 8
  86              		@ frame_needed = 1, uses_anonymous_args = 0
  87              		@ link register save eliminated.
  88 0000 80B4     		push	{r7}
  89              		.cfi_def_cfa_offset 4
  90              		.cfi_offset 7, -4
  91 0002 83B0     		sub	sp, sp, #12
  92              		.cfi_def_cfa_offset 16
  93 0004 00AF     		add	r7, sp, #0
  94              		.cfi_def_cfa_register 7
  95 0006 0346     		mov	r3, r0
  96 0008 FB71     		strb	r3, [r7, #7]
  92:.\Generated_Source\PSoC5/M1_IN2.c **** 	CyPins_SetPinDriveMode(M1_IN2_0, mode);
  97              		.loc 1 92 0
  98 000a 0A4B     		ldr	r3, .L5
  99 000c 094A     		ldr	r2, .L5
 100 000e 1278     		ldrb	r2, [r2]
 101 0010 D2B2     		uxtb	r2, r2
 102 0012 D2B2     		uxtb	r2, r2
 103 0014 22F00E02 		bic	r2, r2, #14
 104 0018 D1B2     		uxtb	r1, r2
 105 001a FA79     		ldrb	r2, [r7, #7]	@ zero_extendqisi2
 106 001c 02F00E02 		and	r2, r2, #14
 107 0020 D2B2     		uxtb	r2, r2
 108 0022 0A43     		orrs	r2, r2, r1
 109 0024 D2B2     		uxtb	r2, r2
 110 0026 D2B2     		uxtb	r2, r2
 111 0028 1A70     		strb	r2, [r3]
  93:.\Generated_Source\PSoC5/M1_IN2.c **** }
 112              		.loc 1 93 0
 113 002a 0C37     		adds	r7, r7, #12
 114              		.cfi_def_cfa_offset 4
 115 002c BD46     		mov	sp, r7
 116              		.cfi_def_cfa_register 13
 117              		@ sp needed
 118 002e 5DF8047B 		ldr	r7, [sp], #4
 119              		.cfi_restore 7
 120              		.cfi_def_cfa_offset 0
 121 0032 7047     		bx	lr
 122              	.L6:
 123              		.align	2
 124              	.L5:
 125 0034 1C500040 		.word	1073762332
 126              		.cfi_endproc
 127              	.LFE1:
 128              		.size	M1_IN2_SetDriveMode, .-M1_IN2_SetDriveMode
 129              		.section	.text.M1_IN2_Read,"ax",%progbits
 130              		.align	2
 131              		.global	M1_IN2_Read
 132              		.thumb
 133              		.thumb_func
 134              		.type	M1_IN2_Read, %function
 135              	M1_IN2_Read:
ARM GAS  C:\Users\claw541\AppData\Local\Temp\ccVaYI9o.s 			page 5


 136              	.LFB2:
  94:.\Generated_Source\PSoC5/M1_IN2.c **** 
  95:.\Generated_Source\PSoC5/M1_IN2.c **** 
  96:.\Generated_Source\PSoC5/M1_IN2.c **** /*******************************************************************************
  97:.\Generated_Source\PSoC5/M1_IN2.c **** * Function Name: M1_IN2_Read
  98:.\Generated_Source\PSoC5/M1_IN2.c **** ****************************************************************************//**
  99:.\Generated_Source\PSoC5/M1_IN2.c **** *
 100:.\Generated_Source\PSoC5/M1_IN2.c **** * \brief Reads the associated physical port (pin status register) and masks 
 101:.\Generated_Source\PSoC5/M1_IN2.c **** *  the required bits according to the width and bit position of the component
 102:.\Generated_Source\PSoC5/M1_IN2.c **** *  instance. 
 103:.\Generated_Source\PSoC5/M1_IN2.c **** *
 104:.\Generated_Source\PSoC5/M1_IN2.c **** * The pin's status register returns the current logic level present on the 
 105:.\Generated_Source\PSoC5/M1_IN2.c **** * physical pin.
 106:.\Generated_Source\PSoC5/M1_IN2.c **** *
 107:.\Generated_Source\PSoC5/M1_IN2.c **** * \return 
 108:.\Generated_Source\PSoC5/M1_IN2.c **** *  The current value for the pins in the component as a right justified number.
 109:.\Generated_Source\PSoC5/M1_IN2.c **** *
 110:.\Generated_Source\PSoC5/M1_IN2.c **** * \funcusage
 111:.\Generated_Source\PSoC5/M1_IN2.c **** *  \snippet M1_IN2_SUT.c usage_M1_IN2_Read  
 112:.\Generated_Source\PSoC5/M1_IN2.c **** *******************************************************************************/
 113:.\Generated_Source\PSoC5/M1_IN2.c **** uint8 M1_IN2_Read(void)
 114:.\Generated_Source\PSoC5/M1_IN2.c **** {
 137              		.loc 1 114 0
 138              		.cfi_startproc
 139              		@ args = 0, pretend = 0, frame = 0
 140              		@ frame_needed = 1, uses_anonymous_args = 0
 141              		@ link register save eliminated.
 142 0000 80B4     		push	{r7}
 143              		.cfi_def_cfa_offset 4
 144              		.cfi_offset 7, -4
 145 0002 00AF     		add	r7, sp, #0
 146              		.cfi_def_cfa_register 7
 115:.\Generated_Source\PSoC5/M1_IN2.c ****     return (M1_IN2_PS & M1_IN2_MASK) >> M1_IN2_SHIFT;
 147              		.loc 1 115 0
 148 0004 054B     		ldr	r3, .L9
 149 0006 1B78     		ldrb	r3, [r3]
 150 0008 DBB2     		uxtb	r3, r3
 151 000a 03F01003 		and	r3, r3, #16
 152 000e 1B09     		lsrs	r3, r3, #4
 153 0010 DBB2     		uxtb	r3, r3
 116:.\Generated_Source\PSoC5/M1_IN2.c **** }
 154              		.loc 1 116 0
 155 0012 1846     		mov	r0, r3
 156 0014 BD46     		mov	sp, r7
 157              		.cfi_def_cfa_register 13
 158              		@ sp needed
 159 0016 5DF8047B 		ldr	r7, [sp], #4
 160              		.cfi_restore 7
 161              		.cfi_def_cfa_offset 0
 162 001a 7047     		bx	lr
 163              	.L10:
 164              		.align	2
 165              	.L9:
 166 001c 31510040 		.word	1073762609
 167              		.cfi_endproc
 168              	.LFE2:
 169              		.size	M1_IN2_Read, .-M1_IN2_Read
ARM GAS  C:\Users\claw541\AppData\Local\Temp\ccVaYI9o.s 			page 6


 170              		.section	.text.M1_IN2_ReadDataReg,"ax",%progbits
 171              		.align	2
 172              		.global	M1_IN2_ReadDataReg
 173              		.thumb
 174              		.thumb_func
 175              		.type	M1_IN2_ReadDataReg, %function
 176              	M1_IN2_ReadDataReg:
 177              	.LFB3:
 117:.\Generated_Source\PSoC5/M1_IN2.c **** 
 118:.\Generated_Source\PSoC5/M1_IN2.c **** 
 119:.\Generated_Source\PSoC5/M1_IN2.c **** /*******************************************************************************
 120:.\Generated_Source\PSoC5/M1_IN2.c **** * Function Name: M1_IN2_ReadDataReg
 121:.\Generated_Source\PSoC5/M1_IN2.c **** ****************************************************************************//**
 122:.\Generated_Source\PSoC5/M1_IN2.c **** *
 123:.\Generated_Source\PSoC5/M1_IN2.c **** * \brief Reads the associated physical port's data output register and masks 
 124:.\Generated_Source\PSoC5/M1_IN2.c **** *  the correct bits according to the width and bit position of the component 
 125:.\Generated_Source\PSoC5/M1_IN2.c **** *  instance. 
 126:.\Generated_Source\PSoC5/M1_IN2.c **** *
 127:.\Generated_Source\PSoC5/M1_IN2.c **** * The data output register controls the signal applied to the physical pin in 
 128:.\Generated_Source\PSoC5/M1_IN2.c **** * conjunction with the drive mode parameter. This is not the same as the 
 129:.\Generated_Source\PSoC5/M1_IN2.c **** * preferred M1_IN2_Read() API because the 
 130:.\Generated_Source\PSoC5/M1_IN2.c **** * M1_IN2_ReadDataReg() reads the data register instead of the status 
 131:.\Generated_Source\PSoC5/M1_IN2.c **** * register. For output pins this is a useful function to determine the value 
 132:.\Generated_Source\PSoC5/M1_IN2.c **** * just written to the pin.
 133:.\Generated_Source\PSoC5/M1_IN2.c **** *
 134:.\Generated_Source\PSoC5/M1_IN2.c **** * \return 
 135:.\Generated_Source\PSoC5/M1_IN2.c **** *  The current value of the data register masked and shifted into a right 
 136:.\Generated_Source\PSoC5/M1_IN2.c **** *  justified number for the component instance.
 137:.\Generated_Source\PSoC5/M1_IN2.c **** *
 138:.\Generated_Source\PSoC5/M1_IN2.c **** * \funcusage
 139:.\Generated_Source\PSoC5/M1_IN2.c **** *  \snippet M1_IN2_SUT.c usage_M1_IN2_ReadDataReg 
 140:.\Generated_Source\PSoC5/M1_IN2.c **** *******************************************************************************/
 141:.\Generated_Source\PSoC5/M1_IN2.c **** uint8 M1_IN2_ReadDataReg(void)
 142:.\Generated_Source\PSoC5/M1_IN2.c **** {
 178              		.loc 1 142 0
 179              		.cfi_startproc
 180              		@ args = 0, pretend = 0, frame = 0
 181              		@ frame_needed = 1, uses_anonymous_args = 0
 182              		@ link register save eliminated.
 183 0000 80B4     		push	{r7}
 184              		.cfi_def_cfa_offset 4
 185              		.cfi_offset 7, -4
 186 0002 00AF     		add	r7, sp, #0
 187              		.cfi_def_cfa_register 7
 143:.\Generated_Source\PSoC5/M1_IN2.c ****     return (M1_IN2_DR & M1_IN2_MASK) >> M1_IN2_SHIFT;
 188              		.loc 1 143 0
 189 0004 054B     		ldr	r3, .L13
 190 0006 1B78     		ldrb	r3, [r3]
 191 0008 DBB2     		uxtb	r3, r3
 192 000a 03F01003 		and	r3, r3, #16
 193 000e 1B09     		lsrs	r3, r3, #4
 194 0010 DBB2     		uxtb	r3, r3
 144:.\Generated_Source\PSoC5/M1_IN2.c **** }
 195              		.loc 1 144 0
 196 0012 1846     		mov	r0, r3
 197 0014 BD46     		mov	sp, r7
 198              		.cfi_def_cfa_register 13
ARM GAS  C:\Users\claw541\AppData\Local\Temp\ccVaYI9o.s 			page 7


 199              		@ sp needed
 200 0016 5DF8047B 		ldr	r7, [sp], #4
 201              		.cfi_restore 7
 202              		.cfi_def_cfa_offset 0
 203 001a 7047     		bx	lr
 204              	.L14:
 205              		.align	2
 206              	.L13:
 207 001c 30510040 		.word	1073762608
 208              		.cfi_endproc
 209              	.LFE3:
 210              		.size	M1_IN2_ReadDataReg, .-M1_IN2_ReadDataReg
 211              		.text
 212              	.Letext0:
 213              		.file 2 ".\\Generated_Source\\PSoC5\\cytypes.h"
