ARM GAS  C:\Users\Leo\AppData\Local\Temp\ccpyyUor.s 			page 1


   1              		.syntax unified
   2              		.cpu cortex-m3
   3              		.fpu softvfp
   4              		.eabi_attribute 20, 1
   5              		.eabi_attribute 21, 1
   6              		.eabi_attribute 23, 3
   7              		.eabi_attribute 24, 1
   8              		.eabi_attribute 25, 1
   9              		.eabi_attribute 26, 1
  10              		.eabi_attribute 30, 6
  11              		.eabi_attribute 34, 1
  12              		.eabi_attribute 18, 4
  13              		.thumb
  14              		.file	"main.c"
  15              		.text
  16              	.Ltext0:
  17              		.cfi_sections	.debug_frame
  18              		.global	ts
  19              		.bss
  20              		.type	ts, %object
  21              		.size	ts, 1
  22              	ts:
  23 0000 00       		.space	1
  24              		.global	ts_enc
  25 0001 00       		.align	1
  26              		.type	ts_enc, %object
  27              		.size	ts_enc, 2
  28              	ts_enc:
  29 0002 0000     		.space	2
  30              		.global	ts_update
  31              		.align	1
  32              		.type	ts_update, %object
  33              		.size	ts_update, 2
  34              	ts_update:
  35 0004 0000     		.space	2
  36              		.global	ts_speed
  37              		.align	1
  38              		.type	ts_speed, %object
  39              		.size	ts_speed, 2
  40              	ts_speed:
  41 0006 0000     		.space	2
  42              		.global	ts_display
  43              		.align	1
  44              		.type	ts_display, %object
  45              		.size	ts_display, 2
  46              	ts_display:
  47 0008 0000     		.space	2
  48              		.global	flag_ts_enc
  49              		.type	flag_ts_enc, %object
  50              		.size	flag_ts_enc, 1
  51              	flag_ts_enc:
  52 000a 00       		.space	1
  53              		.global	flag_ts_update
  54              		.type	flag_ts_update, %object
  55              		.size	flag_ts_update, 1
  56              	flag_ts_update:
  57 000b 00       		.space	1
ARM GAS  C:\Users\Leo\AppData\Local\Temp\ccpyyUor.s 			page 2


  58              		.global	flag_ts_speed
  59              		.type	flag_ts_speed, %object
  60              		.size	flag_ts_speed, 1
  61              	flag_ts_speed:
  62 000c 00       		.space	1
  63              		.global	flag_ts_display
  64              		.type	flag_ts_display, %object
  65              		.size	flag_ts_display, 1
  66              	flag_ts_display:
  67 000d 00       		.space	1
  68              		.global	flag_rx
  69              		.type	flag_rx, %object
  70              		.size	flag_rx, 1
  71              	flag_rx:
  72 000e 00       		.space	1
  73              		.global	flag_packet
  74              		.type	flag_packet, %object
  75              		.size	flag_packet, 1
  76              	flag_packet:
  77 000f 00       		.space	1
  78              		.global	flag_KB_string
  79              		.type	flag_KB_string, %object
  80              		.size	flag_KB_string, 1
  81              	flag_KB_string:
  82 0010 00       		.space	1
  83              		.global	dataready_flag
  84              		.type	dataready_flag, %object
  85              		.size	dataready_flag, 1
  86              	dataready_flag:
  87 0011 00       		.space	1
  88              		.global	flag_rf_transmission_active
  89              		.data
  90              		.type	flag_rf_transmission_active, %object
  91              		.size	flag_rf_transmission_active, 1
  92              	flag_rf_transmission_active:
  93 0000 0A       		.byte	10
  94              		.global	displaystring
  95 0001 000000   		.align	2
  96              		.type	displaystring, %object
  97              		.size	displaystring, 64
  98              	displaystring:
  99 0004 43533330 		.ascii	"CS301 2016\012\000"
  99      31203230 
  99      31360A00 
 100 0010 00000000 		.space	52
 100      00000000 
 100      00000000 
 100      00000000 
 100      00000000 
 101              		.comm	line,64,4
 102              		.comm	entry,64,4
 103              		.comm	usbBuffer,64,4
 104              		.comm	system_state,32,4
 105              		.comm	MODE,4,4
 106              		.comm	ADC_Out0,4,4
 107              		.comm	ADC_Out1,4,4
 108              		.comm	ADC_Out2,4,4
ARM GAS  C:\Users\Leo\AppData\Local\Temp\ccpyyUor.s 			page 3


 109              		.comm	ADC_Out3,4,4
 110              		.comm	ADC_Out4,4,4
 111              		.comm	ADC_Out5,4,4
 112              		.comm	ADC_Out6,4,4
 113              		.comm	A1itr,4,4
 114              		.comm	A1OnIsTrue,4,4
 115              		.comm	A2itr,4,4
 116              		.comm	A2OnIsTrue,4,4
 117              		.comm	A3itr,4,4
 118              		.comm	A3OnIsTrue,4,4
 119              		.comm	A4itr,4,4
 120              		.comm	A4OnIsTrue,4,4
 121              		.comm	A5itr,4,4
 122              		.comm	A5OnIsTrue,4,4
 123              		.comm	A0itr,4,4
 124              		.comm	A0OnIsTrue,4,4
 125              		.comm	outputline,4,4
 126              		.comm	v0,4,4
 127              		.comm	v1,4,4
 128              		.comm	v2,4,4
 129              		.comm	v3,4,4
 130              		.comm	v4,4,4
 131              		.comm	v5,4,4
 132              		.comm	v6,4,4
 133              		.comm	m1,4,4
 134              		.comm	m2,4,4
 135              		.comm	rx0,4,4
 136              		.comm	rx1,4,4
 137              		.comm	print,4,4
 138              		.comm	enable,4,4
 139              		.comm	rxindex,4,4
 140              		.global	i
 141              		.bss
 142 0012 0000     		.align	2
 143              		.type	i, %object
 144              		.size	i, 4
 145              	i:
 146 0014 00000000 		.space	4
 147              		.comm	a0_array,300,4
 148              		.comm	a1_array,300,4
 149              		.comm	a2_array,300,4
 150              		.comm	a3_array,300,4
 151              		.comm	a4_array,300,4
 152              		.comm	a5_array,300,4
 153              		.comm	a6_array,300,4
 154              		.global	a0_increase
 155              		.data
 156              		.type	a0_increase, %object
 157              		.size	a0_increase, 1
 158              	a0_increase:
 159 0044 01       		.byte	1
 160              		.global	a0_decrease
 161              		.type	a0_decrease, %object
 162              		.size	a0_decrease, 1
 163              	a0_decrease:
 164 0045 01       		.byte	1
 165              		.global	a1_increase
ARM GAS  C:\Users\Leo\AppData\Local\Temp\ccpyyUor.s 			page 4


 166              		.type	a1_increase, %object
 167              		.size	a1_increase, 1
 168              	a1_increase:
 169 0046 01       		.byte	1
 170              		.global	a1_decrease
 171              		.type	a1_decrease, %object
 172              		.size	a1_decrease, 1
 173              	a1_decrease:
 174 0047 01       		.byte	1
 175              		.global	a2_increase
 176              		.type	a2_increase, %object
 177              		.size	a2_increase, 1
 178              	a2_increase:
 179 0048 01       		.byte	1
 180              		.global	a2_decrease
 181              		.type	a2_decrease, %object
 182              		.size	a2_decrease, 1
 183              	a2_decrease:
 184 0049 01       		.byte	1
 185              		.global	a3_increase
 186              		.type	a3_increase, %object
 187              		.size	a3_increase, 1
 188              	a3_increase:
 189 004a 01       		.byte	1
 190              		.global	a3_decrease
 191              		.type	a3_decrease, %object
 192              		.size	a3_decrease, 1
 193              	a3_decrease:
 194 004b 01       		.byte	1
 195              		.global	a4_increase
 196              		.type	a4_increase, %object
 197              		.size	a4_increase, 1
 198              	a4_increase:
 199 004c 01       		.byte	1
 200              		.global	a4_decrease
 201              		.type	a4_decrease, %object
 202              		.size	a4_decrease, 1
 203              	a4_decrease:
 204 004d 01       		.byte	1
 205              		.global	a5_increase
 206              		.type	a5_increase, %object
 207              		.size	a5_increase, 1
 208              	a5_increase:
 209 004e 01       		.byte	1
 210              		.global	a5_decrease
 211              		.type	a5_decrease, %object
 212              		.size	a5_decrease, 1
 213              	a5_decrease:
 214 004f 01       		.byte	1
 215              		.global	a0_high
 216              		.bss
 217              		.align	2
 218              		.type	a0_high, %object
 219              		.size	a0_high, 4
 220              	a0_high:
 221 0018 00000000 		.space	4
 222              		.global	a0_low
ARM GAS  C:\Users\Leo\AppData\Local\Temp\ccpyyUor.s 			page 5


 223              		.align	2
 224              		.type	a0_low, %object
 225              		.size	a0_low, 4
 226              	a0_low:
 227 001c 00000000 		.space	4
 228              		.global	a1_high
 229              		.align	2
 230              		.type	a1_high, %object
 231              		.size	a1_high, 4
 232              	a1_high:
 233 0020 00000000 		.space	4
 234              		.global	a1_low
 235              		.align	2
 236              		.type	a1_low, %object
 237              		.size	a1_low, 4
 238              	a1_low:
 239 0024 00000000 		.space	4
 240              		.global	a2_high
 241              		.align	2
 242              		.type	a2_high, %object
 243              		.size	a2_high, 4
 244              	a2_high:
 245 0028 00000000 		.space	4
 246              		.global	a2_low
 247              		.align	2
 248              		.type	a2_low, %object
 249              		.size	a2_low, 4
 250              	a2_low:
 251 002c 00000000 		.space	4
 252              		.global	a3_high
 253              		.align	2
 254              		.type	a3_high, %object
 255              		.size	a3_high, 4
 256              	a3_high:
 257 0030 00000000 		.space	4
 258              		.global	a3_low
 259              		.align	2
 260              		.type	a3_low, %object
 261              		.size	a3_low, 4
 262              	a3_low:
 263 0034 00000000 		.space	4
 264              		.global	a4_high
 265              		.align	2
 266              		.type	a4_high, %object
 267              		.size	a4_high, 4
 268              	a4_high:
 269 0038 00000000 		.space	4
 270              		.global	a4_low
 271              		.align	2
 272              		.type	a4_low, %object
 273              		.size	a4_low, 4
 274              	a4_low:
 275 003c 00000000 		.space	4
 276              		.global	a5_high
 277              		.align	2
 278              		.type	a5_high, %object
 279              		.size	a5_high, 4
ARM GAS  C:\Users\Leo\AppData\Local\Temp\ccpyyUor.s 			page 6


 280              	a5_high:
 281 0040 00000000 		.space	4
 282              		.global	a5_low
 283              		.align	2
 284              		.type	a5_low, %object
 285              		.size	a5_low, 4
 286              	a5_low:
 287 0044 00000000 		.space	4
 288              		.comm	dest,5,4
 289              		.comm	a0,10,4
 290              		.comm	a1,10,4
 291              		.comm	a2,10,4
 292              		.comm	a3,10,4
 293              		.comm	a4,10,4
 294              		.comm	a5,10,4
 295              		.comm	a6,10,4
 296              		.comm	rx_data_state,32,4
 297              		.global	__aeabi_i2d
 298              		.global	__aeabi_dmul
 299              		.global	__aeabi_d2iz
 300              		.section	.text.ADC_ISR,"ax",%progbits
 301              		.align	2
 302              		.global	ADC_ISR
 303              		.thumb
 304              		.thumb_func
 305              		.type	ADC_ISR, %function
 306              	ADC_ISR:
 307              	.LFB63:
 308              		.file 1 ".\\main.c"
   1:.\main.c      **** /* ========================================
   2:.\main.c      ****  * Fully working code: 
   3:.\main.c      ****  * PWM      : 
   4:.\main.c      ****  * Encoder  : 
   5:.\main.c      ****  * ADC      :
   6:.\main.c      ****  * USB      : port displays speed and position.
   7:.\main.c      ****  * CMD: "PW xx"
   8:.\main.c      ****  * Copyright Univ of Auckland, 2016
   9:.\main.c      ****  * All Rights Reserved
  10:.\main.c      ****  * UNPUBLISHED, LICENSED SOFTWARE.
  11:.\main.c      ****  *
  12:.\main.c      ****  * CONFIDENTIAL AND PROPRIETARY INFORMATION
  13:.\main.c      ****  * WHICH IS THE PROPERTY OF Univ of Auckland.
  14:.\main.c      ****  *
  15:.\main.c      ****  * ========================================
  16:.\main.c      **** */
  17:.\main.c      **** #include <stdio.h>
  18:.\main.c      **** #include <string.h>
  19:.\main.c      **** #include <stdlib.h>
  20:.\main.c      **** #include <project.h>
  21:.\main.c      **** //* ========================================
  22:.\main.c      **** #include "defines.h"
  23:.\main.c      **** #include "vars.h"
  24:.\main.c      **** //* ========================================
  25:.\main.c      **** void usbPutString(char *s);
  26:.\main.c      **** void usbPutChar(char c);
  27:.\main.c      **** void handle_usb();
  28:.\main.c      **** //* ========================================
ARM GAS  C:\Users\Leo\AppData\Local\Temp\ccpyyUor.s 			page 7


  29:.\main.c      **** int MODE;
  30:.\main.c      **** 
  31:.\main.c      **** int ADC_Out0, ADC_Out1, ADC_Out2, ADC_Out3, ADC_Out4, ADC_Out5, ADC_Out6;
  32:.\main.c      **** 
  33:.\main.c      **** int A1itr, A1OnIsTrue;
  34:.\main.c      **** int A2itr, A2OnIsTrue;
  35:.\main.c      **** int A3itr, A3OnIsTrue;
  36:.\main.c      **** int A4itr, A4OnIsTrue;
  37:.\main.c      **** int A5itr, A5OnIsTrue;
  38:.\main.c      **** int A0itr, A0OnIsTrue;
  39:.\main.c      **** 
  40:.\main.c      **** char* outputline;
  41:.\main.c      **** int v0, v1, v2, v3, v4, v5,v6;
  42:.\main.c      **** int m1, m2;
  43:.\main.c      **** int rx0, rx1, print;
  44:.\main.c      **** int enable, rxindex;
  45:.\main.c      **** 
  46:.\main.c      **** int i = 0;
  47:.\main.c      **** int a0_array[75];
  48:.\main.c      **** int a1_array[75];
  49:.\main.c      **** int a2_array[75];
  50:.\main.c      **** int a3_array[75];
  51:.\main.c      **** int a4_array[75];
  52:.\main.c      **** int a5_array[75];
  53:.\main.c      **** int a6_array[75];
  54:.\main.c      **** 
  55:.\main.c      **** _Bool a0_increase = 1;
  56:.\main.c      **** _Bool a0_decrease = 1;
  57:.\main.c      **** _Bool a1_increase = 1;
  58:.\main.c      **** _Bool a1_decrease = 1;
  59:.\main.c      **** _Bool a2_increase = 1;
  60:.\main.c      **** _Bool a2_decrease = 1;
  61:.\main.c      **** _Bool a3_increase = 1;
  62:.\main.c      **** _Bool a3_decrease = 1;
  63:.\main.c      **** _Bool a4_increase = 1;
  64:.\main.c      **** _Bool a4_decrease = 1;
  65:.\main.c      **** _Bool a5_increase = 1;
  66:.\main.c      **** _Bool a5_decrease = 1;
  67:.\main.c      **** 
  68:.\main.c      **** int a0_high = 0;
  69:.\main.c      **** int a0_low = 0;
  70:.\main.c      **** int a1_high = 0;
  71:.\main.c      **** int a1_low = 0;
  72:.\main.c      **** int a2_high = 0;
  73:.\main.c      **** int a2_low = 0;
  74:.\main.c      **** int a3_high = 0;
  75:.\main.c      **** int a3_low = 0;
  76:.\main.c      **** int a4_high = 0;
  77:.\main.c      **** int a4_low = 0;
  78:.\main.c      **** int a5_high = 0;
  79:.\main.c      **** int a5_low = 0;
  80:.\main.c      **** 
  81:.\main.c      **** char dest[5];
  82:.\main.c      **** char a0[10];
  83:.\main.c      **** char a1[10];
  84:.\main.c      **** char a2[10];
  85:.\main.c      **** char a3[10];
ARM GAS  C:\Users\Leo\AppData\Local\Temp\ccpyyUor.s 			page 8


  86:.\main.c      **** char a4[10];
  87:.\main.c      **** char a5[10];
  88:.\main.c      **** char a6[10];
  89:.\main.c      **** 
  90:.\main.c      **** typedef struct rx_data {
  91:.\main.c      **** 	int8            rssi;	
  92:.\main.c      ****     uint8           index;			// index number of packet. incremented number
  93:.\main.c      **** 	uint16			robot_xpos;	 	// 
  94:.\main.c      **** 	uint16			robot_ypos;		//
  95:.\main.c      ****     uint16         robot_orientation;
  96:.\main.c      **** 	uint16			g0_xpos;		//
  97:.\main.c      **** 	uint16			g0_ypos;		//
  98:.\main.c      **** 	uint16			g0_speed;		//
  99:.\main.c      **** 	uint16		g0_direction;	//
 100:.\main.c      **** 	uint16			g1_xpos;		//
 101:.\main.c      **** 	uint16			g1_ypos;		//
 102:.\main.c      **** 	uint16			g1_speed;		//
 103:.\main.c      ****     uint16		g1_direction;	//
 104:.\main.c      ****     uint16			g2_xpos;		//
 105:.\main.c      ****     uint16			g2_ypos;		//
 106:.\main.c      ****     uint16			g2_speed;		//
 107:.\main.c      ****     uint16		g2_direction;	//
 108:.\main.c      **** } rxtype1;
 109:.\main.c      **** 
 110:.\main.c      **** struct rx_data rx_data_state;
 111:.\main.c      **** 
 112:.\main.c      **** CY_ISR( ADC_ISR )
 113:.\main.c      **** {
 309              		.loc 1 113 0
 310              		.cfi_startproc
 311              		@ args = 0, pretend = 0, frame = 0
 312              		@ frame_needed = 1, uses_anonymous_args = 0
 313 0000 80B5     		push	{r7, lr}
 314              		.cfi_def_cfa_offset 8
 315              		.cfi_offset 7, -8
 316              		.cfi_offset 14, -4
 317 0002 00AF     		add	r7, sp, #0
 318              		.cfi_def_cfa_register 7
 114:.\main.c      ****     #ifdef ADC_ISR_INTERRUPT_CALLBACK
 115:.\main.c      ****         ADC_ISR_InterruptCallback();
 116:.\main.c      ****     #endif // ADC_SAR_Seq_ISR_INTERRUPT_CALLBACK 
 117:.\main.c      ****     // ***********************************************************************
 118:.\main.c      ****     // * Custom Code
 119:.\main.c      ****     // * - add user ISR code between the following #START and #END tags
 120:.\main.c      ****     // ************************************************************************ 
 121:.\main.c      ****     // `#START MAIN_SEQ_ADC_ISR` 
 122:.\main.c      ****     //    ADC_StopConvert();
 123:.\main.c      ****     
 124:.\main.c      ****        // ADC_StartConvert();
 125:.\main.c      ****         
 126:.\main.c      ****         
 127:.\main.c      ****         ADC_Out0 = ADC_GetResult16(0);
 319              		.loc 1 127 0
 320 0004 0020     		movs	r0, #0
 321 0006 FFF7FEFF 		bl	ADC_GetResult16
 322 000a 0346     		mov	r3, r0
 323 000c 1A46     		mov	r2, r3
ARM GAS  C:\Users\Leo\AppData\Local\Temp\ccpyyUor.s 			page 9


 324 000e AC4B     		ldr	r3, .L4+8
 325 0010 1A60     		str	r2, [r3]
 128:.\main.c      ****         ADC_Out1 = ADC_GetResult16(1);
 326              		.loc 1 128 0
 327 0012 0120     		movs	r0, #1
 328 0014 FFF7FEFF 		bl	ADC_GetResult16
 329 0018 0346     		mov	r3, r0
 330 001a 1A46     		mov	r2, r3
 331 001c A94B     		ldr	r3, .L4+12
 332 001e 1A60     		str	r2, [r3]
 129:.\main.c      ****         ADC_Out2 = ADC_GetResult16(2);
 333              		.loc 1 129 0
 334 0020 0220     		movs	r0, #2
 335 0022 FFF7FEFF 		bl	ADC_GetResult16
 336 0026 0346     		mov	r3, r0
 337 0028 1A46     		mov	r2, r3
 338 002a A74B     		ldr	r3, .L4+16
 339 002c 1A60     		str	r2, [r3]
 130:.\main.c      ****         ADC_Out3 = ADC_GetResult16(3);
 340              		.loc 1 130 0
 341 002e 0320     		movs	r0, #3
 342 0030 FFF7FEFF 		bl	ADC_GetResult16
 343 0034 0346     		mov	r3, r0
 344 0036 1A46     		mov	r2, r3
 345 0038 A44B     		ldr	r3, .L4+20
 346 003a 1A60     		str	r2, [r3]
 131:.\main.c      ****         ADC_Out4 = ADC_GetResult16(4);
 347              		.loc 1 131 0
 348 003c 0420     		movs	r0, #4
 349 003e FFF7FEFF 		bl	ADC_GetResult16
 350 0042 0346     		mov	r3, r0
 351 0044 1A46     		mov	r2, r3
 352 0046 A24B     		ldr	r3, .L4+24
 353 0048 1A60     		str	r2, [r3]
 132:.\main.c      ****         ADC_Out5 = ADC_GetResult16(5);
 354              		.loc 1 132 0
 355 004a 0520     		movs	r0, #5
 356 004c FFF7FEFF 		bl	ADC_GetResult16
 357 0050 0346     		mov	r3, r0
 358 0052 1A46     		mov	r2, r3
 359 0054 9F4B     		ldr	r3, .L4+28
 360 0056 1A60     		str	r2, [r3]
 133:.\main.c      ****         ADC_Out6 = ADC_GetResult16(6);
 361              		.loc 1 133 0
 362 0058 0620     		movs	r0, #6
 363 005a FFF7FEFF 		bl	ADC_GetResult16
 364 005e 0346     		mov	r3, r0
 365 0060 1A46     		mov	r2, r3
 366 0062 9D4B     		ldr	r3, .L4+32
 367 0064 1A60     		str	r2, [r3]
 134:.\main.c      ****         
 135:.\main.c      ****         v6 = ADC_CountsTo_mVolts(ADC_Out6);
 368              		.loc 1 135 0
 369 0066 9C4B     		ldr	r3, .L4+32
 370 0068 1B68     		ldr	r3, [r3]
 371 006a 9BB2     		uxth	r3, r3
 372 006c 1BB2     		sxth	r3, r3
ARM GAS  C:\Users\Leo\AppData\Local\Temp\ccpyyUor.s 			page 10


 373 006e 1846     		mov	r0, r3
 374 0070 FFF7FEFF 		bl	ADC_CountsTo_mVolts
 375 0074 0246     		mov	r2, r0
 376 0076 994B     		ldr	r3, .L4+36
 377 0078 1A60     		str	r2, [r3]
 136:.\main.c      ****         v6 = v6*4.58;
 378              		.loc 1 136 0
 379 007a 984B     		ldr	r3, .L4+36
 380 007c 1B68     		ldr	r3, [r3]
 381 007e 1846     		mov	r0, r3
 382 0080 FFF7FEFF 		bl	__aeabi_i2d
 383 0084 0246     		mov	r2, r0
 384 0086 0B46     		mov	r3, r1
 385 0088 1046     		mov	r0, r2
 386 008a 1946     		mov	r1, r3
 387 008c 8AA3     		adr	r3, .L4
 388 008e D3E90023 		ldrd	r2, [r3]
 389 0092 FFF7FEFF 		bl	__aeabi_dmul
 390 0096 0246     		mov	r2, r0
 391 0098 0B46     		mov	r3, r1
 392 009a 1046     		mov	r0, r2
 393 009c 1946     		mov	r1, r3
 394 009e FFF7FEFF 		bl	__aeabi_d2iz
 395 00a2 0246     		mov	r2, r0
 396 00a4 8D4B     		ldr	r3, .L4+36
 397 00a6 1A60     		str	r2, [r3]
 137:.\main.c      ****         a6_array[i] = v6;
 398              		.loc 1 137 0
 399 00a8 8D4B     		ldr	r3, .L4+40
 400 00aa 1B68     		ldr	r3, [r3]
 401 00ac 8B4A     		ldr	r2, .L4+36
 402 00ae 1268     		ldr	r2, [r2]
 403 00b0 8C49     		ldr	r1, .L4+44
 404 00b2 41F82320 		str	r2, [r1, r3, lsl #2]
 138:.\main.c      ****         
 139:.\main.c      ****         v0 = ADC_CountsTo_mVolts(ADC_Out0);
 405              		.loc 1 139 0
 406 00b6 824B     		ldr	r3, .L4+8
 407 00b8 1B68     		ldr	r3, [r3]
 408 00ba 9BB2     		uxth	r3, r3
 409 00bc 1BB2     		sxth	r3, r3
 410 00be 1846     		mov	r0, r3
 411 00c0 FFF7FEFF 		bl	ADC_CountsTo_mVolts
 412 00c4 0246     		mov	r2, r0
 413 00c6 884B     		ldr	r3, .L4+48
 414 00c8 1A60     		str	r2, [r3]
 140:.\main.c      ****         v0 = v0 * 4.58;
 415              		.loc 1 140 0
 416 00ca 874B     		ldr	r3, .L4+48
 417 00cc 1B68     		ldr	r3, [r3]
 418 00ce 1846     		mov	r0, r3
 419 00d0 FFF7FEFF 		bl	__aeabi_i2d
 420 00d4 0246     		mov	r2, r0
 421 00d6 0B46     		mov	r3, r1
 422 00d8 1046     		mov	r0, r2
 423 00da 1946     		mov	r1, r3
 424 00dc 76A3     		adr	r3, .L4
ARM GAS  C:\Users\Leo\AppData\Local\Temp\ccpyyUor.s 			page 11


 425 00de D3E90023 		ldrd	r2, [r3]
 426 00e2 FFF7FEFF 		bl	__aeabi_dmul
 427 00e6 0246     		mov	r2, r0
 428 00e8 0B46     		mov	r3, r1
 429 00ea 1046     		mov	r0, r2
 430 00ec 1946     		mov	r1, r3
 431 00ee FFF7FEFF 		bl	__aeabi_d2iz
 432 00f2 0246     		mov	r2, r0
 433 00f4 7C4B     		ldr	r3, .L4+48
 434 00f6 1A60     		str	r2, [r3]
 141:.\main.c      ****         a0_array[i] = v0;
 435              		.loc 1 141 0
 436 00f8 794B     		ldr	r3, .L4+40
 437 00fa 1B68     		ldr	r3, [r3]
 438 00fc 7A4A     		ldr	r2, .L4+48
 439 00fe 1268     		ldr	r2, [r2]
 440 0100 7A49     		ldr	r1, .L4+52
 441 0102 41F82320 		str	r2, [r1, r3, lsl #2]
 142:.\main.c      ****         
 143:.\main.c      ****         v1 = ADC_CountsTo_mVolts(ADC_Out1);
 442              		.loc 1 143 0
 443 0106 6F4B     		ldr	r3, .L4+12
 444 0108 1B68     		ldr	r3, [r3]
 445 010a 9BB2     		uxth	r3, r3
 446 010c 1BB2     		sxth	r3, r3
 447 010e 1846     		mov	r0, r3
 448 0110 FFF7FEFF 		bl	ADC_CountsTo_mVolts
 449 0114 0246     		mov	r2, r0
 450 0116 764B     		ldr	r3, .L4+56
 451 0118 1A60     		str	r2, [r3]
 144:.\main.c      ****         v1 = v1 * 4.58;
 452              		.loc 1 144 0
 453 011a 754B     		ldr	r3, .L4+56
 454 011c 1B68     		ldr	r3, [r3]
 455 011e 1846     		mov	r0, r3
 456 0120 FFF7FEFF 		bl	__aeabi_i2d
 457 0124 0246     		mov	r2, r0
 458 0126 0B46     		mov	r3, r1
 459 0128 1046     		mov	r0, r2
 460 012a 1946     		mov	r1, r3
 461 012c 62A3     		adr	r3, .L4
 462 012e D3E90023 		ldrd	r2, [r3]
 463 0132 FFF7FEFF 		bl	__aeabi_dmul
 464 0136 0246     		mov	r2, r0
 465 0138 0B46     		mov	r3, r1
 466 013a 1046     		mov	r0, r2
 467 013c 1946     		mov	r1, r3
 468 013e FFF7FEFF 		bl	__aeabi_d2iz
 469 0142 0246     		mov	r2, r0
 470 0144 6A4B     		ldr	r3, .L4+56
 471 0146 1A60     		str	r2, [r3]
 145:.\main.c      ****         a1_array[i] = v1;
 472              		.loc 1 145 0
 473 0148 654B     		ldr	r3, .L4+40
 474 014a 1B68     		ldr	r3, [r3]
 475 014c 684A     		ldr	r2, .L4+56
 476 014e 1268     		ldr	r2, [r2]
ARM GAS  C:\Users\Leo\AppData\Local\Temp\ccpyyUor.s 			page 12


 477 0150 6849     		ldr	r1, .L4+60
 478 0152 41F82320 		str	r2, [r1, r3, lsl #2]
 146:.\main.c      ****         
 147:.\main.c      ****         v2 = ADC_CountsTo_mVolts(ADC_Out2);
 479              		.loc 1 147 0
 480 0156 5C4B     		ldr	r3, .L4+16
 481 0158 1B68     		ldr	r3, [r3]
 482 015a 9BB2     		uxth	r3, r3
 483 015c 1BB2     		sxth	r3, r3
 484 015e 1846     		mov	r0, r3
 485 0160 FFF7FEFF 		bl	ADC_CountsTo_mVolts
 486 0164 0246     		mov	r2, r0
 487 0166 644B     		ldr	r3, .L4+64
 488 0168 1A60     		str	r2, [r3]
 148:.\main.c      ****         v2 = v2 * 4.58;
 489              		.loc 1 148 0
 490 016a 634B     		ldr	r3, .L4+64
 491 016c 1B68     		ldr	r3, [r3]
 492 016e 1846     		mov	r0, r3
 493 0170 FFF7FEFF 		bl	__aeabi_i2d
 494 0174 0246     		mov	r2, r0
 495 0176 0B46     		mov	r3, r1
 496 0178 1046     		mov	r0, r2
 497 017a 1946     		mov	r1, r3
 498 017c 4EA3     		adr	r3, .L4
 499 017e D3E90023 		ldrd	r2, [r3]
 500 0182 FFF7FEFF 		bl	__aeabi_dmul
 501 0186 0246     		mov	r2, r0
 502 0188 0B46     		mov	r3, r1
 503 018a 1046     		mov	r0, r2
 504 018c 1946     		mov	r1, r3
 505 018e FFF7FEFF 		bl	__aeabi_d2iz
 506 0192 0246     		mov	r2, r0
 507 0194 584B     		ldr	r3, .L4+64
 508 0196 1A60     		str	r2, [r3]
 149:.\main.c      ****         a2_array[i] = v2;
 509              		.loc 1 149 0
 510 0198 514B     		ldr	r3, .L4+40
 511 019a 1B68     		ldr	r3, [r3]
 512 019c 564A     		ldr	r2, .L4+64
 513 019e 1268     		ldr	r2, [r2]
 514 01a0 5649     		ldr	r1, .L4+68
 515 01a2 41F82320 		str	r2, [r1, r3, lsl #2]
 150:.\main.c      ****         
 151:.\main.c      ****         v3 = ADC_CountsTo_mVolts(ADC_Out3);
 516              		.loc 1 151 0
 517 01a6 494B     		ldr	r3, .L4+20
 518 01a8 1B68     		ldr	r3, [r3]
 519 01aa 9BB2     		uxth	r3, r3
 520 01ac 1BB2     		sxth	r3, r3
 521 01ae 1846     		mov	r0, r3
 522 01b0 FFF7FEFF 		bl	ADC_CountsTo_mVolts
 523 01b4 0246     		mov	r2, r0
 524 01b6 524B     		ldr	r3, .L4+72
 525 01b8 1A60     		str	r2, [r3]
 152:.\main.c      ****         v3 = v3 * 4.58;
 526              		.loc 1 152 0
ARM GAS  C:\Users\Leo\AppData\Local\Temp\ccpyyUor.s 			page 13


 527 01ba 514B     		ldr	r3, .L4+72
 528 01bc 1B68     		ldr	r3, [r3]
 529 01be 1846     		mov	r0, r3
 530 01c0 FFF7FEFF 		bl	__aeabi_i2d
 531 01c4 0246     		mov	r2, r0
 532 01c6 0B46     		mov	r3, r1
 533 01c8 1046     		mov	r0, r2
 534 01ca 1946     		mov	r1, r3
 535 01cc 3AA3     		adr	r3, .L4
 536 01ce D3E90023 		ldrd	r2, [r3]
 537 01d2 FFF7FEFF 		bl	__aeabi_dmul
 538 01d6 0246     		mov	r2, r0
 539 01d8 0B46     		mov	r3, r1
 540 01da 1046     		mov	r0, r2
 541 01dc 1946     		mov	r1, r3
 542 01de FFF7FEFF 		bl	__aeabi_d2iz
 543 01e2 0246     		mov	r2, r0
 544 01e4 464B     		ldr	r3, .L4+72
 545 01e6 1A60     		str	r2, [r3]
 153:.\main.c      ****         a3_array[i] = v3;
 546              		.loc 1 153 0
 547 01e8 3D4B     		ldr	r3, .L4+40
 548 01ea 1B68     		ldr	r3, [r3]
 549 01ec 444A     		ldr	r2, .L4+72
 550 01ee 1268     		ldr	r2, [r2]
 551 01f0 4449     		ldr	r1, .L4+76
 552 01f2 41F82320 		str	r2, [r1, r3, lsl #2]
 154:.\main.c      ****         
 155:.\main.c      ****         v4 = ADC_CountsTo_mVolts(ADC_Out4);
 553              		.loc 1 155 0
 554 01f6 364B     		ldr	r3, .L4+24
 555 01f8 1B68     		ldr	r3, [r3]
 556 01fa 9BB2     		uxth	r3, r3
 557 01fc 1BB2     		sxth	r3, r3
 558 01fe 1846     		mov	r0, r3
 559 0200 FFF7FEFF 		bl	ADC_CountsTo_mVolts
 560 0204 0246     		mov	r2, r0
 561 0206 404B     		ldr	r3, .L4+80
 562 0208 1A60     		str	r2, [r3]
 156:.\main.c      ****         v4 = v4 * 4.58;
 563              		.loc 1 156 0
 564 020a 3F4B     		ldr	r3, .L4+80
 565 020c 1B68     		ldr	r3, [r3]
 566 020e 1846     		mov	r0, r3
 567 0210 FFF7FEFF 		bl	__aeabi_i2d
 568 0214 0246     		mov	r2, r0
 569 0216 0B46     		mov	r3, r1
 570 0218 1046     		mov	r0, r2
 571 021a 1946     		mov	r1, r3
 572 021c 26A3     		adr	r3, .L4
 573 021e D3E90023 		ldrd	r2, [r3]
 574 0222 FFF7FEFF 		bl	__aeabi_dmul
 575 0226 0246     		mov	r2, r0
 576 0228 0B46     		mov	r3, r1
 577 022a 1046     		mov	r0, r2
 578 022c 1946     		mov	r1, r3
 579 022e FFF7FEFF 		bl	__aeabi_d2iz
ARM GAS  C:\Users\Leo\AppData\Local\Temp\ccpyyUor.s 			page 14


 580 0232 0246     		mov	r2, r0
 581 0234 344B     		ldr	r3, .L4+80
 582 0236 1A60     		str	r2, [r3]
 157:.\main.c      ****         a4_array[i] = v4;
 583              		.loc 1 157 0
 584 0238 294B     		ldr	r3, .L4+40
 585 023a 1B68     		ldr	r3, [r3]
 586 023c 324A     		ldr	r2, .L4+80
 587 023e 1268     		ldr	r2, [r2]
 588 0240 3249     		ldr	r1, .L4+84
 589 0242 41F82320 		str	r2, [r1, r3, lsl #2]
 158:.\main.c      ****         
 159:.\main.c      ****         v5 = ADC_CountsTo_mVolts(ADC_Out5);
 590              		.loc 1 159 0
 591 0246 234B     		ldr	r3, .L4+28
 592 0248 1B68     		ldr	r3, [r3]
 593 024a 9BB2     		uxth	r3, r3
 594 024c 1BB2     		sxth	r3, r3
 595 024e 1846     		mov	r0, r3
 596 0250 FFF7FEFF 		bl	ADC_CountsTo_mVolts
 597 0254 0246     		mov	r2, r0
 598 0256 2E4B     		ldr	r3, .L4+88
 599 0258 1A60     		str	r2, [r3]
 160:.\main.c      ****         v5 = v5 * 4.58;
 600              		.loc 1 160 0
 601 025a 2D4B     		ldr	r3, .L4+88
 602 025c 1B68     		ldr	r3, [r3]
 603 025e 1846     		mov	r0, r3
 604 0260 FFF7FEFF 		bl	__aeabi_i2d
 605 0264 0246     		mov	r2, r0
 606 0266 0B46     		mov	r3, r1
 607 0268 1046     		mov	r0, r2
 608 026a 1946     		mov	r1, r3
 609 026c 12A3     		adr	r3, .L4
 610 026e D3E90023 		ldrd	r2, [r3]
 611 0272 FFF7FEFF 		bl	__aeabi_dmul
 612 0276 0246     		mov	r2, r0
 613 0278 0B46     		mov	r3, r1
 614 027a 1046     		mov	r0, r2
 615 027c 1946     		mov	r1, r3
 616 027e FFF7FEFF 		bl	__aeabi_d2iz
 617 0282 0246     		mov	r2, r0
 618 0284 224B     		ldr	r3, .L4+88
 619 0286 1A60     		str	r2, [r3]
 161:.\main.c      ****         a5_array[i] = v5;
 620              		.loc 1 161 0
 621 0288 154B     		ldr	r3, .L4+40
 622 028a 1B68     		ldr	r3, [r3]
 623 028c 204A     		ldr	r2, .L4+88
 624 028e 1268     		ldr	r2, [r2]
 625 0290 2049     		ldr	r1, .L4+92
 626 0292 41F82320 		str	r2, [r1, r3, lsl #2]
 162:.\main.c      ****         
 163:.\main.c      ****         
 164:.\main.c      ****         if (i >= 74) {
 627              		.loc 1 164 0
 628 0296 124B     		ldr	r3, .L4+40
ARM GAS  C:\Users\Leo\AppData\Local\Temp\ccpyyUor.s 			page 15


 629 0298 1B68     		ldr	r3, [r3]
 630 029a 492B     		cmp	r3, #73
 631 029c 03DD     		ble	.L2
 165:.\main.c      ****             i = 0;
 632              		.loc 1 165 0
 633 029e 104B     		ldr	r3, .L4+40
 634 02a0 0022     		movs	r2, #0
 635 02a2 1A60     		str	r2, [r3]
 636 02a4 04E0     		b	.L1
 637              	.L2:
 166:.\main.c      ****         } else {
 167:.\main.c      ****             i++;}
 638              		.loc 1 167 0
 639 02a6 0E4B     		ldr	r3, .L4+40
 640 02a8 1B68     		ldr	r3, [r3]
 641 02aa 0133     		adds	r3, r3, #1
 642 02ac 0C4A     		ldr	r2, .L4+40
 643 02ae 1360     		str	r3, [r2]
 644              	.L1:
 168:.\main.c      ****        
 169:.\main.c      ****     //    ADC_StartConvert();
 170:.\main.c      ****     // `#END`
 171:.\main.c      ****         
 172:.\main.c      **** }
 645              		.loc 1 172 0
 646 02b0 80BD     		pop	{r7, pc}
 647              	.L5:
 648 02b2 00BFAFF3 		.align	3
 648      0080
 649              	.L4:
 650 02b8 52B81E85 		.word	-2061584302
 651 02bc EB511240 		.word	1074942443
 652 02c0 00000000 		.word	ADC_Out0
 653 02c4 00000000 		.word	ADC_Out1
 654 02c8 00000000 		.word	ADC_Out2
 655 02cc 00000000 		.word	ADC_Out3
 656 02d0 00000000 		.word	ADC_Out4
 657 02d4 00000000 		.word	ADC_Out5
 658 02d8 00000000 		.word	ADC_Out6
 659 02dc 00000000 		.word	v6
 660 02e0 00000000 		.word	i
 661 02e4 00000000 		.word	a6_array
 662 02e8 00000000 		.word	v0
 663 02ec 00000000 		.word	a0_array
 664 02f0 00000000 		.word	v1
 665 02f4 00000000 		.word	a1_array
 666 02f8 00000000 		.word	v2
 667 02fc 00000000 		.word	a2_array
 668 0300 00000000 		.word	v3
 669 0304 00000000 		.word	a3_array
 670 0308 00000000 		.word	v4
 671 030c 00000000 		.word	a4_array
 672 0310 00000000 		.word	v5
 673 0314 00000000 		.word	a5_array
 674              		.cfi_endproc
 675              	.LFE63:
 676              		.size	ADC_ISR, .-ADC_ISR
ARM GAS  C:\Users\Leo\AppData\Local\Temp\ccpyyUor.s 			page 16


 677              		.section	.text.isr_RX,"ax",%progbits
 678              		.align	2
 679              		.global	isr_RX
 680              		.thumb
 681              		.thumb_func
 682              		.type	isr_RX, %function
 683              	isr_RX:
 684              	.LFB64:
 173:.\main.c      **** 
 174:.\main.c      **** CY_ISR(isr_RX)
 175:.\main.c      **** { 
 685              		.loc 1 175 0
 686              		.cfi_startproc
 687              		@ args = 0, pretend = 0, frame = 0
 688              		@ frame_needed = 1, uses_anonymous_args = 0
 689 0000 80B5     		push	{r7, lr}
 690              		.cfi_def_cfa_offset 8
 691              		.cfi_offset 7, -8
 692              		.cfi_offset 14, -4
 693 0002 00AF     		add	r7, sp, #0
 694              		.cfi_def_cfa_register 7
 176:.\main.c      **** /*    
 177:.\main.c      ****     rx1 = UART_ReadRxData();
 178:.\main.c      ****     if (rx0 == rx1) {
 179:.\main.c      ****         print = 0;
 180:.\main.c      ****     }
 181:.\main.c      ****     else {
 182:.\main.c      ****         rx0 = rx1;
 183:.\main.c      ****         print = 1;
 184:.\main.c      ****     }
 185:.\main.c      **** */  
 186:.\main.c      ****     rx0 = UART_ReadRxData();
 695              		.loc 1 186 0
 696 0004 FFF7FEFF 		bl	UART_ReadRxData
 697 0008 0346     		mov	r3, r0
 698 000a 1A46     		mov	r2, r3
 699 000c 014B     		ldr	r3, .L7
 700 000e 1A60     		str	r2, [r3]
 187:.\main.c      **** /*  if (rx0 == '#') {
 188:.\main.c      ****         enable = 1;  
 189:.\main.c      ****         rxindex = 0;
 190:.\main.c      ****     }
 191:.\main.c      ****     if ((rx0 == '!') || (rxindex > 17)) {
 192:.\main.c      ****         enable = 0;
 193:.\main.c      ****         print = 0;
 194:.\main.c      ****     }
 195:.\main.c      ****     
 196:.\main.c      ****     if (enable == 1) {
 197:.\main.c      ****         //rx0 = UART_ReadRxData();
 198:.\main.c      ****         
 199:.\main.c      ****         if (rx0 == ',') {
 200:.\main.c      ****             rxindex++;
 201:.\main.c      ****         }
 202:.\main.c      ****         else {
 203:.\main.c      ****             if (rxindex == 0) {
 204:.\main.c      ****                 rxindex++;    
 205:.\main.c      ****             }
ARM GAS  C:\Users\Leo\AppData\Local\Temp\ccpyyUor.s 			page 17


 206:.\main.c      ****             else if (rxindex == 1) {
 207:.\main.c      ****                 rx_data_state.rssi = rx0;
 208:.\main.c      ****             }
 209:.\main.c      ****             else if (rxindex == 2) {
 210:.\main.c      ****                 rx_data_state.index = rx0;
 211:.\main.c      ****             }
 212:.\main.c      ****             else if (rxindex == 3) {
 213:.\main.c      ****                 rx_data_state.robot_xpos = rx0;
 214:.\main.c      ****             }
 215:.\main.c      ****             else if (rxindex == 4) {
 216:.\main.c      ****                 rx_data_state.robot_ypos = rx0;
 217:.\main.c      ****             }
 218:.\main.c      ****             else if (rxindex == 5) {
 219:.\main.c      ****                 rx_data_state.robot_orientation = rx0;
 220:.\main.c      ****             }
 221:.\main.c      ****             else if (rxindex == 6) {
 222:.\main.c      ****                 rx_data_state.g0_xpos = rx0;
 223:.\main.c      ****             }
 224:.\main.c      ****             else if (rxindex == 7) {
 225:.\main.c      ****                 rx_data_state.g0_ypos = rx0;
 226:.\main.c      ****             }
 227:.\main.c      ****             else if (rxindex == 8) {
 228:.\main.c      ****                 rx_data_state.g0_speed = rx0;
 229:.\main.c      ****             }
 230:.\main.c      ****             else if (rxindex == 9) {
 231:.\main.c      ****                 rx_data_state.g0_direction = rx0;
 232:.\main.c      ****             }
 233:.\main.c      ****             else if (rxindex == 10) {
 234:.\main.c      ****                 rx_data_state.g1_xpos = rx0;
 235:.\main.c      ****             }
 236:.\main.c      ****             else if (rxindex == 11) {
 237:.\main.c      ****                 rx_data_state.g1_ypos = rx0;
 238:.\main.c      ****             }
 239:.\main.c      ****             else if (rxindex == 12) {
 240:.\main.c      ****                 rx_data_state.g1_speed = rx0;
 241:.\main.c      ****             }
 242:.\main.c      ****             else if (rxindex == 13) {
 243:.\main.c      ****                 rx_data_state.g1_direction = rx0;
 244:.\main.c      ****             }
 245:.\main.c      ****             else if (rxindex == 14) {
 246:.\main.c      ****                 rx_data_state.g2_xpos = rx0;
 247:.\main.c      ****             }
 248:.\main.c      ****             else if (rxindex == 15) {
 249:.\main.c      ****                 rx_data_state.g2_ypos = rx0;
 250:.\main.c      ****             }
 251:.\main.c      ****             else if (rxindex == 16) {
 252:.\main.c      ****                 rx_data_state.g2_speed = rx0;
 253:.\main.c      ****             }
 254:.\main.c      ****             else if (rxindex == 17) {
 255:.\main.c      ****                 rx_data_state.g2_direction = rx0;
 256:.\main.c      ****                 rxindex++;
 257:.\main.c      ****             }
 258:.\main.c      ****             else {
 259:.\main.c      ****                 enable = 0;
 260:.\main.c      ****             }
 261:.\main.c      ****         }
 262:.\main.c      ****     }
ARM GAS  C:\Users\Leo\AppData\Local\Temp\ccpyyUor.s 			page 18


 263:.\main.c      ****     */
 264:.\main.c      ****     //usbPutString("#%i,%i,[%i,%i,%i],[%i,%i,%i,%i],[%i,%i,%i,%i],[%i,%i,%i,%i]", rx_data_state.rss
 265:.\main.c      **** }   
 701              		.loc 1 265 0
 702 0010 80BD     		pop	{r7, pc}
 703              	.L8:
 704 0012 00BF     		.align	2
 705              	.L7:
 706 0014 00000000 		.word	rx0
 707              		.cfi_endproc
 708              	.LFE64:
 709              		.size	isr_RX, .-isr_RX
 710              		.section	.rodata
 711              		.align	2
 712              	.LC0:
 713 0000 42617474 		.ascii	"Battery Voltage is: \000"
 713      65727920 
 713      566F6C74 
 713      61676520 
 713      69733A20 
 714 0015 000000   		.section	.text.main,"ax",%progbits
 715              		.align	2
 716              		.global	main
 717              		.thumb
 718              		.thumb_func
 719              		.type	main, %function
 720              	main:
 721              	.LFB65:
 266:.\main.c      **** 
 267:.\main.c      **** 
 268:.\main.c      **** int main()
 269:.\main.c      **** {
 722              		.loc 1 269 0
 723              		.cfi_startproc
 724              		@ args = 0, pretend = 0, frame = 0
 725              		@ frame_needed = 1, uses_anonymous_args = 0
 726 0000 80B5     		push	{r7, lr}
 727              		.cfi_def_cfa_offset 8
 728              		.cfi_offset 7, -8
 729              		.cfi_offset 14, -4
 730 0002 00AF     		add	r7, sp, #0
 731              		.cfi_def_cfa_register 7
 270:.\main.c      ****     
 271:.\main.c      **** // --------------------------------    
 272:.\main.c      **** // ----- INITIALIZATIONS ----------
 273:.\main.c      ****     CYGlobalIntEnable;
 732              		.loc 1 273 0
 733              	@ 273 ".\main.c" 1
 734 0004 62B6     		CPSIE   i
 735              	@ 0 "" 2
 274:.\main.c      ****     print = 0;
 736              		.loc 1 274 0
 737              		.thumb
 738 0006 A64B     		ldr	r3, .L48
 739 0008 0022     		movs	r2, #0
 740 000a 1A60     		str	r2, [r3]
 275:.\main.c      ****     enable = 0;
ARM GAS  C:\Users\Leo\AppData\Local\Temp\ccpyyUor.s 			page 19


 741              		.loc 1 275 0
 742 000c A54B     		ldr	r3, .L48+4
 743 000e 0022     		movs	r2, #0
 744 0010 1A60     		str	r2, [r3]
 276:.\main.c      ****     PWM_1_Start();
 745              		.loc 1 276 0
 746 0012 FFF7FEFF 		bl	PWM_1_Start
 277:.\main.c      ****     PWM_2_Start();
 747              		.loc 1 277 0
 748 0016 FFF7FEFF 		bl	PWM_2_Start
 278:.\main.c      ****     QuadDec_M1_Start();
 749              		.loc 1 278 0
 750 001a FFF7FEFF 		bl	QuadDec_M1_Start
 279:.\main.c      ****     QuadDec_M2_Start();
 751              		.loc 1 279 0
 752 001e FFF7FEFF 		bl	QuadDec_M2_Start
 280:.\main.c      ****     //CHANGE THIS TO CHANGE MODE !!!!!!!!!!!!!!!!!!!!!!!!!!!!!!!!!!!!
 281:.\main.c      ****     MODE = 1;     // MODE 0 IS STRAIGHT LINE TEST
 753              		.loc 1 281 0
 754 0022 A14B     		ldr	r3, .L48+8
 755 0024 0122     		movs	r2, #1
 756 0026 1A60     		str	r2, [r3]
 282:.\main.c      ****                   // MODE 1 IS CURVY WIGGLY LINE TEST
 283:.\main.c      ****                   // MODE 2 IS RIGHT ANGLE TURN TEST
 284:.\main.c      ****                   // MODE 3 IS IGNORE SIDES TEST
 285:.\main.c      ****                   // MODE 4 IS RF TEST
 286:.\main.c      ****                   // MODE 5 is ADC TEST
 287:.\main.c      ****     //MAKE SURE YOU CHANGED TO THE MODE YOU WANT !!!!!!!!!!!!!!!!!
 288:.\main.c      ****     A5OnIsTrue = 1;
 757              		.loc 1 288 0
 758 0028 A04B     		ldr	r3, .L48+12
 759 002a 0122     		movs	r2, #1
 760 002c 1A60     		str	r2, [r3]
 289:.\main.c      ****     
 290:.\main.c      ****     if (MODE == 4) {
 761              		.loc 1 290 0
 762 002e 9E4B     		ldr	r3, .L48+8
 763 0030 1B68     		ldr	r3, [r3]
 764 0032 042B     		cmp	r3, #4
 765 0034 04D1     		bne	.L10
 291:.\main.c      ****         UART_Start();
 766              		.loc 1 291 0
 767 0036 FFF7FEFF 		bl	UART_Start
 292:.\main.c      ****         isrRF_RX_StartEx(isr_RX);
 768              		.loc 1 292 0
 769 003a 9D48     		ldr	r0, .L48+16
 770 003c FFF7FEFF 		bl	isrRF_RX_StartEx
 771              	.L10:
 293:.\main.c      ****     }
 294:.\main.c      **** // ------USB SETUP ----------------    
 295:.\main.c      **** #ifdef USE_USB    
 296:.\main.c      ****     USBUART_Start(0,USBUART_5V_OPERATION);
 772              		.loc 1 296 0
 773 0040 0020     		movs	r0, #0
 774 0042 0121     		movs	r1, #1
 775 0044 FFF7FEFF 		bl	USBUART_Start
 297:.\main.c      **** #endif     
ARM GAS  C:\Users\Leo\AppData\Local\Temp\ccpyyUor.s 			page 20


 298:.\main.c      ****     ADC_Start();
 776              		.loc 1 298 0
 777 0048 FFF7FEFF 		bl	ADC_Start
 299:.\main.c      ****     ADC_IRQ_StartEx(ADC_ISR);
 778              		.loc 1 299 0
 779 004c 9948     		ldr	r0, .L48+20
 780 004e FFF7FEFF 		bl	ADC_IRQ_StartEx
 300:.\main.c      ****     ADC_StartConvert();
 781              		.loc 1 300 0
 782 0052 FFF7FEFF 		bl	ADC_StartConvert
 301:.\main.c      ****     
 302:.\main.c      ****     PWM_1_WriteCompare(200);
 783              		.loc 1 302 0
 784 0056 C820     		movs	r0, #200
 785 0058 FFF7FEFF 		bl	PWM_1_WriteCompare
 303:.\main.c      ****     PWM_2_WriteCompare(56);
 786              		.loc 1 303 0
 787 005c 3820     		movs	r0, #56
 788 005e FFF7FEFF 		bl	PWM_2_WriteCompare
 304:.\main.c      ****     QuadDec_M2_SetCounter(QuadDec_M1_GetCounter());
 789              		.loc 1 304 0
 790 0062 FFF7FEFF 		bl	QuadDec_M1_GetCounter
 791 0066 0346     		mov	r3, r0
 792 0068 1846     		mov	r0, r3
 793 006a FFF7FEFF 		bl	QuadDec_M2_SetCounter
 794              	.L47:
 305:.\main.c      ****     
 306:.\main.c      ****   
 307:.\main.c      ****     for(;;)
 308:.\main.c      ****     {
 309:.\main.c      ****         //rx0 = UART_ReadRxData();  
 310:.\main.c      ****         //PWM_1_WriteCompare(250);
 311:.\main.c      ****         //PWM_2_WriteCompare(0);
 312:.\main.c      ****         QuadDec_M2_SetCounter(QuadDec_M1_GetCounter());
 795              		.loc 1 312 0
 796 006e FFF7FEFF 		bl	QuadDec_M1_GetCounter
 797 0072 0346     		mov	r3, r0
 798 0074 1846     		mov	r0, r3
 799 0076 FFF7FEFF 		bl	QuadDec_M2_SetCounter
 313:.\main.c      ****         m1 = QuadDec_M1_GetCounter();
 800              		.loc 1 313 0
 801 007a FFF7FEFF 		bl	QuadDec_M1_GetCounter
 802 007e 0346     		mov	r3, r0
 803 0080 1A46     		mov	r2, r3
 804 0082 8D4B     		ldr	r3, .L48+24
 805 0084 1A60     		str	r2, [r3]
 314:.\main.c      ****         m2 = QuadDec_M2_GetCounter();
 806              		.loc 1 314 0
 807 0086 FFF7FEFF 		bl	QuadDec_M2_GetCounter
 808 008a 0346     		mov	r3, r0
 809 008c 1A46     		mov	r2, r3
 810 008e 8B4B     		ldr	r3, .L48+28
 811 0090 1A60     		str	r2, [r3]
 315:.\main.c      ****         
 316:.\main.c      ****         //error = m1/m2;
 317:.\main.c      ****         //slave = slave*error;
 318:.\main.c      ****         //LED_Write(1);
ARM GAS  C:\Users\Leo\AppData\Local\Temp\ccpyyUor.s 			page 21


 319:.\main.c      ****         //usbPutChar(12);
 320:.\main.c      ****  
 321:.\main.c      ****         
 322:.\main.c      ****         
 323:.\main.c      ****         //usbPutChar(rx0 + '0');
 324:.\main.c      **** 
 325:.\main.c      ****     if (MODE == 4) {    
 812              		.loc 1 325 0
 813 0092 854B     		ldr	r3, .L48+8
 814 0094 1B68     		ldr	r3, [r3]
 815 0096 042B     		cmp	r3, #4
 816 0098 41D1     		bne	.L11
 326:.\main.c      ****         if (rx0 == rx1 || rx0 == 'N' || rx0 == 'o' || rx0 == 'R' || rx0 == 'x') {
 817              		.loc 1 326 0
 818 009a 894B     		ldr	r3, .L48+32
 819 009c 1A68     		ldr	r2, [r3]
 820 009e 894B     		ldr	r3, .L48+36
 821 00a0 1B68     		ldr	r3, [r3]
 822 00a2 9A42     		cmp	r2, r3
 823 00a4 3BD0     		beq	.L11
 824              		.loc 1 326 0 is_stmt 0 discriminator 1
 825 00a6 864B     		ldr	r3, .L48+32
 826 00a8 1B68     		ldr	r3, [r3]
 827 00aa 4E2B     		cmp	r3, #78
 828 00ac 37D0     		beq	.L11
 829              		.loc 1 326 0 discriminator 2
 830 00ae 844B     		ldr	r3, .L48+32
 831 00b0 1B68     		ldr	r3, [r3]
 832 00b2 6F2B     		cmp	r3, #111
 833 00b4 33D0     		beq	.L11
 834              		.loc 1 326 0 discriminator 3
 835 00b6 824B     		ldr	r3, .L48+32
 836 00b8 1B68     		ldr	r3, [r3]
 837 00ba 522B     		cmp	r3, #82
 838 00bc 2FD0     		beq	.L11
 839              		.loc 1 326 0 discriminator 4
 840 00be 804B     		ldr	r3, .L48+32
 841 00c0 1B68     		ldr	r3, [r3]
 842 00c2 782B     		cmp	r3, #120
 843 00c4 2BD0     		beq	.L11
 327:.\main.c      ****             
 328:.\main.c      ****         }
 329:.\main.c      ****         else {
 330:.\main.c      ****             rx1 = rx0;
 844              		.loc 1 330 0 is_stmt 1
 845 00c6 7E4B     		ldr	r3, .L48+32
 846 00c8 1B68     		ldr	r3, [r3]
 847 00ca 7E4A     		ldr	r2, .L48+36
 848 00cc 1360     		str	r3, [r2]
 331:.\main.c      ****             if (rx0 == '#') {
 849              		.loc 1 331 0
 850 00ce 7C4B     		ldr	r3, .L48+32
 851 00d0 1B68     		ldr	r3, [r3]
 852 00d2 232B     		cmp	r3, #35
 853 00d4 06D1     		bne	.L12
 332:.\main.c      ****                 usbPutChar(rx0);
 854              		.loc 1 332 0
ARM GAS  C:\Users\Leo\AppData\Local\Temp\ccpyyUor.s 			page 22


 855 00d6 7A4B     		ldr	r3, .L48+32
 856 00d8 1B68     		ldr	r3, [r3]
 857 00da DBB2     		uxtb	r3, r3
 858 00dc 1846     		mov	r0, r3
 859 00de FFF7FEFF 		bl	usbPutChar
 860 00e2 1CE0     		b	.L11
 861              	.L12:
 333:.\main.c      ****             }
 334:.\main.c      ****             else if (rx0 == '\n' || rx0 == '!') {
 862              		.loc 1 334 0
 863 00e4 764B     		ldr	r3, .L48+32
 864 00e6 1B68     		ldr	r3, [r3]
 865 00e8 0A2B     		cmp	r3, #10
 866 00ea 03D0     		beq	.L13
 867              		.loc 1 334 0 is_stmt 0 discriminator 1
 868 00ec 744B     		ldr	r3, .L48+32
 869 00ee 1B68     		ldr	r3, [r3]
 870 00f0 212B     		cmp	r3, #33
 871 00f2 06D1     		bne	.L14
 872              	.L13:
 335:.\main.c      ****                 usbPutChar('\r');
 873              		.loc 1 335 0 is_stmt 1
 874 00f4 0D20     		movs	r0, #13
 875 00f6 FFF7FEFF 		bl	usbPutChar
 336:.\main.c      ****                 usbPutChar('\n');
 876              		.loc 1 336 0
 877 00fa 0A20     		movs	r0, #10
 878 00fc FFF7FEFF 		bl	usbPutChar
 879 0100 0DE0     		b	.L11
 880              	.L14:
 337:.\main.c      ****                 
 338:.\main.c      ****             }
 339:.\main.c      ****             else if (rx0 == ',') {
 881              		.loc 1 339 0
 882 0102 6F4B     		ldr	r3, .L48+32
 883 0104 1B68     		ldr	r3, [r3]
 884 0106 2C2B     		cmp	r3, #44
 885 0108 03D1     		bne	.L15
 340:.\main.c      ****                 usbPutChar(',');
 886              		.loc 1 340 0
 887 010a 2C20     		movs	r0, #44
 888 010c FFF7FEFF 		bl	usbPutChar
 889 0110 05E0     		b	.L11
 890              	.L15:
 341:.\main.c      ****             }
 342:.\main.c      ****             else {
 343:.\main.c      ****                 usbPutChar(rx0);
 891              		.loc 1 343 0
 892 0112 6B4B     		ldr	r3, .L48+32
 893 0114 1B68     		ldr	r3, [r3]
 894 0116 DBB2     		uxtb	r3, r3
 895 0118 1846     		mov	r0, r3
 896 011a FFF7FEFF 		bl	usbPutChar
 897              	.L11:
 344:.\main.c      ****             }
 345:.\main.c      ****         }
 346:.\main.c      ****     }    
ARM GAS  C:\Users\Leo\AppData\Local\Temp\ccpyyUor.s 			page 23


 347:.\main.c      ****     
 348:.\main.c      ****     /*    
 349:.\main.c      ****         m1 = QuadDec_M1_GetCounter();
 350:.\main.c      ****         
 351:.\main.c      ****         usbPutString("M1 value is: ");
 352:.\main.c      ****         itoa(m2, dest, 10);
 353:.\main.c      ****         usbPutString(dest);
 354:.\main.c      ****         usbPutString("          "); 
 355:.\main.c      ****         
 356:.\main.c      ****         if (m1 >= 999) {
 357:.\main.c      ****             QuadDec_M1_SetCounter(0);
 358:.\main.c      ****         }
 359:.\main.c      ****         
 360:.\main.c      ****         m2 = QuadDec_M2_GetCounter();
 361:.\main.c      ****         itoa(m2, dest, 10);
 362:.\main.c      ****         usbPutString("M2 value is: ");
 363:.\main.c      ****         usbPutString(dest);
 364:.\main.c      ****         usbPutChar('\r');
 365:.\main.c      ****         usbPutChar('\n'); 
 366:.\main.c      ****         
 367:.\main.c      ****         if (m2 >= 999) {
 368:.\main.c      ****             QuadDec_M2_SetCounter(0);
 369:.\main.c      ****         }
 370:.\main.c      ****    */     
 371:.\main.c      ****         if (MODE == 0) {
 898              		.loc 1 371 0
 899 011e 624B     		ldr	r3, .L48+8
 900 0120 1B68     		ldr	r3, [r3]
 901 0122 002B     		cmp	r3, #0
 902 0124 36D1     		bne	.L16
 372:.\main.c      ****             A5itr = 0;
 903              		.loc 1 372 0
 904 0126 684B     		ldr	r3, .L48+40
 905 0128 0022     		movs	r2, #0
 906 012a 1A60     		str	r2, [r3]
 373:.\main.c      ****             A5OnIsTrue = 0;
 907              		.loc 1 373 0
 908 012c 5F4B     		ldr	r3, .L48+12
 909 012e 0022     		movs	r2, #0
 910 0130 1A60     		str	r2, [r3]
 374:.\main.c      ****             for (A5itr = 0; A5itr < 75; A5itr++) {
 911              		.loc 1 374 0
 912 0132 654B     		ldr	r3, .L48+40
 913 0134 0022     		movs	r2, #0
 914 0136 1A60     		str	r2, [r3]
 915 0138 1DE0     		b	.L17
 916              	.L21:
 375:.\main.c      ****                 if (a5_array[A5itr] > 2650 || a5_array[A5itr] < 2350) { //2750> <2250 too big never
 917              		.loc 1 375 0
 918 013a 634B     		ldr	r3, .L48+40
 919 013c 1B68     		ldr	r3, [r3]
 920 013e 634A     		ldr	r2, .L48+44
 921 0140 52F82330 		ldr	r3, [r2, r3, lsl #2]
 922 0144 40F65A22 		movw	r2, #2650
 923 0148 9342     		cmp	r3, r2
 924 014a 08DC     		bgt	.L18
 925              		.loc 1 375 0 is_stmt 0 discriminator 1
ARM GAS  C:\Users\Leo\AppData\Local\Temp\ccpyyUor.s 			page 24


 926 014c 5E4B     		ldr	r3, .L48+40
 927 014e 1B68     		ldr	r3, [r3]
 928 0150 5E4A     		ldr	r2, .L48+44
 929 0152 52F82330 		ldr	r3, [r2, r3, lsl #2]
 930 0156 40F62D12 		movw	r2, #2349
 931 015a 9342     		cmp	r3, r2
 932 015c 03DC     		bgt	.L19
 933              	.L18:
 376:.\main.c      ****                     // A2,A5 >2700 <2300
 377:.\main.c      ****                     // A1, >2800 <2200
 378:.\main.c      ****                     //usbPutString("A5 is OFF\r\n");
 379:.\main.c      ****                     A5OnIsTrue = 1;
 934              		.loc 1 379 0 is_stmt 1
 935 015e 534B     		ldr	r3, .L48+12
 936 0160 0122     		movs	r2, #1
 937 0162 1A60     		str	r2, [r3]
 380:.\main.c      ****                     break;
 938              		.loc 1 380 0
 939 0164 0BE0     		b	.L20
 940              	.L19:
 381:.\main.c      ****                 }
 382:.\main.c      ****                 else {
 383:.\main.c      ****                     A5OnIsTrue = 0;
 941              		.loc 1 383 0 discriminator 2
 942 0166 514B     		ldr	r3, .L48+12
 943 0168 0022     		movs	r2, #0
 944 016a 1A60     		str	r2, [r3]
 374:.\main.c      ****                 if (a5_array[A5itr] > 2650 || a5_array[A5itr] < 2350) { //2750> <2250 too big never
 945              		.loc 1 374 0 discriminator 2
 946 016c 564B     		ldr	r3, .L48+40
 947 016e 1B68     		ldr	r3, [r3]
 948 0170 0133     		adds	r3, r3, #1
 949 0172 554A     		ldr	r2, .L48+40
 950 0174 1360     		str	r3, [r2]
 951              	.L17:
 374:.\main.c      ****                 if (a5_array[A5itr] > 2650 || a5_array[A5itr] < 2350) { //2750> <2250 too big never
 952              		.loc 1 374 0 is_stmt 0 discriminator 1
 953 0176 544B     		ldr	r3, .L48+40
 954 0178 1B68     		ldr	r3, [r3]
 955 017a 4A2B     		cmp	r3, #74
 956 017c DDDD     		ble	.L21
 957              	.L20:
 384:.\main.c      ****                 }
 385:.\main.c      ****             }
 386:.\main.c      ****                        
 387:.\main.c      ****             if (A5OnIsTrue == 0) {
 958              		.loc 1 387 0 is_stmt 1
 959 017e 4B4B     		ldr	r3, .L48+12
 960 0180 1B68     		ldr	r3, [r3]
 961 0182 002B     		cmp	r3, #0
 962 0184 50D1     		bne	.L23
 388:.\main.c      ****                 PWM_1_WriteCompare(125);
 963              		.loc 1 388 0
 964 0186 7D20     		movs	r0, #125
 965 0188 FFF7FEFF 		bl	PWM_1_WriteCompare
 389:.\main.c      ****                 PWM_2_WriteCompare(125);
 966              		.loc 1 389 0
ARM GAS  C:\Users\Leo\AppData\Local\Temp\ccpyyUor.s 			page 25


 967 018c 7D20     		movs	r0, #125
 968 018e FFF7FEFF 		bl	PWM_2_WriteCompare
 969 0192 49E0     		b	.L23
 970              	.L16:
 390:.\main.c      ****                 //usbPutString("WE ARE CHANGING CMP VALUE LMAO Y U NO WORK FGT\r\n");
 391:.\main.c      ****                 
 392:.\main.c      ****             }
 393:.\main.c      ****             /*else {
 394:.\main.c      ****                 PWM_1_WriteCompare(250);
 395:.\main.c      ****                 PWM_2_WriteCompare(0);
 396:.\main.c      ****                 QuadDec_M2_SetCounter(QuadDec_M1_GetCounter());
 397:.\main.c      ****             }*/
 398:.\main.c      ****         }
 399:.\main.c      ****         else if (MODE == 1) {
 971              		.loc 1 399 0
 972 0194 444B     		ldr	r3, .L48+8
 973 0196 1B68     		ldr	r3, [r3]
 974 0198 012B     		cmp	r3, #1
 975 019a 22D1     		bne	.L24
 400:.\main.c      ****             if (A1OnIsTrue == 1) {
 976              		.loc 1 400 0
 977 019c 4C4B     		ldr	r3, .L48+48
 978 019e 1B68     		ldr	r3, [r3]
 979 01a0 012B     		cmp	r3, #1
 980 01a2 06D1     		bne	.L25
 401:.\main.c      ****                 PWM_1_WriteCompare(180);
 981              		.loc 1 401 0
 982 01a4 B420     		movs	r0, #180
 983 01a6 FFF7FEFF 		bl	PWM_1_WriteCompare
 402:.\main.c      ****                 PWM_2_WriteCompare(125);
 984              		.loc 1 402 0
 985 01aa 7D20     		movs	r0, #125
 986 01ac FFF7FEFF 		bl	PWM_2_WriteCompare
 987 01b0 3AE0     		b	.L23
 988              	.L25:
 403:.\main.c      ****             }
 404:.\main.c      ****             else if (A5OnIsTrue == 1) {
 989              		.loc 1 404 0
 990 01b2 3E4B     		ldr	r3, .L48+12
 991 01b4 1B68     		ldr	r3, [r3]
 992 01b6 012B     		cmp	r3, #1
 993 01b8 06D1     		bne	.L27
 405:.\main.c      ****                 PWM_1_WriteCompare(125);
 994              		.loc 1 405 0
 995 01ba 7D20     		movs	r0, #125
 996 01bc FFF7FEFF 		bl	PWM_1_WriteCompare
 406:.\main.c      ****                 PWM_2_WriteCompare(76);
 997              		.loc 1 406 0
 998 01c0 4C20     		movs	r0, #76
 999 01c2 FFF7FEFF 		bl	PWM_2_WriteCompare
 1000 01c6 2FE0     		b	.L23
 1001              	.L27:
 407:.\main.c      ****             }
 408:.\main.c      ****             else {
 409:.\main.c      ****                 PWM_1_WriteCompare(180);
 1002              		.loc 1 409 0
 1003 01c8 B420     		movs	r0, #180
ARM GAS  C:\Users\Leo\AppData\Local\Temp\ccpyyUor.s 			page 26


 1004 01ca FFF7FEFF 		bl	PWM_1_WriteCompare
 410:.\main.c      ****                 PWM_2_WriteCompare(76);
 1005              		.loc 1 410 0
 1006 01ce 4C20     		movs	r0, #76
 1007 01d0 FFF7FEFF 		bl	PWM_2_WriteCompare
 411:.\main.c      ****                 QuadDec_M2_SetCounter(QuadDec_M1_GetCounter());    
 1008              		.loc 1 411 0
 1009 01d4 FFF7FEFF 		bl	QuadDec_M1_GetCounter
 1010 01d8 0346     		mov	r3, r0
 1011 01da 1846     		mov	r0, r3
 1012 01dc FFF7FEFF 		bl	QuadDec_M2_SetCounter
 1013 01e0 22E0     		b	.L23
 1014              	.L24:
 412:.\main.c      ****             }
 413:.\main.c      ****         }
 414:.\main.c      ****         else if (MODE == 2) {
 1015              		.loc 1 414 0
 1016 01e2 314B     		ldr	r3, .L48+8
 1017 01e4 1B68     		ldr	r3, [r3]
 1018 01e6 022B     		cmp	r3, #2
 1019 01e8 1ED0     		beq	.L23
 415:.\main.c      ****             
 416:.\main.c      ****         }
 417:.\main.c      ****         else if (MODE == 3) {
 1020              		.loc 1 417 0
 1021 01ea 2F4B     		ldr	r3, .L48+8
 1022 01ec 1B68     		ldr	r3, [r3]
 1023 01ee 032B     		cmp	r3, #3
 1024 01f0 1AD1     		bne	.L23
 418:.\main.c      ****             if (A2OnIsTrue == 0) {
 1025              		.loc 1 418 0
 1026 01f2 384B     		ldr	r3, .L48+52
 1027 01f4 1B68     		ldr	r3, [r3]
 1028 01f6 002B     		cmp	r3, #0
 1029 01f8 0CD1     		bne	.L28
 419:.\main.c      ****                 PWM_1_WriteCompare(76);
 1030              		.loc 1 419 0
 1031 01fa 4C20     		movs	r0, #76
 1032 01fc FFF7FEFF 		bl	PWM_1_WriteCompare
 420:.\main.c      ****                 PWM_2_WriteCompare(180);
 1033              		.loc 1 420 0
 1034 0200 B420     		movs	r0, #180
 1035 0202 FFF7FEFF 		bl	PWM_2_WriteCompare
 421:.\main.c      ****                 QuadDec_M2_SetCounter(QuadDec_M1_GetCounter());
 1036              		.loc 1 421 0
 1037 0206 FFF7FEFF 		bl	QuadDec_M1_GetCounter
 1038 020a 0346     		mov	r3, r0
 1039 020c 1846     		mov	r0, r3
 1040 020e FFF7FEFF 		bl	QuadDec_M2_SetCounter
 1041 0212 09E0     		b	.L23
 1042              	.L28:
 422:.\main.c      ****             }
 423:.\main.c      ****             else {
 424:.\main.c      ****                 if (A1OnIsTrue == 0) {
 1043              		.loc 1 424 0
 1044 0214 2E4B     		ldr	r3, .L48+48
 1045 0216 1B68     		ldr	r3, [r3]
ARM GAS  C:\Users\Leo\AppData\Local\Temp\ccpyyUor.s 			page 27


 1046 0218 002B     		cmp	r3, #0
 1047 021a 05D1     		bne	.L23
 425:.\main.c      ****                     PWM_1_WriteCompare(100);
 1048              		.loc 1 425 0
 1049 021c 6420     		movs	r0, #100
 1050 021e FFF7FEFF 		bl	PWM_1_WriteCompare
 426:.\main.c      ****                     PWM_2_WriteCompare(190);                    
 1051              		.loc 1 426 0
 1052 0222 BE20     		movs	r0, #190
 1053 0224 FFF7FEFF 		bl	PWM_2_WriteCompare
 1054              	.L23:
 427:.\main.c      ****                 }
 428:.\main.c      ****             }
 429:.\main.c      ****         }
 430:.\main.c      ****     
 431:.\main.c      ****             
 432:.\main.c      ****         if (ADC_IsEndConversion(ADC_RETURN_STATUS) != 0) {
 1055              		.loc 1 432 0
 1056 0228 0120     		movs	r0, #1
 1057 022a FFF7FEFF 		bl	ADC_IsEndConversion
 1058 022e 0346     		mov	r3, r0
 1059 0230 002B     		cmp	r3, #0
 1060 0232 00F0C180 		beq	.L29
 433:.\main.c      ****             A1itr = 0;
 1061              		.loc 1 433 0
 1062 0236 284B     		ldr	r3, .L48+56
 1063 0238 0022     		movs	r2, #0
 1064 023a 1A60     		str	r2, [r3]
 434:.\main.c      ****             A1OnIsTrue = 0;
 1065              		.loc 1 434 0
 1066 023c 244B     		ldr	r3, .L48+48
 1067 023e 0022     		movs	r2, #0
 1068 0240 1A60     		str	r2, [r3]
 435:.\main.c      ****             for (A1itr = 0; A1itr < 75; A1itr++) {
 1069              		.loc 1 435 0
 1070 0242 254B     		ldr	r3, .L48+56
 1071 0244 0022     		movs	r2, #0
 1072 0246 1A60     		str	r2, [r3]
 1073 0248 1CE0     		b	.L30
 1074              	.L34:
 436:.\main.c      ****                 if (a1_array[A1itr] > 2800 || a1_array[A1itr] < 2200) { //2750> <2250 too big never
 1075              		.loc 1 436 0
 1076 024a 234B     		ldr	r3, .L48+56
 1077 024c 1B68     		ldr	r3, [r3]
 1078 024e 234A     		ldr	r2, .L48+60
 1079 0250 52F82330 		ldr	r3, [r2, r3, lsl #2]
 1080 0254 B3F52F6F 		cmp	r3, #2800
 1081 0258 08DC     		bgt	.L31
 1082              		.loc 1 436 0 is_stmt 0 discriminator 1
 1083 025a 1F4B     		ldr	r3, .L48+56
 1084 025c 1B68     		ldr	r3, [r3]
 1085 025e 1F4A     		ldr	r2, .L48+60
 1086 0260 52F82330 		ldr	r3, [r2, r3, lsl #2]
 1087 0264 40F69702 		movw	r2, #2199
 1088 0268 9342     		cmp	r3, r2
 1089 026a 03DC     		bgt	.L32
 1090              	.L31:
ARM GAS  C:\Users\Leo\AppData\Local\Temp\ccpyyUor.s 			page 28


 437:.\main.c      ****                     // A2,A5 >2700 <2300
 438:.\main.c      ****                     // A1, >2800 <2200
 439:.\main.c      ****                     //usbPutString("A1 is OFF        ");
 440:.\main.c      ****                     A1OnIsTrue = 1;
 1091              		.loc 1 440 0 is_stmt 1
 1092 026c 184B     		ldr	r3, .L48+48
 1093 026e 0122     		movs	r2, #1
 1094 0270 1A60     		str	r2, [r3]
 441:.\main.c      ****                     break;
 1095              		.loc 1 441 0
 1096 0272 0BE0     		b	.L33
 1097              	.L32:
 442:.\main.c      ****                 }
 443:.\main.c      ****                 else {
 444:.\main.c      ****                     A1OnIsTrue = 0;
 1098              		.loc 1 444 0 discriminator 2
 1099 0274 164B     		ldr	r3, .L48+48
 1100 0276 0022     		movs	r2, #0
 1101 0278 1A60     		str	r2, [r3]
 435:.\main.c      ****                 if (a1_array[A1itr] > 2800 || a1_array[A1itr] < 2200) { //2750> <2250 too big never
 1102              		.loc 1 435 0 discriminator 2
 1103 027a 174B     		ldr	r3, .L48+56
 1104 027c 1B68     		ldr	r3, [r3]
 1105 027e 0133     		adds	r3, r3, #1
 1106 0280 154A     		ldr	r2, .L48+56
 1107 0282 1360     		str	r3, [r2]
 1108              	.L30:
 435:.\main.c      ****                 if (a1_array[A1itr] > 2800 || a1_array[A1itr] < 2200) { //2750> <2250 too big never
 1109              		.loc 1 435 0 is_stmt 0 discriminator 1
 1110 0284 144B     		ldr	r3, .L48+56
 1111 0286 1B68     		ldr	r3, [r3]
 1112 0288 4A2B     		cmp	r3, #74
 1113 028a DEDD     		ble	.L34
 1114              	.L33:
 445:.\main.c      ****                 }
 446:.\main.c      ****             }
 447:.\main.c      ****             
 448:.\main.c      ****             if (A1OnIsTrue == 0) {
 449:.\main.c      ****                 //usbPutString("A1 is ON        ");
 450:.\main.c      ****             }
 451:.\main.c      ****             
 452:.\main.c      ****             A2itr = 0;
 1115              		.loc 1 452 0 is_stmt 1
 1116 028c 144B     		ldr	r3, .L48+64
 1117 028e 0022     		movs	r2, #0
 1118 0290 1A60     		str	r2, [r3]
 453:.\main.c      ****             A2OnIsTrue = 0;
 1119              		.loc 1 453 0
 1120 0292 104B     		ldr	r3, .L48+52
 1121 0294 0022     		movs	r2, #0
 1122 0296 1A60     		str	r2, [r3]
 454:.\main.c      ****             for (A2itr = 0; A2itr < 75; A2itr++) {
 1123              		.loc 1 454 0
 1124 0298 114B     		ldr	r3, .L48+64
 1125 029a 0022     		movs	r2, #0
 1126 029c 1A60     		str	r2, [r3]
 1127 029e 3FE0     		b	.L35
ARM GAS  C:\Users\Leo\AppData\Local\Temp\ccpyyUor.s 			page 29


 1128              	.L49:
 1129              		.align	2
 1130              	.L48:
 1131 02a0 00000000 		.word	print
 1132 02a4 00000000 		.word	enable
 1133 02a8 00000000 		.word	MODE
 1134 02ac 00000000 		.word	A5OnIsTrue
 1135 02b0 00000000 		.word	isr_RX
 1136 02b4 00000000 		.word	ADC_ISR
 1137 02b8 00000000 		.word	m1
 1138 02bc 00000000 		.word	m2
 1139 02c0 00000000 		.word	rx0
 1140 02c4 00000000 		.word	rx1
 1141 02c8 00000000 		.word	A5itr
 1142 02cc 00000000 		.word	a5_array
 1143 02d0 00000000 		.word	A1OnIsTrue
 1144 02d4 00000000 		.word	A2OnIsTrue
 1145 02d8 00000000 		.word	A1itr
 1146 02dc 00000000 		.word	a1_array
 1147 02e0 00000000 		.word	A2itr
 1148              	.L39:
 455:.\main.c      ****                 if (a2_array[A2itr] > 2700 || a2_array[A2itr] < 2300) { //2750> <2250 too big never
 1149              		.loc 1 455 0
 1150 02e4 3B4B     		ldr	r3, .L50
 1151 02e6 1B68     		ldr	r3, [r3]
 1152 02e8 3B4A     		ldr	r2, .L50+4
 1153 02ea 52F82330 		ldr	r3, [r2, r3, lsl #2]
 1154 02ee 40F68C22 		movw	r2, #2700
 1155 02f2 9342     		cmp	r3, r2
 1156 02f4 08DC     		bgt	.L36
 1157              		.loc 1 455 0 is_stmt 0 discriminator 1
 1158 02f6 374B     		ldr	r3, .L50
 1159 02f8 1B68     		ldr	r3, [r3]
 1160 02fa 374A     		ldr	r2, .L50+4
 1161 02fc 52F82330 		ldr	r3, [r2, r3, lsl #2]
 1162 0300 40F6FB02 		movw	r2, #2299
 1163 0304 9342     		cmp	r3, r2
 1164 0306 03DC     		bgt	.L37
 1165              	.L36:
 456:.\main.c      ****                     // A2,A5 >2700 <2300
 457:.\main.c      ****                     // A1, >2800 <2200
 458:.\main.c      ****                     //usbPutString("A2 is OFF        ");
 459:.\main.c      ****                     A2OnIsTrue = 1;
 1166              		.loc 1 459 0 is_stmt 1
 1167 0308 344B     		ldr	r3, .L50+8
 1168 030a 0122     		movs	r2, #1
 1169 030c 1A60     		str	r2, [r3]
 460:.\main.c      ****                     break;
 1170              		.loc 1 460 0
 1171 030e 0BE0     		b	.L38
 1172              	.L37:
 461:.\main.c      ****                 }
 462:.\main.c      ****                 else {
 463:.\main.c      ****                     A2OnIsTrue = 0;
 1173              		.loc 1 463 0 discriminator 2
 1174 0310 324B     		ldr	r3, .L50+8
 1175 0312 0022     		movs	r2, #0
ARM GAS  C:\Users\Leo\AppData\Local\Temp\ccpyyUor.s 			page 30


 1176 0314 1A60     		str	r2, [r3]
 454:.\main.c      ****                 if (a2_array[A2itr] > 2700 || a2_array[A2itr] < 2300) { //2750> <2250 too big never
 1177              		.loc 1 454 0 discriminator 2
 1178 0316 2F4B     		ldr	r3, .L50
 1179 0318 1B68     		ldr	r3, [r3]
 1180 031a 0133     		adds	r3, r3, #1
 1181 031c 2D4A     		ldr	r2, .L50
 1182 031e 1360     		str	r3, [r2]
 1183              	.L35:
 454:.\main.c      ****                 if (a2_array[A2itr] > 2700 || a2_array[A2itr] < 2300) { //2750> <2250 too big never
 1184              		.loc 1 454 0 is_stmt 0 discriminator 1
 1185 0320 2C4B     		ldr	r3, .L50
 1186 0322 1B68     		ldr	r3, [r3]
 1187 0324 4A2B     		cmp	r3, #74
 1188 0326 DDDD     		ble	.L39
 1189              	.L38:
 464:.\main.c      ****                 }
 465:.\main.c      ****             }
 466:.\main.c      ****             
 467:.\main.c      ****             if (A2OnIsTrue == 0) {
 468:.\main.c      ****                 //usbPutString("A2 is ON        ");
 469:.\main.c      ****             }
 470:.\main.c      ****             
 471:.\main.c      ****             if (MODE != 0) {
 1190              		.loc 1 471 0 is_stmt 1
 1191 0328 2D4B     		ldr	r3, .L50+12
 1192 032a 1B68     		ldr	r3, [r3]
 1193 032c 002B     		cmp	r3, #0
 1194 032e 2CD0     		beq	.L40
 472:.\main.c      ****                 A5itr = 0;
 1195              		.loc 1 472 0
 1196 0330 2C4B     		ldr	r3, .L50+16
 1197 0332 0022     		movs	r2, #0
 1198 0334 1A60     		str	r2, [r3]
 473:.\main.c      ****                 A5OnIsTrue = 0;
 1199              		.loc 1 473 0
 1200 0336 2C4B     		ldr	r3, .L50+20
 1201 0338 0022     		movs	r2, #0
 1202 033a 1A60     		str	r2, [r3]
 474:.\main.c      ****                 for (A5itr = 0; A5itr < 75; A5itr++) {
 1203              		.loc 1 474 0
 1204 033c 294B     		ldr	r3, .L50+16
 1205 033e 0022     		movs	r2, #0
 1206 0340 1A60     		str	r2, [r3]
 1207 0342 1EE0     		b	.L41
 1208              	.L45:
 475:.\main.c      ****                     if (a5_array[A5itr] > 2700 || a5_array[A5itr] < 2300) { //2750> <2250 too big n
 1209              		.loc 1 475 0
 1210 0344 274B     		ldr	r3, .L50+16
 1211 0346 1B68     		ldr	r3, [r3]
 1212 0348 284A     		ldr	r2, .L50+24
 1213 034a 52F82330 		ldr	r3, [r2, r3, lsl #2]
 1214 034e 40F68C22 		movw	r2, #2700
 1215 0352 9342     		cmp	r3, r2
 1216 0354 08DC     		bgt	.L42
 1217              		.loc 1 475 0 is_stmt 0 discriminator 1
 1218 0356 234B     		ldr	r3, .L50+16
ARM GAS  C:\Users\Leo\AppData\Local\Temp\ccpyyUor.s 			page 31


 1219 0358 1B68     		ldr	r3, [r3]
 1220 035a 244A     		ldr	r2, .L50+24
 1221 035c 52F82330 		ldr	r3, [r2, r3, lsl #2]
 1222 0360 40F6FB02 		movw	r2, #2299
 1223 0364 9342     		cmp	r3, r2
 1224 0366 04DC     		bgt	.L43
 1225              	.L42:
 476:.\main.c      ****                         // A2,A5 >2700 <2300
 477:.\main.c      ****                         // A1, >2800 <2200
 478:.\main.c      ****                         //usbPutString("A5 is OFF\r\n");
 479:.\main.c      ****                         A5OnIsTrue = 1;
 1226              		.loc 1 479 0 is_stmt 1
 1227 0368 1F4B     		ldr	r3, .L50+20
 1228 036a 0122     		movs	r2, #1
 1229 036c 1A60     		str	r2, [r3]
 480:.\main.c      ****                         break;
 1230              		.loc 1 480 0
 1231 036e 00BF     		nop
 1232 0370 0BE0     		b	.L40
 1233              	.L43:
 481:.\main.c      ****                     }
 482:.\main.c      ****                     else {
 483:.\main.c      ****                         A5OnIsTrue = 0;
 1234              		.loc 1 483 0 discriminator 2
 1235 0372 1D4B     		ldr	r3, .L50+20
 1236 0374 0022     		movs	r2, #0
 1237 0376 1A60     		str	r2, [r3]
 474:.\main.c      ****                     if (a5_array[A5itr] > 2700 || a5_array[A5itr] < 2300) { //2750> <2250 too big n
 1238              		.loc 1 474 0 discriminator 2
 1239 0378 1A4B     		ldr	r3, .L50+16
 1240 037a 1B68     		ldr	r3, [r3]
 1241 037c 0133     		adds	r3, r3, #1
 1242 037e 194A     		ldr	r2, .L50+16
 1243 0380 1360     		str	r3, [r2]
 1244              	.L41:
 474:.\main.c      ****                     if (a5_array[A5itr] > 2700 || a5_array[A5itr] < 2300) { //2750> <2250 too big n
 1245              		.loc 1 474 0 is_stmt 0 discriminator 1
 1246 0382 184B     		ldr	r3, .L50+16
 1247 0384 1B68     		ldr	r3, [r3]
 1248 0386 4A2B     		cmp	r3, #74
 1249 0388 DCDD     		ble	.L45
 1250              	.L40:
 484:.\main.c      ****                     }
 485:.\main.c      ****                 }
 486:.\main.c      ****                 
 487:.\main.c      ****                 if (A5OnIsTrue == 0) {
 488:.\main.c      ****                     //usbPutString("A5 is ON\r\n");
 489:.\main.c      ****                 }
 490:.\main.c      ****             }
 491:.\main.c      ****             
 492:.\main.c      ****             
 493:.\main.c      ****             
 494:.\main.c      ****             //usbPutString("v0 is: ");            
 495:.\main.c      ****             //itoa(v0, a0, 10);
 496:.\main.c      ****             //usbPutString(a0);           
 497:.\main.c      ****             //usbPutString("       ");
 498:.\main.c      ****         if (MODE == 5) { 
ARM GAS  C:\Users\Leo\AppData\Local\Temp\ccpyyUor.s 			page 32


 1251              		.loc 1 498 0 is_stmt 1
 1252 038a 154B     		ldr	r3, .L50+12
 1253 038c 1B68     		ldr	r3, [r3]
 1254 038e 052B     		cmp	r3, #5
 1255 0390 12D1     		bne	.L29
 499:.\main.c      ****             usbPutString("Battery Voltage is: ");
 1256              		.loc 1 499 0
 1257 0392 1748     		ldr	r0, .L50+28
 1258 0394 FFF7FEFF 		bl	usbPutString
 500:.\main.c      ****             itoa(v6, a6, 10);
 1259              		.loc 1 500 0
 1260 0398 164B     		ldr	r3, .L50+32
 1261 039a 1B68     		ldr	r3, [r3]
 1262 039c 1846     		mov	r0, r3
 1263 039e 1649     		ldr	r1, .L50+36
 1264 03a0 0A22     		movs	r2, #10
 1265 03a2 FFF7FEFF 		bl	itoa
 501:.\main.c      ****             usbPutString(a6);
 1266              		.loc 1 501 0
 1267 03a6 1448     		ldr	r0, .L50+36
 1268 03a8 FFF7FEFF 		bl	usbPutString
 502:.\main.c      ****             usbPutChar('\r');
 1269              		.loc 1 502 0
 1270 03ac 0D20     		movs	r0, #13
 1271 03ae FFF7FEFF 		bl	usbPutChar
 503:.\main.c      ****             usbPutChar('\n');
 1272              		.loc 1 503 0
 1273 03b2 0A20     		movs	r0, #10
 1274 03b4 FFF7FEFF 		bl	usbPutChar
 1275              	.L29:
 504:.\main.c      ****            /* usbPutString("v1 is: ");
 505:.\main.c      ****             itoa(v1, a1, 10);
 506:.\main.c      ****             usbPutString(a1);
 507:.\main.c      ****             
 508:.\main.c      ****             usbPutString("       ");
 509:.\main.c      ****             
 510:.\main.c      ****             usbPutString("v2 is: ");
 511:.\main.c      ****             itoa(v2, a2, 10);
 512:.\main.c      ****             usbPutString(a2);
 513:.\main.c      ****             usbPutString("       ");
 514:.\main.c      ****             
 515:.\main.c      ****             usbPutString("v3 is: ");
 516:.\main.c      ****             itoa(v3, a3, 10);
 517:.\main.c      ****             usbPutString(a3);
 518:.\main.c      ****             usbPutString("       ");
 519:.\main.c      ****             
 520:.\main.c      ****             usbPutString("v4 is: ");
 521:.\main.c      ****             itoa(v4, a4, 10);
 522:.\main.c      ****             usbPutString(a4);
 523:.\main.c      ****             usbPutString("       ");
 524:.\main.c      ****             
 525:.\main.c      ****             usbPutString("v5 is: ");
 526:.\main.c      ****             itoa(v5, a5, 10);
 527:.\main.c      ****             usbPutString(a5);
 528:.\main.c      ****             usbPutString("       ");
 529:.\main.c      ****             
 530:.\main.c      ****             usbPutChar('\r');
ARM GAS  C:\Users\Leo\AppData\Local\Temp\ccpyyUor.s 			page 33


 531:.\main.c      ****             usbPutChar('\n');*/
 532:.\main.c      ****             
 533:.\main.c      ****         }
 534:.\main.c      ****             
 535:.\main.c      ****             //usbPutChar(12);
 536:.\main.c      ****         }
 537:.\main.c      **** 
 538:.\main.c      ****         
 539:.\main.c      ****         
 540:.\main.c      ****         /* Place your application code here. */
 541:.\main.c      ****         handle_usb();
 1276              		.loc 1 541 0
 1277 03b8 FFF7FEFF 		bl	handle_usb
 542:.\main.c      ****         if (flag_KB_string == 1)
 1278              		.loc 1 542 0
 1279 03bc 0F4B     		ldr	r3, .L50+40
 1280 03be 1B78     		ldrb	r3, [r3]	@ zero_extendqisi2
 1281 03c0 012B     		cmp	r3, #1
 1282 03c2 05D1     		bne	.L46
 543:.\main.c      ****         {
 544:.\main.c      ****             usbPutString(line);         
 1283              		.loc 1 544 0
 1284 03c4 0E48     		ldr	r0, .L50+44
 1285 03c6 FFF7FEFF 		bl	usbPutString
 545:.\main.c      ****             flag_KB_string = 0;
 1286              		.loc 1 545 0
 1287 03ca 0C4B     		ldr	r3, .L50+40
 1288 03cc 0022     		movs	r2, #0
 1289 03ce 1A70     		strb	r2, [r3]
 1290              	.L46:
 546:.\main.c      ****         }    
 547:.\main.c      ****     }   
 1291              		.loc 1 547 0
 1292 03d0 4DE6     		b	.L47
 1293              	.L51:
 1294 03d2 00BF     		.align	2
 1295              	.L50:
 1296 03d4 00000000 		.word	A2itr
 1297 03d8 00000000 		.word	a2_array
 1298 03dc 00000000 		.word	A2OnIsTrue
 1299 03e0 00000000 		.word	MODE
 1300 03e4 00000000 		.word	A5itr
 1301 03e8 00000000 		.word	A5OnIsTrue
 1302 03ec 00000000 		.word	a5_array
 1303 03f0 00000000 		.word	.LC0
 1304 03f4 00000000 		.word	v6
 1305 03f8 00000000 		.word	a6
 1306 03fc 00000000 		.word	flag_KB_string
 1307 0400 00000000 		.word	line
 1308              		.cfi_endproc
 1309              	.LFE65:
 1310              		.size	main, .-main
 1311              		.section	.text.usbPutString,"ax",%progbits
 1312              		.align	2
 1313              		.global	usbPutString
 1314              		.thumb
 1315              		.thumb_func
ARM GAS  C:\Users\Leo\AppData\Local\Temp\ccpyyUor.s 			page 34


 1316              		.type	usbPutString, %function
 1317              	usbPutString:
 1318              	.LFB66:
 548:.\main.c      **** }
 549:.\main.c      **** //* ========================================
 550:.\main.c      **** void usbPutString(char *s)
 551:.\main.c      **** {
 1319              		.loc 1 551 0
 1320              		.cfi_startproc
 1321              		@ args = 0, pretend = 0, frame = 8
 1322              		@ frame_needed = 1, uses_anonymous_args = 0
 1323 0000 80B5     		push	{r7, lr}
 1324              		.cfi_def_cfa_offset 8
 1325              		.cfi_offset 7, -8
 1326              		.cfi_offset 14, -4
 1327 0002 82B0     		sub	sp, sp, #8
 1328              		.cfi_def_cfa_offset 16
 1329 0004 00AF     		add	r7, sp, #0
 1330              		.cfi_def_cfa_register 7
 1331 0006 7860     		str	r0, [r7, #4]
 552:.\main.c      **** // !! Assumes that *s is a string with allocated space >=64 chars     
 553:.\main.c      **** //  Since USB implementation retricts data packets to 64 chars, this function truncates the
 554:.\main.c      **** //  length to 62 char (63rd char is a '!')
 555:.\main.c      **** 
 556:.\main.c      **** #ifdef USE_USB     
 557:.\main.c      ****     while (USBUART_CDCIsReady() == 0);
 1332              		.loc 1 557 0
 1333 0008 00BF     		nop
 1334              	.L53:
 1335              		.loc 1 557 0 is_stmt 0 discriminator 1
 1336 000a FFF7FEFF 		bl	USBUART_CDCIsReady
 1337 000e 0346     		mov	r3, r0
 1338 0010 002B     		cmp	r3, #0
 1339 0012 FAD0     		beq	.L53
 558:.\main.c      ****     s[63]='\0';
 1340              		.loc 1 558 0 is_stmt 1
 1341 0014 7B68     		ldr	r3, [r7, #4]
 1342 0016 3F33     		adds	r3, r3, #63
 1343 0018 0022     		movs	r2, #0
 1344 001a 1A70     		strb	r2, [r3]
 559:.\main.c      ****     s[62]='!';
 1345              		.loc 1 559 0
 1346 001c 7B68     		ldr	r3, [r7, #4]
 1347 001e 3E33     		adds	r3, r3, #62
 1348 0020 2122     		movs	r2, #33
 1349 0022 1A70     		strb	r2, [r3]
 560:.\main.c      ****     USBUART_PutData((uint8*)s,strlen(s));
 1350              		.loc 1 560 0
 1351 0024 7868     		ldr	r0, [r7, #4]
 1352 0026 FFF7FEFF 		bl	strlen
 1353 002a 0346     		mov	r3, r0
 1354 002c 9BB2     		uxth	r3, r3
 1355 002e 7868     		ldr	r0, [r7, #4]
 1356 0030 1946     		mov	r1, r3
 1357 0032 FFF7FEFF 		bl	USBUART_PutData
 561:.\main.c      **** #endif
 562:.\main.c      **** }
ARM GAS  C:\Users\Leo\AppData\Local\Temp\ccpyyUor.s 			page 35


 1358              		.loc 1 562 0
 1359 0036 0837     		adds	r7, r7, #8
 1360              		.cfi_def_cfa_offset 8
 1361 0038 BD46     		mov	sp, r7
 1362              		.cfi_def_cfa_register 13
 1363              		@ sp needed
 1364 003a 80BD     		pop	{r7, pc}
 1365              		.cfi_endproc
 1366              	.LFE66:
 1367              		.size	usbPutString, .-usbPutString
 1368              		.section	.text.usbPutChar,"ax",%progbits
 1369              		.align	2
 1370              		.global	usbPutChar
 1371              		.thumb
 1372              		.thumb_func
 1373              		.type	usbPutChar, %function
 1374              	usbPutChar:
 1375              	.LFB67:
 563:.\main.c      **** //* ========================================
 564:.\main.c      **** void usbPutChar(char c)
 565:.\main.c      **** {
 1376              		.loc 1 565 0
 1377              		.cfi_startproc
 1378              		@ args = 0, pretend = 0, frame = 8
 1379              		@ frame_needed = 1, uses_anonymous_args = 0
 1380 0000 80B5     		push	{r7, lr}
 1381              		.cfi_def_cfa_offset 8
 1382              		.cfi_offset 7, -8
 1383              		.cfi_offset 14, -4
 1384 0002 82B0     		sub	sp, sp, #8
 1385              		.cfi_def_cfa_offset 16
 1386 0004 00AF     		add	r7, sp, #0
 1387              		.cfi_def_cfa_register 7
 1388 0006 0346     		mov	r3, r0
 1389 0008 FB71     		strb	r3, [r7, #7]
 566:.\main.c      **** #ifdef USE_USB     
 567:.\main.c      ****     while (USBUART_CDCIsReady() == 0);
 1390              		.loc 1 567 0
 1391 000a 00BF     		nop
 1392              	.L55:
 1393              		.loc 1 567 0 is_stmt 0 discriminator 1
 1394 000c FFF7FEFF 		bl	USBUART_CDCIsReady
 1395 0010 0346     		mov	r3, r0
 1396 0012 002B     		cmp	r3, #0
 1397 0014 FAD0     		beq	.L55
 568:.\main.c      ****     USBUART_PutChar(c);
 1398              		.loc 1 568 0 is_stmt 1
 1399 0016 FB79     		ldrb	r3, [r7, #7]	@ zero_extendqisi2
 1400 0018 1846     		mov	r0, r3
 1401 001a FFF7FEFF 		bl	USBUART_PutChar
 569:.\main.c      **** #endif    
 570:.\main.c      **** }
 1402              		.loc 1 570 0
 1403 001e 0837     		adds	r7, r7, #8
 1404              		.cfi_def_cfa_offset 8
 1405 0020 BD46     		mov	sp, r7
 1406              		.cfi_def_cfa_register 13
ARM GAS  C:\Users\Leo\AppData\Local\Temp\ccpyyUor.s 			page 36


 1407              		@ sp needed
 1408 0022 80BD     		pop	{r7, pc}
 1409              		.cfi_endproc
 1410              	.LFE67:
 1411              		.size	usbPutChar, .-usbPutChar
 1412              		.section	.text.handle_usb,"ax",%progbits
 1413              		.align	2
 1414              		.global	handle_usb
 1415              		.thumb
 1416              		.thumb_func
 1417              		.type	handle_usb, %function
 1418              	handle_usb:
 1419              	.LFB68:
 571:.\main.c      **** //* ========================================
 572:.\main.c      **** void handle_usb()
 573:.\main.c      **** {
 1420              		.loc 1 573 0
 1421              		.cfi_startproc
 1422              		@ args = 0, pretend = 0, frame = 8
 1423              		@ frame_needed = 1, uses_anonymous_args = 0
 1424 0000 80B5     		push	{r7, lr}
 1425              		.cfi_def_cfa_offset 8
 1426              		.cfi_offset 7, -8
 1427              		.cfi_offset 14, -4
 1428 0002 82B0     		sub	sp, sp, #8
 1429              		.cfi_def_cfa_offset 16
 1430 0004 00AF     		add	r7, sp, #0
 1431              		.cfi_def_cfa_register 7
 574:.\main.c      ****     // handles input at terminal, echos it back to the terminal
 575:.\main.c      ****     // turn echo OFF, key emulation: only CR
 576:.\main.c      ****     // entered string is made available in 'line' and 'flag_KB_string' is set
 577:.\main.c      ****     
 578:.\main.c      ****     static uint8 usbStarted = FALSE;
 579:.\main.c      ****     static uint16 usbBufCount = 0;
 580:.\main.c      ****     uint8 c; 
 581:.\main.c      ****     
 582:.\main.c      **** 
 583:.\main.c      ****     if (!usbStarted)
 1432              		.loc 1 583 0
 1433 0006 2A4B     		ldr	r3, .L65
 1434 0008 1B78     		ldrb	r3, [r3]	@ zero_extendqisi2
 1435 000a 002B     		cmp	r3, #0
 1436 000c 0AD1     		bne	.L57
 584:.\main.c      ****     {
 585:.\main.c      ****         if (USBUART_GetConfiguration())
 1437              		.loc 1 585 0
 1438 000e FFF7FEFF 		bl	USBUART_GetConfiguration
 1439 0012 0346     		mov	r3, r0
 1440 0014 002B     		cmp	r3, #0
 1441 0016 48D0     		beq	.L56
 586:.\main.c      ****         {
 587:.\main.c      ****             USBUART_CDC_Init();
 1442              		.loc 1 587 0
 1443 0018 FFF7FEFF 		bl	USBUART_CDC_Init
 588:.\main.c      ****             usbStarted = TRUE;
 1444              		.loc 1 588 0
 1445 001c 244B     		ldr	r3, .L65
ARM GAS  C:\Users\Leo\AppData\Local\Temp\ccpyyUor.s 			page 37


 1446 001e 0122     		movs	r2, #1
 1447 0020 1A70     		strb	r2, [r3]
 1448 0022 42E0     		b	.L56
 1449              	.L57:
 589:.\main.c      ****         }
 590:.\main.c      ****     }
 591:.\main.c      ****     else
 592:.\main.c      ****     {
 593:.\main.c      ****         if (USBUART_DataIsReady() != 0)
 1450              		.loc 1 593 0
 1451 0024 FFF7FEFF 		bl	USBUART_DataIsReady
 1452 0028 0346     		mov	r3, r0
 1453 002a 002B     		cmp	r3, #0
 1454 002c 3DD0     		beq	.L56
 594:.\main.c      ****         {  
 595:.\main.c      ****             c = USBUART_GetChar();
 1455              		.loc 1 595 0
 1456 002e FFF7FEFF 		bl	USBUART_GetChar
 1457 0032 0346     		mov	r3, r0
 1458 0034 FB71     		strb	r3, [r7, #7]
 596:.\main.c      **** 
 597:.\main.c      ****             if ((c == 13) || (c == 10))
 1459              		.loc 1 597 0
 1460 0036 FB79     		ldrb	r3, [r7, #7]	@ zero_extendqisi2
 1461 0038 0D2B     		cmp	r3, #13
 1462 003a 02D0     		beq	.L60
 1463              		.loc 1 597 0 is_stmt 0 discriminator 1
 1464 003c FB79     		ldrb	r3, [r7, #7]	@ zero_extendqisi2
 1465 003e 0A2B     		cmp	r3, #10
 1466 0040 10D1     		bne	.L61
 1467              	.L60:
 598:.\main.c      ****             {
 599:.\main.c      **** //                if (usbBufCount > 0)
 600:.\main.c      ****                 {
 601:.\main.c      ****                     entry[usbBufCount]= '\0';
 1468              		.loc 1 601 0 is_stmt 1
 1469 0042 1C4B     		ldr	r3, .L65+4
 1470 0044 1B88     		ldrh	r3, [r3]
 1471 0046 1A46     		mov	r2, r3
 1472 0048 1B4B     		ldr	r3, .L65+8
 1473 004a 0021     		movs	r1, #0
 1474 004c 9954     		strb	r1, [r3, r2]
 602:.\main.c      ****                     strcpy(line,entry);
 1475              		.loc 1 602 0
 1476 004e 1B48     		ldr	r0, .L65+12
 1477 0050 1949     		ldr	r1, .L65+8
 1478 0052 FFF7FEFF 		bl	strcpy
 603:.\main.c      ****                     usbBufCount = 0;
 1479              		.loc 1 603 0
 1480 0056 174B     		ldr	r3, .L65+4
 1481 0058 0022     		movs	r2, #0
 1482 005a 1A80     		strh	r2, [r3]	@ movhi
 604:.\main.c      ****                     flag_KB_string = 1;
 1483              		.loc 1 604 0
 1484 005c 184B     		ldr	r3, .L65+16
 1485 005e 0122     		movs	r2, #1
 1486 0060 1A70     		strb	r2, [r3]
ARM GAS  C:\Users\Leo\AppData\Local\Temp\ccpyyUor.s 			page 38


 1487 0062 22E0     		b	.L56
 1488              	.L61:
 605:.\main.c      ****                 }
 606:.\main.c      ****             }
 607:.\main.c      ****             else 
 608:.\main.c      ****             {
 609:.\main.c      ****                 if (((c == CHAR_BACKSP) || (c == CHAR_DEL) ) && (usbBufCount > 0) )
 1489              		.loc 1 609 0
 1490 0064 FB79     		ldrb	r3, [r7, #7]	@ zero_extendqisi2
 1491 0066 082B     		cmp	r3, #8
 1492 0068 02D0     		beq	.L62
 1493              		.loc 1 609 0 is_stmt 0 discriminator 2
 1494 006a FB79     		ldrb	r3, [r7, #7]	@ zero_extendqisi2
 1495 006c 7F2B     		cmp	r3, #127
 1496 006e 0AD1     		bne	.L63
 1497              	.L62:
 1498              		.loc 1 609 0 discriminator 3
 1499 0070 104B     		ldr	r3, .L65+4
 1500 0072 1B88     		ldrh	r3, [r3]
 1501 0074 002B     		cmp	r3, #0
 1502 0076 06D0     		beq	.L63
 610:.\main.c      ****                     usbBufCount--;
 1503              		.loc 1 610 0 is_stmt 1
 1504 0078 0E4B     		ldr	r3, .L65+4
 1505 007a 1B88     		ldrh	r3, [r3]
 1506 007c 013B     		subs	r3, r3, #1
 1507 007e 9AB2     		uxth	r2, r3
 1508 0080 0C4B     		ldr	r3, .L65+4
 1509 0082 1A80     		strh	r2, [r3]	@ movhi
 1510 0084 11E0     		b	.L56
 1511              	.L63:
 611:.\main.c      ****                 else
 612:.\main.c      ****                 {
 613:.\main.c      ****                     if (usbBufCount > (BUF_SIZE-2) ) // one less else strtok triggers a crash
 1512              		.loc 1 613 0
 1513 0086 0B4B     		ldr	r3, .L65+4
 1514 0088 1B88     		ldrh	r3, [r3]
 1515 008a 3E2B     		cmp	r3, #62
 1516 008c 03D9     		bls	.L64
 614:.\main.c      ****                     {
 615:.\main.c      ****                        USBUART_PutChar('!');        
 1517              		.loc 1 615 0
 1518 008e 2120     		movs	r0, #33
 1519 0090 FFF7FEFF 		bl	USBUART_PutChar
 1520 0094 09E0     		b	.L56
 1521              	.L64:
 616:.\main.c      ****                     }
 617:.\main.c      ****                     else
 618:.\main.c      ****                         entry[usbBufCount++] = c;  
 1522              		.loc 1 618 0
 1523 0096 074B     		ldr	r3, .L65+4
 1524 0098 1B88     		ldrh	r3, [r3]
 1525 009a 5A1C     		adds	r2, r3, #1
 1526 009c 91B2     		uxth	r1, r2
 1527 009e 054A     		ldr	r2, .L65+4
 1528 00a0 1180     		strh	r1, [r2]	@ movhi
 1529 00a2 1946     		mov	r1, r3
ARM GAS  C:\Users\Leo\AppData\Local\Temp\ccpyyUor.s 			page 39


 1530 00a4 044A     		ldr	r2, .L65+8
 1531 00a6 FB79     		ldrb	r3, [r7, #7]
 1532 00a8 5354     		strb	r3, [r2, r1]
 1533              	.L56:
 619:.\main.c      ****                 }  
 620:.\main.c      ****             }
 621:.\main.c      ****         }
 622:.\main.c      ****     }    
 623:.\main.c      **** }
 1534              		.loc 1 623 0
 1535 00aa 0837     		adds	r7, r7, #8
 1536              		.cfi_def_cfa_offset 8
 1537 00ac BD46     		mov	sp, r7
 1538              		.cfi_def_cfa_register 13
 1539              		@ sp needed
 1540 00ae 80BD     		pop	{r7, pc}
 1541              	.L66:
 1542              		.align	2
 1543              	.L65:
 1544 00b0 48000000 		.word	usbStarted.8080
 1545 00b4 4A000000 		.word	usbBufCount.8081
 1546 00b8 00000000 		.word	entry
 1547 00bc 00000000 		.word	line
 1548 00c0 00000000 		.word	flag_KB_string
 1549              		.cfi_endproc
 1550              	.LFE68:
 1551              		.size	handle_usb, .-handle_usb
 1552              		.bss
 1553              	usbStarted.8080:
 1554 0048 00       		.space	1
 1555 0049 00       		.align	1
 1556              	usbBufCount.8081:
 1557 004a 0000     		.space	2
 1558              		.text
 1559              	.Letext0:
 1560              		.file 2 "c:\\program files (x86)\\cypress\\psoc creator\\3.3\\psoc creator\\import\\gnu\\arm\\4.9.
 1561              		.file 3 "c:\\program files (x86)\\cypress\\psoc creator\\3.3\\psoc creator\\import\\gnu\\arm\\4.9.
 1562              		.file 4 "Generated_Source\\PSoC5/cytypes.h"
 1563              		.file 5 ".\\vars.h"
 1564              		.file 6 "Generated_Source\\PSoC5/core_cm3.h"
