ARM GAS  C:\Users\claw541\AppData\Local\Temp\ccMQm6YC.s 			page 1


   1              		.syntax unified
   2              		.cpu cortex-m3
   3              		.fpu softvfp
   4              		.eabi_attribute 20, 1
   5              		.eabi_attribute 21, 1
   6              		.eabi_attribute 23, 3
   7              		.eabi_attribute 24, 1
   8              		.eabi_attribute 25, 1
   9              		.eabi_attribute 26, 1
  10              		.eabi_attribute 30, 6
  11              		.eabi_attribute 34, 1
  12              		.eabi_attribute 18, 4
  13              		.thumb
  14              		.file	"QuadDec_M1.c"
  15              		.text
  16              	.Ltext0:
  17              		.cfi_sections	.debug_frame
  18              		.global	QuadDec_M1_initVar
  19              		.bss
  20              		.type	QuadDec_M1_initVar, %object
  21              		.size	QuadDec_M1_initVar, 1
  22              	QuadDec_M1_initVar:
  23 0000 00       		.space	1
  24              		.section	.text.QuadDec_M1_Init,"ax",%progbits
  25              		.align	2
  26              		.global	QuadDec_M1_Init
  27              		.thumb
  28              		.thumb_func
  29              		.type	QuadDec_M1_Init, %function
  30              	QuadDec_M1_Init:
  31              	.LFB0:
  32              		.file 1 ".\\Generated_Source\\PSoC5\\QuadDec_M1.c"
   1:.\Generated_Source\PSoC5/QuadDec_M1.c **** /*******************************************************************************
   2:.\Generated_Source\PSoC5/QuadDec_M1.c **** * File Name: QuadDec_M1.c  
   3:.\Generated_Source\PSoC5/QuadDec_M1.c **** * Version 3.0
   4:.\Generated_Source\PSoC5/QuadDec_M1.c **** *
   5:.\Generated_Source\PSoC5/QuadDec_M1.c **** * Description:
   6:.\Generated_Source\PSoC5/QuadDec_M1.c **** *  This file provides the source code to the API for the Quadrature Decoder
   7:.\Generated_Source\PSoC5/QuadDec_M1.c **** *  component.
   8:.\Generated_Source\PSoC5/QuadDec_M1.c **** *
   9:.\Generated_Source\PSoC5/QuadDec_M1.c **** * Note:
  10:.\Generated_Source\PSoC5/QuadDec_M1.c **** *  None.
  11:.\Generated_Source\PSoC5/QuadDec_M1.c **** *   
  12:.\Generated_Source\PSoC5/QuadDec_M1.c **** ********************************************************************************
  13:.\Generated_Source\PSoC5/QuadDec_M1.c **** * Copyright 2008-2014, Cypress Semiconductor Corporation.  All rights reserved.
  14:.\Generated_Source\PSoC5/QuadDec_M1.c **** * You may use this file only in accordance with the license, terms, conditions, 
  15:.\Generated_Source\PSoC5/QuadDec_M1.c **** * disclaimers, and limitations in the end user license agreement accompanying 
  16:.\Generated_Source\PSoC5/QuadDec_M1.c **** * the software package with which this file was provided.
  17:.\Generated_Source\PSoC5/QuadDec_M1.c **** *******************************************************************************/
  18:.\Generated_Source\PSoC5/QuadDec_M1.c **** 
  19:.\Generated_Source\PSoC5/QuadDec_M1.c **** #include "QuadDec_M1.h"
  20:.\Generated_Source\PSoC5/QuadDec_M1.c **** 
  21:.\Generated_Source\PSoC5/QuadDec_M1.c **** #if (QuadDec_M1_COUNTER_SIZE == QuadDec_M1_COUNTER_SIZE_32_BIT)
  22:.\Generated_Source\PSoC5/QuadDec_M1.c ****     #include "QuadDec_M1_PVT.h"
  23:.\Generated_Source\PSoC5/QuadDec_M1.c **** #endif /* QuadDec_M1_COUNTER_SIZE == QuadDec_M1_COUNTER_SIZE_32_BIT */
  24:.\Generated_Source\PSoC5/QuadDec_M1.c **** 
  25:.\Generated_Source\PSoC5/QuadDec_M1.c **** uint8 QuadDec_M1_initVar = 0u;
ARM GAS  C:\Users\claw541\AppData\Local\Temp\ccMQm6YC.s 			page 2


  26:.\Generated_Source\PSoC5/QuadDec_M1.c **** 
  27:.\Generated_Source\PSoC5/QuadDec_M1.c **** 
  28:.\Generated_Source\PSoC5/QuadDec_M1.c **** /*******************************************************************************
  29:.\Generated_Source\PSoC5/QuadDec_M1.c **** * Function Name: QuadDec_M1_Init
  30:.\Generated_Source\PSoC5/QuadDec_M1.c **** ********************************************************************************
  31:.\Generated_Source\PSoC5/QuadDec_M1.c **** *
  32:.\Generated_Source\PSoC5/QuadDec_M1.c **** * Summary:
  33:.\Generated_Source\PSoC5/QuadDec_M1.c **** *  Inits/Restores default QuadDec configuration provided with customizer.
  34:.\Generated_Source\PSoC5/QuadDec_M1.c **** *
  35:.\Generated_Source\PSoC5/QuadDec_M1.c **** * Parameters:
  36:.\Generated_Source\PSoC5/QuadDec_M1.c **** *  None.
  37:.\Generated_Source\PSoC5/QuadDec_M1.c **** *
  38:.\Generated_Source\PSoC5/QuadDec_M1.c **** * Return:
  39:.\Generated_Source\PSoC5/QuadDec_M1.c **** *  None.
  40:.\Generated_Source\PSoC5/QuadDec_M1.c **** *
  41:.\Generated_Source\PSoC5/QuadDec_M1.c **** *******************************************************************************/
  42:.\Generated_Source\PSoC5/QuadDec_M1.c **** void QuadDec_M1_Init(void) 
  43:.\Generated_Source\PSoC5/QuadDec_M1.c **** {
  33              		.loc 1 43 0
  34              		.cfi_startproc
  35              		@ args = 0, pretend = 0, frame = 0
  36              		@ frame_needed = 1, uses_anonymous_args = 0
  37              		@ link register save eliminated.
  38 0000 80B4     		push	{r7}
  39              		.cfi_def_cfa_offset 4
  40              		.cfi_offset 7, -4
  41 0002 00AF     		add	r7, sp, #0
  42              		.cfi_def_cfa_register 7
  44:.\Generated_Source\PSoC5/QuadDec_M1.c ****     #if (QuadDec_M1_COUNTER_SIZE == QuadDec_M1_COUNTER_SIZE_32_BIT)
  45:.\Generated_Source\PSoC5/QuadDec_M1.c ****         /* Disable Interrupt. */
  46:.\Generated_Source\PSoC5/QuadDec_M1.c ****         CyIntDisable(QuadDec_M1_ISR_NUMBER);
  47:.\Generated_Source\PSoC5/QuadDec_M1.c ****         /* Set the ISR to point to the QuadDec_M1_isr Interrupt. */
  48:.\Generated_Source\PSoC5/QuadDec_M1.c ****         (void) CyIntSetVector(QuadDec_M1_ISR_NUMBER, & QuadDec_M1_ISR);
  49:.\Generated_Source\PSoC5/QuadDec_M1.c ****         /* Set the priority. */
  50:.\Generated_Source\PSoC5/QuadDec_M1.c ****         CyIntSetPriority(QuadDec_M1_ISR_NUMBER, QuadDec_M1_ISR_PRIORITY);
  51:.\Generated_Source\PSoC5/QuadDec_M1.c ****     #endif /* QuadDec_M1_COUNTER_SIZE == QuadDec_M1_COUNTER_SIZE_32_BIT */
  52:.\Generated_Source\PSoC5/QuadDec_M1.c **** }
  43              		.loc 1 52 0
  44 0004 BD46     		mov	sp, r7
  45              		.cfi_def_cfa_register 13
  46              		@ sp needed
  47 0006 5DF8047B 		ldr	r7, [sp], #4
  48              		.cfi_restore 7
  49              		.cfi_def_cfa_offset 0
  50 000a 7047     		bx	lr
  51              		.cfi_endproc
  52              	.LFE0:
  53              		.size	QuadDec_M1_Init, .-QuadDec_M1_Init
  54              		.section	.text.QuadDec_M1_Enable,"ax",%progbits
  55              		.align	2
  56              		.global	QuadDec_M1_Enable
  57              		.thumb
  58              		.thumb_func
  59              		.type	QuadDec_M1_Enable, %function
  60              	QuadDec_M1_Enable:
  61              	.LFB1:
  53:.\Generated_Source\PSoC5/QuadDec_M1.c **** 
ARM GAS  C:\Users\claw541\AppData\Local\Temp\ccMQm6YC.s 			page 3


  54:.\Generated_Source\PSoC5/QuadDec_M1.c **** 
  55:.\Generated_Source\PSoC5/QuadDec_M1.c **** /*******************************************************************************
  56:.\Generated_Source\PSoC5/QuadDec_M1.c **** * Function Name: QuadDec_M1_Enable
  57:.\Generated_Source\PSoC5/QuadDec_M1.c **** ********************************************************************************
  58:.\Generated_Source\PSoC5/QuadDec_M1.c **** *
  59:.\Generated_Source\PSoC5/QuadDec_M1.c **** * Summary:
  60:.\Generated_Source\PSoC5/QuadDec_M1.c **** *  This function enable interrupts from Component and also enable Component's
  61:.\Generated_Source\PSoC5/QuadDec_M1.c **** *  ISR in case of 32-bit counter.
  62:.\Generated_Source\PSoC5/QuadDec_M1.c **** *
  63:.\Generated_Source\PSoC5/QuadDec_M1.c **** * Parameters:
  64:.\Generated_Source\PSoC5/QuadDec_M1.c **** *  None.
  65:.\Generated_Source\PSoC5/QuadDec_M1.c **** *
  66:.\Generated_Source\PSoC5/QuadDec_M1.c **** * Return:
  67:.\Generated_Source\PSoC5/QuadDec_M1.c **** *  None.
  68:.\Generated_Source\PSoC5/QuadDec_M1.c **** *
  69:.\Generated_Source\PSoC5/QuadDec_M1.c **** *******************************************************************************/
  70:.\Generated_Source\PSoC5/QuadDec_M1.c **** void QuadDec_M1_Enable(void) 
  71:.\Generated_Source\PSoC5/QuadDec_M1.c **** {
  62              		.loc 1 71 0
  63              		.cfi_startproc
  64              		@ args = 0, pretend = 0, frame = 8
  65              		@ frame_needed = 1, uses_anonymous_args = 0
  66 0000 80B5     		push	{r7, lr}
  67              		.cfi_def_cfa_offset 8
  68              		.cfi_offset 7, -8
  69              		.cfi_offset 14, -4
  70 0002 82B0     		sub	sp, sp, #8
  71              		.cfi_def_cfa_offset 16
  72 0004 00AF     		add	r7, sp, #0
  73              		.cfi_def_cfa_register 7
  72:.\Generated_Source\PSoC5/QuadDec_M1.c ****     uint8 enableInterrupts;
  73:.\Generated_Source\PSoC5/QuadDec_M1.c **** 
  74:.\Generated_Source\PSoC5/QuadDec_M1.c ****     QuadDec_M1_SetInterruptMask(QuadDec_M1_INIT_INT_MASK);
  74              		.loc 1 74 0
  75 0006 0F20     		movs	r0, #15
  76 0008 FFF7FEFF 		bl	QuadDec_M1_SetInterruptMask
  75:.\Generated_Source\PSoC5/QuadDec_M1.c **** 
  76:.\Generated_Source\PSoC5/QuadDec_M1.c ****     /* Clear pending interrupts. */
  77:.\Generated_Source\PSoC5/QuadDec_M1.c ****     (void) QuadDec_M1_GetEvents();
  77              		.loc 1 77 0
  78 000c FFF7FEFF 		bl	QuadDec_M1_GetEvents
  78:.\Generated_Source\PSoC5/QuadDec_M1.c ****     
  79:.\Generated_Source\PSoC5/QuadDec_M1.c ****     enableInterrupts = CyEnterCriticalSection();
  79              		.loc 1 79 0
  80 0010 FFF7FEFF 		bl	CyEnterCriticalSection
  81 0014 0346     		mov	r3, r0
  82 0016 FB71     		strb	r3, [r7, #7]
  80:.\Generated_Source\PSoC5/QuadDec_M1.c **** 
  81:.\Generated_Source\PSoC5/QuadDec_M1.c ****     /* Enable interrupts from Statusi register */
  82:.\Generated_Source\PSoC5/QuadDec_M1.c ****     QuadDec_M1_SR_AUX_CONTROL |= QuadDec_M1_INTERRUPTS_ENABLE;
  83              		.loc 1 82 0
  84 0018 074A     		ldr	r2, .L3
  85 001a 074B     		ldr	r3, .L3
  86 001c 1B78     		ldrb	r3, [r3]
  87 001e DBB2     		uxtb	r3, r3
  88 0020 43F01003 		orr	r3, r3, #16
  89 0024 DBB2     		uxtb	r3, r3
ARM GAS  C:\Users\claw541\AppData\Local\Temp\ccMQm6YC.s 			page 4


  90 0026 1370     		strb	r3, [r2]
  83:.\Generated_Source\PSoC5/QuadDec_M1.c **** 
  84:.\Generated_Source\PSoC5/QuadDec_M1.c ****     CyExitCriticalSection(enableInterrupts);        
  91              		.loc 1 84 0
  92 0028 FB79     		ldrb	r3, [r7, #7]	@ zero_extendqisi2
  93 002a 1846     		mov	r0, r3
  94 002c FFF7FEFF 		bl	CyExitCriticalSection
  85:.\Generated_Source\PSoC5/QuadDec_M1.c **** 
  86:.\Generated_Source\PSoC5/QuadDec_M1.c ****     #if (QuadDec_M1_COUNTER_SIZE == QuadDec_M1_COUNTER_SIZE_32_BIT)
  87:.\Generated_Source\PSoC5/QuadDec_M1.c ****         /* Enable Component interrupts */
  88:.\Generated_Source\PSoC5/QuadDec_M1.c ****         CyIntEnable(QuadDec_M1_ISR_NUMBER);
  89:.\Generated_Source\PSoC5/QuadDec_M1.c ****     #endif /* QuadDec_M1_COUNTER_SIZE == QuadDec_M1_COUNTER_SIZE_32_BIT */
  90:.\Generated_Source\PSoC5/QuadDec_M1.c **** }
  95              		.loc 1 90 0
  96 0030 0837     		adds	r7, r7, #8
  97              		.cfi_def_cfa_offset 8
  98 0032 BD46     		mov	sp, r7
  99              		.cfi_def_cfa_register 13
 100              		@ sp needed
 101 0034 80BD     		pop	{r7, pc}
 102              	.L4:
 103 0036 00BF     		.align	2
 104              	.L3:
 105 0038 93640040 		.word	1073767571
 106              		.cfi_endproc
 107              	.LFE1:
 108              		.size	QuadDec_M1_Enable, .-QuadDec_M1_Enable
 109              		.section	.text.QuadDec_M1_Start,"ax",%progbits
 110              		.align	2
 111              		.global	QuadDec_M1_Start
 112              		.thumb
 113              		.thumb_func
 114              		.type	QuadDec_M1_Start, %function
 115              	QuadDec_M1_Start:
 116              	.LFB2:
  91:.\Generated_Source\PSoC5/QuadDec_M1.c **** 
  92:.\Generated_Source\PSoC5/QuadDec_M1.c **** 
  93:.\Generated_Source\PSoC5/QuadDec_M1.c **** /*******************************************************************************
  94:.\Generated_Source\PSoC5/QuadDec_M1.c **** * Function Name: QuadDec_M1_Start
  95:.\Generated_Source\PSoC5/QuadDec_M1.c **** ********************************************************************************
  96:.\Generated_Source\PSoC5/QuadDec_M1.c **** *
  97:.\Generated_Source\PSoC5/QuadDec_M1.c **** * Summary:
  98:.\Generated_Source\PSoC5/QuadDec_M1.c **** *  Initializes UDBs and other relevant hardware.
  99:.\Generated_Source\PSoC5/QuadDec_M1.c **** *  Resets counter, enables or disables all relevant interrupts.
 100:.\Generated_Source\PSoC5/QuadDec_M1.c **** *  Starts monitoring the inputs and counting.
 101:.\Generated_Source\PSoC5/QuadDec_M1.c **** *
 102:.\Generated_Source\PSoC5/QuadDec_M1.c **** * Parameters:
 103:.\Generated_Source\PSoC5/QuadDec_M1.c **** *  None.
 104:.\Generated_Source\PSoC5/QuadDec_M1.c **** *
 105:.\Generated_Source\PSoC5/QuadDec_M1.c **** * Return:
 106:.\Generated_Source\PSoC5/QuadDec_M1.c **** *  None.
 107:.\Generated_Source\PSoC5/QuadDec_M1.c **** *
 108:.\Generated_Source\PSoC5/QuadDec_M1.c **** * Global variables:
 109:.\Generated_Source\PSoC5/QuadDec_M1.c **** *  QuadDec_M1_initVar - used to check initial configuration, modified on
 110:.\Generated_Source\PSoC5/QuadDec_M1.c **** *  first function call.
 111:.\Generated_Source\PSoC5/QuadDec_M1.c **** *
 112:.\Generated_Source\PSoC5/QuadDec_M1.c **** * Reentrant:
ARM GAS  C:\Users\claw541\AppData\Local\Temp\ccMQm6YC.s 			page 5


 113:.\Generated_Source\PSoC5/QuadDec_M1.c **** *  No.
 114:.\Generated_Source\PSoC5/QuadDec_M1.c **** *
 115:.\Generated_Source\PSoC5/QuadDec_M1.c **** *******************************************************************************/
 116:.\Generated_Source\PSoC5/QuadDec_M1.c **** void QuadDec_M1_Start(void) 
 117:.\Generated_Source\PSoC5/QuadDec_M1.c **** {
 117              		.loc 1 117 0
 118              		.cfi_startproc
 119              		@ args = 0, pretend = 0, frame = 0
 120              		@ frame_needed = 1, uses_anonymous_args = 0
 121 0000 80B5     		push	{r7, lr}
 122              		.cfi_def_cfa_offset 8
 123              		.cfi_offset 7, -8
 124              		.cfi_offset 14, -4
 125 0002 00AF     		add	r7, sp, #0
 126              		.cfi_def_cfa_register 7
 118:.\Generated_Source\PSoC5/QuadDec_M1.c ****     #if (QuadDec_M1_COUNTER_SIZE == QuadDec_M1_COUNTER_SIZE_8_BIT)
 119:.\Generated_Source\PSoC5/QuadDec_M1.c ****         QuadDec_M1_Cnt8_Start();
 120:.\Generated_Source\PSoC5/QuadDec_M1.c ****         QuadDec_M1_Cnt8_WriteCounter(QuadDec_M1_COUNTER_INIT_VALUE);
 121:.\Generated_Source\PSoC5/QuadDec_M1.c ****     #else
 122:.\Generated_Source\PSoC5/QuadDec_M1.c ****         /* (QuadDec_M1_COUNTER_SIZE == QuadDec_M1_COUNTER_SIZE_16_BIT) || 
 123:.\Generated_Source\PSoC5/QuadDec_M1.c ****         *  (QuadDec_M1_COUNTER_SIZE == QuadDec_M1_COUNTER_SIZE_32_BIT) 
 124:.\Generated_Source\PSoC5/QuadDec_M1.c ****         */
 125:.\Generated_Source\PSoC5/QuadDec_M1.c ****         QuadDec_M1_Cnt16_Start();
 127              		.loc 1 125 0
 128 0004 FFF7FEFF 		bl	QuadDec_M1_Cnt16_Start
 126:.\Generated_Source\PSoC5/QuadDec_M1.c ****         QuadDec_M1_Cnt16_WriteCounter(QuadDec_M1_COUNTER_INIT_VALUE);
 129              		.loc 1 126 0
 130 0008 4FF40040 		mov	r0, #32768
 131 000c FFF7FEFF 		bl	QuadDec_M1_Cnt16_WriteCounter
 127:.\Generated_Source\PSoC5/QuadDec_M1.c ****     #endif /* QuadDec_M1_COUNTER_SIZE == QuadDec_M1_COUNTER_SIZE_8_BIT */
 128:.\Generated_Source\PSoC5/QuadDec_M1.c ****     
 129:.\Generated_Source\PSoC5/QuadDec_M1.c ****     #if (QuadDec_M1_COUNTER_SIZE == QuadDec_M1_COUNTER_SIZE_32_BIT)        
 130:.\Generated_Source\PSoC5/QuadDec_M1.c ****        QuadDec_M1_count32SoftPart = 0;
 131:.\Generated_Source\PSoC5/QuadDec_M1.c ****     #endif /* QuadDec_M1_COUNTER_SIZE == QuadDec_M1_COUNTER_SIZE_32_BIT */
 132:.\Generated_Source\PSoC5/QuadDec_M1.c **** 
 133:.\Generated_Source\PSoC5/QuadDec_M1.c ****     if (QuadDec_M1_initVar == 0u)
 132              		.loc 1 133 0
 133 0010 054B     		ldr	r3, .L7
 134 0012 1B78     		ldrb	r3, [r3]	@ zero_extendqisi2
 135 0014 002B     		cmp	r3, #0
 136 0016 04D1     		bne	.L6
 134:.\Generated_Source\PSoC5/QuadDec_M1.c ****     {
 135:.\Generated_Source\PSoC5/QuadDec_M1.c ****         QuadDec_M1_Init();
 137              		.loc 1 135 0
 138 0018 FFF7FEFF 		bl	QuadDec_M1_Init
 136:.\Generated_Source\PSoC5/QuadDec_M1.c ****         QuadDec_M1_initVar = 1u;
 139              		.loc 1 136 0
 140 001c 024B     		ldr	r3, .L7
 141 001e 0122     		movs	r2, #1
 142 0020 1A70     		strb	r2, [r3]
 143              	.L6:
 137:.\Generated_Source\PSoC5/QuadDec_M1.c ****     }
 138:.\Generated_Source\PSoC5/QuadDec_M1.c **** 
 139:.\Generated_Source\PSoC5/QuadDec_M1.c ****     QuadDec_M1_Enable();
 144              		.loc 1 139 0
 145 0022 FFF7FEFF 		bl	QuadDec_M1_Enable
 140:.\Generated_Source\PSoC5/QuadDec_M1.c **** }
ARM GAS  C:\Users\claw541\AppData\Local\Temp\ccMQm6YC.s 			page 6


 146              		.loc 1 140 0
 147 0026 80BD     		pop	{r7, pc}
 148              	.L8:
 149              		.align	2
 150              	.L7:
 151 0028 00000000 		.word	QuadDec_M1_initVar
 152              		.cfi_endproc
 153              	.LFE2:
 154              		.size	QuadDec_M1_Start, .-QuadDec_M1_Start
 155              		.section	.text.QuadDec_M1_Stop,"ax",%progbits
 156              		.align	2
 157              		.global	QuadDec_M1_Stop
 158              		.thumb
 159              		.thumb_func
 160              		.type	QuadDec_M1_Stop, %function
 161              	QuadDec_M1_Stop:
 162              	.LFB3:
 141:.\Generated_Source\PSoC5/QuadDec_M1.c **** 
 142:.\Generated_Source\PSoC5/QuadDec_M1.c **** 
 143:.\Generated_Source\PSoC5/QuadDec_M1.c **** /*******************************************************************************
 144:.\Generated_Source\PSoC5/QuadDec_M1.c **** * Function Name: QuadDec_M1_Stop
 145:.\Generated_Source\PSoC5/QuadDec_M1.c **** ********************************************************************************
 146:.\Generated_Source\PSoC5/QuadDec_M1.c **** *
 147:.\Generated_Source\PSoC5/QuadDec_M1.c **** * Summary:
 148:.\Generated_Source\PSoC5/QuadDec_M1.c **** *  Turns off UDBs and other relevant hardware.
 149:.\Generated_Source\PSoC5/QuadDec_M1.c **** *
 150:.\Generated_Source\PSoC5/QuadDec_M1.c **** * Parameters:
 151:.\Generated_Source\PSoC5/QuadDec_M1.c **** *  None.
 152:.\Generated_Source\PSoC5/QuadDec_M1.c **** *
 153:.\Generated_Source\PSoC5/QuadDec_M1.c **** * Return:
 154:.\Generated_Source\PSoC5/QuadDec_M1.c **** *  None.
 155:.\Generated_Source\PSoC5/QuadDec_M1.c **** *
 156:.\Generated_Source\PSoC5/QuadDec_M1.c **** *******************************************************************************/
 157:.\Generated_Source\PSoC5/QuadDec_M1.c **** void QuadDec_M1_Stop(void) 
 158:.\Generated_Source\PSoC5/QuadDec_M1.c **** {
 163              		.loc 1 158 0
 164              		.cfi_startproc
 165              		@ args = 0, pretend = 0, frame = 8
 166              		@ frame_needed = 1, uses_anonymous_args = 0
 167 0000 80B5     		push	{r7, lr}
 168              		.cfi_def_cfa_offset 8
 169              		.cfi_offset 7, -8
 170              		.cfi_offset 14, -4
 171 0002 82B0     		sub	sp, sp, #8
 172              		.cfi_def_cfa_offset 16
 173 0004 00AF     		add	r7, sp, #0
 174              		.cfi_def_cfa_register 7
 159:.\Generated_Source\PSoC5/QuadDec_M1.c ****     uint8 enableInterrupts;
 160:.\Generated_Source\PSoC5/QuadDec_M1.c **** 
 161:.\Generated_Source\PSoC5/QuadDec_M1.c ****     #if (QuadDec_M1_COUNTER_SIZE == QuadDec_M1_COUNTER_SIZE_8_BIT)
 162:.\Generated_Source\PSoC5/QuadDec_M1.c ****         QuadDec_M1_Cnt8_Stop();
 163:.\Generated_Source\PSoC5/QuadDec_M1.c ****     #else 
 164:.\Generated_Source\PSoC5/QuadDec_M1.c ****         /* (QuadDec_M1_COUNTER_SIZE == QuadDec_M1_COUNTER_SIZE_16_BIT) ||
 165:.\Generated_Source\PSoC5/QuadDec_M1.c ****         *  (QuadDec_M1_COUNTER_SIZE == QuadDec_M1_COUNTER_SIZE_32_BIT)
 166:.\Generated_Source\PSoC5/QuadDec_M1.c ****         */
 167:.\Generated_Source\PSoC5/QuadDec_M1.c ****         QuadDec_M1_Cnt16_Stop();    /* counter disable */
 175              		.loc 1 167 0
ARM GAS  C:\Users\claw541\AppData\Local\Temp\ccMQm6YC.s 			page 7


 176 0006 FFF7FEFF 		bl	QuadDec_M1_Cnt16_Stop
 168:.\Generated_Source\PSoC5/QuadDec_M1.c ****     #endif /* (QuadDec_M1_COUNTER_SIZE == QuadDec_M1_COUNTER_SIZE_8_BIT) */
 169:.\Generated_Source\PSoC5/QuadDec_M1.c ****  
 170:.\Generated_Source\PSoC5/QuadDec_M1.c ****     enableInterrupts = CyEnterCriticalSection();
 177              		.loc 1 170 0
 178 000a FFF7FEFF 		bl	CyEnterCriticalSection
 179 000e 0346     		mov	r3, r0
 180 0010 FB71     		strb	r3, [r7, #7]
 171:.\Generated_Source\PSoC5/QuadDec_M1.c **** 
 172:.\Generated_Source\PSoC5/QuadDec_M1.c ****     /* Disable interrupts interrupts from Statusi register */
 173:.\Generated_Source\PSoC5/QuadDec_M1.c ****     QuadDec_M1_SR_AUX_CONTROL &= (uint8) (~QuadDec_M1_INTERRUPTS_ENABLE);
 181              		.loc 1 173 0
 182 0012 074A     		ldr	r2, .L10
 183 0014 064B     		ldr	r3, .L10
 184 0016 1B78     		ldrb	r3, [r3]
 185 0018 DBB2     		uxtb	r3, r3
 186 001a 23F01003 		bic	r3, r3, #16
 187 001e DBB2     		uxtb	r3, r3
 188 0020 1370     		strb	r3, [r2]
 174:.\Generated_Source\PSoC5/QuadDec_M1.c **** 
 175:.\Generated_Source\PSoC5/QuadDec_M1.c ****     CyExitCriticalSection(enableInterrupts);
 189              		.loc 1 175 0
 190 0022 FB79     		ldrb	r3, [r7, #7]	@ zero_extendqisi2
 191 0024 1846     		mov	r0, r3
 192 0026 FFF7FEFF 		bl	CyExitCriticalSection
 176:.\Generated_Source\PSoC5/QuadDec_M1.c **** 
 177:.\Generated_Source\PSoC5/QuadDec_M1.c ****     #if (QuadDec_M1_COUNTER_SIZE == QuadDec_M1_COUNTER_SIZE_32_BIT)
 178:.\Generated_Source\PSoC5/QuadDec_M1.c ****         CyIntDisable(QuadDec_M1_ISR_NUMBER);    /* interrupt disable */
 179:.\Generated_Source\PSoC5/QuadDec_M1.c ****     #endif /* QuadDec_M1_COUNTER_SIZE == QuadDec_M1_COUNTER_SIZE_32_BIT */
 180:.\Generated_Source\PSoC5/QuadDec_M1.c **** }
 193              		.loc 1 180 0
 194 002a 0837     		adds	r7, r7, #8
 195              		.cfi_def_cfa_offset 8
 196 002c BD46     		mov	sp, r7
 197              		.cfi_def_cfa_register 13
 198              		@ sp needed
 199 002e 80BD     		pop	{r7, pc}
 200              	.L11:
 201              		.align	2
 202              	.L10:
 203 0030 93640040 		.word	1073767571
 204              		.cfi_endproc
 205              	.LFE3:
 206              		.size	QuadDec_M1_Stop, .-QuadDec_M1_Stop
 207              		.section	.text.QuadDec_M1_GetCounter,"ax",%progbits
 208              		.align	2
 209              		.global	QuadDec_M1_GetCounter
 210              		.thumb
 211              		.thumb_func
 212              		.type	QuadDec_M1_GetCounter, %function
 213              	QuadDec_M1_GetCounter:
 214              	.LFB4:
 181:.\Generated_Source\PSoC5/QuadDec_M1.c **** 
 182:.\Generated_Source\PSoC5/QuadDec_M1.c **** 
 183:.\Generated_Source\PSoC5/QuadDec_M1.c **** /*******************************************************************************
 184:.\Generated_Source\PSoC5/QuadDec_M1.c **** * Function Name: QuadDec_M1_GetCounter
 185:.\Generated_Source\PSoC5/QuadDec_M1.c **** ********************************************************************************
ARM GAS  C:\Users\claw541\AppData\Local\Temp\ccMQm6YC.s 			page 8


 186:.\Generated_Source\PSoC5/QuadDec_M1.c **** *
 187:.\Generated_Source\PSoC5/QuadDec_M1.c **** * Summary:
 188:.\Generated_Source\PSoC5/QuadDec_M1.c **** *  Reports the current value of the counter.
 189:.\Generated_Source\PSoC5/QuadDec_M1.c **** *
 190:.\Generated_Source\PSoC5/QuadDec_M1.c **** * Parameters:
 191:.\Generated_Source\PSoC5/QuadDec_M1.c **** *  None.
 192:.\Generated_Source\PSoC5/QuadDec_M1.c **** *
 193:.\Generated_Source\PSoC5/QuadDec_M1.c **** * Return:
 194:.\Generated_Source\PSoC5/QuadDec_M1.c **** *  The counter value. Return type is signed and per the counter size setting.
 195:.\Generated_Source\PSoC5/QuadDec_M1.c **** *  A positive value indicates clockwise movement (B before A).
 196:.\Generated_Source\PSoC5/QuadDec_M1.c **** *
 197:.\Generated_Source\PSoC5/QuadDec_M1.c **** * Global variables:
 198:.\Generated_Source\PSoC5/QuadDec_M1.c **** *  QuadDec_M1_count32SoftPart - used to get hi 16 bit for current value
 199:.\Generated_Source\PSoC5/QuadDec_M1.c **** *  of the 32-bit counter, when Counter size equal 32-bit.
 200:.\Generated_Source\PSoC5/QuadDec_M1.c **** *
 201:.\Generated_Source\PSoC5/QuadDec_M1.c **** *******************************************************************************/
 202:.\Generated_Source\PSoC5/QuadDec_M1.c **** int16 QuadDec_M1_GetCounter(void) 
 203:.\Generated_Source\PSoC5/QuadDec_M1.c **** {
 215              		.loc 1 203 0
 216              		.cfi_startproc
 217              		@ args = 0, pretend = 0, frame = 8
 218              		@ frame_needed = 1, uses_anonymous_args = 0
 219 0000 80B5     		push	{r7, lr}
 220              		.cfi_def_cfa_offset 8
 221              		.cfi_offset 7, -8
 222              		.cfi_offset 14, -4
 223 0002 82B0     		sub	sp, sp, #8
 224              		.cfi_def_cfa_offset 16
 225 0004 00AF     		add	r7, sp, #0
 226              		.cfi_def_cfa_register 7
 204:.\Generated_Source\PSoC5/QuadDec_M1.c ****     int16 count;
 205:.\Generated_Source\PSoC5/QuadDec_M1.c ****     uint16 tmpCnt;
 206:.\Generated_Source\PSoC5/QuadDec_M1.c **** 
 207:.\Generated_Source\PSoC5/QuadDec_M1.c ****     #if (QuadDec_M1_COUNTER_SIZE == QuadDec_M1_COUNTER_SIZE_32_BIT)
 208:.\Generated_Source\PSoC5/QuadDec_M1.c ****         int16 hwCount;
 209:.\Generated_Source\PSoC5/QuadDec_M1.c **** 
 210:.\Generated_Source\PSoC5/QuadDec_M1.c ****         CyIntDisable(QuadDec_M1_ISR_NUMBER);
 211:.\Generated_Source\PSoC5/QuadDec_M1.c **** 
 212:.\Generated_Source\PSoC5/QuadDec_M1.c ****         tmpCnt = QuadDec_M1_Cnt16_ReadCounter();
 213:.\Generated_Source\PSoC5/QuadDec_M1.c ****         hwCount = (int16) ((int32) tmpCnt - (int32) QuadDec_M1_COUNTER_INIT_VALUE);
 214:.\Generated_Source\PSoC5/QuadDec_M1.c ****         count = QuadDec_M1_count32SoftPart + hwCount;
 215:.\Generated_Source\PSoC5/QuadDec_M1.c **** 
 216:.\Generated_Source\PSoC5/QuadDec_M1.c ****         CyIntEnable(QuadDec_M1_ISR_NUMBER);
 217:.\Generated_Source\PSoC5/QuadDec_M1.c ****     #else 
 218:.\Generated_Source\PSoC5/QuadDec_M1.c ****         /* (QuadDec_M1_COUNTER_SIZE == QuadDec_M1_COUNTER_SIZE_8_BIT) || 
 219:.\Generated_Source\PSoC5/QuadDec_M1.c ****         *  (QuadDec_M1_COUNTER_SIZE == QuadDec_M1_COUNTER_SIZE_16_BIT)
 220:.\Generated_Source\PSoC5/QuadDec_M1.c ****         */
 221:.\Generated_Source\PSoC5/QuadDec_M1.c ****         #if (QuadDec_M1_COUNTER_SIZE == QuadDec_M1_COUNTER_SIZE_8_BIT)
 222:.\Generated_Source\PSoC5/QuadDec_M1.c ****             tmpCnt = QuadDec_M1_Cnt8_ReadCounter();
 223:.\Generated_Source\PSoC5/QuadDec_M1.c ****         #else /* (QuadDec_M1_COUNTER_SIZE == QuadDec_M1_COUNTER_SIZE_16_BIT) */
 224:.\Generated_Source\PSoC5/QuadDec_M1.c ****             tmpCnt = QuadDec_M1_Cnt16_ReadCounter();
 227              		.loc 1 224 0
 228 0006 FFF7FEFF 		bl	QuadDec_M1_Cnt16_ReadCounter
 229 000a 0346     		mov	r3, r0
 230 000c FB80     		strh	r3, [r7, #6]	@ movhi
 225:.\Generated_Source\PSoC5/QuadDec_M1.c ****         #endif  /* QuadDec_M1_COUNTER_SIZE == QuadDec_M1_COUNTER_SIZE_8_BIT */
 226:.\Generated_Source\PSoC5/QuadDec_M1.c **** 
ARM GAS  C:\Users\claw541\AppData\Local\Temp\ccMQm6YC.s 			page 9


 227:.\Generated_Source\PSoC5/QuadDec_M1.c ****         count = (int16) ((int32) tmpCnt -
 231              		.loc 1 227 0
 232 000e FB88     		ldrh	r3, [r7, #6]	@ movhi
 233 0010 A3F50043 		sub	r3, r3, #32768
 234 0014 9BB2     		uxth	r3, r3
 235 0016 BB80     		strh	r3, [r7, #4]	@ movhi
 228:.\Generated_Source\PSoC5/QuadDec_M1.c ****                 (int32) QuadDec_M1_COUNTER_INIT_VALUE);
 229:.\Generated_Source\PSoC5/QuadDec_M1.c **** 
 230:.\Generated_Source\PSoC5/QuadDec_M1.c ****     #endif /* QuadDec_M1_COUNTER_SIZE == QuadDec_M1_COUNTER_SIZE_32_BIT */ 
 231:.\Generated_Source\PSoC5/QuadDec_M1.c **** 
 232:.\Generated_Source\PSoC5/QuadDec_M1.c ****     return (count);
 236              		.loc 1 232 0
 237 0018 BB88     		ldrh	r3, [r7, #4]
 238 001a 1BB2     		sxth	r3, r3
 233:.\Generated_Source\PSoC5/QuadDec_M1.c **** }
 239              		.loc 1 233 0
 240 001c 1846     		mov	r0, r3
 241 001e 0837     		adds	r7, r7, #8
 242              		.cfi_def_cfa_offset 8
 243 0020 BD46     		mov	sp, r7
 244              		.cfi_def_cfa_register 13
 245              		@ sp needed
 246 0022 80BD     		pop	{r7, pc}
 247              		.cfi_endproc
 248              	.LFE4:
 249              		.size	QuadDec_M1_GetCounter, .-QuadDec_M1_GetCounter
 250              		.section	.text.QuadDec_M1_SetCounter,"ax",%progbits
 251              		.align	2
 252              		.global	QuadDec_M1_SetCounter
 253              		.thumb
 254              		.thumb_func
 255              		.type	QuadDec_M1_SetCounter, %function
 256              	QuadDec_M1_SetCounter:
 257              	.LFB5:
 234:.\Generated_Source\PSoC5/QuadDec_M1.c **** 
 235:.\Generated_Source\PSoC5/QuadDec_M1.c **** 
 236:.\Generated_Source\PSoC5/QuadDec_M1.c **** /*******************************************************************************
 237:.\Generated_Source\PSoC5/QuadDec_M1.c **** * Function Name: QuadDec_M1_SetCounter
 238:.\Generated_Source\PSoC5/QuadDec_M1.c **** ********************************************************************************
 239:.\Generated_Source\PSoC5/QuadDec_M1.c **** *
 240:.\Generated_Source\PSoC5/QuadDec_M1.c **** * Summary:
 241:.\Generated_Source\PSoC5/QuadDec_M1.c **** *  Sets the current value of the counter.
 242:.\Generated_Source\PSoC5/QuadDec_M1.c **** *
 243:.\Generated_Source\PSoC5/QuadDec_M1.c **** * Parameters:
 244:.\Generated_Source\PSoC5/QuadDec_M1.c **** *  value:  The new value. Parameter type is signed and per the counter size
 245:.\Generated_Source\PSoC5/QuadDec_M1.c **** *  setting.
 246:.\Generated_Source\PSoC5/QuadDec_M1.c **** *
 247:.\Generated_Source\PSoC5/QuadDec_M1.c **** * Return:
 248:.\Generated_Source\PSoC5/QuadDec_M1.c **** *  None.
 249:.\Generated_Source\PSoC5/QuadDec_M1.c **** *
 250:.\Generated_Source\PSoC5/QuadDec_M1.c **** * Global variables:
 251:.\Generated_Source\PSoC5/QuadDec_M1.c **** *  QuadDec_M1_count32SoftPart - modified to set hi 16 bit for current
 252:.\Generated_Source\PSoC5/QuadDec_M1.c **** *  value of the 32-bit counter, when Counter size equal 32-bit.
 253:.\Generated_Source\PSoC5/QuadDec_M1.c **** *
 254:.\Generated_Source\PSoC5/QuadDec_M1.c **** * Reentrant:
 255:.\Generated_Source\PSoC5/QuadDec_M1.c **** *  No.
 256:.\Generated_Source\PSoC5/QuadDec_M1.c **** *
ARM GAS  C:\Users\claw541\AppData\Local\Temp\ccMQm6YC.s 			page 10


 257:.\Generated_Source\PSoC5/QuadDec_M1.c **** *******************************************************************************/
 258:.\Generated_Source\PSoC5/QuadDec_M1.c **** void QuadDec_M1_SetCounter(int16 value) 
 259:.\Generated_Source\PSoC5/QuadDec_M1.c **** {
 258              		.loc 1 259 0
 259              		.cfi_startproc
 260              		@ args = 0, pretend = 0, frame = 16
 261              		@ frame_needed = 1, uses_anonymous_args = 0
 262 0000 80B5     		push	{r7, lr}
 263              		.cfi_def_cfa_offset 8
 264              		.cfi_offset 7, -8
 265              		.cfi_offset 14, -4
 266 0002 84B0     		sub	sp, sp, #16
 267              		.cfi_def_cfa_offset 24
 268 0004 00AF     		add	r7, sp, #0
 269              		.cfi_def_cfa_register 7
 270 0006 0346     		mov	r3, r0
 271 0008 FB80     		strh	r3, [r7, #6]	@ movhi
 260:.\Generated_Source\PSoC5/QuadDec_M1.c ****     #if ((QuadDec_M1_COUNTER_SIZE == QuadDec_M1_COUNTER_SIZE_8_BIT) || \
 261:.\Generated_Source\PSoC5/QuadDec_M1.c ****          (QuadDec_M1_COUNTER_SIZE == QuadDec_M1_COUNTER_SIZE_16_BIT))
 262:.\Generated_Source\PSoC5/QuadDec_M1.c ****         uint16 count;
 263:.\Generated_Source\PSoC5/QuadDec_M1.c ****         
 264:.\Generated_Source\PSoC5/QuadDec_M1.c ****         if (value >= 0)
 272              		.loc 1 264 0
 273 000a B7F90630 		ldrsh	r3, [r7, #6]
 274 000e 002B     		cmp	r3, #0
 275 0010 04DB     		blt	.L15
 265:.\Generated_Source\PSoC5/QuadDec_M1.c ****         {
 266:.\Generated_Source\PSoC5/QuadDec_M1.c ****             count = (uint16) value + QuadDec_M1_COUNTER_INIT_VALUE;
 276              		.loc 1 266 0
 277 0012 FB88     		ldrh	r3, [r7, #6]
 278 0014 A3F50043 		sub	r3, r3, #32768
 279 0018 FB81     		strh	r3, [r7, #14]	@ movhi
 280 001a 03E0     		b	.L16
 281              	.L15:
 267:.\Generated_Source\PSoC5/QuadDec_M1.c ****         }
 268:.\Generated_Source\PSoC5/QuadDec_M1.c ****         else
 269:.\Generated_Source\PSoC5/QuadDec_M1.c ****         {
 270:.\Generated_Source\PSoC5/QuadDec_M1.c ****             count = QuadDec_M1_COUNTER_INIT_VALUE - (uint16)(-value);
 282              		.loc 1 270 0
 283 001c FB88     		ldrh	r3, [r7, #6]
 284 001e A3F50043 		sub	r3, r3, #32768
 285 0022 FB81     		strh	r3, [r7, #14]	@ movhi
 286              	.L16:
 271:.\Generated_Source\PSoC5/QuadDec_M1.c ****         }
 272:.\Generated_Source\PSoC5/QuadDec_M1.c ****         #if (QuadDec_M1_COUNTER_SIZE == QuadDec_M1_COUNTER_SIZE_8_BIT)
 273:.\Generated_Source\PSoC5/QuadDec_M1.c ****             QuadDec_M1_Cnt8_WriteCounter(count);
 274:.\Generated_Source\PSoC5/QuadDec_M1.c ****         #else /* (QuadDec_M1_COUNTER_SIZE == QuadDec_M1_COUNTER_SIZE_16_BIT) */
 275:.\Generated_Source\PSoC5/QuadDec_M1.c ****             QuadDec_M1_Cnt16_WriteCounter(count);
 287              		.loc 1 275 0
 288 0024 FB89     		ldrh	r3, [r7, #14]
 289 0026 1846     		mov	r0, r3
 290 0028 FFF7FEFF 		bl	QuadDec_M1_Cnt16_WriteCounter
 276:.\Generated_Source\PSoC5/QuadDec_M1.c ****         #endif  /* QuadDec_M1_COUNTER_SIZE == QuadDec_M1_COUNTER_SIZE_8_BIT */
 277:.\Generated_Source\PSoC5/QuadDec_M1.c ****     #else /* (QuadDec_M1_COUNTER_SIZE == QuadDec_M1_COUNTER_SIZE_32_BIT) */
 278:.\Generated_Source\PSoC5/QuadDec_M1.c ****         CyIntDisable(QuadDec_M1_ISR_NUMBER);
 279:.\Generated_Source\PSoC5/QuadDec_M1.c **** 
 280:.\Generated_Source\PSoC5/QuadDec_M1.c ****         QuadDec_M1_Cnt16_WriteCounter(QuadDec_M1_COUNTER_INIT_VALUE);
ARM GAS  C:\Users\claw541\AppData\Local\Temp\ccMQm6YC.s 			page 11


 281:.\Generated_Source\PSoC5/QuadDec_M1.c ****         QuadDec_M1_count32SoftPart = value;
 282:.\Generated_Source\PSoC5/QuadDec_M1.c **** 
 283:.\Generated_Source\PSoC5/QuadDec_M1.c ****         CyIntEnable(QuadDec_M1_ISR_NUMBER);
 284:.\Generated_Source\PSoC5/QuadDec_M1.c ****     #endif  /* (QuadDec_M1_COUNTER_SIZE == QuadDec_M1_COUNTER_SIZE_8_BIT) ||
 285:.\Generated_Source\PSoC5/QuadDec_M1.c ****              * (QuadDec_M1_COUNTER_SIZE == QuadDec_M1_COUNTER_SIZE_16_BIT)
 286:.\Generated_Source\PSoC5/QuadDec_M1.c ****              */
 287:.\Generated_Source\PSoC5/QuadDec_M1.c **** }
 291              		.loc 1 287 0
 292 002c 1037     		adds	r7, r7, #16
 293              		.cfi_def_cfa_offset 8
 294 002e BD46     		mov	sp, r7
 295              		.cfi_def_cfa_register 13
 296              		@ sp needed
 297 0030 80BD     		pop	{r7, pc}
 298              		.cfi_endproc
 299              	.LFE5:
 300              		.size	QuadDec_M1_SetCounter, .-QuadDec_M1_SetCounter
 301 0032 00BF     		.section	.text.QuadDec_M1_GetEvents,"ax",%progbits
 302              		.align	2
 303              		.global	QuadDec_M1_GetEvents
 304              		.thumb
 305              		.thumb_func
 306              		.type	QuadDec_M1_GetEvents, %function
 307              	QuadDec_M1_GetEvents:
 308              	.LFB6:
 288:.\Generated_Source\PSoC5/QuadDec_M1.c **** 
 289:.\Generated_Source\PSoC5/QuadDec_M1.c **** 
 290:.\Generated_Source\PSoC5/QuadDec_M1.c **** /*******************************************************************************
 291:.\Generated_Source\PSoC5/QuadDec_M1.c **** * Function Name: QuadDec_M1_GetEvents
 292:.\Generated_Source\PSoC5/QuadDec_M1.c **** ********************************************************************************
 293:.\Generated_Source\PSoC5/QuadDec_M1.c **** * 
 294:.\Generated_Source\PSoC5/QuadDec_M1.c **** * Summary:
 295:.\Generated_Source\PSoC5/QuadDec_M1.c **** *   Reports the current status of events. This function clears the bits of the 
 296:.\Generated_Source\PSoC5/QuadDec_M1.c **** *   status register.
 297:.\Generated_Source\PSoC5/QuadDec_M1.c **** *
 298:.\Generated_Source\PSoC5/QuadDec_M1.c **** * Parameters:
 299:.\Generated_Source\PSoC5/QuadDec_M1.c **** *  None.
 300:.\Generated_Source\PSoC5/QuadDec_M1.c **** *
 301:.\Generated_Source\PSoC5/QuadDec_M1.c **** * Return:
 302:.\Generated_Source\PSoC5/QuadDec_M1.c **** *  The events, as bits in an unsigned 8-bit value:
 303:.\Generated_Source\PSoC5/QuadDec_M1.c **** *    Bit      Description
 304:.\Generated_Source\PSoC5/QuadDec_M1.c **** *     0        Counter overflow.
 305:.\Generated_Source\PSoC5/QuadDec_M1.c **** *     1        Counter underflow.
 306:.\Generated_Source\PSoC5/QuadDec_M1.c **** *     2        Counter reset due to index, if index input is used.
 307:.\Generated_Source\PSoC5/QuadDec_M1.c **** *     3        Invalid A, B inputs state transition.
 308:.\Generated_Source\PSoC5/QuadDec_M1.c **** *
 309:.\Generated_Source\PSoC5/QuadDec_M1.c **** *******************************************************************************/
 310:.\Generated_Source\PSoC5/QuadDec_M1.c **** uint8 QuadDec_M1_GetEvents(void) 
 311:.\Generated_Source\PSoC5/QuadDec_M1.c **** {
 309              		.loc 1 311 0
 310              		.cfi_startproc
 311              		@ args = 0, pretend = 0, frame = 0
 312              		@ frame_needed = 1, uses_anonymous_args = 0
 313              		@ link register save eliminated.
 314 0000 80B4     		push	{r7}
 315              		.cfi_def_cfa_offset 4
 316              		.cfi_offset 7, -4
ARM GAS  C:\Users\claw541\AppData\Local\Temp\ccMQm6YC.s 			page 12


 317 0002 00AF     		add	r7, sp, #0
 318              		.cfi_def_cfa_register 7
 312:.\Generated_Source\PSoC5/QuadDec_M1.c ****     return (QuadDec_M1_STATUS_REG & QuadDec_M1_INIT_INT_MASK);
 319              		.loc 1 312 0
 320 0004 054B     		ldr	r3, .L19
 321 0006 1B78     		ldrb	r3, [r3]
 322 0008 DBB2     		uxtb	r3, r3
 323 000a 03F00F03 		and	r3, r3, #15
 324 000e DBB2     		uxtb	r3, r3
 313:.\Generated_Source\PSoC5/QuadDec_M1.c **** }
 325              		.loc 1 313 0
 326 0010 1846     		mov	r0, r3
 327 0012 BD46     		mov	sp, r7
 328              		.cfi_def_cfa_register 13
 329              		@ sp needed
 330 0014 5DF8047B 		ldr	r7, [sp], #4
 331              		.cfi_restore 7
 332              		.cfi_def_cfa_offset 0
 333 0018 7047     		bx	lr
 334              	.L20:
 335 001a 00BF     		.align	2
 336              	.L19:
 337 001c 63640040 		.word	1073767523
 338              		.cfi_endproc
 339              	.LFE6:
 340              		.size	QuadDec_M1_GetEvents, .-QuadDec_M1_GetEvents
 341              		.section	.text.QuadDec_M1_SetInterruptMask,"ax",%progbits
 342              		.align	2
 343              		.global	QuadDec_M1_SetInterruptMask
 344              		.thumb
 345              		.thumb_func
 346              		.type	QuadDec_M1_SetInterruptMask, %function
 347              	QuadDec_M1_SetInterruptMask:
 348              	.LFB7:
 314:.\Generated_Source\PSoC5/QuadDec_M1.c **** 
 315:.\Generated_Source\PSoC5/QuadDec_M1.c **** 
 316:.\Generated_Source\PSoC5/QuadDec_M1.c **** /*******************************************************************************
 317:.\Generated_Source\PSoC5/QuadDec_M1.c **** * Function Name: QuadDec_M1_SetInterruptMask
 318:.\Generated_Source\PSoC5/QuadDec_M1.c **** ********************************************************************************
 319:.\Generated_Source\PSoC5/QuadDec_M1.c **** *
 320:.\Generated_Source\PSoC5/QuadDec_M1.c **** * Summary:
 321:.\Generated_Source\PSoC5/QuadDec_M1.c **** *  Enables / disables interrupts due to the events.
 322:.\Generated_Source\PSoC5/QuadDec_M1.c **** *  For the 32-bit counter, the overflow, underflow and reset interrupts cannot
 323:.\Generated_Source\PSoC5/QuadDec_M1.c **** *  be disabled, these bits are ignored.
 324:.\Generated_Source\PSoC5/QuadDec_M1.c **** *
 325:.\Generated_Source\PSoC5/QuadDec_M1.c **** * Parameters:
 326:.\Generated_Source\PSoC5/QuadDec_M1.c **** *  mask: Enable / disable bits in an 8-bit value, where 1 enables the interrupt.
 327:.\Generated_Source\PSoC5/QuadDec_M1.c **** *
 328:.\Generated_Source\PSoC5/QuadDec_M1.c **** * Return:
 329:.\Generated_Source\PSoC5/QuadDec_M1.c **** *  None.
 330:.\Generated_Source\PSoC5/QuadDec_M1.c **** *
 331:.\Generated_Source\PSoC5/QuadDec_M1.c **** *******************************************************************************/
 332:.\Generated_Source\PSoC5/QuadDec_M1.c **** void QuadDec_M1_SetInterruptMask(uint8 mask) 
 333:.\Generated_Source\PSoC5/QuadDec_M1.c **** {
 349              		.loc 1 333 0
 350              		.cfi_startproc
 351              		@ args = 0, pretend = 0, frame = 8
ARM GAS  C:\Users\claw541\AppData\Local\Temp\ccMQm6YC.s 			page 13


 352              		@ frame_needed = 1, uses_anonymous_args = 0
 353              		@ link register save eliminated.
 354 0000 80B4     		push	{r7}
 355              		.cfi_def_cfa_offset 4
 356              		.cfi_offset 7, -4
 357 0002 83B0     		sub	sp, sp, #12
 358              		.cfi_def_cfa_offset 16
 359 0004 00AF     		add	r7, sp, #0
 360              		.cfi_def_cfa_register 7
 361 0006 0346     		mov	r3, r0
 362 0008 FB71     		strb	r3, [r7, #7]
 334:.\Generated_Source\PSoC5/QuadDec_M1.c ****     #if (QuadDec_M1_COUNTER_SIZE == QuadDec_M1_COUNTER_SIZE_32_BIT)
 335:.\Generated_Source\PSoC5/QuadDec_M1.c ****         /* Underflow, Overflow and Reset interrupts for 32-bit Counter are always enable */
 336:.\Generated_Source\PSoC5/QuadDec_M1.c ****         mask |= (QuadDec_M1_COUNTER_OVERFLOW | QuadDec_M1_COUNTER_UNDERFLOW |
 337:.\Generated_Source\PSoC5/QuadDec_M1.c ****                  QuadDec_M1_COUNTER_RESET);
 338:.\Generated_Source\PSoC5/QuadDec_M1.c ****     #endif /* QuadDec_M1_COUNTER_SIZE == QuadDec_M1_COUNTER_SIZE_32_BIT */
 339:.\Generated_Source\PSoC5/QuadDec_M1.c **** 
 340:.\Generated_Source\PSoC5/QuadDec_M1.c ****     QuadDec_M1_STATUS_MASK = mask;
 363              		.loc 1 340 0
 364 000a 044A     		ldr	r2, .L22
 365 000c FB79     		ldrb	r3, [r7, #7]
 366 000e 1370     		strb	r3, [r2]
 341:.\Generated_Source\PSoC5/QuadDec_M1.c **** }
 367              		.loc 1 341 0
 368 0010 0C37     		adds	r7, r7, #12
 369              		.cfi_def_cfa_offset 4
 370 0012 BD46     		mov	sp, r7
 371              		.cfi_def_cfa_register 13
 372              		@ sp needed
 373 0014 5DF8047B 		ldr	r7, [sp], #4
 374              		.cfi_restore 7
 375              		.cfi_def_cfa_offset 0
 376 0018 7047     		bx	lr
 377              	.L23:
 378 001a 00BF     		.align	2
 379              	.L22:
 380 001c 83640040 		.word	1073767555
 381              		.cfi_endproc
 382              	.LFE7:
 383              		.size	QuadDec_M1_SetInterruptMask, .-QuadDec_M1_SetInterruptMask
 384              		.section	.text.QuadDec_M1_GetInterruptMask,"ax",%progbits
 385              		.align	2
 386              		.global	QuadDec_M1_GetInterruptMask
 387              		.thumb
 388              		.thumb_func
 389              		.type	QuadDec_M1_GetInterruptMask, %function
 390              	QuadDec_M1_GetInterruptMask:
 391              	.LFB8:
 342:.\Generated_Source\PSoC5/QuadDec_M1.c **** 
 343:.\Generated_Source\PSoC5/QuadDec_M1.c **** 
 344:.\Generated_Source\PSoC5/QuadDec_M1.c **** /*******************************************************************************
 345:.\Generated_Source\PSoC5/QuadDec_M1.c **** * Function Name: QuadDec_M1_GetInterruptMask
 346:.\Generated_Source\PSoC5/QuadDec_M1.c **** ********************************************************************************
 347:.\Generated_Source\PSoC5/QuadDec_M1.c **** *
 348:.\Generated_Source\PSoC5/QuadDec_M1.c **** * Summary:
 349:.\Generated_Source\PSoC5/QuadDec_M1.c **** *  Reports the current interrupt mask settings.
 350:.\Generated_Source\PSoC5/QuadDec_M1.c **** *
ARM GAS  C:\Users\claw541\AppData\Local\Temp\ccMQm6YC.s 			page 14


 351:.\Generated_Source\PSoC5/QuadDec_M1.c **** * Parameters:
 352:.\Generated_Source\PSoC5/QuadDec_M1.c **** *  None.
 353:.\Generated_Source\PSoC5/QuadDec_M1.c **** *
 354:.\Generated_Source\PSoC5/QuadDec_M1.c **** * Return:
 355:.\Generated_Source\PSoC5/QuadDec_M1.c **** *  Enable / disable bits in an 8-bit value, where 1 enables the interrupt.
 356:.\Generated_Source\PSoC5/QuadDec_M1.c **** *  For the 32-bit counter, the overflow, underflow and reset enable bits are
 357:.\Generated_Source\PSoC5/QuadDec_M1.c **** *  always set.
 358:.\Generated_Source\PSoC5/QuadDec_M1.c **** *
 359:.\Generated_Source\PSoC5/QuadDec_M1.c **** *******************************************************************************/
 360:.\Generated_Source\PSoC5/QuadDec_M1.c **** uint8 QuadDec_M1_GetInterruptMask(void) 
 361:.\Generated_Source\PSoC5/QuadDec_M1.c **** {
 392              		.loc 1 361 0
 393              		.cfi_startproc
 394              		@ args = 0, pretend = 0, frame = 0
 395              		@ frame_needed = 1, uses_anonymous_args = 0
 396              		@ link register save eliminated.
 397 0000 80B4     		push	{r7}
 398              		.cfi_def_cfa_offset 4
 399              		.cfi_offset 7, -4
 400 0002 00AF     		add	r7, sp, #0
 401              		.cfi_def_cfa_register 7
 362:.\Generated_Source\PSoC5/QuadDec_M1.c ****     return (QuadDec_M1_STATUS_MASK & QuadDec_M1_INIT_INT_MASK);
 402              		.loc 1 362 0
 403 0004 054B     		ldr	r3, .L26
 404 0006 1B78     		ldrb	r3, [r3]
 405 0008 DBB2     		uxtb	r3, r3
 406 000a 03F00F03 		and	r3, r3, #15
 407 000e DBB2     		uxtb	r3, r3
 363:.\Generated_Source\PSoC5/QuadDec_M1.c **** }
 408              		.loc 1 363 0
 409 0010 1846     		mov	r0, r3
 410 0012 BD46     		mov	sp, r7
 411              		.cfi_def_cfa_register 13
 412              		@ sp needed
 413 0014 5DF8047B 		ldr	r7, [sp], #4
 414              		.cfi_restore 7
 415              		.cfi_def_cfa_offset 0
 416 0018 7047     		bx	lr
 417              	.L27:
 418 001a 00BF     		.align	2
 419              	.L26:
 420 001c 83640040 		.word	1073767555
 421              		.cfi_endproc
 422              	.LFE8:
 423              		.size	QuadDec_M1_GetInterruptMask, .-QuadDec_M1_GetInterruptMask
 424              		.text
 425              	.Letext0:
 426              		.file 2 ".\\Generated_Source\\PSoC5\\cytypes.h"
