ARM GAS  C:\Users\claw541\AppData\Local\Temp\cc1P3bPq.s 			page 1


   1              		.syntax unified
   2              		.cpu cortex-m3
   3              		.fpu softvfp
   4              		.eabi_attribute 20, 1
   5              		.eabi_attribute 21, 1
   6              		.eabi_attribute 23, 3
   7              		.eabi_attribute 24, 1
   8              		.eabi_attribute 25, 1
   9              		.eabi_attribute 26, 1
  10              		.eabi_attribute 30, 6
  11              		.eabi_attribute 34, 1
  12              		.eabi_attribute 18, 4
  13              		.thumb
  14              		.file	"QuadDec_M1_Cnt16.c"
  15              		.text
  16              	.Ltext0:
  17              		.cfi_sections	.debug_frame
  18              		.global	QuadDec_M1_Cnt16_initVar
  19              		.bss
  20              		.type	QuadDec_M1_Cnt16_initVar, %object
  21              		.size	QuadDec_M1_Cnt16_initVar, 1
  22              	QuadDec_M1_Cnt16_initVar:
  23 0000 00       		.space	1
  24              		.section	.text.QuadDec_M1_Cnt16_Init,"ax",%progbits
  25              		.align	2
  26              		.global	QuadDec_M1_Cnt16_Init
  27              		.thumb
  28              		.thumb_func
  29              		.type	QuadDec_M1_Cnt16_Init, %function
  30              	QuadDec_M1_Cnt16_Init:
  31              	.LFB0:
  32              		.file 1 ".\\Generated_Source\\PSoC5\\QuadDec_M1_Cnt16.c"
   1:.\Generated_Source\PSoC5/QuadDec_M1_Cnt16.c **** /*******************************************************************************
   2:.\Generated_Source\PSoC5/QuadDec_M1_Cnt16.c **** * File Name: QuadDec_M1_Cnt16.c  
   3:.\Generated_Source\PSoC5/QuadDec_M1_Cnt16.c **** * Version 3.0
   4:.\Generated_Source\PSoC5/QuadDec_M1_Cnt16.c **** *
   5:.\Generated_Source\PSoC5/QuadDec_M1_Cnt16.c **** *  Description:
   6:.\Generated_Source\PSoC5/QuadDec_M1_Cnt16.c **** *     The Counter component consists of a 8, 16, 24 or 32-bit counter with
   7:.\Generated_Source\PSoC5/QuadDec_M1_Cnt16.c **** *     a selectable period between 2 and 2^Width - 1.  
   8:.\Generated_Source\PSoC5/QuadDec_M1_Cnt16.c **** *
   9:.\Generated_Source\PSoC5/QuadDec_M1_Cnt16.c **** *   Note:
  10:.\Generated_Source\PSoC5/QuadDec_M1_Cnt16.c **** *     None
  11:.\Generated_Source\PSoC5/QuadDec_M1_Cnt16.c **** *
  12:.\Generated_Source\PSoC5/QuadDec_M1_Cnt16.c **** ********************************************************************************
  13:.\Generated_Source\PSoC5/QuadDec_M1_Cnt16.c **** * Copyright 2008-2012, Cypress Semiconductor Corporation.  All rights reserved.
  14:.\Generated_Source\PSoC5/QuadDec_M1_Cnt16.c **** * You may use this file only in accordance with the license, terms, conditions, 
  15:.\Generated_Source\PSoC5/QuadDec_M1_Cnt16.c **** * disclaimers, and limitations in the end user license agreement accompanying 
  16:.\Generated_Source\PSoC5/QuadDec_M1_Cnt16.c **** * the software package with which this file was provided.
  17:.\Generated_Source\PSoC5/QuadDec_M1_Cnt16.c **** *******************************************************************************/
  18:.\Generated_Source\PSoC5/QuadDec_M1_Cnt16.c **** 
  19:.\Generated_Source\PSoC5/QuadDec_M1_Cnt16.c **** #include "QuadDec_M1_Cnt16.h"
  20:.\Generated_Source\PSoC5/QuadDec_M1_Cnt16.c **** 
  21:.\Generated_Source\PSoC5/QuadDec_M1_Cnt16.c **** uint8 QuadDec_M1_Cnt16_initVar = 0u;
  22:.\Generated_Source\PSoC5/QuadDec_M1_Cnt16.c **** 
  23:.\Generated_Source\PSoC5/QuadDec_M1_Cnt16.c **** 
  24:.\Generated_Source\PSoC5/QuadDec_M1_Cnt16.c **** /*******************************************************************************
  25:.\Generated_Source\PSoC5/QuadDec_M1_Cnt16.c **** * Function Name: QuadDec_M1_Cnt16_Init
ARM GAS  C:\Users\claw541\AppData\Local\Temp\cc1P3bPq.s 			page 2


  26:.\Generated_Source\PSoC5/QuadDec_M1_Cnt16.c **** ********************************************************************************
  27:.\Generated_Source\PSoC5/QuadDec_M1_Cnt16.c **** * Summary:
  28:.\Generated_Source\PSoC5/QuadDec_M1_Cnt16.c **** *     Initialize to the schematic state
  29:.\Generated_Source\PSoC5/QuadDec_M1_Cnt16.c **** * 
  30:.\Generated_Source\PSoC5/QuadDec_M1_Cnt16.c **** * Parameters:  
  31:.\Generated_Source\PSoC5/QuadDec_M1_Cnt16.c **** *  void  
  32:.\Generated_Source\PSoC5/QuadDec_M1_Cnt16.c **** *
  33:.\Generated_Source\PSoC5/QuadDec_M1_Cnt16.c **** * Return: 
  34:.\Generated_Source\PSoC5/QuadDec_M1_Cnt16.c **** *  void
  35:.\Generated_Source\PSoC5/QuadDec_M1_Cnt16.c **** *
  36:.\Generated_Source\PSoC5/QuadDec_M1_Cnt16.c **** *******************************************************************************/
  37:.\Generated_Source\PSoC5/QuadDec_M1_Cnt16.c **** void QuadDec_M1_Cnt16_Init(void) 
  38:.\Generated_Source\PSoC5/QuadDec_M1_Cnt16.c **** {
  33              		.loc 1 38 0
  34              		.cfi_startproc
  35              		@ args = 0, pretend = 0, frame = 8
  36              		@ frame_needed = 1, uses_anonymous_args = 0
  37 0000 80B5     		push	{r7, lr}
  38              		.cfi_def_cfa_offset 8
  39              		.cfi_offset 7, -8
  40              		.cfi_offset 14, -4
  41 0002 82B0     		sub	sp, sp, #8
  42              		.cfi_def_cfa_offset 16
  43 0004 00AF     		add	r7, sp, #0
  44              		.cfi_def_cfa_register 7
  39:.\Generated_Source\PSoC5/QuadDec_M1_Cnt16.c ****         #if (!QuadDec_M1_Cnt16_UsingFixedFunction && !QuadDec_M1_Cnt16_ControlRegRemoved)
  40:.\Generated_Source\PSoC5/QuadDec_M1_Cnt16.c ****             uint8 ctrl;
  41:.\Generated_Source\PSoC5/QuadDec_M1_Cnt16.c ****         #endif /* (!QuadDec_M1_Cnt16_UsingFixedFunction && !QuadDec_M1_Cnt16_ControlRegRemoved) */
  42:.\Generated_Source\PSoC5/QuadDec_M1_Cnt16.c ****         
  43:.\Generated_Source\PSoC5/QuadDec_M1_Cnt16.c ****         #if(!QuadDec_M1_Cnt16_UsingFixedFunction) 
  44:.\Generated_Source\PSoC5/QuadDec_M1_Cnt16.c ****             /* Interrupt State Backup for Critical Region*/
  45:.\Generated_Source\PSoC5/QuadDec_M1_Cnt16.c ****             uint8 QuadDec_M1_Cnt16_interruptState;
  46:.\Generated_Source\PSoC5/QuadDec_M1_Cnt16.c ****         #endif /* (!QuadDec_M1_Cnt16_UsingFixedFunction) */
  47:.\Generated_Source\PSoC5/QuadDec_M1_Cnt16.c ****         
  48:.\Generated_Source\PSoC5/QuadDec_M1_Cnt16.c ****         #if (QuadDec_M1_Cnt16_UsingFixedFunction)
  49:.\Generated_Source\PSoC5/QuadDec_M1_Cnt16.c ****             /* Clear all bits but the enable bit (if it's already set for Timer operation */
  50:.\Generated_Source\PSoC5/QuadDec_M1_Cnt16.c ****             QuadDec_M1_Cnt16_CONTROL &= QuadDec_M1_Cnt16_CTRL_ENABLE;
  51:.\Generated_Source\PSoC5/QuadDec_M1_Cnt16.c ****             
  52:.\Generated_Source\PSoC5/QuadDec_M1_Cnt16.c ****             /* Clear the mode bits for continuous run mode */
  53:.\Generated_Source\PSoC5/QuadDec_M1_Cnt16.c ****             #if (CY_PSOC5A)
  54:.\Generated_Source\PSoC5/QuadDec_M1_Cnt16.c ****                 QuadDec_M1_Cnt16_CONTROL2 &= ((uint8)(~QuadDec_M1_Cnt16_CTRL_MODE_MASK));
  55:.\Generated_Source\PSoC5/QuadDec_M1_Cnt16.c ****             #endif /* (CY_PSOC5A) */
  56:.\Generated_Source\PSoC5/QuadDec_M1_Cnt16.c ****             #if (CY_PSOC3 || CY_PSOC5LP)
  57:.\Generated_Source\PSoC5/QuadDec_M1_Cnt16.c ****                 QuadDec_M1_Cnt16_CONTROL3 &= ((uint8)(~QuadDec_M1_Cnt16_CTRL_MODE_MASK));          
  58:.\Generated_Source\PSoC5/QuadDec_M1_Cnt16.c ****             #endif /* (CY_PSOC3 || CY_PSOC5LP) */
  59:.\Generated_Source\PSoC5/QuadDec_M1_Cnt16.c ****             /* Check if One Shot mode is enabled i.e. RunMode !=0*/
  60:.\Generated_Source\PSoC5/QuadDec_M1_Cnt16.c ****             #if (QuadDec_M1_Cnt16_RunModeUsed != 0x0u)
  61:.\Generated_Source\PSoC5/QuadDec_M1_Cnt16.c ****                 /* Set 3rd bit of Control register to enable one shot mode */
  62:.\Generated_Source\PSoC5/QuadDec_M1_Cnt16.c ****                 QuadDec_M1_Cnt16_CONTROL |= QuadDec_M1_Cnt16_ONESHOT;
  63:.\Generated_Source\PSoC5/QuadDec_M1_Cnt16.c ****             #endif /* (QuadDec_M1_Cnt16_RunModeUsed != 0x0u) */
  64:.\Generated_Source\PSoC5/QuadDec_M1_Cnt16.c ****             
  65:.\Generated_Source\PSoC5/QuadDec_M1_Cnt16.c ****             /* Set the IRQ to use the status register interrupts */
  66:.\Generated_Source\PSoC5/QuadDec_M1_Cnt16.c ****             QuadDec_M1_Cnt16_CONTROL2 |= QuadDec_M1_Cnt16_CTRL2_IRQ_SEL;
  67:.\Generated_Source\PSoC5/QuadDec_M1_Cnt16.c ****             
  68:.\Generated_Source\PSoC5/QuadDec_M1_Cnt16.c ****             /* Clear and Set SYNCTC and SYNCCMP bits of RT1 register */
  69:.\Generated_Source\PSoC5/QuadDec_M1_Cnt16.c ****             QuadDec_M1_Cnt16_RT1 &= ((uint8)(~QuadDec_M1_Cnt16_RT1_MASK));
  70:.\Generated_Source\PSoC5/QuadDec_M1_Cnt16.c ****             QuadDec_M1_Cnt16_RT1 |= QuadDec_M1_Cnt16_SYNC;     
ARM GAS  C:\Users\claw541\AppData\Local\Temp\cc1P3bPq.s 			page 3


  71:.\Generated_Source\PSoC5/QuadDec_M1_Cnt16.c ****                     
  72:.\Generated_Source\PSoC5/QuadDec_M1_Cnt16.c ****             /*Enable DSI Sync all all inputs of the Timer*/
  73:.\Generated_Source\PSoC5/QuadDec_M1_Cnt16.c ****             QuadDec_M1_Cnt16_RT1 &= ((uint8)(~QuadDec_M1_Cnt16_SYNCDSI_MASK));
  74:.\Generated_Source\PSoC5/QuadDec_M1_Cnt16.c ****             QuadDec_M1_Cnt16_RT1 |= QuadDec_M1_Cnt16_SYNCDSI_EN;
  75:.\Generated_Source\PSoC5/QuadDec_M1_Cnt16.c **** 
  76:.\Generated_Source\PSoC5/QuadDec_M1_Cnt16.c ****         #else
  77:.\Generated_Source\PSoC5/QuadDec_M1_Cnt16.c ****             #if(!QuadDec_M1_Cnt16_ControlRegRemoved)
  78:.\Generated_Source\PSoC5/QuadDec_M1_Cnt16.c ****             /* Set the default compare mode defined in the parameter */
  79:.\Generated_Source\PSoC5/QuadDec_M1_Cnt16.c ****             ctrl = QuadDec_M1_Cnt16_CONTROL & ((uint8)(~QuadDec_M1_Cnt16_CTRL_CMPMODE_MASK));
  45              		.loc 1 79 0
  46 0006 1C4B     		ldr	r3, .L2
  47 0008 1B78     		ldrb	r3, [r3]
  48 000a DBB2     		uxtb	r3, r3
  49 000c 23F00703 		bic	r3, r3, #7
  50 0010 FB71     		strb	r3, [r7, #7]
  80:.\Generated_Source\PSoC5/QuadDec_M1_Cnt16.c ****             QuadDec_M1_Cnt16_CONTROL = ctrl | QuadDec_M1_Cnt16_DEFAULT_COMPARE_MODE;
  51              		.loc 1 80 0
  52 0012 194A     		ldr	r2, .L2
  53 0014 FB79     		ldrb	r3, [r7, #7]
  54 0016 1370     		strb	r3, [r2]
  81:.\Generated_Source\PSoC5/QuadDec_M1_Cnt16.c ****             
  82:.\Generated_Source\PSoC5/QuadDec_M1_Cnt16.c ****             /* Set the default capture mode defined in the parameter */
  83:.\Generated_Source\PSoC5/QuadDec_M1_Cnt16.c ****             ctrl = QuadDec_M1_Cnt16_CONTROL & ((uint8)(~QuadDec_M1_Cnt16_CTRL_CAPMODE_MASK));
  55              		.loc 1 83 0
  56 0018 174B     		ldr	r3, .L2
  57 001a 1B78     		ldrb	r3, [r3]
  58 001c DBB2     		uxtb	r3, r3
  59 001e 23F00303 		bic	r3, r3, #3
  60 0022 FB71     		strb	r3, [r7, #7]
  84:.\Generated_Source\PSoC5/QuadDec_M1_Cnt16.c ****             
  85:.\Generated_Source\PSoC5/QuadDec_M1_Cnt16.c ****             #if( 0 != QuadDec_M1_Cnt16_CAPTURE_MODE_CONF)
  86:.\Generated_Source\PSoC5/QuadDec_M1_Cnt16.c ****                 QuadDec_M1_Cnt16_CONTROL = ctrl | QuadDec_M1_Cnt16_DEFAULT_CAPTURE_MODE;
  87:.\Generated_Source\PSoC5/QuadDec_M1_Cnt16.c ****             #else
  88:.\Generated_Source\PSoC5/QuadDec_M1_Cnt16.c ****                 QuadDec_M1_Cnt16_CONTROL = ctrl;
  61              		.loc 1 88 0
  62 0024 144A     		ldr	r2, .L2
  63 0026 FB79     		ldrb	r3, [r7, #7]
  64 0028 1370     		strb	r3, [r2]
  89:.\Generated_Source\PSoC5/QuadDec_M1_Cnt16.c ****             #endif /* 0 != QuadDec_M1_Cnt16_CAPTURE_MODE */ 
  90:.\Generated_Source\PSoC5/QuadDec_M1_Cnt16.c ****             
  91:.\Generated_Source\PSoC5/QuadDec_M1_Cnt16.c ****             #endif /* (!QuadDec_M1_Cnt16_ControlRegRemoved) */
  92:.\Generated_Source\PSoC5/QuadDec_M1_Cnt16.c ****         #endif /* (QuadDec_M1_Cnt16_UsingFixedFunction) */
  93:.\Generated_Source\PSoC5/QuadDec_M1_Cnt16.c ****         
  94:.\Generated_Source\PSoC5/QuadDec_M1_Cnt16.c ****         /* Clear all data in the FIFO's */
  95:.\Generated_Source\PSoC5/QuadDec_M1_Cnt16.c ****         #if (!QuadDec_M1_Cnt16_UsingFixedFunction)
  96:.\Generated_Source\PSoC5/QuadDec_M1_Cnt16.c ****             QuadDec_M1_Cnt16_ClearFIFO();
  65              		.loc 1 96 0
  66 002a FFF7FEFF 		bl	QuadDec_M1_Cnt16_ClearFIFO
  97:.\Generated_Source\PSoC5/QuadDec_M1_Cnt16.c ****         #endif /* (!QuadDec_M1_Cnt16_UsingFixedFunction) */
  98:.\Generated_Source\PSoC5/QuadDec_M1_Cnt16.c ****         
  99:.\Generated_Source\PSoC5/QuadDec_M1_Cnt16.c ****         /* Set Initial values from Configuration */
 100:.\Generated_Source\PSoC5/QuadDec_M1_Cnt16.c ****         QuadDec_M1_Cnt16_WritePeriod(QuadDec_M1_Cnt16_INIT_PERIOD_VALUE);
  67              		.loc 1 100 0
  68 002e 4FF40040 		mov	r0, #32768
  69 0032 FFF7FEFF 		bl	QuadDec_M1_Cnt16_WritePeriod
 101:.\Generated_Source\PSoC5/QuadDec_M1_Cnt16.c ****         #if (!(QuadDec_M1_Cnt16_UsingFixedFunction && (CY_PSOC5A)))
 102:.\Generated_Source\PSoC5/QuadDec_M1_Cnt16.c ****             QuadDec_M1_Cnt16_WriteCounter(QuadDec_M1_Cnt16_INIT_COUNTER_VALUE);
ARM GAS  C:\Users\claw541\AppData\Local\Temp\cc1P3bPq.s 			page 4


  70              		.loc 1 102 0
  71 0036 4FF40040 		mov	r0, #32768
  72 003a FFF7FEFF 		bl	QuadDec_M1_Cnt16_WriteCounter
 103:.\Generated_Source\PSoC5/QuadDec_M1_Cnt16.c ****         #endif /* (!(QuadDec_M1_Cnt16_UsingFixedFunction && (CY_PSOC5A))) */
 104:.\Generated_Source\PSoC5/QuadDec_M1_Cnt16.c ****         QuadDec_M1_Cnt16_SetInterruptMode(QuadDec_M1_Cnt16_INIT_INTERRUPTS_MASK);
  73              		.loc 1 104 0
  74 003e 0020     		movs	r0, #0
  75 0040 FFF7FEFF 		bl	QuadDec_M1_Cnt16_SetInterruptMode
 105:.\Generated_Source\PSoC5/QuadDec_M1_Cnt16.c ****         
 106:.\Generated_Source\PSoC5/QuadDec_M1_Cnt16.c ****         #if (!QuadDec_M1_Cnt16_UsingFixedFunction)
 107:.\Generated_Source\PSoC5/QuadDec_M1_Cnt16.c ****             /* Read the status register to clear the unwanted interrupts */
 108:.\Generated_Source\PSoC5/QuadDec_M1_Cnt16.c ****             (void)QuadDec_M1_Cnt16_ReadStatusRegister();
  76              		.loc 1 108 0
  77 0044 FFF7FEFF 		bl	QuadDec_M1_Cnt16_ReadStatusRegister
 109:.\Generated_Source\PSoC5/QuadDec_M1_Cnt16.c ****             /* Set the compare value (only available to non-fixed function implementation */
 110:.\Generated_Source\PSoC5/QuadDec_M1_Cnt16.c ****             QuadDec_M1_Cnt16_WriteCompare(QuadDec_M1_Cnt16_INIT_COMPARE_VALUE);
  78              		.loc 1 110 0
  79 0048 4FF40040 		mov	r0, #32768
  80 004c FFF7FEFF 		bl	QuadDec_M1_Cnt16_WriteCompare
 111:.\Generated_Source\PSoC5/QuadDec_M1_Cnt16.c ****             /* Use the interrupt output of the status register for IRQ output */
 112:.\Generated_Source\PSoC5/QuadDec_M1_Cnt16.c ****             
 113:.\Generated_Source\PSoC5/QuadDec_M1_Cnt16.c ****             /* CyEnterCriticalRegion and CyExitCriticalRegion are used to mark following region cri
 114:.\Generated_Source\PSoC5/QuadDec_M1_Cnt16.c ****             /* Enter Critical Region*/
 115:.\Generated_Source\PSoC5/QuadDec_M1_Cnt16.c ****             QuadDec_M1_Cnt16_interruptState = CyEnterCriticalSection();
  81              		.loc 1 115 0
  82 0050 FFF7FEFF 		bl	CyEnterCriticalSection
  83 0054 0346     		mov	r3, r0
  84 0056 BB71     		strb	r3, [r7, #6]
 116:.\Generated_Source\PSoC5/QuadDec_M1_Cnt16.c ****             
 117:.\Generated_Source\PSoC5/QuadDec_M1_Cnt16.c ****             QuadDec_M1_Cnt16_STATUS_AUX_CTRL |= QuadDec_M1_Cnt16_STATUS_ACTL_INT_EN_MASK;
  85              		.loc 1 117 0
  86 0058 084A     		ldr	r2, .L2+4
  87 005a 084B     		ldr	r3, .L2+4
  88 005c 1B78     		ldrb	r3, [r3]
  89 005e DBB2     		uxtb	r3, r3
  90 0060 43F01003 		orr	r3, r3, #16
  91 0064 DBB2     		uxtb	r3, r3
  92 0066 1370     		strb	r3, [r2]
 118:.\Generated_Source\PSoC5/QuadDec_M1_Cnt16.c ****             
 119:.\Generated_Source\PSoC5/QuadDec_M1_Cnt16.c ****             /* Exit Critical Region*/
 120:.\Generated_Source\PSoC5/QuadDec_M1_Cnt16.c ****             CyExitCriticalSection(QuadDec_M1_Cnt16_interruptState);
  93              		.loc 1 120 0
  94 0068 BB79     		ldrb	r3, [r7, #6]	@ zero_extendqisi2
  95 006a 1846     		mov	r0, r3
  96 006c FFF7FEFF 		bl	CyExitCriticalSection
 121:.\Generated_Source\PSoC5/QuadDec_M1_Cnt16.c ****             
 122:.\Generated_Source\PSoC5/QuadDec_M1_Cnt16.c ****         #endif /* (!QuadDec_M1_Cnt16_UsingFixedFunction) */
 123:.\Generated_Source\PSoC5/QuadDec_M1_Cnt16.c **** }
  97              		.loc 1 123 0
  98 0070 0837     		adds	r7, r7, #8
  99              		.cfi_def_cfa_offset 8
 100 0072 BD46     		mov	sp, r7
 101              		.cfi_def_cfa_register 13
 102              		@ sp needed
 103 0074 80BD     		pop	{r7, pc}
 104              	.L3:
 105 0076 00BF     		.align	2
ARM GAS  C:\Users\claw541\AppData\Local\Temp\cc1P3bPq.s 			page 5


 106              	.L2:
 107 0078 73640040 		.word	1073767539
 108 007c 94640040 		.word	1073767572
 109              		.cfi_endproc
 110              	.LFE0:
 111              		.size	QuadDec_M1_Cnt16_Init, .-QuadDec_M1_Cnt16_Init
 112              		.section	.text.QuadDec_M1_Cnt16_Enable,"ax",%progbits
 113              		.align	2
 114              		.global	QuadDec_M1_Cnt16_Enable
 115              		.thumb
 116              		.thumb_func
 117              		.type	QuadDec_M1_Cnt16_Enable, %function
 118              	QuadDec_M1_Cnt16_Enable:
 119              	.LFB1:
 124:.\Generated_Source\PSoC5/QuadDec_M1_Cnt16.c **** 
 125:.\Generated_Source\PSoC5/QuadDec_M1_Cnt16.c **** 
 126:.\Generated_Source\PSoC5/QuadDec_M1_Cnt16.c **** /*******************************************************************************
 127:.\Generated_Source\PSoC5/QuadDec_M1_Cnt16.c **** * Function Name: QuadDec_M1_Cnt16_Enable
 128:.\Generated_Source\PSoC5/QuadDec_M1_Cnt16.c **** ********************************************************************************
 129:.\Generated_Source\PSoC5/QuadDec_M1_Cnt16.c **** * Summary:
 130:.\Generated_Source\PSoC5/QuadDec_M1_Cnt16.c **** *     Enable the Counter
 131:.\Generated_Source\PSoC5/QuadDec_M1_Cnt16.c **** * 
 132:.\Generated_Source\PSoC5/QuadDec_M1_Cnt16.c **** * Parameters:  
 133:.\Generated_Source\PSoC5/QuadDec_M1_Cnt16.c **** *  void  
 134:.\Generated_Source\PSoC5/QuadDec_M1_Cnt16.c **** *
 135:.\Generated_Source\PSoC5/QuadDec_M1_Cnt16.c **** * Return: 
 136:.\Generated_Source\PSoC5/QuadDec_M1_Cnt16.c **** *  void
 137:.\Generated_Source\PSoC5/QuadDec_M1_Cnt16.c **** *
 138:.\Generated_Source\PSoC5/QuadDec_M1_Cnt16.c **** * Side Effects: 
 139:.\Generated_Source\PSoC5/QuadDec_M1_Cnt16.c **** *   If the Enable mode is set to Hardware only then this function has no effect 
 140:.\Generated_Source\PSoC5/QuadDec_M1_Cnt16.c **** *   on the operation of the counter.
 141:.\Generated_Source\PSoC5/QuadDec_M1_Cnt16.c **** *
 142:.\Generated_Source\PSoC5/QuadDec_M1_Cnt16.c **** *******************************************************************************/
 143:.\Generated_Source\PSoC5/QuadDec_M1_Cnt16.c **** void QuadDec_M1_Cnt16_Enable(void) 
 144:.\Generated_Source\PSoC5/QuadDec_M1_Cnt16.c **** {
 120              		.loc 1 144 0
 121              		.cfi_startproc
 122              		@ args = 0, pretend = 0, frame = 0
 123              		@ frame_needed = 1, uses_anonymous_args = 0
 124              		@ link register save eliminated.
 125 0000 80B4     		push	{r7}
 126              		.cfi_def_cfa_offset 4
 127              		.cfi_offset 7, -4
 128 0002 00AF     		add	r7, sp, #0
 129              		.cfi_def_cfa_register 7
 145:.\Generated_Source\PSoC5/QuadDec_M1_Cnt16.c ****     /* Globally Enable the Fixed Function Block chosen */
 146:.\Generated_Source\PSoC5/QuadDec_M1_Cnt16.c ****     #if (QuadDec_M1_Cnt16_UsingFixedFunction)
 147:.\Generated_Source\PSoC5/QuadDec_M1_Cnt16.c ****         QuadDec_M1_Cnt16_GLOBAL_ENABLE |= QuadDec_M1_Cnt16_BLOCK_EN_MASK;
 148:.\Generated_Source\PSoC5/QuadDec_M1_Cnt16.c ****         QuadDec_M1_Cnt16_GLOBAL_STBY_ENABLE |= QuadDec_M1_Cnt16_BLOCK_STBY_EN_MASK;
 149:.\Generated_Source\PSoC5/QuadDec_M1_Cnt16.c ****     #endif /* (QuadDec_M1_Cnt16_UsingFixedFunction) */  
 150:.\Generated_Source\PSoC5/QuadDec_M1_Cnt16.c ****         
 151:.\Generated_Source\PSoC5/QuadDec_M1_Cnt16.c ****     /* Enable the counter from the control register  */
 152:.\Generated_Source\PSoC5/QuadDec_M1_Cnt16.c ****     /* If Fixed Function then make sure Mode is set correctly */
 153:.\Generated_Source\PSoC5/QuadDec_M1_Cnt16.c ****     /* else make sure reset is clear */
 154:.\Generated_Source\PSoC5/QuadDec_M1_Cnt16.c ****     #if(!QuadDec_M1_Cnt16_ControlRegRemoved || QuadDec_M1_Cnt16_UsingFixedFunction)
 155:.\Generated_Source\PSoC5/QuadDec_M1_Cnt16.c ****         QuadDec_M1_Cnt16_CONTROL |= QuadDec_M1_Cnt16_CTRL_ENABLE;                
 130              		.loc 1 155 0
ARM GAS  C:\Users\claw541\AppData\Local\Temp\cc1P3bPq.s 			page 6


 131 0004 054A     		ldr	r2, .L5
 132 0006 054B     		ldr	r3, .L5
 133 0008 1B78     		ldrb	r3, [r3]
 134 000a DBB2     		uxtb	r3, r3
 135 000c 63F07F03 		orn	r3, r3, #127
 136 0010 DBB2     		uxtb	r3, r3
 137 0012 1370     		strb	r3, [r2]
 156:.\Generated_Source\PSoC5/QuadDec_M1_Cnt16.c ****     #endif /* (!QuadDec_M1_Cnt16_ControlRegRemoved || QuadDec_M1_Cnt16_UsingFixedFunction) */
 157:.\Generated_Source\PSoC5/QuadDec_M1_Cnt16.c ****     
 158:.\Generated_Source\PSoC5/QuadDec_M1_Cnt16.c **** }
 138              		.loc 1 158 0
 139 0014 BD46     		mov	sp, r7
 140              		.cfi_def_cfa_register 13
 141              		@ sp needed
 142 0016 5DF8047B 		ldr	r7, [sp], #4
 143              		.cfi_restore 7
 144              		.cfi_def_cfa_offset 0
 145 001a 7047     		bx	lr
 146              	.L6:
 147              		.align	2
 148              	.L5:
 149 001c 73640040 		.word	1073767539
 150              		.cfi_endproc
 151              	.LFE1:
 152              		.size	QuadDec_M1_Cnt16_Enable, .-QuadDec_M1_Cnt16_Enable
 153              		.section	.text.QuadDec_M1_Cnt16_Start,"ax",%progbits
 154              		.align	2
 155              		.global	QuadDec_M1_Cnt16_Start
 156              		.thumb
 157              		.thumb_func
 158              		.type	QuadDec_M1_Cnt16_Start, %function
 159              	QuadDec_M1_Cnt16_Start:
 160              	.LFB2:
 159:.\Generated_Source\PSoC5/QuadDec_M1_Cnt16.c **** 
 160:.\Generated_Source\PSoC5/QuadDec_M1_Cnt16.c **** 
 161:.\Generated_Source\PSoC5/QuadDec_M1_Cnt16.c **** /*******************************************************************************
 162:.\Generated_Source\PSoC5/QuadDec_M1_Cnt16.c **** * Function Name: QuadDec_M1_Cnt16_Start
 163:.\Generated_Source\PSoC5/QuadDec_M1_Cnt16.c **** ********************************************************************************
 164:.\Generated_Source\PSoC5/QuadDec_M1_Cnt16.c **** * Summary:
 165:.\Generated_Source\PSoC5/QuadDec_M1_Cnt16.c **** *  Enables the counter for operation 
 166:.\Generated_Source\PSoC5/QuadDec_M1_Cnt16.c **** *
 167:.\Generated_Source\PSoC5/QuadDec_M1_Cnt16.c **** * Parameters:  
 168:.\Generated_Source\PSoC5/QuadDec_M1_Cnt16.c **** *  void  
 169:.\Generated_Source\PSoC5/QuadDec_M1_Cnt16.c **** *
 170:.\Generated_Source\PSoC5/QuadDec_M1_Cnt16.c **** * Return: 
 171:.\Generated_Source\PSoC5/QuadDec_M1_Cnt16.c **** *  void
 172:.\Generated_Source\PSoC5/QuadDec_M1_Cnt16.c **** *
 173:.\Generated_Source\PSoC5/QuadDec_M1_Cnt16.c **** * Global variables:
 174:.\Generated_Source\PSoC5/QuadDec_M1_Cnt16.c **** *  QuadDec_M1_Cnt16_initVar: Is modified when this function is called for the  
 175:.\Generated_Source\PSoC5/QuadDec_M1_Cnt16.c **** *   first time. Is used to ensure that initialization happens only once.
 176:.\Generated_Source\PSoC5/QuadDec_M1_Cnt16.c **** *
 177:.\Generated_Source\PSoC5/QuadDec_M1_Cnt16.c **** *******************************************************************************/
 178:.\Generated_Source\PSoC5/QuadDec_M1_Cnt16.c **** void QuadDec_M1_Cnt16_Start(void) 
 179:.\Generated_Source\PSoC5/QuadDec_M1_Cnt16.c **** {
 161              		.loc 1 179 0
 162              		.cfi_startproc
 163              		@ args = 0, pretend = 0, frame = 0
ARM GAS  C:\Users\claw541\AppData\Local\Temp\cc1P3bPq.s 			page 7


 164              		@ frame_needed = 1, uses_anonymous_args = 0
 165 0000 80B5     		push	{r7, lr}
 166              		.cfi_def_cfa_offset 8
 167              		.cfi_offset 7, -8
 168              		.cfi_offset 14, -4
 169 0002 00AF     		add	r7, sp, #0
 170              		.cfi_def_cfa_register 7
 180:.\Generated_Source\PSoC5/QuadDec_M1_Cnt16.c ****     if(QuadDec_M1_Cnt16_initVar == 0u)
 171              		.loc 1 180 0
 172 0004 054B     		ldr	r3, .L9
 173 0006 1B78     		ldrb	r3, [r3]	@ zero_extendqisi2
 174 0008 002B     		cmp	r3, #0
 175 000a 04D1     		bne	.L8
 181:.\Generated_Source\PSoC5/QuadDec_M1_Cnt16.c ****     {
 182:.\Generated_Source\PSoC5/QuadDec_M1_Cnt16.c ****         QuadDec_M1_Cnt16_Init();
 176              		.loc 1 182 0
 177 000c FFF7FEFF 		bl	QuadDec_M1_Cnt16_Init
 183:.\Generated_Source\PSoC5/QuadDec_M1_Cnt16.c ****         
 184:.\Generated_Source\PSoC5/QuadDec_M1_Cnt16.c ****         QuadDec_M1_Cnt16_initVar = 1u; /* Clear this bit for Initialization */        
 178              		.loc 1 184 0
 179 0010 024B     		ldr	r3, .L9
 180 0012 0122     		movs	r2, #1
 181 0014 1A70     		strb	r2, [r3]
 182              	.L8:
 185:.\Generated_Source\PSoC5/QuadDec_M1_Cnt16.c ****     }
 186:.\Generated_Source\PSoC5/QuadDec_M1_Cnt16.c ****     
 187:.\Generated_Source\PSoC5/QuadDec_M1_Cnt16.c ****     /* Enable the Counter */
 188:.\Generated_Source\PSoC5/QuadDec_M1_Cnt16.c ****     QuadDec_M1_Cnt16_Enable();        
 183              		.loc 1 188 0
 184 0016 FFF7FEFF 		bl	QuadDec_M1_Cnt16_Enable
 189:.\Generated_Source\PSoC5/QuadDec_M1_Cnt16.c **** }
 185              		.loc 1 189 0
 186 001a 80BD     		pop	{r7, pc}
 187              	.L10:
 188              		.align	2
 189              	.L9:
 190 001c 00000000 		.word	QuadDec_M1_Cnt16_initVar
 191              		.cfi_endproc
 192              	.LFE2:
 193              		.size	QuadDec_M1_Cnt16_Start, .-QuadDec_M1_Cnt16_Start
 194              		.section	.text.QuadDec_M1_Cnt16_Stop,"ax",%progbits
 195              		.align	2
 196              		.global	QuadDec_M1_Cnt16_Stop
 197              		.thumb
 198              		.thumb_func
 199              		.type	QuadDec_M1_Cnt16_Stop, %function
 200              	QuadDec_M1_Cnt16_Stop:
 201              	.LFB3:
 190:.\Generated_Source\PSoC5/QuadDec_M1_Cnt16.c **** 
 191:.\Generated_Source\PSoC5/QuadDec_M1_Cnt16.c **** 
 192:.\Generated_Source\PSoC5/QuadDec_M1_Cnt16.c **** /*******************************************************************************
 193:.\Generated_Source\PSoC5/QuadDec_M1_Cnt16.c **** * Function Name: QuadDec_M1_Cnt16_Stop
 194:.\Generated_Source\PSoC5/QuadDec_M1_Cnt16.c **** ********************************************************************************
 195:.\Generated_Source\PSoC5/QuadDec_M1_Cnt16.c **** * Summary:
 196:.\Generated_Source\PSoC5/QuadDec_M1_Cnt16.c **** * Halts the counter, but does not change any modes or disable interrupts.
 197:.\Generated_Source\PSoC5/QuadDec_M1_Cnt16.c **** *
 198:.\Generated_Source\PSoC5/QuadDec_M1_Cnt16.c **** * Parameters:  
ARM GAS  C:\Users\claw541\AppData\Local\Temp\cc1P3bPq.s 			page 8


 199:.\Generated_Source\PSoC5/QuadDec_M1_Cnt16.c **** *  void  
 200:.\Generated_Source\PSoC5/QuadDec_M1_Cnt16.c **** *
 201:.\Generated_Source\PSoC5/QuadDec_M1_Cnt16.c **** * Return: 
 202:.\Generated_Source\PSoC5/QuadDec_M1_Cnt16.c **** *  void
 203:.\Generated_Source\PSoC5/QuadDec_M1_Cnt16.c **** *
 204:.\Generated_Source\PSoC5/QuadDec_M1_Cnt16.c **** * Side Effects: If the Enable mode is set to Hardware only then this function
 205:.\Generated_Source\PSoC5/QuadDec_M1_Cnt16.c **** *               has no effect on the operation of the counter.
 206:.\Generated_Source\PSoC5/QuadDec_M1_Cnt16.c **** *
 207:.\Generated_Source\PSoC5/QuadDec_M1_Cnt16.c **** *******************************************************************************/
 208:.\Generated_Source\PSoC5/QuadDec_M1_Cnt16.c **** void QuadDec_M1_Cnt16_Stop(void) 
 209:.\Generated_Source\PSoC5/QuadDec_M1_Cnt16.c **** {
 202              		.loc 1 209 0
 203              		.cfi_startproc
 204              		@ args = 0, pretend = 0, frame = 0
 205              		@ frame_needed = 1, uses_anonymous_args = 0
 206              		@ link register save eliminated.
 207 0000 80B4     		push	{r7}
 208              		.cfi_def_cfa_offset 4
 209              		.cfi_offset 7, -4
 210 0002 00AF     		add	r7, sp, #0
 211              		.cfi_def_cfa_register 7
 210:.\Generated_Source\PSoC5/QuadDec_M1_Cnt16.c ****     /* Disable Counter */
 211:.\Generated_Source\PSoC5/QuadDec_M1_Cnt16.c ****     #if(!QuadDec_M1_Cnt16_ControlRegRemoved || QuadDec_M1_Cnt16_UsingFixedFunction)
 212:.\Generated_Source\PSoC5/QuadDec_M1_Cnt16.c ****         QuadDec_M1_Cnt16_CONTROL &= ((uint8)(~QuadDec_M1_Cnt16_CTRL_ENABLE));        
 212              		.loc 1 212 0
 213 0004 054A     		ldr	r2, .L12
 214 0006 054B     		ldr	r3, .L12
 215 0008 1B78     		ldrb	r3, [r3]
 216 000a DBB2     		uxtb	r3, r3
 217 000c 03F07F03 		and	r3, r3, #127
 218 0010 DBB2     		uxtb	r3, r3
 219 0012 1370     		strb	r3, [r2]
 213:.\Generated_Source\PSoC5/QuadDec_M1_Cnt16.c ****     #endif /* (!QuadDec_M1_Cnt16_ControlRegRemoved || QuadDec_M1_Cnt16_UsingFixedFunction) */
 214:.\Generated_Source\PSoC5/QuadDec_M1_Cnt16.c ****     
 215:.\Generated_Source\PSoC5/QuadDec_M1_Cnt16.c ****     /* Globally disable the Fixed Function Block chosen */
 216:.\Generated_Source\PSoC5/QuadDec_M1_Cnt16.c ****     #if (QuadDec_M1_Cnt16_UsingFixedFunction)
 217:.\Generated_Source\PSoC5/QuadDec_M1_Cnt16.c ****         QuadDec_M1_Cnt16_GLOBAL_ENABLE &= ((uint8)(~QuadDec_M1_Cnt16_BLOCK_EN_MASK));
 218:.\Generated_Source\PSoC5/QuadDec_M1_Cnt16.c ****         QuadDec_M1_Cnt16_GLOBAL_STBY_ENABLE &= ((uint8)(~QuadDec_M1_Cnt16_BLOCK_STBY_EN_MASK));
 219:.\Generated_Source\PSoC5/QuadDec_M1_Cnt16.c ****     #endif /* (QuadDec_M1_Cnt16_UsingFixedFunction) */
 220:.\Generated_Source\PSoC5/QuadDec_M1_Cnt16.c **** }
 220              		.loc 1 220 0
 221 0014 BD46     		mov	sp, r7
 222              		.cfi_def_cfa_register 13
 223              		@ sp needed
 224 0016 5DF8047B 		ldr	r7, [sp], #4
 225              		.cfi_restore 7
 226              		.cfi_def_cfa_offset 0
 227 001a 7047     		bx	lr
 228              	.L13:
 229              		.align	2
 230              	.L12:
 231 001c 73640040 		.word	1073767539
 232              		.cfi_endproc
 233              	.LFE3:
 234              		.size	QuadDec_M1_Cnt16_Stop, .-QuadDec_M1_Cnt16_Stop
 235              		.section	.text.QuadDec_M1_Cnt16_SetInterruptMode,"ax",%progbits
 236              		.align	2
ARM GAS  C:\Users\claw541\AppData\Local\Temp\cc1P3bPq.s 			page 9


 237              		.global	QuadDec_M1_Cnt16_SetInterruptMode
 238              		.thumb
 239              		.thumb_func
 240              		.type	QuadDec_M1_Cnt16_SetInterruptMode, %function
 241              	QuadDec_M1_Cnt16_SetInterruptMode:
 242              	.LFB4:
 221:.\Generated_Source\PSoC5/QuadDec_M1_Cnt16.c **** 
 222:.\Generated_Source\PSoC5/QuadDec_M1_Cnt16.c **** 
 223:.\Generated_Source\PSoC5/QuadDec_M1_Cnt16.c **** /*******************************************************************************
 224:.\Generated_Source\PSoC5/QuadDec_M1_Cnt16.c **** * Function Name: QuadDec_M1_Cnt16_SetInterruptMode
 225:.\Generated_Source\PSoC5/QuadDec_M1_Cnt16.c **** ********************************************************************************
 226:.\Generated_Source\PSoC5/QuadDec_M1_Cnt16.c **** * Summary:
 227:.\Generated_Source\PSoC5/QuadDec_M1_Cnt16.c **** * Configures which interrupt sources are enabled to generate the final interrupt
 228:.\Generated_Source\PSoC5/QuadDec_M1_Cnt16.c **** *
 229:.\Generated_Source\PSoC5/QuadDec_M1_Cnt16.c **** * Parameters:  
 230:.\Generated_Source\PSoC5/QuadDec_M1_Cnt16.c **** *  InterruptsMask: This parameter is an or'd collection of the status bits
 231:.\Generated_Source\PSoC5/QuadDec_M1_Cnt16.c **** *                   which will be allowed to generate the counters interrupt.   
 232:.\Generated_Source\PSoC5/QuadDec_M1_Cnt16.c **** *
 233:.\Generated_Source\PSoC5/QuadDec_M1_Cnt16.c **** * Return: 
 234:.\Generated_Source\PSoC5/QuadDec_M1_Cnt16.c **** *  void
 235:.\Generated_Source\PSoC5/QuadDec_M1_Cnt16.c **** *
 236:.\Generated_Source\PSoC5/QuadDec_M1_Cnt16.c **** *******************************************************************************/
 237:.\Generated_Source\PSoC5/QuadDec_M1_Cnt16.c **** void QuadDec_M1_Cnt16_SetInterruptMode(uint8 interruptsMask) 
 238:.\Generated_Source\PSoC5/QuadDec_M1_Cnt16.c **** {
 243              		.loc 1 238 0
 244              		.cfi_startproc
 245              		@ args = 0, pretend = 0, frame = 8
 246              		@ frame_needed = 1, uses_anonymous_args = 0
 247              		@ link register save eliminated.
 248 0000 80B4     		push	{r7}
 249              		.cfi_def_cfa_offset 4
 250              		.cfi_offset 7, -4
 251 0002 83B0     		sub	sp, sp, #12
 252              		.cfi_def_cfa_offset 16
 253 0004 00AF     		add	r7, sp, #0
 254              		.cfi_def_cfa_register 7
 255 0006 0346     		mov	r3, r0
 256 0008 FB71     		strb	r3, [r7, #7]
 239:.\Generated_Source\PSoC5/QuadDec_M1_Cnt16.c ****     QuadDec_M1_Cnt16_STATUS_MASK = interruptsMask;
 257              		.loc 1 239 0
 258 000a 044A     		ldr	r2, .L15
 259 000c FB79     		ldrb	r3, [r7, #7]
 260 000e 1370     		strb	r3, [r2]
 240:.\Generated_Source\PSoC5/QuadDec_M1_Cnt16.c **** }
 261              		.loc 1 240 0
 262 0010 0C37     		adds	r7, r7, #12
 263              		.cfi_def_cfa_offset 4
 264 0012 BD46     		mov	sp, r7
 265              		.cfi_def_cfa_register 13
 266              		@ sp needed
 267 0014 5DF8047B 		ldr	r7, [sp], #4
 268              		.cfi_restore 7
 269              		.cfi_def_cfa_offset 0
 270 0018 7047     		bx	lr
 271              	.L16:
 272 001a 00BF     		.align	2
 273              	.L15:
ARM GAS  C:\Users\claw541\AppData\Local\Temp\cc1P3bPq.s 			page 10


 274 001c 84640040 		.word	1073767556
 275              		.cfi_endproc
 276              	.LFE4:
 277              		.size	QuadDec_M1_Cnt16_SetInterruptMode, .-QuadDec_M1_Cnt16_SetInterruptMode
 278              		.section	.text.QuadDec_M1_Cnt16_ReadStatusRegister,"ax",%progbits
 279              		.align	2
 280              		.global	QuadDec_M1_Cnt16_ReadStatusRegister
 281              		.thumb
 282              		.thumb_func
 283              		.type	QuadDec_M1_Cnt16_ReadStatusRegister, %function
 284              	QuadDec_M1_Cnt16_ReadStatusRegister:
 285              	.LFB5:
 241:.\Generated_Source\PSoC5/QuadDec_M1_Cnt16.c **** 
 242:.\Generated_Source\PSoC5/QuadDec_M1_Cnt16.c **** 
 243:.\Generated_Source\PSoC5/QuadDec_M1_Cnt16.c **** /*******************************************************************************
 244:.\Generated_Source\PSoC5/QuadDec_M1_Cnt16.c **** * Function Name: QuadDec_M1_Cnt16_ReadStatusRegister
 245:.\Generated_Source\PSoC5/QuadDec_M1_Cnt16.c **** ********************************************************************************
 246:.\Generated_Source\PSoC5/QuadDec_M1_Cnt16.c **** * Summary:
 247:.\Generated_Source\PSoC5/QuadDec_M1_Cnt16.c **** *   Reads the status register and returns it's state. This function should use
 248:.\Generated_Source\PSoC5/QuadDec_M1_Cnt16.c **** *       defined types for the bit-field information as the bits in this
 249:.\Generated_Source\PSoC5/QuadDec_M1_Cnt16.c **** *       register may be permuteable.
 250:.\Generated_Source\PSoC5/QuadDec_M1_Cnt16.c **** *
 251:.\Generated_Source\PSoC5/QuadDec_M1_Cnt16.c **** * Parameters:  
 252:.\Generated_Source\PSoC5/QuadDec_M1_Cnt16.c **** *  void
 253:.\Generated_Source\PSoC5/QuadDec_M1_Cnt16.c **** *
 254:.\Generated_Source\PSoC5/QuadDec_M1_Cnt16.c **** * Return: 
 255:.\Generated_Source\PSoC5/QuadDec_M1_Cnt16.c **** *  (uint8) The contents of the status register
 256:.\Generated_Source\PSoC5/QuadDec_M1_Cnt16.c **** *
 257:.\Generated_Source\PSoC5/QuadDec_M1_Cnt16.c **** * Side Effects:
 258:.\Generated_Source\PSoC5/QuadDec_M1_Cnt16.c **** *   Status register bits may be clear on read. 
 259:.\Generated_Source\PSoC5/QuadDec_M1_Cnt16.c **** *
 260:.\Generated_Source\PSoC5/QuadDec_M1_Cnt16.c **** *******************************************************************************/
 261:.\Generated_Source\PSoC5/QuadDec_M1_Cnt16.c **** uint8   QuadDec_M1_Cnt16_ReadStatusRegister(void) 
 262:.\Generated_Source\PSoC5/QuadDec_M1_Cnt16.c **** {
 286              		.loc 1 262 0
 287              		.cfi_startproc
 288              		@ args = 0, pretend = 0, frame = 0
 289              		@ frame_needed = 1, uses_anonymous_args = 0
 290              		@ link register save eliminated.
 291 0000 80B4     		push	{r7}
 292              		.cfi_def_cfa_offset 4
 293              		.cfi_offset 7, -4
 294 0002 00AF     		add	r7, sp, #0
 295              		.cfi_def_cfa_register 7
 263:.\Generated_Source\PSoC5/QuadDec_M1_Cnt16.c ****     return QuadDec_M1_Cnt16_STATUS;
 296              		.loc 1 263 0
 297 0004 034B     		ldr	r3, .L19
 298 0006 1B78     		ldrb	r3, [r3]
 299 0008 DBB2     		uxtb	r3, r3
 264:.\Generated_Source\PSoC5/QuadDec_M1_Cnt16.c **** }
 300              		.loc 1 264 0
 301 000a 1846     		mov	r0, r3
 302 000c BD46     		mov	sp, r7
 303              		.cfi_def_cfa_register 13
 304              		@ sp needed
 305 000e 5DF8047B 		ldr	r7, [sp], #4
 306              		.cfi_restore 7
ARM GAS  C:\Users\claw541\AppData\Local\Temp\cc1P3bPq.s 			page 11


 307              		.cfi_def_cfa_offset 0
 308 0012 7047     		bx	lr
 309              	.L20:
 310              		.align	2
 311              	.L19:
 312 0014 64640040 		.word	1073767524
 313              		.cfi_endproc
 314              	.LFE5:
 315              		.size	QuadDec_M1_Cnt16_ReadStatusRegister, .-QuadDec_M1_Cnt16_ReadStatusRegister
 316              		.section	.text.QuadDec_M1_Cnt16_ReadControlRegister,"ax",%progbits
 317              		.align	2
 318              		.global	QuadDec_M1_Cnt16_ReadControlRegister
 319              		.thumb
 320              		.thumb_func
 321              		.type	QuadDec_M1_Cnt16_ReadControlRegister, %function
 322              	QuadDec_M1_Cnt16_ReadControlRegister:
 323              	.LFB6:
 265:.\Generated_Source\PSoC5/QuadDec_M1_Cnt16.c **** 
 266:.\Generated_Source\PSoC5/QuadDec_M1_Cnt16.c **** 
 267:.\Generated_Source\PSoC5/QuadDec_M1_Cnt16.c **** #if(!QuadDec_M1_Cnt16_ControlRegRemoved)
 268:.\Generated_Source\PSoC5/QuadDec_M1_Cnt16.c **** /*******************************************************************************
 269:.\Generated_Source\PSoC5/QuadDec_M1_Cnt16.c **** * Function Name: QuadDec_M1_Cnt16_ReadControlRegister
 270:.\Generated_Source\PSoC5/QuadDec_M1_Cnt16.c **** ********************************************************************************
 271:.\Generated_Source\PSoC5/QuadDec_M1_Cnt16.c **** * Summary:
 272:.\Generated_Source\PSoC5/QuadDec_M1_Cnt16.c **** *   Reads the control register and returns it's state. This function should use
 273:.\Generated_Source\PSoC5/QuadDec_M1_Cnt16.c **** *       defined types for the bit-field information as the bits in this
 274:.\Generated_Source\PSoC5/QuadDec_M1_Cnt16.c **** *       register may be permuteable.
 275:.\Generated_Source\PSoC5/QuadDec_M1_Cnt16.c **** *
 276:.\Generated_Source\PSoC5/QuadDec_M1_Cnt16.c **** * Parameters:  
 277:.\Generated_Source\PSoC5/QuadDec_M1_Cnt16.c **** *  void
 278:.\Generated_Source\PSoC5/QuadDec_M1_Cnt16.c **** *
 279:.\Generated_Source\PSoC5/QuadDec_M1_Cnt16.c **** * Return: 
 280:.\Generated_Source\PSoC5/QuadDec_M1_Cnt16.c **** *  (uint8) The contents of the control register
 281:.\Generated_Source\PSoC5/QuadDec_M1_Cnt16.c **** *
 282:.\Generated_Source\PSoC5/QuadDec_M1_Cnt16.c **** *******************************************************************************/
 283:.\Generated_Source\PSoC5/QuadDec_M1_Cnt16.c **** uint8   QuadDec_M1_Cnt16_ReadControlRegister(void) 
 284:.\Generated_Source\PSoC5/QuadDec_M1_Cnt16.c **** {
 324              		.loc 1 284 0
 325              		.cfi_startproc
 326              		@ args = 0, pretend = 0, frame = 0
 327              		@ frame_needed = 1, uses_anonymous_args = 0
 328              		@ link register save eliminated.
 329 0000 80B4     		push	{r7}
 330              		.cfi_def_cfa_offset 4
 331              		.cfi_offset 7, -4
 332 0002 00AF     		add	r7, sp, #0
 333              		.cfi_def_cfa_register 7
 285:.\Generated_Source\PSoC5/QuadDec_M1_Cnt16.c ****     return QuadDec_M1_Cnt16_CONTROL;
 334              		.loc 1 285 0
 335 0004 034B     		ldr	r3, .L23
 336 0006 1B78     		ldrb	r3, [r3]
 337 0008 DBB2     		uxtb	r3, r3
 286:.\Generated_Source\PSoC5/QuadDec_M1_Cnt16.c **** }
 338              		.loc 1 286 0
 339 000a 1846     		mov	r0, r3
 340 000c BD46     		mov	sp, r7
 341              		.cfi_def_cfa_register 13
ARM GAS  C:\Users\claw541\AppData\Local\Temp\cc1P3bPq.s 			page 12


 342              		@ sp needed
 343 000e 5DF8047B 		ldr	r7, [sp], #4
 344              		.cfi_restore 7
 345              		.cfi_def_cfa_offset 0
 346 0012 7047     		bx	lr
 347              	.L24:
 348              		.align	2
 349              	.L23:
 350 0014 73640040 		.word	1073767539
 351              		.cfi_endproc
 352              	.LFE6:
 353              		.size	QuadDec_M1_Cnt16_ReadControlRegister, .-QuadDec_M1_Cnt16_ReadControlRegister
 354              		.section	.text.QuadDec_M1_Cnt16_WriteControlRegister,"ax",%progbits
 355              		.align	2
 356              		.global	QuadDec_M1_Cnt16_WriteControlRegister
 357              		.thumb
 358              		.thumb_func
 359              		.type	QuadDec_M1_Cnt16_WriteControlRegister, %function
 360              	QuadDec_M1_Cnt16_WriteControlRegister:
 361              	.LFB7:
 287:.\Generated_Source\PSoC5/QuadDec_M1_Cnt16.c **** 
 288:.\Generated_Source\PSoC5/QuadDec_M1_Cnt16.c **** 
 289:.\Generated_Source\PSoC5/QuadDec_M1_Cnt16.c **** /*******************************************************************************
 290:.\Generated_Source\PSoC5/QuadDec_M1_Cnt16.c **** * Function Name: QuadDec_M1_Cnt16_WriteControlRegister
 291:.\Generated_Source\PSoC5/QuadDec_M1_Cnt16.c **** ********************************************************************************
 292:.\Generated_Source\PSoC5/QuadDec_M1_Cnt16.c **** * Summary:
 293:.\Generated_Source\PSoC5/QuadDec_M1_Cnt16.c **** *   Sets the bit-field of the control register.  This function should use
 294:.\Generated_Source\PSoC5/QuadDec_M1_Cnt16.c **** *       defined types for the bit-field information as the bits in this
 295:.\Generated_Source\PSoC5/QuadDec_M1_Cnt16.c **** *       register may be permuteable.
 296:.\Generated_Source\PSoC5/QuadDec_M1_Cnt16.c **** *
 297:.\Generated_Source\PSoC5/QuadDec_M1_Cnt16.c **** * Parameters:  
 298:.\Generated_Source\PSoC5/QuadDec_M1_Cnt16.c **** *  void
 299:.\Generated_Source\PSoC5/QuadDec_M1_Cnt16.c **** *
 300:.\Generated_Source\PSoC5/QuadDec_M1_Cnt16.c **** * Return: 
 301:.\Generated_Source\PSoC5/QuadDec_M1_Cnt16.c **** *  (uint8) The contents of the control register
 302:.\Generated_Source\PSoC5/QuadDec_M1_Cnt16.c **** *
 303:.\Generated_Source\PSoC5/QuadDec_M1_Cnt16.c **** *******************************************************************************/
 304:.\Generated_Source\PSoC5/QuadDec_M1_Cnt16.c **** void    QuadDec_M1_Cnt16_WriteControlRegister(uint8 control) 
 305:.\Generated_Source\PSoC5/QuadDec_M1_Cnt16.c **** {
 362              		.loc 1 305 0
 363              		.cfi_startproc
 364              		@ args = 0, pretend = 0, frame = 8
 365              		@ frame_needed = 1, uses_anonymous_args = 0
 366              		@ link register save eliminated.
 367 0000 80B4     		push	{r7}
 368              		.cfi_def_cfa_offset 4
 369              		.cfi_offset 7, -4
 370 0002 83B0     		sub	sp, sp, #12
 371              		.cfi_def_cfa_offset 16
 372 0004 00AF     		add	r7, sp, #0
 373              		.cfi_def_cfa_register 7
 374 0006 0346     		mov	r3, r0
 375 0008 FB71     		strb	r3, [r7, #7]
 306:.\Generated_Source\PSoC5/QuadDec_M1_Cnt16.c ****     QuadDec_M1_Cnt16_CONTROL = control;
 376              		.loc 1 306 0
 377 000a 044A     		ldr	r2, .L26
 378 000c FB79     		ldrb	r3, [r7, #7]
ARM GAS  C:\Users\claw541\AppData\Local\Temp\cc1P3bPq.s 			page 13


 379 000e 1370     		strb	r3, [r2]
 307:.\Generated_Source\PSoC5/QuadDec_M1_Cnt16.c **** }
 380              		.loc 1 307 0
 381 0010 0C37     		adds	r7, r7, #12
 382              		.cfi_def_cfa_offset 4
 383 0012 BD46     		mov	sp, r7
 384              		.cfi_def_cfa_register 13
 385              		@ sp needed
 386 0014 5DF8047B 		ldr	r7, [sp], #4
 387              		.cfi_restore 7
 388              		.cfi_def_cfa_offset 0
 389 0018 7047     		bx	lr
 390              	.L27:
 391 001a 00BF     		.align	2
 392              	.L26:
 393 001c 73640040 		.word	1073767539
 394              		.cfi_endproc
 395              	.LFE7:
 396              		.size	QuadDec_M1_Cnt16_WriteControlRegister, .-QuadDec_M1_Cnt16_WriteControlRegister
 397              		.section	.text.QuadDec_M1_Cnt16_WriteCounter,"ax",%progbits
 398              		.align	2
 399              		.global	QuadDec_M1_Cnt16_WriteCounter
 400              		.thumb
 401              		.thumb_func
 402              		.type	QuadDec_M1_Cnt16_WriteCounter, %function
 403              	QuadDec_M1_Cnt16_WriteCounter:
 404              	.LFB8:
 308:.\Generated_Source\PSoC5/QuadDec_M1_Cnt16.c **** 
 309:.\Generated_Source\PSoC5/QuadDec_M1_Cnt16.c **** #endif  /* (!QuadDec_M1_Cnt16_ControlRegRemoved) */
 310:.\Generated_Source\PSoC5/QuadDec_M1_Cnt16.c **** 
 311:.\Generated_Source\PSoC5/QuadDec_M1_Cnt16.c **** 
 312:.\Generated_Source\PSoC5/QuadDec_M1_Cnt16.c **** #if (!(QuadDec_M1_Cnt16_UsingFixedFunction && (CY_PSOC5A)))
 313:.\Generated_Source\PSoC5/QuadDec_M1_Cnt16.c **** /*******************************************************************************
 314:.\Generated_Source\PSoC5/QuadDec_M1_Cnt16.c **** * Function Name: QuadDec_M1_Cnt16_WriteCounter
 315:.\Generated_Source\PSoC5/QuadDec_M1_Cnt16.c **** ********************************************************************************
 316:.\Generated_Source\PSoC5/QuadDec_M1_Cnt16.c **** * Summary:
 317:.\Generated_Source\PSoC5/QuadDec_M1_Cnt16.c **** *   This funtion is used to set the counter to a specific value
 318:.\Generated_Source\PSoC5/QuadDec_M1_Cnt16.c **** *
 319:.\Generated_Source\PSoC5/QuadDec_M1_Cnt16.c **** * Parameters:  
 320:.\Generated_Source\PSoC5/QuadDec_M1_Cnt16.c **** *  counter:  New counter value. 
 321:.\Generated_Source\PSoC5/QuadDec_M1_Cnt16.c **** *
 322:.\Generated_Source\PSoC5/QuadDec_M1_Cnt16.c **** * Return: 
 323:.\Generated_Source\PSoC5/QuadDec_M1_Cnt16.c **** *  void 
 324:.\Generated_Source\PSoC5/QuadDec_M1_Cnt16.c **** *
 325:.\Generated_Source\PSoC5/QuadDec_M1_Cnt16.c **** *******************************************************************************/
 326:.\Generated_Source\PSoC5/QuadDec_M1_Cnt16.c **** void QuadDec_M1_Cnt16_WriteCounter(uint16 counter) \
 327:.\Generated_Source\PSoC5/QuadDec_M1_Cnt16.c ****                                    
 328:.\Generated_Source\PSoC5/QuadDec_M1_Cnt16.c **** {
 405              		.loc 1 328 0
 406              		.cfi_startproc
 407              		@ args = 0, pretend = 0, frame = 8
 408              		@ frame_needed = 1, uses_anonymous_args = 0
 409              		@ link register save eliminated.
 410 0000 80B4     		push	{r7}
 411              		.cfi_def_cfa_offset 4
 412              		.cfi_offset 7, -4
 413 0002 83B0     		sub	sp, sp, #12
ARM GAS  C:\Users\claw541\AppData\Local\Temp\cc1P3bPq.s 			page 14


 414              		.cfi_def_cfa_offset 16
 415 0004 00AF     		add	r7, sp, #0
 416              		.cfi_def_cfa_register 7
 417 0006 0346     		mov	r3, r0
 418 0008 FB80     		strh	r3, [r7, #6]	@ movhi
 329:.\Generated_Source\PSoC5/QuadDec_M1_Cnt16.c ****     #if(QuadDec_M1_Cnt16_UsingFixedFunction)
 330:.\Generated_Source\PSoC5/QuadDec_M1_Cnt16.c ****         /* assert if block is already enabled */
 331:.\Generated_Source\PSoC5/QuadDec_M1_Cnt16.c ****         CYASSERT (0u == (QuadDec_M1_Cnt16_GLOBAL_ENABLE & QuadDec_M1_Cnt16_BLOCK_EN_MASK));
 332:.\Generated_Source\PSoC5/QuadDec_M1_Cnt16.c ****         /* If block is disabled, enable it and then write the counter */
 333:.\Generated_Source\PSoC5/QuadDec_M1_Cnt16.c ****         QuadDec_M1_Cnt16_GLOBAL_ENABLE |= QuadDec_M1_Cnt16_BLOCK_EN_MASK;
 334:.\Generated_Source\PSoC5/QuadDec_M1_Cnt16.c ****         CY_SET_REG16(QuadDec_M1_Cnt16_COUNTER_LSB_PTR, (uint16)counter);
 335:.\Generated_Source\PSoC5/QuadDec_M1_Cnt16.c ****         QuadDec_M1_Cnt16_GLOBAL_ENABLE &= ((uint8)(~QuadDec_M1_Cnt16_BLOCK_EN_MASK));
 336:.\Generated_Source\PSoC5/QuadDec_M1_Cnt16.c ****     #else
 337:.\Generated_Source\PSoC5/QuadDec_M1_Cnt16.c ****         CY_SET_REG16(QuadDec_M1_Cnt16_COUNTER_LSB_PTR, counter);
 419              		.loc 1 337 0
 420 000a 044A     		ldr	r2, .L29
 421 000c FB88     		ldrh	r3, [r7, #6]	@ movhi
 422 000e 1380     		strh	r3, [r2]	@ movhi
 338:.\Generated_Source\PSoC5/QuadDec_M1_Cnt16.c ****     #endif /* (QuadDec_M1_Cnt16_UsingFixedFunction) */
 339:.\Generated_Source\PSoC5/QuadDec_M1_Cnt16.c **** }
 423              		.loc 1 339 0
 424 0010 0C37     		adds	r7, r7, #12
 425              		.cfi_def_cfa_offset 4
 426 0012 BD46     		mov	sp, r7
 427              		.cfi_def_cfa_register 13
 428              		@ sp needed
 429 0014 5DF8047B 		ldr	r7, [sp], #4
 430              		.cfi_restore 7
 431              		.cfi_def_cfa_offset 0
 432 0018 7047     		bx	lr
 433              	.L30:
 434 001a 00BF     		.align	2
 435              	.L29:
 436 001c 0C680040 		.word	1073768460
 437              		.cfi_endproc
 438              	.LFE8:
 439              		.size	QuadDec_M1_Cnt16_WriteCounter, .-QuadDec_M1_Cnt16_WriteCounter
 440              		.section	.text.QuadDec_M1_Cnt16_ReadCounter,"ax",%progbits
 441              		.align	2
 442              		.global	QuadDec_M1_Cnt16_ReadCounter
 443              		.thumb
 444              		.thumb_func
 445              		.type	QuadDec_M1_Cnt16_ReadCounter, %function
 446              	QuadDec_M1_Cnt16_ReadCounter:
 447              	.LFB9:
 340:.\Generated_Source\PSoC5/QuadDec_M1_Cnt16.c **** #endif /* (!(QuadDec_M1_Cnt16_UsingFixedFunction && (CY_PSOC5A))) */
 341:.\Generated_Source\PSoC5/QuadDec_M1_Cnt16.c **** 
 342:.\Generated_Source\PSoC5/QuadDec_M1_Cnt16.c **** 
 343:.\Generated_Source\PSoC5/QuadDec_M1_Cnt16.c **** /*******************************************************************************
 344:.\Generated_Source\PSoC5/QuadDec_M1_Cnt16.c **** * Function Name: QuadDec_M1_Cnt16_ReadCounter
 345:.\Generated_Source\PSoC5/QuadDec_M1_Cnt16.c **** ********************************************************************************
 346:.\Generated_Source\PSoC5/QuadDec_M1_Cnt16.c **** * Summary:
 347:.\Generated_Source\PSoC5/QuadDec_M1_Cnt16.c **** * Returns the current value of the counter.  It doesn't matter
 348:.\Generated_Source\PSoC5/QuadDec_M1_Cnt16.c **** * if the counter is enabled or running.
 349:.\Generated_Source\PSoC5/QuadDec_M1_Cnt16.c **** *
 350:.\Generated_Source\PSoC5/QuadDec_M1_Cnt16.c **** * Parameters:  
 351:.\Generated_Source\PSoC5/QuadDec_M1_Cnt16.c **** *  void:  
ARM GAS  C:\Users\claw541\AppData\Local\Temp\cc1P3bPq.s 			page 15


 352:.\Generated_Source\PSoC5/QuadDec_M1_Cnt16.c **** *
 353:.\Generated_Source\PSoC5/QuadDec_M1_Cnt16.c **** * Return: 
 354:.\Generated_Source\PSoC5/QuadDec_M1_Cnt16.c **** *  (uint16) The present value of the counter.
 355:.\Generated_Source\PSoC5/QuadDec_M1_Cnt16.c **** *
 356:.\Generated_Source\PSoC5/QuadDec_M1_Cnt16.c **** *******************************************************************************/
 357:.\Generated_Source\PSoC5/QuadDec_M1_Cnt16.c **** uint16 QuadDec_M1_Cnt16_ReadCounter(void) 
 358:.\Generated_Source\PSoC5/QuadDec_M1_Cnt16.c **** {
 448              		.loc 1 358 0
 449              		.cfi_startproc
 450              		@ args = 0, pretend = 0, frame = 0
 451              		@ frame_needed = 1, uses_anonymous_args = 0
 452              		@ link register save eliminated.
 453 0000 80B4     		push	{r7}
 454              		.cfi_def_cfa_offset 4
 455              		.cfi_offset 7, -4
 456 0002 00AF     		add	r7, sp, #0
 457              		.cfi_def_cfa_register 7
 359:.\Generated_Source\PSoC5/QuadDec_M1_Cnt16.c ****     /* Force capture by reading Accumulator */
 360:.\Generated_Source\PSoC5/QuadDec_M1_Cnt16.c ****     /* Must first do a software capture to be able to read the counter */
 361:.\Generated_Source\PSoC5/QuadDec_M1_Cnt16.c ****     /* It is up to the user code to make sure there isn't already captured data in the FIFO */
 362:.\Generated_Source\PSoC5/QuadDec_M1_Cnt16.c ****     #if(QuadDec_M1_Cnt16_UsingFixedFunction)
 363:.\Generated_Source\PSoC5/QuadDec_M1_Cnt16.c **** 		(void)CY_GET_REG16(QuadDec_M1_Cnt16_COUNTER_LSB_PTR);
 364:.\Generated_Source\PSoC5/QuadDec_M1_Cnt16.c **** 	#else
 365:.\Generated_Source\PSoC5/QuadDec_M1_Cnt16.c **** 		(void)CY_GET_REG8(QuadDec_M1_Cnt16_COUNTER_LSB_PTR_8BIT);
 458              		.loc 1 365 0
 459 0004 044B     		ldr	r3, .L33
 460 0006 1B78     		ldrb	r3, [r3]
 366:.\Generated_Source\PSoC5/QuadDec_M1_Cnt16.c **** 	#endif/* (QuadDec_M1_Cnt16_UsingFixedFunction) */
 367:.\Generated_Source\PSoC5/QuadDec_M1_Cnt16.c ****     
 368:.\Generated_Source\PSoC5/QuadDec_M1_Cnt16.c ****     /* Read the data from the FIFO (or capture register for Fixed Function)*/
 369:.\Generated_Source\PSoC5/QuadDec_M1_Cnt16.c ****     #if(QuadDec_M1_Cnt16_UsingFixedFunction)
 370:.\Generated_Source\PSoC5/QuadDec_M1_Cnt16.c ****         return ((uint16)CY_GET_REG16(QuadDec_M1_Cnt16_STATICCOUNT_LSB_PTR));
 371:.\Generated_Source\PSoC5/QuadDec_M1_Cnt16.c ****     #else
 372:.\Generated_Source\PSoC5/QuadDec_M1_Cnt16.c ****         return (CY_GET_REG16(QuadDec_M1_Cnt16_STATICCOUNT_LSB_PTR));
 461              		.loc 1 372 0
 462 0008 044B     		ldr	r3, .L33+4
 463 000a 1B88     		ldrh	r3, [r3]	@ movhi
 464 000c 9BB2     		uxth	r3, r3
 373:.\Generated_Source\PSoC5/QuadDec_M1_Cnt16.c ****     #endif /* (QuadDec_M1_Cnt16_UsingFixedFunction) */
 374:.\Generated_Source\PSoC5/QuadDec_M1_Cnt16.c **** }
 465              		.loc 1 374 0
 466 000e 1846     		mov	r0, r3
 467 0010 BD46     		mov	sp, r7
 468              		.cfi_def_cfa_register 13
 469              		@ sp needed
 470 0012 5DF8047B 		ldr	r7, [sp], #4
 471              		.cfi_restore 7
 472              		.cfi_def_cfa_offset 0
 473 0016 7047     		bx	lr
 474              	.L34:
 475              		.align	2
 476              	.L33:
 477 0018 06640040 		.word	1073767430
 478 001c 8C680040 		.word	1073768588
 479              		.cfi_endproc
 480              	.LFE9:
 481              		.size	QuadDec_M1_Cnt16_ReadCounter, .-QuadDec_M1_Cnt16_ReadCounter
ARM GAS  C:\Users\claw541\AppData\Local\Temp\cc1P3bPq.s 			page 16


 482              		.section	.text.QuadDec_M1_Cnt16_ReadCapture,"ax",%progbits
 483              		.align	2
 484              		.global	QuadDec_M1_Cnt16_ReadCapture
 485              		.thumb
 486              		.thumb_func
 487              		.type	QuadDec_M1_Cnt16_ReadCapture, %function
 488              	QuadDec_M1_Cnt16_ReadCapture:
 489              	.LFB10:
 375:.\Generated_Source\PSoC5/QuadDec_M1_Cnt16.c **** 
 376:.\Generated_Source\PSoC5/QuadDec_M1_Cnt16.c **** 
 377:.\Generated_Source\PSoC5/QuadDec_M1_Cnt16.c **** /*******************************************************************************
 378:.\Generated_Source\PSoC5/QuadDec_M1_Cnt16.c **** * Function Name: QuadDec_M1_Cnt16_ReadCapture
 379:.\Generated_Source\PSoC5/QuadDec_M1_Cnt16.c **** ********************************************************************************
 380:.\Generated_Source\PSoC5/QuadDec_M1_Cnt16.c **** * Summary:
 381:.\Generated_Source\PSoC5/QuadDec_M1_Cnt16.c **** *   This function returns the last value captured.
 382:.\Generated_Source\PSoC5/QuadDec_M1_Cnt16.c **** *
 383:.\Generated_Source\PSoC5/QuadDec_M1_Cnt16.c **** * Parameters:  
 384:.\Generated_Source\PSoC5/QuadDec_M1_Cnt16.c **** *  void
 385:.\Generated_Source\PSoC5/QuadDec_M1_Cnt16.c **** *
 386:.\Generated_Source\PSoC5/QuadDec_M1_Cnt16.c **** * Return: 
 387:.\Generated_Source\PSoC5/QuadDec_M1_Cnt16.c **** *  (uint16) Present Capture value.
 388:.\Generated_Source\PSoC5/QuadDec_M1_Cnt16.c **** *
 389:.\Generated_Source\PSoC5/QuadDec_M1_Cnt16.c **** *******************************************************************************/
 390:.\Generated_Source\PSoC5/QuadDec_M1_Cnt16.c **** uint16 QuadDec_M1_Cnt16_ReadCapture(void) 
 391:.\Generated_Source\PSoC5/QuadDec_M1_Cnt16.c **** {
 490              		.loc 1 391 0
 491              		.cfi_startproc
 492              		@ args = 0, pretend = 0, frame = 0
 493              		@ frame_needed = 1, uses_anonymous_args = 0
 494              		@ link register save eliminated.
 495 0000 80B4     		push	{r7}
 496              		.cfi_def_cfa_offset 4
 497              		.cfi_offset 7, -4
 498 0002 00AF     		add	r7, sp, #0
 499              		.cfi_def_cfa_register 7
 392:.\Generated_Source\PSoC5/QuadDec_M1_Cnt16.c ****     #if(QuadDec_M1_Cnt16_UsingFixedFunction)
 393:.\Generated_Source\PSoC5/QuadDec_M1_Cnt16.c ****         return ((uint16)CY_GET_REG16(QuadDec_M1_Cnt16_STATICCOUNT_LSB_PTR));
 394:.\Generated_Source\PSoC5/QuadDec_M1_Cnt16.c ****     #else
 395:.\Generated_Source\PSoC5/QuadDec_M1_Cnt16.c ****         return (CY_GET_REG16(QuadDec_M1_Cnt16_STATICCOUNT_LSB_PTR));
 500              		.loc 1 395 0
 501 0004 034B     		ldr	r3, .L37
 502 0006 1B88     		ldrh	r3, [r3]	@ movhi
 503 0008 9BB2     		uxth	r3, r3
 396:.\Generated_Source\PSoC5/QuadDec_M1_Cnt16.c ****     #endif /* (QuadDec_M1_Cnt16_UsingFixedFunction) */
 397:.\Generated_Source\PSoC5/QuadDec_M1_Cnt16.c **** }
 504              		.loc 1 397 0
 505 000a 1846     		mov	r0, r3
 506 000c BD46     		mov	sp, r7
 507              		.cfi_def_cfa_register 13
 508              		@ sp needed
 509 000e 5DF8047B 		ldr	r7, [sp], #4
 510              		.cfi_restore 7
 511              		.cfi_def_cfa_offset 0
 512 0012 7047     		bx	lr
 513              	.L38:
 514              		.align	2
 515              	.L37:
ARM GAS  C:\Users\claw541\AppData\Local\Temp\cc1P3bPq.s 			page 17


 516 0014 8C680040 		.word	1073768588
 517              		.cfi_endproc
 518              	.LFE10:
 519              		.size	QuadDec_M1_Cnt16_ReadCapture, .-QuadDec_M1_Cnt16_ReadCapture
 520              		.section	.text.QuadDec_M1_Cnt16_WritePeriod,"ax",%progbits
 521              		.align	2
 522              		.global	QuadDec_M1_Cnt16_WritePeriod
 523              		.thumb
 524              		.thumb_func
 525              		.type	QuadDec_M1_Cnt16_WritePeriod, %function
 526              	QuadDec_M1_Cnt16_WritePeriod:
 527              	.LFB11:
 398:.\Generated_Source\PSoC5/QuadDec_M1_Cnt16.c **** 
 399:.\Generated_Source\PSoC5/QuadDec_M1_Cnt16.c **** 
 400:.\Generated_Source\PSoC5/QuadDec_M1_Cnt16.c **** /*******************************************************************************
 401:.\Generated_Source\PSoC5/QuadDec_M1_Cnt16.c **** * Function Name: QuadDec_M1_Cnt16_WritePeriod
 402:.\Generated_Source\PSoC5/QuadDec_M1_Cnt16.c **** ********************************************************************************
 403:.\Generated_Source\PSoC5/QuadDec_M1_Cnt16.c **** * Summary:
 404:.\Generated_Source\PSoC5/QuadDec_M1_Cnt16.c **** * Changes the period of the counter.  The new period 
 405:.\Generated_Source\PSoC5/QuadDec_M1_Cnt16.c **** * will be loaded the next time terminal count is detected.
 406:.\Generated_Source\PSoC5/QuadDec_M1_Cnt16.c **** *
 407:.\Generated_Source\PSoC5/QuadDec_M1_Cnt16.c **** * Parameters:  
 408:.\Generated_Source\PSoC5/QuadDec_M1_Cnt16.c **** *  period: (uint16) A value of 0 will result in
 409:.\Generated_Source\PSoC5/QuadDec_M1_Cnt16.c **** *         the counter remaining at zero.  
 410:.\Generated_Source\PSoC5/QuadDec_M1_Cnt16.c **** *
 411:.\Generated_Source\PSoC5/QuadDec_M1_Cnt16.c **** * Return: 
 412:.\Generated_Source\PSoC5/QuadDec_M1_Cnt16.c **** *  void
 413:.\Generated_Source\PSoC5/QuadDec_M1_Cnt16.c **** *
 414:.\Generated_Source\PSoC5/QuadDec_M1_Cnt16.c **** *******************************************************************************/
 415:.\Generated_Source\PSoC5/QuadDec_M1_Cnt16.c **** void QuadDec_M1_Cnt16_WritePeriod(uint16 period) 
 416:.\Generated_Source\PSoC5/QuadDec_M1_Cnt16.c **** {
 528              		.loc 1 416 0
 529              		.cfi_startproc
 530              		@ args = 0, pretend = 0, frame = 8
 531              		@ frame_needed = 1, uses_anonymous_args = 0
 532              		@ link register save eliminated.
 533 0000 80B4     		push	{r7}
 534              		.cfi_def_cfa_offset 4
 535              		.cfi_offset 7, -4
 536 0002 83B0     		sub	sp, sp, #12
 537              		.cfi_def_cfa_offset 16
 538 0004 00AF     		add	r7, sp, #0
 539              		.cfi_def_cfa_register 7
 540 0006 0346     		mov	r3, r0
 541 0008 FB80     		strh	r3, [r7, #6]	@ movhi
 417:.\Generated_Source\PSoC5/QuadDec_M1_Cnt16.c ****     #if(QuadDec_M1_Cnt16_UsingFixedFunction)
 418:.\Generated_Source\PSoC5/QuadDec_M1_Cnt16.c ****         CY_SET_REG16(QuadDec_M1_Cnt16_PERIOD_LSB_PTR,(uint16)period);
 419:.\Generated_Source\PSoC5/QuadDec_M1_Cnt16.c ****     #else
 420:.\Generated_Source\PSoC5/QuadDec_M1_Cnt16.c ****         CY_SET_REG16(QuadDec_M1_Cnt16_PERIOD_LSB_PTR, period);
 542              		.loc 1 420 0
 543 000a 044A     		ldr	r2, .L40
 544 000c FB88     		ldrh	r3, [r7, #6]	@ movhi
 545 000e 1380     		strh	r3, [r2]	@ movhi
 421:.\Generated_Source\PSoC5/QuadDec_M1_Cnt16.c ****     #endif /* (QuadDec_M1_Cnt16_UsingFixedFunction) */
 422:.\Generated_Source\PSoC5/QuadDec_M1_Cnt16.c **** }
 546              		.loc 1 422 0
 547 0010 0C37     		adds	r7, r7, #12
ARM GAS  C:\Users\claw541\AppData\Local\Temp\cc1P3bPq.s 			page 18


 548              		.cfi_def_cfa_offset 4
 549 0012 BD46     		mov	sp, r7
 550              		.cfi_def_cfa_register 13
 551              		@ sp needed
 552 0014 5DF8047B 		ldr	r7, [sp], #4
 553              		.cfi_restore 7
 554              		.cfi_def_cfa_offset 0
 555 0018 7047     		bx	lr
 556              	.L41:
 557 001a 00BF     		.align	2
 558              	.L40:
 559 001c 4C680040 		.word	1073768524
 560              		.cfi_endproc
 561              	.LFE11:
 562              		.size	QuadDec_M1_Cnt16_WritePeriod, .-QuadDec_M1_Cnt16_WritePeriod
 563              		.section	.text.QuadDec_M1_Cnt16_ReadPeriod,"ax",%progbits
 564              		.align	2
 565              		.global	QuadDec_M1_Cnt16_ReadPeriod
 566              		.thumb
 567              		.thumb_func
 568              		.type	QuadDec_M1_Cnt16_ReadPeriod, %function
 569              	QuadDec_M1_Cnt16_ReadPeriod:
 570              	.LFB12:
 423:.\Generated_Source\PSoC5/QuadDec_M1_Cnt16.c **** 
 424:.\Generated_Source\PSoC5/QuadDec_M1_Cnt16.c **** 
 425:.\Generated_Source\PSoC5/QuadDec_M1_Cnt16.c **** /*******************************************************************************
 426:.\Generated_Source\PSoC5/QuadDec_M1_Cnt16.c **** * Function Name: QuadDec_M1_Cnt16_ReadPeriod
 427:.\Generated_Source\PSoC5/QuadDec_M1_Cnt16.c **** ********************************************************************************
 428:.\Generated_Source\PSoC5/QuadDec_M1_Cnt16.c **** * Summary:
 429:.\Generated_Source\PSoC5/QuadDec_M1_Cnt16.c **** * Reads the current period value without affecting counter operation.
 430:.\Generated_Source\PSoC5/QuadDec_M1_Cnt16.c **** *
 431:.\Generated_Source\PSoC5/QuadDec_M1_Cnt16.c **** * Parameters:  
 432:.\Generated_Source\PSoC5/QuadDec_M1_Cnt16.c **** *  void:  
 433:.\Generated_Source\PSoC5/QuadDec_M1_Cnt16.c **** *
 434:.\Generated_Source\PSoC5/QuadDec_M1_Cnt16.c **** * Return: 
 435:.\Generated_Source\PSoC5/QuadDec_M1_Cnt16.c **** *  (uint16) Present period value.
 436:.\Generated_Source\PSoC5/QuadDec_M1_Cnt16.c **** *
 437:.\Generated_Source\PSoC5/QuadDec_M1_Cnt16.c **** *******************************************************************************/
 438:.\Generated_Source\PSoC5/QuadDec_M1_Cnt16.c **** uint16 QuadDec_M1_Cnt16_ReadPeriod(void) 
 439:.\Generated_Source\PSoC5/QuadDec_M1_Cnt16.c **** {
 571              		.loc 1 439 0
 572              		.cfi_startproc
 573              		@ args = 0, pretend = 0, frame = 0
 574              		@ frame_needed = 1, uses_anonymous_args = 0
 575              		@ link register save eliminated.
 576 0000 80B4     		push	{r7}
 577              		.cfi_def_cfa_offset 4
 578              		.cfi_offset 7, -4
 579 0002 00AF     		add	r7, sp, #0
 580              		.cfi_def_cfa_register 7
 440:.\Generated_Source\PSoC5/QuadDec_M1_Cnt16.c ****     #if(QuadDec_M1_Cnt16_UsingFixedFunction)
 441:.\Generated_Source\PSoC5/QuadDec_M1_Cnt16.c ****         return ((uint16)CY_GET_REG16(QuadDec_M1_Cnt16_PERIOD_LSB_PTR));
 442:.\Generated_Source\PSoC5/QuadDec_M1_Cnt16.c ****     #else
 443:.\Generated_Source\PSoC5/QuadDec_M1_Cnt16.c ****         return (CY_GET_REG16(QuadDec_M1_Cnt16_PERIOD_LSB_PTR));
 581              		.loc 1 443 0
 582 0004 034B     		ldr	r3, .L44
 583 0006 1B88     		ldrh	r3, [r3]	@ movhi
ARM GAS  C:\Users\claw541\AppData\Local\Temp\cc1P3bPq.s 			page 19


 584 0008 9BB2     		uxth	r3, r3
 444:.\Generated_Source\PSoC5/QuadDec_M1_Cnt16.c ****     #endif /* (QuadDec_M1_Cnt16_UsingFixedFunction) */
 445:.\Generated_Source\PSoC5/QuadDec_M1_Cnt16.c **** }
 585              		.loc 1 445 0
 586 000a 1846     		mov	r0, r3
 587 000c BD46     		mov	sp, r7
 588              		.cfi_def_cfa_register 13
 589              		@ sp needed
 590 000e 5DF8047B 		ldr	r7, [sp], #4
 591              		.cfi_restore 7
 592              		.cfi_def_cfa_offset 0
 593 0012 7047     		bx	lr
 594              	.L45:
 595              		.align	2
 596              	.L44:
 597 0014 4C680040 		.word	1073768524
 598              		.cfi_endproc
 599              	.LFE12:
 600              		.size	QuadDec_M1_Cnt16_ReadPeriod, .-QuadDec_M1_Cnt16_ReadPeriod
 601              		.section	.text.QuadDec_M1_Cnt16_WriteCompare,"ax",%progbits
 602              		.align	2
 603              		.global	QuadDec_M1_Cnt16_WriteCompare
 604              		.thumb
 605              		.thumb_func
 606              		.type	QuadDec_M1_Cnt16_WriteCompare, %function
 607              	QuadDec_M1_Cnt16_WriteCompare:
 608              	.LFB13:
 446:.\Generated_Source\PSoC5/QuadDec_M1_Cnt16.c **** 
 447:.\Generated_Source\PSoC5/QuadDec_M1_Cnt16.c **** 
 448:.\Generated_Source\PSoC5/QuadDec_M1_Cnt16.c **** #if (!QuadDec_M1_Cnt16_UsingFixedFunction)
 449:.\Generated_Source\PSoC5/QuadDec_M1_Cnt16.c **** /*******************************************************************************
 450:.\Generated_Source\PSoC5/QuadDec_M1_Cnt16.c **** * Function Name: QuadDec_M1_Cnt16_WriteCompare
 451:.\Generated_Source\PSoC5/QuadDec_M1_Cnt16.c **** ********************************************************************************
 452:.\Generated_Source\PSoC5/QuadDec_M1_Cnt16.c **** * Summary:
 453:.\Generated_Source\PSoC5/QuadDec_M1_Cnt16.c **** * Changes the compare value.  The compare output will 
 454:.\Generated_Source\PSoC5/QuadDec_M1_Cnt16.c **** * reflect the new value on the next UDB clock.  The compare output will be 
 455:.\Generated_Source\PSoC5/QuadDec_M1_Cnt16.c **** * driven high when the present counter value compares true based on the 
 456:.\Generated_Source\PSoC5/QuadDec_M1_Cnt16.c **** * configured compare mode setting. 
 457:.\Generated_Source\PSoC5/QuadDec_M1_Cnt16.c **** *
 458:.\Generated_Source\PSoC5/QuadDec_M1_Cnt16.c **** * Parameters:  
 459:.\Generated_Source\PSoC5/QuadDec_M1_Cnt16.c **** *  Compare:  New compare value. 
 460:.\Generated_Source\PSoC5/QuadDec_M1_Cnt16.c **** *
 461:.\Generated_Source\PSoC5/QuadDec_M1_Cnt16.c **** * Return: 
 462:.\Generated_Source\PSoC5/QuadDec_M1_Cnt16.c **** *  void
 463:.\Generated_Source\PSoC5/QuadDec_M1_Cnt16.c **** *
 464:.\Generated_Source\PSoC5/QuadDec_M1_Cnt16.c **** *******************************************************************************/
 465:.\Generated_Source\PSoC5/QuadDec_M1_Cnt16.c **** void QuadDec_M1_Cnt16_WriteCompare(uint16 compare) \
 466:.\Generated_Source\PSoC5/QuadDec_M1_Cnt16.c ****                                    
 467:.\Generated_Source\PSoC5/QuadDec_M1_Cnt16.c **** {
 609              		.loc 1 467 0
 610              		.cfi_startproc
 611              		@ args = 0, pretend = 0, frame = 8
 612              		@ frame_needed = 1, uses_anonymous_args = 0
 613              		@ link register save eliminated.
 614 0000 80B4     		push	{r7}
 615              		.cfi_def_cfa_offset 4
 616              		.cfi_offset 7, -4
ARM GAS  C:\Users\claw541\AppData\Local\Temp\cc1P3bPq.s 			page 20


 617 0002 83B0     		sub	sp, sp, #12
 618              		.cfi_def_cfa_offset 16
 619 0004 00AF     		add	r7, sp, #0
 620              		.cfi_def_cfa_register 7
 621 0006 0346     		mov	r3, r0
 622 0008 FB80     		strh	r3, [r7, #6]	@ movhi
 468:.\Generated_Source\PSoC5/QuadDec_M1_Cnt16.c ****     #if(QuadDec_M1_Cnt16_UsingFixedFunction)
 469:.\Generated_Source\PSoC5/QuadDec_M1_Cnt16.c ****         CY_SET_REG16(QuadDec_M1_Cnt16_COMPARE_LSB_PTR, (uint16)compare);
 470:.\Generated_Source\PSoC5/QuadDec_M1_Cnt16.c ****     #else
 471:.\Generated_Source\PSoC5/QuadDec_M1_Cnt16.c ****         CY_SET_REG16(QuadDec_M1_Cnt16_COMPARE_LSB_PTR, compare);
 623              		.loc 1 471 0
 624 000a 044A     		ldr	r2, .L47
 625 000c FB88     		ldrh	r3, [r7, #6]	@ movhi
 626 000e 1380     		strh	r3, [r2]	@ movhi
 472:.\Generated_Source\PSoC5/QuadDec_M1_Cnt16.c ****     #endif /* (QuadDec_M1_Cnt16_UsingFixedFunction) */
 473:.\Generated_Source\PSoC5/QuadDec_M1_Cnt16.c **** }
 627              		.loc 1 473 0
 628 0010 0C37     		adds	r7, r7, #12
 629              		.cfi_def_cfa_offset 4
 630 0012 BD46     		mov	sp, r7
 631              		.cfi_def_cfa_register 13
 632              		@ sp needed
 633 0014 5DF8047B 		ldr	r7, [sp], #4
 634              		.cfi_restore 7
 635              		.cfi_def_cfa_offset 0
 636 0018 7047     		bx	lr
 637              	.L48:
 638 001a 00BF     		.align	2
 639              	.L47:
 640 001c 6C680040 		.word	1073768556
 641              		.cfi_endproc
 642              	.LFE13:
 643              		.size	QuadDec_M1_Cnt16_WriteCompare, .-QuadDec_M1_Cnt16_WriteCompare
 644              		.section	.text.QuadDec_M1_Cnt16_ReadCompare,"ax",%progbits
 645              		.align	2
 646              		.global	QuadDec_M1_Cnt16_ReadCompare
 647              		.thumb
 648              		.thumb_func
 649              		.type	QuadDec_M1_Cnt16_ReadCompare, %function
 650              	QuadDec_M1_Cnt16_ReadCompare:
 651              	.LFB14:
 474:.\Generated_Source\PSoC5/QuadDec_M1_Cnt16.c **** 
 475:.\Generated_Source\PSoC5/QuadDec_M1_Cnt16.c **** 
 476:.\Generated_Source\PSoC5/QuadDec_M1_Cnt16.c **** /*******************************************************************************
 477:.\Generated_Source\PSoC5/QuadDec_M1_Cnt16.c **** * Function Name: QuadDec_M1_Cnt16_ReadCompare
 478:.\Generated_Source\PSoC5/QuadDec_M1_Cnt16.c **** ********************************************************************************
 479:.\Generated_Source\PSoC5/QuadDec_M1_Cnt16.c **** * Summary:
 480:.\Generated_Source\PSoC5/QuadDec_M1_Cnt16.c **** * Returns the compare value.
 481:.\Generated_Source\PSoC5/QuadDec_M1_Cnt16.c **** *
 482:.\Generated_Source\PSoC5/QuadDec_M1_Cnt16.c **** * Parameters:  
 483:.\Generated_Source\PSoC5/QuadDec_M1_Cnt16.c **** *  void:
 484:.\Generated_Source\PSoC5/QuadDec_M1_Cnt16.c **** *
 485:.\Generated_Source\PSoC5/QuadDec_M1_Cnt16.c **** * Return: 
 486:.\Generated_Source\PSoC5/QuadDec_M1_Cnt16.c **** *  (uint16) Present compare value.
 487:.\Generated_Source\PSoC5/QuadDec_M1_Cnt16.c **** *
 488:.\Generated_Source\PSoC5/QuadDec_M1_Cnt16.c **** *******************************************************************************/
 489:.\Generated_Source\PSoC5/QuadDec_M1_Cnt16.c **** uint16 QuadDec_M1_Cnt16_ReadCompare(void) 
ARM GAS  C:\Users\claw541\AppData\Local\Temp\cc1P3bPq.s 			page 21


 490:.\Generated_Source\PSoC5/QuadDec_M1_Cnt16.c **** {
 652              		.loc 1 490 0
 653              		.cfi_startproc
 654              		@ args = 0, pretend = 0, frame = 0
 655              		@ frame_needed = 1, uses_anonymous_args = 0
 656              		@ link register save eliminated.
 657 0000 80B4     		push	{r7}
 658              		.cfi_def_cfa_offset 4
 659              		.cfi_offset 7, -4
 660 0002 00AF     		add	r7, sp, #0
 661              		.cfi_def_cfa_register 7
 491:.\Generated_Source\PSoC5/QuadDec_M1_Cnt16.c ****     return (CY_GET_REG16(QuadDec_M1_Cnt16_COMPARE_LSB_PTR));
 662              		.loc 1 491 0
 663 0004 034B     		ldr	r3, .L51
 664 0006 1B88     		ldrh	r3, [r3]	@ movhi
 665 0008 9BB2     		uxth	r3, r3
 492:.\Generated_Source\PSoC5/QuadDec_M1_Cnt16.c **** }
 666              		.loc 1 492 0
 667 000a 1846     		mov	r0, r3
 668 000c BD46     		mov	sp, r7
 669              		.cfi_def_cfa_register 13
 670              		@ sp needed
 671 000e 5DF8047B 		ldr	r7, [sp], #4
 672              		.cfi_restore 7
 673              		.cfi_def_cfa_offset 0
 674 0012 7047     		bx	lr
 675              	.L52:
 676              		.align	2
 677              	.L51:
 678 0014 6C680040 		.word	1073768556
 679              		.cfi_endproc
 680              	.LFE14:
 681              		.size	QuadDec_M1_Cnt16_ReadCompare, .-QuadDec_M1_Cnt16_ReadCompare
 682              		.section	.text.QuadDec_M1_Cnt16_ClearFIFO,"ax",%progbits
 683              		.align	2
 684              		.global	QuadDec_M1_Cnt16_ClearFIFO
 685              		.thumb
 686              		.thumb_func
 687              		.type	QuadDec_M1_Cnt16_ClearFIFO, %function
 688              	QuadDec_M1_Cnt16_ClearFIFO:
 689              	.LFB15:
 493:.\Generated_Source\PSoC5/QuadDec_M1_Cnt16.c **** 
 494:.\Generated_Source\PSoC5/QuadDec_M1_Cnt16.c **** 
 495:.\Generated_Source\PSoC5/QuadDec_M1_Cnt16.c **** #if (QuadDec_M1_Cnt16_COMPARE_MODE_SOFTWARE)
 496:.\Generated_Source\PSoC5/QuadDec_M1_Cnt16.c **** /*******************************************************************************
 497:.\Generated_Source\PSoC5/QuadDec_M1_Cnt16.c **** * Function Name: QuadDec_M1_Cnt16_SetCompareMode
 498:.\Generated_Source\PSoC5/QuadDec_M1_Cnt16.c **** ********************************************************************************
 499:.\Generated_Source\PSoC5/QuadDec_M1_Cnt16.c **** * Summary:
 500:.\Generated_Source\PSoC5/QuadDec_M1_Cnt16.c **** *  Sets the software controlled Compare Mode.
 501:.\Generated_Source\PSoC5/QuadDec_M1_Cnt16.c **** *
 502:.\Generated_Source\PSoC5/QuadDec_M1_Cnt16.c **** * Parameters:
 503:.\Generated_Source\PSoC5/QuadDec_M1_Cnt16.c **** *  compareMode:  Compare Mode Enumerated Type.
 504:.\Generated_Source\PSoC5/QuadDec_M1_Cnt16.c **** *
 505:.\Generated_Source\PSoC5/QuadDec_M1_Cnt16.c **** * Return:
 506:.\Generated_Source\PSoC5/QuadDec_M1_Cnt16.c **** *  void
 507:.\Generated_Source\PSoC5/QuadDec_M1_Cnt16.c **** *
 508:.\Generated_Source\PSoC5/QuadDec_M1_Cnt16.c **** *******************************************************************************/
ARM GAS  C:\Users\claw541\AppData\Local\Temp\cc1P3bPq.s 			page 22


 509:.\Generated_Source\PSoC5/QuadDec_M1_Cnt16.c **** void QuadDec_M1_Cnt16_SetCompareMode(uint8 compareMode) 
 510:.\Generated_Source\PSoC5/QuadDec_M1_Cnt16.c **** {
 511:.\Generated_Source\PSoC5/QuadDec_M1_Cnt16.c ****     /* Clear the compare mode bits in the control register */
 512:.\Generated_Source\PSoC5/QuadDec_M1_Cnt16.c ****     QuadDec_M1_Cnt16_CONTROL &= ((uint8)(~QuadDec_M1_Cnt16_CTRL_CMPMODE_MASK));
 513:.\Generated_Source\PSoC5/QuadDec_M1_Cnt16.c ****     
 514:.\Generated_Source\PSoC5/QuadDec_M1_Cnt16.c ****     /* Write the new setting */
 515:.\Generated_Source\PSoC5/QuadDec_M1_Cnt16.c ****     QuadDec_M1_Cnt16_CONTROL |= compareMode;
 516:.\Generated_Source\PSoC5/QuadDec_M1_Cnt16.c **** }
 517:.\Generated_Source\PSoC5/QuadDec_M1_Cnt16.c **** #endif  /* (QuadDec_M1_Cnt16_COMPARE_MODE_SOFTWARE) */
 518:.\Generated_Source\PSoC5/QuadDec_M1_Cnt16.c **** 
 519:.\Generated_Source\PSoC5/QuadDec_M1_Cnt16.c **** 
 520:.\Generated_Source\PSoC5/QuadDec_M1_Cnt16.c **** #if (QuadDec_M1_Cnt16_CAPTURE_MODE_SOFTWARE)
 521:.\Generated_Source\PSoC5/QuadDec_M1_Cnt16.c **** /*******************************************************************************
 522:.\Generated_Source\PSoC5/QuadDec_M1_Cnt16.c **** * Function Name: QuadDec_M1_Cnt16_SetCaptureMode
 523:.\Generated_Source\PSoC5/QuadDec_M1_Cnt16.c **** ********************************************************************************
 524:.\Generated_Source\PSoC5/QuadDec_M1_Cnt16.c **** * Summary:
 525:.\Generated_Source\PSoC5/QuadDec_M1_Cnt16.c **** *  Sets the software controlled Capture Mode.
 526:.\Generated_Source\PSoC5/QuadDec_M1_Cnt16.c **** *
 527:.\Generated_Source\PSoC5/QuadDec_M1_Cnt16.c **** * Parameters:
 528:.\Generated_Source\PSoC5/QuadDec_M1_Cnt16.c **** *  captureMode:  Capture Mode Enumerated Type.
 529:.\Generated_Source\PSoC5/QuadDec_M1_Cnt16.c **** *
 530:.\Generated_Source\PSoC5/QuadDec_M1_Cnt16.c **** * Return:
 531:.\Generated_Source\PSoC5/QuadDec_M1_Cnt16.c **** *  void
 532:.\Generated_Source\PSoC5/QuadDec_M1_Cnt16.c **** *
 533:.\Generated_Source\PSoC5/QuadDec_M1_Cnt16.c **** *******************************************************************************/
 534:.\Generated_Source\PSoC5/QuadDec_M1_Cnt16.c **** void QuadDec_M1_Cnt16_SetCaptureMode(uint8 captureMode) 
 535:.\Generated_Source\PSoC5/QuadDec_M1_Cnt16.c **** {
 536:.\Generated_Source\PSoC5/QuadDec_M1_Cnt16.c ****     /* Clear the capture mode bits in the control register */
 537:.\Generated_Source\PSoC5/QuadDec_M1_Cnt16.c ****     QuadDec_M1_Cnt16_CONTROL &= ((uint8)(~QuadDec_M1_Cnt16_CTRL_CAPMODE_MASK));
 538:.\Generated_Source\PSoC5/QuadDec_M1_Cnt16.c ****     
 539:.\Generated_Source\PSoC5/QuadDec_M1_Cnt16.c ****     /* Write the new setting */
 540:.\Generated_Source\PSoC5/QuadDec_M1_Cnt16.c ****     QuadDec_M1_Cnt16_CONTROL |= ((uint8)((uint8)captureMode << QuadDec_M1_Cnt16_CTRL_CAPMODE0_SHIFT
 541:.\Generated_Source\PSoC5/QuadDec_M1_Cnt16.c **** }
 542:.\Generated_Source\PSoC5/QuadDec_M1_Cnt16.c **** #endif  /* (QuadDec_M1_Cnt16_CAPTURE_MODE_SOFTWARE) */
 543:.\Generated_Source\PSoC5/QuadDec_M1_Cnt16.c **** 
 544:.\Generated_Source\PSoC5/QuadDec_M1_Cnt16.c **** 
 545:.\Generated_Source\PSoC5/QuadDec_M1_Cnt16.c **** /*******************************************************************************
 546:.\Generated_Source\PSoC5/QuadDec_M1_Cnt16.c **** * Function Name: QuadDec_M1_Cnt16_ClearFIFO
 547:.\Generated_Source\PSoC5/QuadDec_M1_Cnt16.c **** ********************************************************************************
 548:.\Generated_Source\PSoC5/QuadDec_M1_Cnt16.c **** * Summary:
 549:.\Generated_Source\PSoC5/QuadDec_M1_Cnt16.c **** *   This function clears all capture data from the capture FIFO
 550:.\Generated_Source\PSoC5/QuadDec_M1_Cnt16.c **** *
 551:.\Generated_Source\PSoC5/QuadDec_M1_Cnt16.c **** * Parameters:  
 552:.\Generated_Source\PSoC5/QuadDec_M1_Cnt16.c **** *  void:
 553:.\Generated_Source\PSoC5/QuadDec_M1_Cnt16.c **** *
 554:.\Generated_Source\PSoC5/QuadDec_M1_Cnt16.c **** * Return: 
 555:.\Generated_Source\PSoC5/QuadDec_M1_Cnt16.c **** *  None
 556:.\Generated_Source\PSoC5/QuadDec_M1_Cnt16.c **** *
 557:.\Generated_Source\PSoC5/QuadDec_M1_Cnt16.c **** *******************************************************************************/
 558:.\Generated_Source\PSoC5/QuadDec_M1_Cnt16.c **** void QuadDec_M1_Cnt16_ClearFIFO(void) 
 559:.\Generated_Source\PSoC5/QuadDec_M1_Cnt16.c **** {
 690              		.loc 1 559 0
 691              		.cfi_startproc
 692              		@ args = 0, pretend = 0, frame = 0
 693              		@ frame_needed = 1, uses_anonymous_args = 0
 694 0000 80B5     		push	{r7, lr}
 695              		.cfi_def_cfa_offset 8
ARM GAS  C:\Users\claw541\AppData\Local\Temp\cc1P3bPq.s 			page 23


 696              		.cfi_offset 7, -8
 697              		.cfi_offset 14, -4
 698 0002 00AF     		add	r7, sp, #0
 699              		.cfi_def_cfa_register 7
 560:.\Generated_Source\PSoC5/QuadDec_M1_Cnt16.c **** 
 561:.\Generated_Source\PSoC5/QuadDec_M1_Cnt16.c ****     while(0u != (QuadDec_M1_Cnt16_ReadStatusRegister() & QuadDec_M1_Cnt16_STATUS_FIFONEMP))
 700              		.loc 1 561 0
 701 0004 01E0     		b	.L54
 702              	.L55:
 562:.\Generated_Source\PSoC5/QuadDec_M1_Cnt16.c ****     {
 563:.\Generated_Source\PSoC5/QuadDec_M1_Cnt16.c ****         (void)QuadDec_M1_Cnt16_ReadCapture();
 703              		.loc 1 563 0
 704 0006 FFF7FEFF 		bl	QuadDec_M1_Cnt16_ReadCapture
 705              	.L54:
 561:.\Generated_Source\PSoC5/QuadDec_M1_Cnt16.c ****     {
 706              		.loc 1 561 0
 707 000a FFF7FEFF 		bl	QuadDec_M1_Cnt16_ReadStatusRegister
 708 000e 0346     		mov	r3, r0
 709 0010 03F04003 		and	r3, r3, #64
 710 0014 002B     		cmp	r3, #0
 711 0016 F6D1     		bne	.L55
 564:.\Generated_Source\PSoC5/QuadDec_M1_Cnt16.c ****     }
 565:.\Generated_Source\PSoC5/QuadDec_M1_Cnt16.c **** 
 566:.\Generated_Source\PSoC5/QuadDec_M1_Cnt16.c **** }
 712              		.loc 1 566 0
 713 0018 80BD     		pop	{r7, pc}
 714              		.cfi_endproc
 715              	.LFE15:
 716              		.size	QuadDec_M1_Cnt16_ClearFIFO, .-QuadDec_M1_Cnt16_ClearFIFO
 717 001a 00BF     		.text
 718              	.Letext0:
 719              		.file 2 ".\\Generated_Source\\PSoC5\\cytypes.h"
